{
  "contractName": "TNS",
  "abi": [
    {
      "inputs": [],
      "payable": false,
      "stateMutability": "nonpayable",
      "type": "constructor"
    },
    {
      "constant": false,
      "inputs": [
        {
          "name": "aliasName",
          "type": "bytes32"
        },
        {
          "name": "encryptedAlias",
          "type": "bytes32"
        },
        {
          "name": "tagName",
          "type": "bytes32"
        },
        {
          "name": "encryptedTag",
          "type": "bytes32"
        },
        {
          "name": "pubAddress",
          "type": "bytes32"
        }
      ],
      "name": "setAlias",
      "outputs": [],
      "payable": false,
      "stateMutability": "nonpayable",
      "type": "function"
    },
    {
      "constant": false,
      "inputs": [
        {
          "name": "aliasName",
          "type": "bytes32"
        },
        {
          "name": "encryptedAlias",
          "type": "bytes32"
        },
        {
          "name": "tagName",
          "type": "bytes32"
        },
        {
          "name": "encryptedTag",
          "type": "bytes32"
        },
        {
          "name": "genAddressList",
          "type": "bytes32[]"
        }
      ],
      "name": "setAlias",
      "outputs": [],
      "payable": false,
      "stateMutability": "nonpayable",
      "type": "function"
    },
    {
      "constant": false,
      "inputs": [
        {
          "name": "aliasName",
          "type": "bytes32"
        },
        {
          "name": "tagName",
          "type": "bytes32"
        }
      ],
      "name": "deleteAliasTag",
      "outputs": [],
      "payable": false,
      "stateMutability": "nonpayable",
      "type": "function"
    },
    {
      "constant": false,
      "inputs": [
        {
          "name": "aliasName",
          "type": "bytes32"
        },
        {
          "name": "oldEncryptedAlias",
          "type": "bytes32"
        },
        {
          "name": "newAliasName",
          "type": "bytes32"
        },
        {
          "name": "newEncryptedAlias",
          "type": "bytes32"
        }
      ],
      "name": "updateAlias",
      "outputs": [],
      "payable": false,
      "stateMutability": "nonpayable",
      "type": "function"
    },
    {
      "constant": false,
      "inputs": [
        {
          "name": "aliasName",
          "type": "bytes32"
        },
        {
          "name": "tagName",
          "type": "bytes32"
        },
        {
          "name": "newPubAddress",
          "type": "bytes32"
        }
      ],
      "name": "updatePubAddressForTag",
      "outputs": [],
      "payable": false,
      "stateMutability": "nonpayable",
      "type": "function"
    },
    {
      "constant": false,
      "inputs": [
        {
          "name": "aliasName",
          "type": "bytes32"
        },
        {
          "name": "tagName",
          "type": "bytes32"
        },
        {
          "name": "genFlag",
          "type": "bool"
        }
      ],
      "name": "updateGenAddressFlag",
      "outputs": [],
      "payable": false,
      "stateMutability": "nonpayable",
      "type": "function"
    },
    {
      "constant": false,
      "inputs": [
        {
          "name": "aliasName",
          "type": "bytes32"
        },
        {
          "name": "tagName",
          "type": "bytes32"
        },
        {
          "name": "addressList",
          "type": "bytes32[]"
        }
      ],
      "name": "updateGenAddressListReplace",
      "outputs": [],
      "payable": false,
      "stateMutability": "nonpayable",
      "type": "function"
    },
    {
      "constant": false,
      "inputs": [
        {
          "name": "aliasName",
          "type": "bytes32"
        },
        {
          "name": "tagName",
          "type": "bytes32"
        },
        {
          "name": "newAddress",
          "type": "bytes32"
        }
      ],
      "name": "updateGenAddressListAppend",
      "outputs": [],
      "payable": false,
      "stateMutability": "nonpayable",
      "type": "function"
    },
    {
      "constant": false,
      "inputs": [
        {
          "name": "aliasName",
          "type": "bytes32"
        },
        {
          "name": "tagName",
          "type": "bytes32"
        },
        {
          "name": "idxToRemove",
          "type": "uint256"
        }
      ],
      "name": "updateGenAddressListDelete",
      "outputs": [],
      "payable": false,
      "stateMutability": "nonpayable",
      "type": "function"
    },
    {
      "constant": true,
      "inputs": [
        {
          "name": "aliasName",
          "type": "bytes32"
        },
        {
          "name": "tagName",
          "type": "bytes32"
        }
      ],
      "name": "getGenAddressList",
      "outputs": [
        {
          "name": "",
          "type": "bytes32[]"
        }
      ],
      "payable": false,
      "stateMutability": "view",
      "type": "function"
    },
    {
      "constant": true,
      "inputs": [
        {
          "name": "aliasName",
          "type": "bytes32"
        },
        {
          "name": "tagName",
          "type": "bytes32"
        }
      ],
      "name": "getPubAddressForTag",
      "outputs": [
        {
          "name": "",
          "type": "bytes32"
        }
      ],
      "payable": false,
      "stateMutability": "view",
      "type": "function"
    },
    {
      "constant": true,
      "inputs": [
        {
          "name": "aliasName",
          "type": "bytes32"
        },
        {
          "name": "tagName",
          "type": "bytes32"
        },
        {
          "name": "idx",
          "type": "uint256"
        }
      ],
      "name": "getGenAddressForTag",
      "outputs": [
        {
          "name": "",
          "type": "bytes32"
        }
      ],
      "payable": false,
      "stateMutability": "view",
      "type": "function"
    },
    {
      "constant": true,
      "inputs": [
        {
          "name": "aliasName",
          "type": "bytes32"
        },
        {
          "name": "tagName",
          "type": "bytes32"
        }
      ],
      "name": "getGenAddressFlag",
      "outputs": [
        {
          "name": "",
          "type": "bool"
        }
      ],
      "payable": false,
      "stateMutability": "view",
      "type": "function"
    },
    {
      "constant": true,
      "inputs": [
        {
          "name": "aliasName",
          "type": "bytes32"
        }
      ],
      "name": "isAliasAvailable",
      "outputs": [
        {
          "name": "",
          "type": "bool"
        }
      ],
      "payable": false,
      "stateMutability": "view",
      "type": "function"
    },
    {
      "constant": true,
      "inputs": [
        {
          "name": "aliasName",
          "type": "bytes32"
        },
        {
          "name": "tagName",
          "type": "bytes32"
        }
      ],
      "name": "isTagAvailable",
      "outputs": [
        {
          "name": "",
          "type": "bool"
        }
      ],
      "payable": false,
      "stateMutability": "view",
      "type": "function"
    },
    {
      "constant": true,
      "inputs": [
        {
          "name": "aliasName",
          "type": "bytes32"
        }
      ],
      "name": "getAllTagsForAlias",
      "outputs": [
        {
          "name": "",
          "type": "bytes32[]"
        }
      ],
      "payable": false,
      "stateMutability": "view",
      "type": "function"
    },
    {
      "constant": true,
      "inputs": [],
      "name": "getAliasesForOwner",
      "outputs": [
        {
          "name": "",
          "type": "bytes32[]"
        }
      ],
      "payable": false,
      "stateMutability": "view",
      "type": "function"
    },
    {
      "constant": true,
      "inputs": [
        {
          "name": "aliasName",
          "type": "bytes32"
        }
      ],
      "name": "getEncryptedAliasForKeccak",
      "outputs": [
        {
          "name": "",
          "type": "bytes32"
        }
      ],
      "payable": false,
      "stateMutability": "view",
      "type": "function"
    },
    {
      "constant": true,
      "inputs": [
        {
          "name": "aliasName",
          "type": "bytes32"
        },
        {
          "name": "tagName",
          "type": "bytes32"
        }
      ],
      "name": "getTagDataForTag",
      "outputs": [
        {
          "name": "",
          "type": "bool"
        },
        {
          "name": "",
          "type": "bytes32[]"
        },
        {
          "name": "",
          "type": "bytes32"
        }
      ],
      "payable": false,
      "stateMutability": "view",
      "type": "function"
    }
  ],
  "bytecode": "0x60806040527fcfee7c08a98f4b565d124c7e4e28acc52e1bc780e3887db0a02a7d2d5bc667286001026003906000191690553480156200003e57600080fd5b5062000049620000ad565b604051809103906000f08015801562000066573d6000803e3d6000fd5b50600260006101000a81548173ffffffffffffffffffffffffffffffffffffffff021916908373ffffffffffffffffffffffffffffffffffffffff160217905550620000be565b604051610426806200406a83390190565b613f9c80620000ce6000396000f300608060405260043610610107576000357c0100000000000000000000000000000000000000000000000000000000900463ffffffff1680630848eeba1461010c5780631007e6ba14610155578063336c4170146101d757806336ae18b61461021657806350d40f671461026d578063521a5a75146102d657806364e58d8c1461035c578063673b26b5146103c857806372fac34e146104115780637b8b2cc81461046c578063b6f3076c146104b9578063b832ca8914610504578063bd3cc96714610598578063bdcf8efa14610646578063d6fea9ac1461069d578063e11543bd146106ea578063e14477c11461074f578063ea516804146107aa578063fb24656214610848575b600080fd5b34801561011857600080fd5b5061013b6004803603810190808035600019169060200190929190505050610895565b604051808215151515815260200191505060405180910390f35b34801561016157600080fd5b506101d560048036038101908080356000191690602001909291908035600019169060200190929190803590602001908201803590602001908080602002602001604051908101604052809392919081815260200183836020028082843782019150505050505091929192905050506108e0565b005b3480156101e357600080fd5b5061021460048036038101908080356000191690602001909291908035600019169060200190929190505050610cd3565b005b34801561022257600080fd5b506102536004803603810190808035600019169060200190929190803560001916906020019092919050505061124c565b604051808215151515815260200191505060405180910390f35b34801561027957600080fd5b506102d460048036038101908080356000191690602001909291908035600019169060200190929190803560001916906020019092919080356000191690602001909291908035600019169060200190929190505050611336565b005b3480156102e257600080fd5b5061030560048036038101908080356000191690602001909291905050506117cc565b6040518080602001828103825283818151815260200191508051906020019060200280838360005b8381101561034857808201518184015260208101905061032d565b505050509050019250505060405180910390f35b34801561036857600080fd5b50610371611845565b6040518080602001828103825283818151815260200191508051906020019060200280838360005b838110156103b4578082015181840152602081019050610399565b505050509050019250505060405180910390f35b3480156103d457600080fd5b5061040f600480360381019080803560001916906020019092919080356000191690602001909291908035906020019092919050505061199a565b005b34801561041d57600080fd5b5061044e60048036038101908080356000191690602001909291908035600019169060200190929190505050611d4c565b60405180826000191660001916815260200191505060405180910390f35b34801561047857600080fd5b506104b7600480360381019080803560001916906020019092919080356000191690602001909291908035600019169060200190929190505050611e36565b005b3480156104c557600080fd5b50610502600480360381019080803560001916906020019092919080356000191690602001909291908035151590602001909291905050506121f0565b005b34801561051057600080fd5b50610541600480360381019080803560001916906020019092919080356000191690602001909291905050506125a6565b6040518080602001828103825283818151815260200191508051906020019060200280838360005b83811015610584578082015181840152602081019050610569565b505050509050019250505060405180910390f35b3480156105a457600080fd5b506105d5600480360381019080803560001916906020019092919080356000191690602001909291905050506126e6565b6040518084151515158152602001806020018360001916600019168152602001828103825284818151815260200191508051906020019060200280838360005b83811015610630578082015181840152602081019050610615565b5050505090500194505050505060405180910390f35b34801561065257600080fd5b5061068360048036038101908080356000191690602001909291908035600019169060200190929190505050612728565b604051808215151515815260200191505060405180910390f35b3480156106a957600080fd5b506106e8600480360381019080803560001916906020019092919080356000191690602001909291908035600019169060200190929190505050612823565b005b3480156106f657600080fd5b506107316004803603810190808035600019169060200190929190803560001916906020019092919080359060200190929190505050612ccb565b60405180826000191660001916815260200191505060405180910390f35b34801561075b57600080fd5b506107a86004803603810190808035600019169060200190929190803560001916906020019092919080356000191690602001909291908035600019169060200190929190505050612dbe565b005b3480156107b657600080fd5b506108466004803603810190808035600019169060200190929190803560001916906020019092919080356000191690602001909291908035600019169060200190929190803590602001908201803590602001908080602002602001604051908101604052809392919081815260200183836020028082843782019150505050505091929192905050506133aa565b005b34801561085457600080fd5b5061087760048036038101908080356000191690602001909291905050506137e4565b60405180826000191660001916815260200191505060405180910390f35b6000801515600080846000191660001916815260200190815260200160002060030160149054906101000a900460ff16151514156108d657600190506108db565b600090505b919050565b82600080826000191660001916815260200190815260200160002060030160009054906101000a900473ffffffffffffffffffffffffffffffffffffffff1673ffffffffffffffffffffffffffffffffffffffff163373ffffffffffffffffffffffffffffffffffffffff161415156109e7576040517f08c379a00000000000000000000000000000000000000000000000000000000081526004018080602001828103825260278152602001807f4f6e6c7920616c696173206f776e65722063616e2063616c6c2074686973206681526020017f756e6374696f6e0000000000000000000000000000000000000000000000000081525060400191505060405180910390fd5b8360007f010000000000000000000000000000000000000000000000000000000000000002816000602081101515610a1b57fe5b1a7f0100000000000000000000000000000000000000000000000000000000000000027effffffffffffffffffffffffffffffffffffffffffffffffffffffffffffff191614151515610ad6576040517f08c379a000000000000000000000000000000000000000000000000000000000815260040180806020018281038252600e8152602001807f416c69617320697320656d70747900000000000000000000000000000000000081525060200191505060405180910390fd5b8360007f010000000000000000000000000000000000000000000000000000000000000002816000602081101515610b0a57fe5b1a7f0100000000000000000000000000000000000000000000000000000000000000027effffffffffffffffffffffffffffffffffffffffffffffffffffffffffffff191614151515610bc5576040517f08c379a000000000000000000000000000000000000000000000000000000000815260040180806020018281038252600e8152602001807f416c69617320697320656d70747900000000000000000000000000000000000081525060200191505060405180910390fd5b60008087600019166000191681526020019081526020016000206000016000866000191660001916815260200190815260200160002060010173__TNSTag________________________________63dd2f2b439091866040518363ffffffff167c01000000000000000000000000000000000000000000000000000000000281526004018083815260200180602001828103825283818151815260200191508051906020019060200280838360005b83811015610c8f578082015181840152602081019050610c74565b50505050905001935050505060006040518083038186803b158015610cb357600080fd5b505af4158015610cc7573d6000803e3d6000fd5b50505050505050505050565b60008083600080826000191660001916815260200190815260200160002060030160009054906101000a900473ffffffffffffffffffffffffffffffffffffffff1673ffffffffffffffffffffffffffffffffffffffff163373ffffffffffffffffffffffffffffffffffffffff16141515610ddd576040517f08c379a00000000000000000000000000000000000000000000000000000000081526004018080602001828103825260278152602001807f4f6e6c7920616c696173206f776e65722063616e2063616c6c2074686973206681526020017f756e6374696f6e0000000000000000000000000000000000000000000000000081525060400191505060405180910390fd5b8460007f010000000000000000000000000000000000000000000000000000000000000002816000602081101515610e1157fe5b1a7f0100000000000000000000000000000000000000000000000000000000000000027effffffffffffffffffffffffffffffffffffffffffffffffffffffffffffff191614151515610ecc576040517f08c379a000000000000000000000000000000000000000000000000000000000815260040180806020018281038252600e8152602001807f416c69617320697320656d70747900000000000000000000000000000000000081525060200191505060405180910390fd5b8460007f010000000000000000000000000000000000000000000000000000000000000002816000602081101515610f0057fe5b1a7f0100000000000000000000000000000000000000000000000000000000000000027effffffffffffffffffffffffffffffffffffffffffffffffffffffffffffff191614151515610fbb576040517f08c379a000000000000000000000000000000000000000000000000000000000815260040180806020018281038252600e8152602001807f416c69617320697320656d70747900000000000000000000000000000000000081525060200191505060405180910390fd5b600354600019168660001916141580610fdb5750610fd98787612728565b155b151561104f576040517f08c379a00000000000000000000000000000000000000000000000000000000081526004018080602001828103825260178152602001807f43616e6e6f742064656c65746520756e7365742074616700000000000000000081525060200191505060405180910390fd5b600080886000191660001916815260200190815260200160002060000160008760001916600019168152602001908152602001600020600080820160009055600182016000808201600080820160006110a89190613d63565b60018201600090556002820160006101000a81549060ff021916905550506003820160008082016000905550506004820160006101000a81549060ff0219169055505050506000808860001916600019168152602001908152602001600020600101600087600019166000191681526020019081526020016000206000905560008088600019166000191681526020019081526020016000206000016000876000191660001916815260200190815260200160002060000154945060008088600019166000191681526020019081526020016000206002019350838480546001900390816111969190613d84565b8154811015156111a257fe5b906000526020600020015484868154811015156111bb57fe5b9060005260206000200181600019169055508384805490508154811015156111df57fe5b90600052602060002001600090558460008089600019166000191681526020019081526020016000206000016000868881548110151561121b57fe5b9060005260206000200154600019166000191681526020019081526020016000206000018190555050505050505050565b600080600084600019166000191681526020019081526020016000206000016000836000191660001916815260200190815260200160002060010173__TNSTag________________________________63fc971ba590916040518263ffffffff167c01000000000000000000000000000000000000000000000000000000000281526004018082815260200191505060206040518083038186803b1580156112f357600080fd5b505af4158015611307573d6000803e3d6000fd5b505050506040513d602081101561131d57600080fd5b8101908080519060200190929190505050905092915050565b61133e613db0565b8560007f01000000000000000000000000000000000000000000000000000000000000000281600060208110151561137257fe5b1a7f0100000000000000000000000000000000000000000000000000000000000000027effffffffffffffffffffffffffffffffffffffffffffffffffffffffffffff19161415151561142d576040517f08c379a000000000000000000000000000000000000000000000000000000000815260040180806020018281038252600e8152602001807f416c69617320697320656d70747900000000000000000000000000000000000081525060200191505060405180910390fd5b8460007f01000000000000000000000000000000000000000000000000000000000000000281600060208110151561146157fe5b1a7f0100000000000000000000000000000000000000000000000000000000000000027effffffffffffffffffffffffffffffffffffffffffffffffffffffffffffff19161415151561151c576040517f08c379a000000000000000000000000000000000000000000000000000000000815260040180806020018281038252600e8152602001807f416c69617320697320656d70747900000000000000000000000000000000000081525060200191505060405180910390fd5b60007f01000000000000000000000000000000000000000000000000000000000000000284600060208110151561154f57fe5b1a7f0100000000000000000000000000000000000000000000000000000000000000027effffffffffffffffffffffffffffffffffffffffffffffffffffffffffffff19161415151561160a576040517f08c379a00000000000000000000000000000000000000000000000000000000081526004018080602001828103825260138152602001807f7075624164647265737320697320656d7074790000000000000000000000000081525060200191505060405180910390fd5b600183604001901515908115158152505083836020015160000190600019169081600019168152505061163c88610895565b156116535761164e8888888887613809565b6117c2565b3373ffffffffffffffffffffffffffffffffffffffff166000808a6000191660001916815260200190815260200160002060030160009054906101000a900473ffffffffffffffffffffffffffffffffffffffff1673ffffffffffffffffffffffffffffffffffffffff161415611753576116ce8887612728565b1515611742576040517f08c379a00000000000000000000000000000000000000000000000000000000081526004018080602001828103825260158152602001807f54616720697320616c726561647920657869737473000000000000000000000081525060200191505060405180910390fd5b61174e88878786613bb5565b6117c1565b6040517f08c379a00000000000000000000000000000000000000000000000000000000081526004018080602001828103825260168152602001807f416c69617320697320616c72656164792074616b656e0000000000000000000081525060200191505060405180910390fd5b5b5050505050505050565b6060600080836000191660001916815260200190815260200160002060020180548060200260200160405190810160405280929190818152602001828054801561183957602002820191906000526020600020905b81546000191681526020019060010190808311611821575b50505050509050919050565b6060600260009054906101000a900473ffffffffffffffffffffffffffffffffffffffff1673ffffffffffffffffffffffffffffffffffffffff16635aac6822336040518263ffffffff167c0100000000000000000000000000000000000000000000000000000000028152600401808273ffffffffffffffffffffffffffffffffffffffff1673ffffffffffffffffffffffffffffffffffffffff168152602001915050600060405180830381600087803b15801561190457600080fd5b505af1158015611918573d6000803e3d6000fd5b505050506040513d6000823e3d601f19601f82011682018060405250602081101561194257600080fd5b81019080805164010000000081111561195a57600080fd5b8281019050602081018481111561197057600080fd5b815185602082028301116401000000008211171561198d57600080fd5b5050929190505050905090565b82600080826000191660001916815260200190815260200160002060030160009054906101000a900473ffffffffffffffffffffffffffffffffffffffff1673ffffffffffffffffffffffffffffffffffffffff163373ffffffffffffffffffffffffffffffffffffffff16141515611aa1576040517f08c379a00000000000000000000000000000000000000000000000000000000081526004018080602001828103825260278152602001807f4f6e6c7920616c696173206f776e65722063616e2063616c6c2074686973206681526020017f756e6374696f6e0000000000000000000000000000000000000000000000000081525060400191505060405180910390fd5b8360007f010000000000000000000000000000000000000000000000000000000000000002816000602081101515611ad557fe5b1a7f0100000000000000000000000000000000000000000000000000000000000000027effffffffffffffffffffffffffffffffffffffffffffffffffffffffffffff191614151515611b90576040517f08c379a000000000000000000000000000000000000000000000000000000000815260040180806020018281038252600e8152602001807f416c69617320697320656d70747900000000000000000000000000000000000081525060200191505060405180910390fd5b8360007f010000000000000000000000000000000000000000000000000000000000000002816000602081101515611bc457fe5b1a7f0100000000000000000000000000000000000000000000000000000000000000027effffffffffffffffffffffffffffffffffffffffffffffffffffffffffffff191614151515611c7f576040517f08c379a000000000000000000000000000000000000000000000000000000000815260040180806020018281038252600e8152602001807f416c69617320697320656d70747900000000000000000000000000000000000081525060200191505060405180910390fd5b60008087600019166000191681526020019081526020016000206000016000866000191660001916815260200190815260200160002060010173__TNSTag________________________________63a7551a3e9091866040518363ffffffff167c0100000000000000000000000000000000000000000000000000000000028152600401808381526020018281526020019250505060006040518083038186803b158015611d2c57600080fd5b505af4158015611d40573d6000803e3d6000fd5b50505050505050505050565b600080600084600019166000191681526020019081526020016000206000016000836000191660001916815260200190815260200160002060010173__TNSTag________________________________63fb34ccff90916040518263ffffffff167c01000000000000000000000000000000000000000000000000000000000281526004018082815260200191505060206040518083038186803b158015611df357600080fd5b505af4158015611e07573d6000803e3d6000fd5b505050506040513d6020811015611e1d57600080fd5b8101908080519060200190929190505050905092915050565b82600080826000191660001916815260200190815260200160002060030160009054906101000a900473ffffffffffffffffffffffffffffffffffffffff1673ffffffffffffffffffffffffffffffffffffffff163373ffffffffffffffffffffffffffffffffffffffff16141515611f3d576040517f08c379a00000000000000000000000000000000000000000000000000000000081526004018080602001828103825260278152602001807f4f6e6c7920616c696173206f776e65722063616e2063616c6c2074686973206681526020017f756e6374696f6e0000000000000000000000000000000000000000000000000081525060400191505060405180910390fd5b8360007f010000000000000000000000000000000000000000000000000000000000000002816000602081101515611f7157fe5b1a7f0100000000000000000000000000000000000000000000000000000000000000027effffffffffffffffffffffffffffffffffffffffffffffffffffffffffffff19161415151561202c576040517f08c379a000000000000000000000000000000000000000000000000000000000815260040180806020018281038252600e8152602001807f416c69617320697320656d70747900000000000000000000000000000000000081525060200191505060405180910390fd5b8360007f01000000000000000000000000000000000000000000000000000000000000000281600060208110151561206057fe5b1a7f0100000000000000000000000000000000000000000000000000000000000000027effffffffffffffffffffffffffffffffffffffffffffffffffffffffffffff19161415151561211b576040517f08c379a000000000000000000000000000000000000000000000000000000000815260040180806020018281038252600e8152602001807f416c69617320697320656d70747900000000000000000000000000000000000081525060200191505060405180910390fd5b60008087600019166000191681526020019081526020016000206000016000866000191660001916815260200190815260200160002060010173__TNSTag________________________________63f9b4b21f9091866040518363ffffffff167c01000000000000000000000000000000000000000000000000000000000281526004018083815260200182600019166000191681526020019250505060006040518083038186803b1580156121d057600080fd5b505af41580156121e4573d6000803e3d6000fd5b50505050505050505050565b82600080826000191660001916815260200190815260200160002060030160009054906101000a900473ffffffffffffffffffffffffffffffffffffffff1673ffffffffffffffffffffffffffffffffffffffff163373ffffffffffffffffffffffffffffffffffffffff161415156122f7576040517f08c379a00000000000000000000000000000000000000000000000000000000081526004018080602001828103825260278152602001807f4f6e6c7920616c696173206f776e65722063616e2063616c6c2074686973206681526020017f756e6374696f6e0000000000000000000000000000000000000000000000000081525060400191505060405180910390fd5b8360007f01000000000000000000000000000000000000000000000000000000000000000281600060208110151561232b57fe5b1a7f0100000000000000000000000000000000000000000000000000000000000000027effffffffffffffffffffffffffffffffffffffffffffffffffffffffffffff1916141515156123e6576040517f08c379a000000000000000000000000000000000000000000000000000000000815260040180806020018281038252600e8152602001807f416c69617320697320656d70747900000000000000000000000000000000000081525060200191505060405180910390fd5b8360007f01000000000000000000000000000000000000000000000000000000000000000281600060208110151561241a57fe5b1a7f0100000000000000000000000000000000000000000000000000000000000000027effffffffffffffffffffffffffffffffffffffffffffffffffffffffffffff1916141515156124d5576040517f08c379a000000000000000000000000000000000000000000000000000000000815260040180806020018281038252600e8152602001807f416c69617320697320656d70747900000000000000000000000000000000000081525060200191505060405180910390fd5b60008087600019166000191681526020019081526020016000206000016000866000191660001916815260200190815260200160002060010173__TNSTag________________________________63239cf8089091866040518363ffffffff167c010000000000000000000000000000000000000000000000000000000002815260040180838152602001821515151581526020019250505060006040518083038186803b15801561258657600080fd5b505af415801561259a573d6000803e3d6000fd5b50505050505050505050565b606060008084600019166000191681526020019081526020016000206000016000836000191660001916815260200190815260200160002060010173__TNSTag________________________________636696da9290916040518263ffffffff167c01000000000000000000000000000000000000000000000000000000000281526004018082815260200191505060006040518083038186803b15801561264d57600080fd5b505af4158015612661573d6000803e3d6000fd5b505050506040513d6000823e3d601f19601f82011682018060405250602081101561268b57600080fd5b8101908080516401000000008111156126a357600080fd5b828101905060208101848111156126b957600080fd5b81518560208202830111640100000000821117156126d657600080fd5b5050929190505050905092915050565b60006060600060606000806126fb88886125a6565b92506127078888611d4c565b9150612713888861124c565b90508083839550955095505050509250925092565b600080600084600019166000191681526020019081526020016000206000016000836000191660001916815260200190815260200160002060010173__TNSTag________________________________6343f248e490916040518263ffffffff167c01000000000000000000000000000000000000000000000000000000000281526004018082815260200191505060206040518083038186803b1580156127cf57600080fd5b505af41580156127e3573d6000803e3d6000fd5b505050506040513d60208110156127f957600080fd5b810190808051906020019092919050505015612818576000905061281d565b600190505b92915050565b82600080826000191660001916815260200190815260200160002060030160009054906101000a900473ffffffffffffffffffffffffffffffffffffffff1673ffffffffffffffffffffffffffffffffffffffff163373ffffffffffffffffffffffffffffffffffffffff1614151561292a576040517f08c379a00000000000000000000000000000000000000000000000000000000081526004018080602001828103825260278152602001807f4f6e6c7920616c696173206f776e65722063616e2063616c6c2074686973206681526020017f756e6374696f6e0000000000000000000000000000000000000000000000000081525060400191505060405180910390fd5b8360007f01000000000000000000000000000000000000000000000000000000000000000281600060208110151561295e57fe5b1a7f0100000000000000000000000000000000000000000000000000000000000000027effffffffffffffffffffffffffffffffffffffffffffffffffffffffffffff191614151515612a19576040517f08c379a000000000000000000000000000000000000000000000000000000000815260040180806020018281038252600e8152602001807f416c69617320697320656d70747900000000000000000000000000000000000081525060200191505060405180910390fd5b8360007f010000000000000000000000000000000000000000000000000000000000000002816000602081101515612a4d57fe5b1a7f0100000000000000000000000000000000000000000000000000000000000000027effffffffffffffffffffffffffffffffffffffffffffffffffffffffffffff191614151515612b08576040517f08c379a000000000000000000000000000000000000000000000000000000000815260040180806020018281038252600e8152602001807f416c69617320697320656d70747900000000000000000000000000000000000081525060200191505060405180910390fd5b60007f010000000000000000000000000000000000000000000000000000000000000002846000602081101515612b3b57fe5b1a7f0100000000000000000000000000000000000000000000000000000000000000027effffffffffffffffffffffffffffffffffffffffffffffffffffffffffffff191614151515612bf6576040517f08c379a00000000000000000000000000000000000000000000000000000000081526004018080602001828103825260188152602001807f6e657750756241646472657373206973206e6f7420736574000000000000000081525060200191505060405180910390fd5b60008087600019166000191681526020019081526020016000206000016000866000191660001916815260200190815260200160002060010173__TNSTag________________________________63818120419091866040518363ffffffff167c01000000000000000000000000000000000000000000000000000000000281526004018083815260200182600019166000191681526020019250505060006040518083038186803b158015612cab57600080fd5b505af4158015612cbf573d6000803e3d6000fd5b50505050505050505050565b600080600085600019166000191681526020019081526020016000206000016000846000191660001916815260200190815260200160002060010173__TNSTag________________________________638077b7ca9091846040518363ffffffff167c0100000000000000000000000000000000000000000000000000000000028152600401808381526020018281526020019250505060206040518083038186803b158015612d7a57600080fd5b505af4158015612d8e573d6000803e3d6000fd5b505050506040513d6020811015612da457600080fd5b810190808051906020019092919050505090509392505050565b83600080826000191660001916815260200190815260200160002060030160009054906101000a900473ffffffffffffffffffffffffffffffffffffffff1673ffffffffffffffffffffffffffffffffffffffff163373ffffffffffffffffffffffffffffffffffffffff16141515612ec5576040517f08c379a00000000000000000000000000000000000000000000000000000000081526004018080602001828103825260278152602001807f4f6e6c7920616c696173206f776e65722063616e2063616c6c2074686973206681526020017f756e6374696f6e0000000000000000000000000000000000000000000000000081525060400191505060405180910390fd5b8460007f010000000000000000000000000000000000000000000000000000000000000002816000602081101515612ef957fe5b1a7f0100000000000000000000000000000000000000000000000000000000000000027effffffffffffffffffffffffffffffffffffffffffffffffffffffffffffff191614151515612fb4576040517f08c379a000000000000000000000000000000000000000000000000000000000815260040180806020018281038252600e8152602001807f416c69617320697320656d70747900000000000000000000000000000000000081525060200191505060405180910390fd5b60007f010000000000000000000000000000000000000000000000000000000000000002846000602081101515612fe757fe5b1a7f0100000000000000000000000000000000000000000000000000000000000000027effffffffffffffffffffffffffffffffffffffffffffffffffffffffffffff1916141515156130a2576040517f08c379a00000000000000000000000000000000000000000000000000000000081526004018080602001828103825260128152602001807f4e657720416c69617320697320656d707479000000000000000000000000000081525060200191505060405180910390fd5b6130ab84610895565b151561311f576040517f08c379a00000000000000000000000000000000000000000000000000000000081526004018080602001828103825260168152602001807f416c69617320697320616c72656164792074616b656e0000000000000000000081525060200191505060405180910390fd5b600080876000191660001916815260200190815260200160002060008086600019166000191681526020019081526020016000206002820181600201908054613169929190613de0565b506003820160009054906101000a900473ffffffffffffffffffffffffffffffffffffffff168160030160006101000a81548173ffffffffffffffffffffffffffffffffffffffff021916908373ffffffffffffffffffffffffffffffffffffffff1602179055506003820160149054906101000a900460ff168160030160146101000a81548160ff02191690831515021790555090505060016000866000191660001916815260200190815260200160002060009055826001600086600019166000191681526020019081526020016000208160001916905550600080876000191660001916815260200190815260200160002060006002820160006132709190613d63565b6003820160006101000a81549073ffffffffffffffffffffffffffffffffffffffff02191690556003820160146101000a81549060ff02191690555050600260009054906101000a900473ffffffffffffffffffffffffffffffffffffffff1673ffffffffffffffffffffffffffffffffffffffff166303c680e93388876040518463ffffffff167c0100000000000000000000000000000000000000000000000000000000028152600401808473ffffffffffffffffffffffffffffffffffffffff1673ffffffffffffffffffffffffffffffffffffffff168152602001836000191660001916815260200182600019166000191681526020019350505050600060405180830381600087803b15801561338a57600080fd5b505af115801561339e573d6000803e3d6000fd5b50505050505050505050565b6133b2613db0565b8560007f0100000000000000000000000000000000000000000000000000000000000000028160006020811015156133e657fe5b1a7f0100000000000000000000000000000000000000000000000000000000000000027effffffffffffffffffffffffffffffffffffffffffffffffffffffffffffff1916141515156134a1576040517f08c379a000000000000000000000000000000000000000000000000000000000815260040180806020018281038252600e8152602001807f416c69617320697320656d70747900000000000000000000000000000000000081525060200191505060405180910390fd5b8460007f0100000000000000000000000000000000000000000000000000000000000000028160006020811015156134d557fe5b1a7f0100000000000000000000000000000000000000000000000000000000000000027effffffffffffffffffffffffffffffffffffffffffffffffffffffffffffff191614151515613590576040517f08c379a000000000000000000000000000000000000000000000000000000000815260040180806020018281038252600e8152602001807f416c69617320697320656d70747900000000000000000000000000000000000081525060200191505060405180910390fd5b60008451111515613609576040517f08c379a00000000000000000000000000000000000000000000000000000000081526004018080602001828103825260178152602001807f67656e416464726573734c69737420697320656d70747900000000000000000081525060200191505060405180910390fd5b60018360400190151590811515815250506001836000015160400190151590811515815250508383600001516000018190525083518360000151602001818152505061365488610895565b1561366b576136668888888887613809565b6137da565b3373ffffffffffffffffffffffffffffffffffffffff166000808a6000191660001916815260200190815260200160002060030160009054906101000a900473ffffffffffffffffffffffffffffffffffffffff1673ffffffffffffffffffffffffffffffffffffffff16141561376b576136e68887612728565b151561375a576040517f08c379a00000000000000000000000000000000000000000000000000000000081526004018080602001828103825260158152602001807f54616720697320616c726561647920657869737473000000000000000000000081525060200191505060405180910390fd5b61376688878786613bb5565b6137d9565b6040517f08c379a00000000000000000000000000000000000000000000000000000000081526004018080602001828103825260168152602001807f416c69617320697320616c72656164792074616b656e0000000000000000000081525060200191505060405180910390fd5b5b5050505050505050565b6000600160008360001916600019168152602001908152602001600020549050919050565b613811613e32565b613819613e6c565b33826020019073ffffffffffffffffffffffffffffffffffffffff16908173ffffffffffffffffffffffffffffffffffffffff168152505060018260400190151590811515815250508160008089600019166000191681526020019081526020016000206000820151816002019080519060200190613899929190613e8d565b5060208201518160030160006101000a81548173ffffffffffffffffffffffffffffffffffffffff021916908373ffffffffffffffffffffffffffffffffffffffff16021790555060408201518160030160146101000a81548160ff02191690831515021790555090505083600080896000191660001916815260200190815260200160002060010160008760001916600019168152602001908152602001600020816000191690555060408051908101604052806000808a60001916600019168152602001908152602001600020600201805490508152602001848152509050806000808960001916600019168152602001908152602001600020600001600087600019166000191681526020019081526020016000206000820151816000015560208201518160010160008201518160000160008201518160000190805190602001906139e9929190613e8d565b506020820151816001015560408201518160020160006101000a81548160ff021916908315150217905550505060208201518160030160008201518160000190600019169055505060408201518160040160006101000a81548160ff02191690831515021790555050509050506000808860001916600019168152602001908152602001600020600201859080600181540180825580915050906001820390600052602060002001600090919290919091509060001916905550600260009054906101000a900473ffffffffffffffffffffffffffffffffffffffff1673ffffffffffffffffffffffffffffffffffffffff1663233a04d333896040518363ffffffff167c0100000000000000000000000000000000000000000000000000000000028152600401808373ffffffffffffffffffffffffffffffffffffffff1673ffffffffffffffffffffffffffffffffffffffff168152602001826000191660001916815260200192505050600060405180830381600087803b158015613b7057600080fd5b505af1158015613b84573d6000803e3d6000fd5b5050505085600160008960001916600019168152602001908152602001600020816000191690555050505050505050565b613bbd613e6c565b6040805190810160405280600080886000191660001916815260200190815260200160002060020180549050815260200183815250905080600080876000191660001916815260200190815260200160002060000160008660001916600019168152602001908152602001600020600082015181600001556020820151816001016000820151816000016000820151816000019080519060200190613c63929190613e8d565b506020820151816001015560408201518160020160006101000a81548160ff021916908315150217905550505060208201518160030160008201518160000190600019169055505060408201518160040160006101000a81548160ff021916908315150217905550505090505082600080876000191660001916815260200190815260200160002060010160008660001916600019168152602001908152602001600020816000191690555060008086600019166000191681526020019081526020016000206002018490806001815401808255809150509060018203906000526020600020016000909192909190915090600019169055505050505050565b5080546000825590600052602060002090810190613d819190613ee0565b50565b815481835581811115613dab57818360005260206000209182019101613daa9190613ee0565b5b505050565b60a060405190810160405280613dc4613f05565b8152602001613dd1613f29565b81526020016000151581525090565b828054828255906000526020600020908101928215613e215760005260206000209182015b82811115613e20578254825591600101919060010190613e05565b5b509050613e2e9190613ee0565b5090565b60606040519081016040528060608152602001600073ffffffffffffffffffffffffffffffffffffffff1681526020016000151581525090565b60c06040519081016040528060008152602001613e87613f40565b81525090565b828054828255906000526020600020908101928215613ecf579160200282015b82811115613ece578251829060001916905591602001919060010190613ead565b5b509050613edc9190613ee0565b5090565b613f0291905b80821115613efe576000816000905550600101613ee6565b5090565b90565b60606040519081016040528060608152602001600081526020016000151581525090565b602060405190810160405280600080191681525090565b60a060405190810160405280613f54613f05565b8152602001613f61613f29565b815260200160001515815250905600a165627a7a72305820331abff035a48b779588d1f231f8d41a66e3dd277ba0e18be042634001701d090029608060405234801561001057600080fd5b50610406806100206000396000f300608060405260043610610057576000357c0100000000000000000000000000000000000000000000000000000000900463ffffffff16806303c680e91461005c578063233a04d3146100bb5780635aac68221461010c575b600080fd5b34801561006857600080fd5b506100b9600480360381019080803573ffffffffffffffffffffffffffffffffffffffff169060200190929190803560001916906020019092919080356000191690602001909291905050506101a4565b005b3480156100c757600080fd5b5061010a600480360381019080803573ffffffffffffffffffffffffffffffffffffffff16906020019092919080356000191690602001909291905050506102ce565b005b34801561011857600080fd5b5061014d600480360381019080803573ffffffffffffffffffffffffffffffffffffffff169060200190929190505050610340565b6040518080602001828103825283818151815260200191508051906020019060200280838360005b83811015610190578082015181840152602081019050610175565b505050509050019250505060405180910390f35b60008090505b6000808573ffffffffffffffffffffffffffffffffffffffff1673ffffffffffffffffffffffffffffffffffffffff168152602001908152602001600020805490508110156102c85782600019166000808673ffffffffffffffffffffffffffffffffffffffff1673ffffffffffffffffffffffffffffffffffffffff1681526020019081526020016000208281548110151561024357fe5b90600052602060002001546000191614156102bb57816000808673ffffffffffffffffffffffffffffffffffffffff1673ffffffffffffffffffffffffffffffffffffffff168152602001908152602001600020828154811015156102a457fe5b9060005260206000200181600019169055506102c8565b80806001019150506101aa565b50505050565b6000808373ffffffffffffffffffffffffffffffffffffffff1673ffffffffffffffffffffffffffffffffffffffff1681526020019081526020016000208190806001815401808255809150509060018203906000526020600020016000909192909190915090600019169055505050565b60606000808373ffffffffffffffffffffffffffffffffffffffff1673ffffffffffffffffffffffffffffffffffffffff1681526020019081526020016000208054806020026020016040519081016040528092919081815260200182805480156103ce57602002820191906000526020600020905b815460001916815260200190600101908083116103b6575b505050505090509190505600a165627a7a723058209c74aefde948058e2215ad568bb0f1f4c662f226f9818ce321a8a3b13c9d44d00029",
  "source": "pragma solidity ^0.4.23;\n\nimport {TNSTag} from \"./TNSTag.sol\";\nimport {TNSOwnerReverse} from \"./TNSOwnerReverse.sol\";\n\ncontract TNS{\n    using TNSTag for TNSTag.TNSTagData;\n    struct TagWrapStruct{\n        uint keccakTagIdx;\n        TNSTag.TNSTagData tagData;\n    }\n    struct TagData{\n        mapping (bytes32 => TagWrapStruct) tagMapping;\n        mapping (bytes32 => bytes32) tagKeccackToEncryptedMap;\n        bytes32[] keccakTagsList;\n        address aliasOwner;\n        bool isExist;\n    }\n    mapping (bytes32 => TagData) aliasMapping;\n    mapping (bytes32 => bytes32) aliasKeccackToEncryptedMap;\n    TNSOwnerReverse tnsOwnerReverse;\n\n    bytes32 defaultAddress = 0xcfee7c08a98f4b565d124c7e4e28acc52e1bc780e3887db0a02a7d2d5bc66728;\n    \n    //modifiers\n    modifier isOwner(bytes32 aliasName){\n        require(msg.sender == aliasMapping[aliasName].aliasOwner, \"Only alias owner can call this function\");\n        _;\n    }\n    modifier aliasEmpty(bytes32 alias){\n        require(alias[0] != 0, \"Alias is empty\");\n        _;\n    }\n    modifier tagEmpty(bytes32 alias){\n        require(alias[0] != 0, \"Alias is empty\");\n        _;\n    }\n\n\n    constructor() public{\n        tnsOwnerReverse = new TNSOwnerReverse();\n    }\n\n    function addNewAlias(bytes32 aliasName, bytes32 encryptedAlias, bytes32 tagName,\n        bytes32 encryptedTag, TNSTag.TNSTagData tns_tag) private{\n        TagData memory tag_data_struct;\n        tag_data_struct.aliasOwner = msg.sender;\n        tag_data_struct.isExist = true;\n        \n        aliasMapping[aliasName] = tag_data_struct;\n        aliasMapping[aliasName].tagKeccackToEncryptedMap[tagName] = encryptedTag;\n\n        TagWrapStruct memory tag_wrapper = TagWrapStruct({\n            keccakTagIdx: aliasMapping[aliasName].keccakTagsList.length,\n            tagData: tns_tag\n        });\n        aliasMapping[aliasName].tagMapping[tagName] = tag_wrapper;\n        aliasMapping[aliasName].keccakTagsList.push(tagName);\n\n        //reverse mapping\n        tnsOwnerReverse.addOwnerAddress(msg.sender, aliasName);\n        aliasKeccackToEncryptedMap[aliasName] = encryptedAlias;\n    }\n\n    function addNewTag(bytes32 aliasName, bytes32 tagName, bytes32 encryptedTag,\n        TNSTag.TNSTagData tns_tag) private{\n        TagWrapStruct memory tag_wrapper = TagWrapStruct({\n            keccakTagIdx: aliasMapping[aliasName].keccakTagsList.length,\n            tagData: tns_tag\n        });\n        aliasMapping[aliasName].tagMapping[tagName] = tag_wrapper;\n        aliasMapping[aliasName].tagKeccackToEncryptedMap[tagName] = encryptedTag;\n        aliasMapping[aliasName].keccakTagsList.push(tagName);\n    }\n\n    //tagName would be address of \"default\" or actual tag name\n    function setAlias(bytes32 aliasName, bytes32 encryptedAlias, bytes32 tagName,\n        bytes32 encryptedTag, bytes32 pubAddress) public aliasEmpty(aliasName) tagEmpty(tagName){\n\n        require(pubAddress[0] != 0, \"pubAddress is empty\");\n        \n        TNSTag.TNSTagData memory tns_tag;\n        tns_tag.isExist = true;\n        tns_tag.tagMetaDataStruct.pubAddress = pubAddress;\n\n\n        if (isAliasAvailable(aliasName)){\n            addNewAlias(aliasName, encryptedAlias, tagName, encryptedTag, tns_tag);\n        }else if (aliasMapping[aliasName].aliasOwner == msg.sender){\n            //alias exists but we are trying to add a tag\n            require(isTagAvailable(aliasName, tagName), \"Tag is already exists\");\n            addNewTag(aliasName, tagName, encryptedTag, tns_tag);\n        }else{\n            revert(\"Alias is already taken\");\n        }\n    }\n\n    /*If generating new address you wont have default public address for a tag*/\n    function setAlias(bytes32 aliasName, bytes32 encryptedAlias, bytes32 tagName,\n        bytes32 encryptedTag, bytes32[] genAddressList) public aliasEmpty(aliasName) tagEmpty(tagName){\n\n        require(genAddressList.length > 0, \"genAddressList is empty\");\n\n        TNSTag.TNSTagData memory tns_tag;\n        tns_tag.isExist = true;\n        tns_tag.genAddressStruct.generateAddress = true;\n        tns_tag.genAddressStruct.genAddressList = genAddressList; \n        tns_tag.genAddressStruct.numElements = genAddressList.length;\n\n        if (isAliasAvailable(aliasName)){\n            addNewAlias(aliasName, encryptedAlias, tagName, encryptedTag, tns_tag);\n        }else if (aliasMapping[aliasName].aliasOwner == msg.sender){\n            require(isTagAvailable(aliasName, tagName), \"Tag is already exists\");\n            addNewTag(aliasName, tagName, encryptedTag, tns_tag);\n        }else{\n            revert(\"Alias is already taken\");\n        }\n       \n    }\n\n    //Entire alias & its corresponding tags cannot be deleted but can only be updated\n    function deleteAliasTag(bytes32 aliasName, bytes32 tagName) public isOwner(aliasName)\n        aliasEmpty(aliasName) tagEmpty(tagName){\n        require((tagName != defaultAddress || !isTagAvailable(aliasName, tagName)), \"Cannot delete unset tag\");\n        delete aliasMapping[aliasName].tagMapping[tagName]; \n        delete aliasMapping[aliasName].tagKeccackToEncryptedMap[tagName];\n\n        uint idx_to_remove = aliasMapping[aliasName].tagMapping[tagName].keccakTagIdx;\n        bytes32[] storage keccak_tags_list = aliasMapping[aliasName].keccakTagsList;\n        keccak_tags_list[idx_to_remove] = keccak_tags_list[--keccak_tags_list.length];\n        delete keccak_tags_list[keccak_tags_list.length];\n\n        aliasMapping[aliasName].tagMapping[keccak_tags_list[idx_to_remove]].keccakTagIdx = idx_to_remove;\n    }\n\n    function updateAlias(bytes32 aliasName, bytes32 oldEncryptedAlias, bytes32 newAliasName,\n        bytes32 newEncryptedAlias) public isOwner(aliasName) aliasEmpty(aliasName){\n\n        require(newAliasName[0] != 0, \"New Alias is empty\");\n        require(isAliasAvailable(newAliasName), \"Alias is already taken\");\n        aliasMapping[newAliasName] = aliasMapping[aliasName];\n        delete aliasKeccackToEncryptedMap[oldEncryptedAlias];\n        aliasKeccackToEncryptedMap[newAliasName] = newEncryptedAlias;\n        delete aliasMapping[aliasName];\n        tnsOwnerReverse.updateAlias(msg.sender, aliasName, newAliasName);\n    }\n\n    function updatePubAddressForTag(bytes32 aliasName, bytes32 tagName,\n        bytes32 newPubAddress) public isOwner(aliasName) aliasEmpty(aliasName) tagEmpty(tagName){\n        require(newPubAddress[0] != 0, \"newPubAddress is not set\");\n        aliasMapping[aliasName].tagMapping[tagName].tagData.setPubAddress(newPubAddress);\n    }\n\n    function updateGenAddressFlag(bytes32 aliasName, bytes32 tagName, bool genFlag) public isOwner(aliasName)\n        aliasEmpty(aliasName) tagEmpty(tagName){\n        aliasMapping[aliasName].tagMapping[tagName].tagData.setGenAddressFlag(genFlag);\n    }\n\n    function updateGenAddressListReplace(bytes32 aliasName, bytes32 tagName,\n        bytes32[] addressList) public isOwner(aliasName) aliasEmpty(aliasName) tagEmpty(tagName){\n        aliasMapping[aliasName].tagMapping[tagName].tagData.setGenAddressList(addressList);\n    }\n\n    function updateGenAddressListAppend(bytes32 aliasName, bytes32 tagName,\n        bytes32 newAddress) public isOwner(aliasName) aliasEmpty(aliasName) tagEmpty(tagName){\n        aliasMapping[aliasName].tagMapping[tagName].tagData.appendGenAddressList(newAddress);\n    }\n\n    function updateGenAddressListDelete(bytes32 aliasName, bytes32 tagName, uint idxToRemove) public\n        isOwner(aliasName) aliasEmpty(aliasName) tagEmpty(tagName){\n        aliasMapping[aliasName].tagMapping[tagName].tagData.deleteFromGenAddressList(idxToRemove);\n    }\n\n    function getGenAddressList(bytes32 aliasName, bytes32 tagName) public view returns(bytes32[]){\n        return aliasMapping[aliasName].tagMapping[tagName].tagData.getGenAddressList();\n    }\n\n    function getPubAddressForTag(bytes32 aliasName, bytes32 tagName) public view returns(bytes32){\n        return aliasMapping[aliasName].tagMapping[tagName].tagData.getPubAddress();\n    }\n\n    function getGenAddressForTag(bytes32 aliasName, bytes32 tagName, uint idx) public view returns(bytes32){\n        return aliasMapping[aliasName].tagMapping[tagName].tagData.useNextGenAddress(idx);\n    }\n\n    function getGenAddressFlag(bytes32 aliasName, bytes32 tagName) public view returns(bool){\n        return aliasMapping[aliasName].tagMapping[tagName].tagData.getGenAddressFlag();\n    }\n\n    function isAliasAvailable(bytes32 aliasName) public view returns(bool){\n        if (aliasMapping[aliasName].isExist == false){\n            return true;\n        }\n        return false;\n    }\n    function isTagAvailable(bytes32 aliasName, bytes32 tagName) public view returns(bool){\n        if (aliasMapping[aliasName].tagMapping[tagName].tagData.getExist()){\n            return false;\n        }\n        return true;\n    }\n    function getAllTagsForAlias(bytes32 aliasName) public view returns(bytes32[]){\n        return aliasMapping[aliasName].keccakTagsList;\n    }\n    function getAliasesForOwner() public view returns(bytes32[]){\n        return tnsOwnerReverse.getAllAliasesForOwner(msg.sender);\n    }\n    function getEncryptedAliasForKeccak(bytes32 aliasName) public view returns(bytes32){\n        return aliasKeccackToEncryptedMap[aliasName];\n    }\n    function getTagDataForTag(bytes32 aliasName, bytes32 tagName) public view returns(bool,bytes32[],bytes32){\n        bytes32[] memory gen_list = getGenAddressList(aliasName, tagName);\n        bytes32 pub_address = getPubAddressForTag(aliasName, tagName);\n        bool gen_flag = getGenAddressFlag(aliasName, tagName);\n        return (gen_flag, gen_list, pub_address);\n    }\n}\n",
  "sourcePath": "/Users/gurkisingh/TronProjects/TronNameService/contracts/TNS.sol",
  "compiler": {
    "name": "solc",
    "version": "0.4.24-develop.2018.8.28+commit.3ba0cdec.mod.Emscripten.clang"
  },
  "schemaVersion": "2.0.1",
  "updatedAt": "2018-12-07T11:16:24.596Z"
}