{
  "contractName": "TNS",
  "abi": [
    {
      "inputs": [],
      "payable": false,
      "stateMutability": "nonpayable",
      "type": "constructor"
    },
    {
      "anonymous": false,
      "inputs": [
        {
          "indexed": true,
          "name": "_from",
          "type": "address"
        }
      ],
      "name": "StateUpdated",
      "type": "event"
    },
    {
      "anonymous": false,
      "inputs": [
        {
          "indexed": true,
          "name": "_from",
          "type": "address"
        },
        {
          "indexed": false,
          "name": "_alias",
          "type": "bytes32"
        }
      ],
      "name": "StateAliasUpdated",
      "type": "event"
    },
    {
      "constant": false,
      "inputs": [
        {
          "name": "aliasName",
          "type": "bytes32"
        },
        {
          "name": "encryptedAlias",
          "type": "bytes32"
        },
        {
          "name": "tagName",
          "type": "bytes32"
        },
        {
          "name": "encryptedTag",
          "type": "bytes32"
        },
        {
          "name": "pubAddress",
          "type": "address"
        }
      ],
      "name": "setAliasStatic",
      "outputs": [],
      "payable": false,
      "stateMutability": "nonpayable",
      "type": "function"
    },
    {
      "constant": false,
      "inputs": [
        {
          "name": "aliasName",
          "type": "bytes32"
        },
        {
          "name": "encryptedAlias",
          "type": "bytes32"
        },
        {
          "name": "tagName",
          "type": "bytes32"
        },
        {
          "name": "encryptedTag",
          "type": "bytes32"
        },
        {
          "name": "genAddressList",
          "type": "address[]"
        }
      ],
      "name": "setAliasGenerated",
      "outputs": [],
      "payable": false,
      "stateMutability": "nonpayable",
      "type": "function"
    },
    {
      "constant": false,
      "inputs": [
        {
          "name": "aliasName",
          "type": "bytes32"
        },
        {
          "name": "tagName",
          "type": "bytes32"
        }
      ],
      "name": "deleteAliasTag",
      "outputs": [],
      "payable": false,
      "stateMutability": "nonpayable",
      "type": "function"
    },
    {
      "constant": false,
      "inputs": [
        {
          "name": "aliasName",
          "type": "bytes32"
        },
        {
          "name": "oldEncryptedAlias",
          "type": "bytes32"
        },
        {
          "name": "newAliasName",
          "type": "bytes32"
        },
        {
          "name": "newEncryptedAlias",
          "type": "bytes32"
        }
      ],
      "name": "updateAlias",
      "outputs": [],
      "payable": false,
      "stateMutability": "nonpayable",
      "type": "function"
    },
    {
      "constant": false,
      "inputs": [
        {
          "name": "aliasName",
          "type": "bytes32"
        },
        {
          "name": "tagName",
          "type": "bytes32"
        },
        {
          "name": "oldEncryptedTag",
          "type": "bytes32"
        },
        {
          "name": "newTagName",
          "type": "bytes32"
        },
        {
          "name": "newEncryptedTag",
          "type": "bytes32"
        }
      ],
      "name": "updateTag",
      "outputs": [],
      "payable": false,
      "stateMutability": "nonpayable",
      "type": "function"
    },
    {
      "constant": false,
      "inputs": [
        {
          "name": "aliasName",
          "type": "bytes32"
        },
        {
          "name": "tagName",
          "type": "bytes32"
        },
        {
          "name": "newPubAddress",
          "type": "address"
        }
      ],
      "name": "updatePubAddressForTag",
      "outputs": [],
      "payable": false,
      "stateMutability": "nonpayable",
      "type": "function"
    },
    {
      "constant": false,
      "inputs": [
        {
          "name": "aliasName",
          "type": "bytes32"
        },
        {
          "name": "tagName",
          "type": "bytes32"
        },
        {
          "name": "genFlag",
          "type": "bool"
        }
      ],
      "name": "updateGenAddressFlag",
      "outputs": [],
      "payable": false,
      "stateMutability": "nonpayable",
      "type": "function"
    },
    {
      "constant": false,
      "inputs": [
        {
          "name": "aliasName",
          "type": "bytes32"
        },
        {
          "name": "tagName",
          "type": "bytes32"
        },
        {
          "name": "addressList",
          "type": "address[]"
        }
      ],
      "name": "updateGenAddressListReplace",
      "outputs": [],
      "payable": false,
      "stateMutability": "nonpayable",
      "type": "function"
    },
    {
      "constant": false,
      "inputs": [
        {
          "name": "aliasName",
          "type": "bytes32"
        },
        {
          "name": "tagName",
          "type": "bytes32"
        },
        {
          "name": "newAddress",
          "type": "address"
        }
      ],
      "name": "updateGenAddressListAppend",
      "outputs": [],
      "payable": false,
      "stateMutability": "nonpayable",
      "type": "function"
    },
    {
      "constant": false,
      "inputs": [
        {
          "name": "aliasName",
          "type": "bytes32"
        },
        {
          "name": "tagName",
          "type": "bytes32"
        },
        {
          "name": "idxToRemove",
          "type": "uint256"
        }
      ],
      "name": "updateGenAddressListDelete",
      "outputs": [],
      "payable": false,
      "stateMutability": "nonpayable",
      "type": "function"
    },
    {
      "constant": true,
      "inputs": [
        {
          "name": "aliasName",
          "type": "bytes32"
        },
        {
          "name": "tagName",
          "type": "bytes32"
        }
      ],
      "name": "getGenAddressList",
      "outputs": [
        {
          "name": "",
          "type": "address[]"
        }
      ],
      "payable": false,
      "stateMutability": "view",
      "type": "function"
    },
    {
      "constant": true,
      "inputs": [
        {
          "name": "aliasName",
          "type": "bytes32"
        },
        {
          "name": "tagName",
          "type": "bytes32"
        }
      ],
      "name": "getGenAddressListLen",
      "outputs": [
        {
          "name": "",
          "type": "uint256"
        }
      ],
      "payable": false,
      "stateMutability": "view",
      "type": "function"
    },
    {
      "constant": true,
      "inputs": [
        {
          "name": "aliasName",
          "type": "bytes32"
        },
        {
          "name": "tagName",
          "type": "bytes32"
        }
      ],
      "name": "getPubAddressForTag",
      "outputs": [
        {
          "name": "",
          "type": "address"
        }
      ],
      "payable": false,
      "stateMutability": "view",
      "type": "function"
    },
    {
      "constant": true,
      "inputs": [
        {
          "name": "aliasName",
          "type": "bytes32"
        },
        {
          "name": "tagName",
          "type": "bytes32"
        },
        {
          "name": "idx",
          "type": "uint256"
        }
      ],
      "name": "getGenAddressForTag",
      "outputs": [
        {
          "name": "",
          "type": "address"
        }
      ],
      "payable": false,
      "stateMutability": "view",
      "type": "function"
    },
    {
      "constant": true,
      "inputs": [
        {
          "name": "aliasName",
          "type": "bytes32"
        },
        {
          "name": "tagName",
          "type": "bytes32"
        }
      ],
      "name": "getGenAddressFlag",
      "outputs": [
        {
          "name": "",
          "type": "bool"
        }
      ],
      "payable": false,
      "stateMutability": "view",
      "type": "function"
    },
    {
      "constant": true,
      "inputs": [
        {
          "name": "aliasName",
          "type": "bytes32"
        }
      ],
      "name": "isAliasAvailable",
      "outputs": [
        {
          "name": "",
          "type": "bool"
        }
      ],
      "payable": false,
      "stateMutability": "view",
      "type": "function"
    },
    {
      "constant": true,
      "inputs": [
        {
          "name": "aliasName",
          "type": "bytes32"
        },
        {
          "name": "tagName",
          "type": "bytes32"
        }
      ],
      "name": "isTagAvailable",
      "outputs": [
        {
          "name": "",
          "type": "bool"
        }
      ],
      "payable": false,
      "stateMutability": "view",
      "type": "function"
    },
    {
      "constant": true,
      "inputs": [
        {
          "name": "aliasName",
          "type": "bytes32"
        }
      ],
      "name": "getAllTagsForAlias",
      "outputs": [
        {
          "name": "",
          "type": "bytes32[]"
        }
      ],
      "payable": false,
      "stateMutability": "view",
      "type": "function"
    },
    {
      "constant": true,
      "inputs": [
        {
          "name": "ownerAddress",
          "type": "address"
        }
      ],
      "name": "getAliasesForOwner",
      "outputs": [
        {
          "name": "",
          "type": "bytes32[]"
        }
      ],
      "payable": false,
      "stateMutability": "view",
      "type": "function"
    },
    {
      "constant": true,
      "inputs": [
        {
          "name": "aliasName",
          "type": "bytes32"
        }
      ],
      "name": "getEncryptedAliasForKeccak",
      "outputs": [
        {
          "name": "",
          "type": "bytes32"
        }
      ],
      "payable": false,
      "stateMutability": "view",
      "type": "function"
    },
    {
      "constant": true,
      "inputs": [
        {
          "name": "aliasName",
          "type": "bytes32"
        },
        {
          "name": "tagName",
          "type": "bytes32"
        }
      ],
      "name": "getEncryptedTagForKeccak",
      "outputs": [
        {
          "name": "",
          "type": "bytes32"
        }
      ],
      "payable": false,
      "stateMutability": "view",
      "type": "function"
    },
    {
      "constant": true,
      "inputs": [
        {
          "name": "aliasName",
          "type": "bytes32"
        }
      ],
      "name": "getAliasOwner",
      "outputs": [
        {
          "name": "",
          "type": "address"
        }
      ],
      "payable": false,
      "stateMutability": "view",
      "type": "function"
    },
    {
      "constant": true,
      "inputs": [
        {
          "name": "aliasName",
          "type": "bytes32"
        },
        {
          "name": "tagName",
          "type": "bytes32"
        }
      ],
      "name": "getTagDataForTag",
      "outputs": [
        {
          "name": "",
          "type": "bool"
        },
        {
          "name": "",
          "type": "address[]"
        },
        {
          "name": "",
          "type": "address"
        }
      ],
      "payable": false,
      "stateMutability": "view",
      "type": "function"
    }
  ],
  "bytecode": "0x60806040527fcfee7c08a98f4b565d124c7e4e28acc52e1bc780e3887db0a02a7d2d5bc667286001026004906000191690553480156200003e57600080fd5b5062000049620000ad565b604051809103906000f08015801562000066573d6000803e3d6000fd5b50600360006101000a81548173ffffffffffffffffffffffffffffffffffffffff021916908373ffffffffffffffffffffffffffffffffffffffff160217905550620000be565b604051610426806200641c83390190565b61634e80620000ce6000396000f300608060405260043610610133576000357c0100000000000000000000000000000000000000000000000000000000900463ffffffff1680630848eeba146101385780630d8d03ff14610181578063261e0ab7146101e0578063336c41701461023357806336ae18b614610272578063521a5a75146102c957806353026c1d1461034f578063673b26b5146103aa57806372fac34e146103f357806376b90cda14610472578063860d5229146104ed57806390a983c01461054c578063a2775f2b146105bd578063aa29276e1461063f578063b6f3076c146106d7578063b832ca8914610722578063bd3cc967146107b6578063bdcf8efa14610888578063c0c2674e146108df578063c2bbc47a14610948578063e11543bd146109e6578063e14477c114610a6f578063fb24656214610aca575b600080fd5b34801561014457600080fd5b506101676004803603810190808035600019169060200190929190505050610b17565b604051808215151515815260200191505060405180910390f35b34801561018d57600080fd5b506101de60048036038101908080356000191690602001909291908035600019169060200190929190803573ffffffffffffffffffffffffffffffffffffffff169060200190929190505050610b60565b005b3480156101ec57600080fd5b5061021d60048036038101908080356000191690602001909291908035600019169060200190929190505050611286565b6040518082815260200191505060405180910390f35b34801561023f57600080fd5b5061027060048036038101908080356000191690602001909291908035600019169060200190929190505050611455565b005b34801561027e57600080fd5b506102af60048036038101908080356000191690602001909291908035600019169060200190929190505050611b7e565b604051808215151515815260200191505060405180910390f35b3480156102d557600080fd5b506102f86004803603810190808035600019169060200190929190505050611d4d565b6040518080602001828103825283818151815260200191508051906020019060200280838360005b8381101561033b578082015181840152602081019050610320565b505050509050019250505060405180910390f35b34801561035b57600080fd5b5061038c60048036038101908080356000191690602001909291908035600019169060200190929190505050611e6c565b60405180826000191660001916815260200191505060405180910390f35b3480156103b657600080fd5b506103f16004803603810190808035600019169060200190929190803560001916906020019092919080359060200190929190505050611f95565b005b3480156103ff57600080fd5b5061043060048036038101908080356000191690602001909291908035600019169060200190929190505050612549565b604051808273ffffffffffffffffffffffffffffffffffffffff1673ffffffffffffffffffffffffffffffffffffffff16815260200191505060405180910390f35b34801561047e57600080fd5b506104eb6004803603810190808035600019169060200190929190803560001916906020019092919080356000191690602001909291908035600019169060200190929190803573ffffffffffffffffffffffffffffffffffffffff169060200190929190505050612718565b005b3480156104f957600080fd5b5061054a60048036038101908080356000191690602001909291908035600019169060200190929190803573ffffffffffffffffffffffffffffffffffffffff169060200190929190505050612bd5565b005b34801561055857600080fd5b5061057b6004803603810190808035600019169060200190929190505050613347565b604051808273ffffffffffffffffffffffffffffffffffffffff1673ffffffffffffffffffffffffffffffffffffffff16815260200191505060405180910390f35b3480156105c957600080fd5b5061063d6004803603810190808035600019169060200190929190803560001916906020019092919080359060200190820180359060200190808060200260200160405190810160405280939291908181526020018383602002808284378201915050505050509192919290505050613431565b005b34801561064b57600080fd5b50610680600480360381019080803573ffffffffffffffffffffffffffffffffffffffff169060200190929190505050613a26565b6040518080602001828103825283818151815260200191508051906020019060200280838360005b838110156106c35780820151818401526020810190506106a8565b505050509050019250505060405180910390f35b3480156106e357600080fd5b5061072060048036038101908080356000191690602001909291908035600019169060200190929190803515159060200190929190505050613b7d565b005b34801561072e57600080fd5b5061075f60048036038101908080356000191690602001909291908035600019169060200190929190505050614135565b6040518080602001828103825283818151815260200191508051906020019060200280838360005b838110156107a2578082015181840152602081019050610787565b505050509050019250505060405180910390f35b3480156107c257600080fd5b506107f36004803603810190808035600019169060200190929190803560001916906020019092919050505061435b565b6040518084151515158152602001806020018373ffffffffffffffffffffffffffffffffffffffff1673ffffffffffffffffffffffffffffffffffffffff168152602001828103825284818151815260200191508051906020019060200280838360005b83811015610872578082015181840152602081019050610857565b5050505090500194505050505060405180910390f35b34801561089457600080fd5b506108c56004803603810190808035600019169060200190929190803560001916906020019092919050505061439d565b604051808215151515815260200191505060405180910390f35b3480156108eb57600080fd5b5061094660048036038101908080356000191690602001909291908035600019169060200190929190803560001916906020019092919080356000191690602001909291908035600019169060200190929190505050614459565b005b34801561095457600080fd5b506109e4600480360381019080803560001916906020019092919080356000191690602001909291908035600019169060200190929190803560001916906020019092919080359060200190820180359060200190808060200260200160405190810160405280939291908181526020018383602002808284378201915050505050509192919290505050614baf565b005b3480156109f257600080fd5b50610a2d600480360381019080803560001916906020019092919080356000191690602001909291908035906020019092919050505061503c565b604051808273ffffffffffffffffffffffffffffffffffffffff1673ffffffffffffffffffffffffffffffffffffffff16815260200191505060405180910390f35b348015610a7b57600080fd5b50610ac86004803603810190808035600019169060200190929190803560001916906020019092919080356000191690602001909291908035600019169060200190929190505050615214565b005b348015610ad657600080fd5b50610af9600480360381019080803560001916906020019092919050505061585a565b60405180826000191660001916815260200191505060405180910390f35b600080151560016000846000191660001916815260200190815260200160002060009054906101000a900460ff1615151415610b565760019050610b5b565b600090505b919050565b6000808460007f010000000000000000000000000000000000000000000000000000000000000002816000602081101515610b9757fe5b1a7f0100000000000000000000000000000000000000000000000000000000000000027effffffffffffffffffffffffffffffffffffffffffffffffffffffffffffff191614151515610c52576040517f08c379a000000000000000000000000000000000000000000000000000000000815260040180806020018281038252600e8152602001807f416c69617320697320656d70747900000000000000000000000000000000000081525060200191505060405180910390fd5b8460007f010000000000000000000000000000000000000000000000000000000000000002816000602081101515610c8657fe5b1a7f0100000000000000000000000000000000000000000000000000000000000000027effffffffffffffffffffffffffffffffffffffffffffffffffffffffffffff191614151515610d41576040517f08c379a000000000000000000000000000000000000000000000000000000000815260040180806020018281038252600e8152602001807f416c69617320697320656d70747900000000000000000000000000000000000081525060200191505060405180910390fd5b868660001515610d5083610b17565b1515148015610d6c575060001515610d68838361439d565b1515145b1515610de0576040517f08c379a000000000000000000000000000000000000000000000000000000000815260040180806020018281038252601a8152602001807f416c696173206f722074616720646f65736e277420657869737400000000000081525060200191505060405180910390fd5b886001151560016000836000191660001916815260200190815260200160002060009054906101000a900460ff161515141515610e85576040517f08c379a00000000000000000000000000000000000000000000000000000000081526004018080602001828103825260138152602001807f416c69617320646f65736e27742065786973740000000000000000000000000081525060200191505060405180910390fd5b6002600080836000191660001916815260200190815260200160002054815481101515610eae57fe5b906000526020600020906007020160060160009054906101000a900473ffffffffffffffffffffffffffffffffffffffff1673ffffffffffffffffffffffffffffffffffffffff163373ffffffffffffffffffffffffffffffffffffffff16141515610fa8576040517f08c379a00000000000000000000000000000000000000000000000000000000081526004018080602001828103825260278152602001807f4f6e6c7920616c696173206f776e65722063616e2063616c6c2074686973206681526020017f756e6374696f6e0000000000000000000000000000000000000000000000000081525060400191505060405180910390fd5b60026000808c6000191660001916815260200190815260200160002054815481101515610fd157fe5b906000526020600020906007020160000196508660000160008a6000191660001916815260200190815260200160002054955060008873ffffffffffffffffffffffffffffffffffffffff16141561114a5760001515876001018781548110151561103857fe5b906000526020600020906004020160000173__TNSTag________________________________63fc971ba590916040518263ffffffff167c01000000000000000000000000000000000000000000000000000000000281526004018082815260200191505060206040518083038186803b1580156110b557600080fd5b505af41580156110c9573d6000803e3d6000fd5b505050506040513d60208110156110df57600080fd5b810190808051906020019092919050505015151415611149576040517f08c379a000000000000000000000000000000000000000000000000000000000815260040180806020018281038252609681526020018061628d6096913960a00191505060405180910390fd5b5b866001018681548110151561115b57fe5b906000526020600020906004020160000173__TNSTag________________________________63586de93190918a6040518363ffffffff167c0100000000000000000000000000000000000000000000000000000000028152600401808381526020018273ffffffffffffffffffffffffffffffffffffffff1673ffffffffffffffffffffffffffffffffffffffff1681526020019250505060006040518083038186803b15801561120c57600080fd5b505af4158015611220573d6000803e3d6000fd5b505050503373ffffffffffffffffffffffffffffffffffffffff167fd713555621920b224de101490062f8e270b78138596c90ce629163a35198cfcc8b60405180826000191660001916815260200191505060405180910390a250505050505050505050565b60008083836000151561129883610b17565b15151480156112b45750600015156112b0838361439d565b1515145b1515611328576040517f08c379a000000000000000000000000000000000000000000000000000000000815260040180806020018281038252601a8152602001807f416c696173206f722074616720646f65736e277420657869737400000000000081525060200191505060405180910390fd5b600260008088600019166000191681526020019081526020016000205481548110151561135157fe5b906000526020600020906007020160000192508260010183600001600087600019166000191681526020019081526020016000205481548110151561139257fe5b906000526020600020906004020160000173__TNSTag________________________________6392272f5290916040518263ffffffff167c01000000000000000000000000000000000000000000000000000000000281526004018082815260200191505060206040518083038186803b15801561140f57600080fd5b505af4158015611423573d6000803e3d6000fd5b505050506040513d602081101561143957600080fd5b8101908080519060200190929190505050935050505092915050565b60008060008460007f01000000000000000000000000000000000000000000000000000000000000000281600060208110151561148e57fe5b1a7f0100000000000000000000000000000000000000000000000000000000000000027effffffffffffffffffffffffffffffffffffffffffffffffffffffffffffff191614151515611549576040517f08c379a000000000000000000000000000000000000000000000000000000000815260040180806020018281038252600e8152602001807f416c69617320697320656d70747900000000000000000000000000000000000081525060200191505060405180910390fd5b8460007f01000000000000000000000000000000000000000000000000000000000000000281600060208110151561157d57fe5b1a7f0100000000000000000000000000000000000000000000000000000000000000027effffffffffffffffffffffffffffffffffffffffffffffffffffffffffffff191614151515611638576040517f08c379a000000000000000000000000000000000000000000000000000000000815260040180806020018281038252600e8152602001807f416c69617320697320656d70747900000000000000000000000000000000000081525060200191505060405180910390fd5b86866000151561164783610b17565b151514801561166357506000151561165f838361439d565b1515145b15156116d7576040517f08c379a000000000000000000000000000000000000000000000000000000000815260040180806020018281038252601a8152602001807f416c696173206f722074616720646f65736e277420657869737400000000000081525060200191505060405180910390fd5b886001151560016000836000191660001916815260200190815260200160002060009054906101000a900460ff16151514151561177c576040517f08c379a00000000000000000000000000000000000000000000000000000000081526004018080602001828103825260138152602001807f416c69617320646f65736e27742065786973740000000000000000000000000081525060200191505060405180910390fd5b60026000808360001916600019168152602001908152602001600020548154811015156117a557fe5b906000526020600020906007020160060160009054906101000a900473ffffffffffffffffffffffffffffffffffffffff1673ffffffffffffffffffffffffffffffffffffffff163373ffffffffffffffffffffffffffffffffffffffff1614151561189f576040517f08c379a00000000000000000000000000000000000000000000000000000000081526004018080602001828103825260278152602001807f4f6e6c7920616c696173206f776e65722063616e2063616c6c2074686973206681526020017f756e6374696f6e0000000000000000000000000000000000000000000000000081525060400191505060405180910390fd5b60026000808c60001916600019168152602001908152602001600020548154811015156118c857fe5b906000526020600020906007020160000197508760030160008a6000191660001916815260200190815260200160002060006101000a81549060ff02191690558760000160008a6000191660001916815260200190815260200160002054965060018860010180549050039550876002018681548110151561194657fe5b9060005260206000200154886002018881548110151561196257fe5b906000526020600020018160001916905550868860000160008a6002018981548110151561198c57fe5b90600052602060002001546000191660001916815260200190815260200160002081905550876002018054809190600190036119c89190615e70565b5087600101868154811015156119da57fe5b906000526020600020906004020188600101888154811015156119f957fe5b9060005260206000209060040201600082018160000160008201816000016000820181600001908054611a2d929190615e9c565b506001820160009054906101000a900460ff168160010160006101000a81548160ff021916908315150217905550505060028201816002016000820160009054906101000a900473ffffffffffffffffffffffffffffffffffffffff168160000160006101000a81548173ffffffffffffffffffffffffffffffffffffffff021916908373ffffffffffffffffffffffffffffffffffffffff160217905550505050506003820154816003019060001916905590505087600101805480919060019003611afa9190615eee565b508760000160008a60001916600019168152602001908152602001600020600090553373ffffffffffffffffffffffffffffffffffffffff167fd713555621920b224de101490062f8e270b78138596c90ce629163a35198cfcc8b60405180826000191660001916815260200191505060405180910390a250505050505050505050565b600080838360001515611b9083610b17565b1515148015611bac575060001515611ba8838361439d565b1515145b1515611c20576040517f08c379a000000000000000000000000000000000000000000000000000000000815260040180806020018281038252601a8152602001807f416c696173206f722074616720646f65736e277420657869737400000000000081525060200191505060405180910390fd5b6002600080886000191660001916815260200190815260200160002054815481101515611c4957fe5b9060005260206000209060070201600001925082600101836000016000876000191660001916815260200190815260200160002054815481101515611c8a57fe5b906000526020600020906004020160000173__TNSTag________________________________63fc971ba590916040518263ffffffff167c01000000000000000000000000000000000000000000000000000000000281526004018082815260200191505060206040518083038186803b158015611d0757600080fd5b505af4158015611d1b573d6000803e3d6000fd5b505050506040513d6020811015611d3157600080fd5b8101908080519060200190929190505050935050505092915050565b60608160001515611d5d82610b17565b1515141515611dd4576040517f08c379a00000000000000000000000000000000000000000000000000000000081526004018080602001828103825260148152602001807f416c69617320646f65736e27742065786973742100000000000000000000000081525060200191505060405180910390fd5b6002600080856000191660001916815260200190815260200160002054815481101515611dfd57fe5b9060005260206000209060070201600001600201805480602002602001604051908101604052809291908181526020018280548015611e5f57602002820191906000526020600020905b81546000191681526020019060010190808311611e47575b5050505050915050919050565b600080838360001515611e7e83610b17565b1515148015611e9a575060001515611e96838361439d565b1515145b1515611f0e576040517f08c379a000000000000000000000000000000000000000000000000000000000815260040180806020018281038252601a8152602001807f416c696173206f722074616720646f65736e277420657869737400000000000081525060200191505060405180910390fd5b6002600080886000191660001916815260200190815260200160002054815481101515611f3757fe5b9060005260206000209060070201600001925082600101836000016000876000191660001916815260200190815260200160002054815481101515611f7857fe5b906000526020600020906004020160030154935050505092915050565b6000808460007f010000000000000000000000000000000000000000000000000000000000000002816000602081101515611fcc57fe5b1a7f0100000000000000000000000000000000000000000000000000000000000000027effffffffffffffffffffffffffffffffffffffffffffffffffffffffffffff191614151515612087576040517f08c379a000000000000000000000000000000000000000000000000000000000815260040180806020018281038252600e8152602001807f416c69617320697320656d70747900000000000000000000000000000000000081525060200191505060405180910390fd5b8460007f0100000000000000000000000000000000000000000000000000000000000000028160006020811015156120bb57fe5b1a7f0100000000000000000000000000000000000000000000000000000000000000027effffffffffffffffffffffffffffffffffffffffffffffffffffffffffffff191614151515612176576040517f08c379a000000000000000000000000000000000000000000000000000000000815260040180806020018281038252600e8152602001807f416c69617320697320656d70747900000000000000000000000000000000000081525060200191505060405180910390fd5b86866000151561218583610b17565b15151480156121a157506000151561219d838361439d565b1515145b1515612215576040517f08c379a000000000000000000000000000000000000000000000000000000000815260040180806020018281038252601a8152602001807f416c696173206f722074616720646f65736e277420657869737400000000000081525060200191505060405180910390fd5b886001151560016000836000191660001916815260200190815260200160002060009054906101000a900460ff1615151415156122ba576040517f08c379a00000000000000000000000000000000000000000000000000000000081526004018080602001828103825260138152602001807f416c69617320646f65736e27742065786973740000000000000000000000000081525060200191505060405180910390fd5b60026000808360001916600019168152602001908152602001600020548154811015156122e357fe5b906000526020600020906007020160060160009054906101000a900473ffffffffffffffffffffffffffffffffffffffff1673ffffffffffffffffffffffffffffffffffffffff163373ffffffffffffffffffffffffffffffffffffffff161415156123dd576040517f08c379a00000000000000000000000000000000000000000000000000000000081526004018080602001828103825260278152602001807f4f6e6c7920616c696173206f776e65722063616e2063616c6c2074686973206681526020017f756e6374696f6e0000000000000000000000000000000000000000000000000081525060400191505060405180910390fd5b60026000808c600019166000191681526020019081526020016000205481548110151561240657fe5b906000526020600020906007020160000196508660000160008a60001916600019168152602001908152602001600020549550866001018681548110151561244a57fe5b906000526020600020906004020160000173__TNSTag________________________________63a7551a3e90918a6040518363ffffffff167c0100000000000000000000000000000000000000000000000000000000028152600401808381526020018281526020019250505060006040518083038186803b1580156124cf57600080fd5b505af41580156124e3573d6000803e3d6000fd5b505050503373ffffffffffffffffffffffffffffffffffffffff167fd713555621920b224de101490062f8e270b78138596c90ce629163a35198cfcc8b60405180826000191660001916815260200191505060405180910390a250505050505050505050565b60008083836000151561255b83610b17565b1515148015612577575060001515612573838361439d565b1515145b15156125eb576040517f08c379a000000000000000000000000000000000000000000000000000000000815260040180806020018281038252601a8152602001807f416c696173206f722074616720646f65736e277420657869737400000000000081525060200191505060405180910390fd5b600260008088600019166000191681526020019081526020016000205481548110151561261457fe5b906000526020600020906007020160000192508260010183600001600087600019166000191681526020019081526020016000205481548110151561265557fe5b906000526020600020906004020160000173__TNSTag________________________________63fb34ccff90916040518263ffffffff167c01000000000000000000000000000000000000000000000000000000000281526004018082815260200191505060206040518083038186803b1580156126d257600080fd5b505af41580156126e6573d6000803e3d6000fd5b505050506040513d60208110156126fc57600080fd5b8101908080519060200190929190505050935050505092915050565b612720615f20565b8560007f01000000000000000000000000000000000000000000000000000000000000000281600060208110151561275457fe5b1a7f0100000000000000000000000000000000000000000000000000000000000000027effffffffffffffffffffffffffffffffffffffffffffffffffffffffffffff19161415151561280f576040517f08c379a000000000000000000000000000000000000000000000000000000000815260040180806020018281038252600e8152602001807f416c69617320697320656d70747900000000000000000000000000000000000081525060200191505060405180910390fd5b8460007f01000000000000000000000000000000000000000000000000000000000000000281600060208110151561284357fe5b1a7f0100000000000000000000000000000000000000000000000000000000000000027effffffffffffffffffffffffffffffffffffffffffffffffffffffffffffff1916141515156128fe576040517f08c379a000000000000000000000000000000000000000000000000000000000815260040180806020018281038252600e8152602001807f416c69617320697320656d70747900000000000000000000000000000000000081525060200191505060405180910390fd5b60008473ffffffffffffffffffffffffffffffffffffffff161415151561298d576040517f08c379a00000000000000000000000000000000000000000000000000000000081526004018080602001828103825260138152602001807f7075624164647265737320697320656d7074790000000000000000000000000081525060200191505060405180910390fd5b8383602001516000019073ffffffffffffffffffffffffffffffffffffffff16908173ffffffffffffffffffffffffffffffffffffffff16815250506129d288610b17565b156129e9576129e48888888887615924565b612b75565b3373ffffffffffffffffffffffffffffffffffffffff1660026000808b6000191660001916815260200190815260200160002054815481101515612a2957fe5b906000526020600020906007020160060160009054906101000a900473ffffffffffffffffffffffffffffffffffffffff1673ffffffffffffffffffffffffffffffffffffffff161415612b0657612a81888761439d565b1515612af5576040517f08c379a00000000000000000000000000000000000000000000000000000000081526004018080602001828103825260128152602001807f54616720616c726561647920657869737473000000000000000000000000000081525060200191505060405180910390fd5b612b0188878786615c87565b612b74565b6040517f08c379a00000000000000000000000000000000000000000000000000000000081526004018080602001828103825260168152602001807f416c69617320697320616c72656164792074616b656e0000000000000000000081525060200191505060405180910390fd5b5b3373ffffffffffffffffffffffffffffffffffffffff167fd713555621920b224de101490062f8e270b78138596c90ce629163a35198cfcc8960405180826000191660001916815260200191505060405180910390a25050505050505050565b60008060008560007f010000000000000000000000000000000000000000000000000000000000000002816000602081101515612c0e57fe5b1a7f0100000000000000000000000000000000000000000000000000000000000000027effffffffffffffffffffffffffffffffffffffffffffffffffffffffffffff191614151515612cc9576040517f08c379a000000000000000000000000000000000000000000000000000000000815260040180806020018281038252600e8152602001807f416c69617320697320656d70747900000000000000000000000000000000000081525060200191505060405180910390fd5b8560007f010000000000000000000000000000000000000000000000000000000000000002816000602081101515612cfd57fe5b1a7f0100000000000000000000000000000000000000000000000000000000000000027effffffffffffffffffffffffffffffffffffffffffffffffffffffffffffff191614151515612db8576040517f08c379a000000000000000000000000000000000000000000000000000000000815260040180806020018281038252600e8152602001807f416c69617320697320656d70747900000000000000000000000000000000000081525060200191505060405180910390fd5b878760001515612dc783610b17565b1515148015612de3575060001515612ddf838361439d565b1515145b1515612e57576040517f08c379a000000000000000000000000000000000000000000000000000000000815260040180806020018281038252601a8152602001807f416c696173206f722074616720646f65736e277420657869737400000000000081525060200191505060405180910390fd5b896001151560016000836000191660001916815260200190815260200160002060009054906101000a900460ff161515141515612efc576040517f08c379a00000000000000000000000000000000000000000000000000000000081526004018080602001828103825260138152602001807f416c69617320646f65736e27742065786973740000000000000000000000000081525060200191505060405180910390fd5b6002600080836000191660001916815260200190815260200160002054815481101515612f2557fe5b906000526020600020906007020160060160009054906101000a900473ffffffffffffffffffffffffffffffffffffffff1673ffffffffffffffffffffffffffffffffffffffff163373ffffffffffffffffffffffffffffffffffffffff1614151561301f576040517f08c379a00000000000000000000000000000000000000000000000000000000081526004018080602001828103825260278152602001807f4f6e6c7920616c696173206f776e65722063616e2063616c6c2074686973206681526020017f756e6374696f6e0000000000000000000000000000000000000000000000000081525060400191505060405180910390fd5b60026000808d600019166000191681526020019081526020016000205481548110151561304857fe5b906000526020600020906007020160000197508760000160008b60001916600019168152602001908152602001600020549650876001018781548110151561308c57fe5b906000526020600020906004020160000173__TNSTag________________________________6392272f5290916040518263ffffffff167c01000000000000000000000000000000000000000000000000000000000281526004018082815260200191505060206040518083038186803b15801561310957600080fd5b505af415801561311d573d6000803e3d6000fd5b505050506040513d602081101561313357600080fd5b8101908080519060200190929190505050955060148610151561320a576040517f08c379a00000000000000000000000000000000000000000000000000000000081526004018080602001828103825260418152602001807f596f752063616e206f6e6c792073746f726520757020746f203230206164647281526020017f657373657320696e206f7264657220746f206f62657920676173206c696d697481526020017f2e0000000000000000000000000000000000000000000000000000000000000081525060600191505060405180910390fd5b876001018781548110151561321b57fe5b906000526020600020906004020160000173__TNSTag________________________________639f2795bd90918b6040518363ffffffff167c0100000000000000000000000000000000000000000000000000000000028152600401808381526020018273ffffffffffffffffffffffffffffffffffffffff1673ffffffffffffffffffffffffffffffffffffffff1681526020019250505060006040518083038186803b1580156132cc57600080fd5b505af41580156132e0573d6000803e3d6000fd5b505050503373ffffffffffffffffffffffffffffffffffffffff167fd713555621920b224de101490062f8e270b78138596c90ce629163a35198cfcc8c60405180826000191660001916815260200191505060405180910390a25050505050505050505050565b6000816000151561335782610b17565b15151415156133ce576040517f08c379a00000000000000000000000000000000000000000000000000000000081526004018080602001828103825260148152602001807f416c69617320646f65736e27742065786973742100000000000000000000000081525060200191505060405180910390fd5b60026000808560001916600019168152602001908152602001600020548154811015156133f757fe5b906000526020600020906007020160060160009054906101000a900473ffffffffffffffffffffffffffffffffffffffff16915050919050565b6000808460007f01000000000000000000000000000000000000000000000000000000000000000281600060208110151561346857fe5b1a7f0100000000000000000000000000000000000000000000000000000000000000027effffffffffffffffffffffffffffffffffffffffffffffffffffffffffffff191614151515613523576040517f08c379a000000000000000000000000000000000000000000000000000000000815260040180806020018281038252600e8152602001807f416c69617320697320656d70747900000000000000000000000000000000000081525060200191505060405180910390fd5b8460007f01000000000000000000000000000000000000000000000000000000000000000281600060208110151561355757fe5b1a7f0100000000000000000000000000000000000000000000000000000000000000027effffffffffffffffffffffffffffffffffffffffffffffffffffffffffffff191614151515613612576040517f08c379a000000000000000000000000000000000000000000000000000000000815260040180806020018281038252600e8152602001807f416c69617320697320656d70747900000000000000000000000000000000000081525060200191505060405180910390fd5b86866000151561362183610b17565b151514801561363d575060001515613639838361439d565b1515145b15156136b1576040517f08c379a000000000000000000000000000000000000000000000000000000000815260040180806020018281038252601a8152602001807f416c696173206f722074616720646f65736e277420657869737400000000000081525060200191505060405180910390fd5b886001151560016000836000191660001916815260200190815260200160002060009054906101000a900460ff161515141515613756576040517f08c379a00000000000000000000000000000000000000000000000000000000081526004018080602001828103825260138152602001807f416c69617320646f65736e27742065786973740000000000000000000000000081525060200191505060405180910390fd5b600260008083600019166000191681526020019081526020016000205481548110151561377f57fe5b906000526020600020906007020160060160009054906101000a900473ffffffffffffffffffffffffffffffffffffffff1673ffffffffffffffffffffffffffffffffffffffff163373ffffffffffffffffffffffffffffffffffffffff16141515613879576040517f08c379a00000000000000000000000000000000000000000000000000000000081526004018080602001828103825260278152602001807f4f6e6c7920616c696173206f776e65722063616e2063616c6c2074686973206681526020017f756e6374696f6e0000000000000000000000000000000000000000000000000081525060400191505060405180910390fd5b60026000808c60001916600019168152602001908152602001600020548154811015156138a257fe5b906000526020600020906007020160000196508660000160008a6000191660001916815260200190815260200160002054955086600101868154811015156138e657fe5b906000526020600020906004020160000173__TNSTag________________________________6338cc095390918a6040518363ffffffff167c01000000000000000000000000000000000000000000000000000000000281526004018083815260200180602001828103825283818151815260200191508051906020019060200280838360005b8381101561398857808201518184015260208101905061396d565b50505050905001935050505060006040518083038186803b1580156139ac57600080fd5b505af41580156139c0573d6000803e3d6000fd5b505050503373ffffffffffffffffffffffffffffffffffffffff167fd713555621920b224de101490062f8e270b78138596c90ce629163a35198cfcc8b60405180826000191660001916815260200191505060405180910390a250505050505050505050565b6060600360009054906101000a900473ffffffffffffffffffffffffffffffffffffffff1673ffffffffffffffffffffffffffffffffffffffff16635aac6822836040518263ffffffff167c0100000000000000000000000000000000000000000000000000000000028152600401808273ffffffffffffffffffffffffffffffffffffffff1673ffffffffffffffffffffffffffffffffffffffff168152602001915050600060405180830381600087803b158015613ae557600080fd5b505af1158015613af9573d6000803e3d6000fd5b505050506040513d6000823e3d601f19601f820116820180604052506020811015613b2357600080fd5b810190808051640100000000811115613b3b57600080fd5b82810190506020810184811115613b5157600080fd5b8151856020820283011164010000000082111715613b6e57600080fd5b50509291905050509050919050565b6000808460007f010000000000000000000000000000000000000000000000000000000000000002816000602081101515613bb457fe5b1a7f0100000000000000000000000000000000000000000000000000000000000000027effffffffffffffffffffffffffffffffffffffffffffffffffffffffffffff191614151515613c6f576040517f08c379a000000000000000000000000000000000000000000000000000000000815260040180806020018281038252600e8152602001807f416c69617320697320656d70747900000000000000000000000000000000000081525060200191505060405180910390fd5b8460007f010000000000000000000000000000000000000000000000000000000000000002816000602081101515613ca357fe5b1a7f0100000000000000000000000000000000000000000000000000000000000000027effffffffffffffffffffffffffffffffffffffffffffffffffffffffffffff191614151515613d5e576040517f08c379a000000000000000000000000000000000000000000000000000000000815260040180806020018281038252600e8152602001807f416c69617320697320656d70747900000000000000000000000000000000000081525060200191505060405180910390fd5b868660001515613d6d83610b17565b1515148015613d89575060001515613d85838361439d565b1515145b1515613dfd576040517f08c379a000000000000000000000000000000000000000000000000000000000815260040180806020018281038252601a8152602001807f416c696173206f722074616720646f65736e277420657869737400000000000081525060200191505060405180910390fd5b886001151560016000836000191660001916815260200190815260200160002060009054906101000a900460ff161515141515613ea2576040517f08c379a00000000000000000000000000000000000000000000000000000000081526004018080602001828103825260138152602001807f416c69617320646f65736e27742065786973740000000000000000000000000081525060200191505060405180910390fd5b6002600080836000191660001916815260200190815260200160002054815481101515613ecb57fe5b906000526020600020906007020160060160009054906101000a900473ffffffffffffffffffffffffffffffffffffffff1673ffffffffffffffffffffffffffffffffffffffff163373ffffffffffffffffffffffffffffffffffffffff16141515613fc5576040517f08c379a00000000000000000000000000000000000000000000000000000000081526004018080602001828103825260278152602001807f4f6e6c7920616c696173206f776e65722063616e2063616c6c2074686973206681526020017f756e6374696f6e0000000000000000000000000000000000000000000000000081525060400191505060405180910390fd5b60026000808c6000191660001916815260200190815260200160002054815481101515613fee57fe5b906000526020600020906007020160000196508660000160008a60001916600019168152602001908152602001600020549550866001018681548110151561403257fe5b906000526020600020906004020160000173__TNSTag________________________________63239cf80890918a6040518363ffffffff167c010000000000000000000000000000000000000000000000000000000002815260040180838152602001821515151581526020019250505060006040518083038186803b1580156140bb57600080fd5b505af41580156140cf573d6000803e3d6000fd5b505050503373ffffffffffffffffffffffffffffffffffffffff167fd713555621920b224de101490062f8e270b78138596c90ce629163a35198cfcc8b60405180826000191660001916815260200191505060405180910390a250505050505050505050565b6060600083836000151561414883610b17565b1515148015614164575060001515614160838361439d565b1515145b15156141d8576040517f08c379a000000000000000000000000000000000000000000000000000000000815260040180806020018281038252601a8152602001807f416c696173206f722074616720646f65736e277420657869737400000000000081525060200191505060405180910390fd5b600260008088600019166000191681526020019081526020016000205481548110151561420157fe5b906000526020600020906007020160000192508260010183600001600087600019166000191681526020019081526020016000205481548110151561424257fe5b906000526020600020906004020160000173__TNSTag________________________________636696da9290916040518263ffffffff167c01000000000000000000000000000000000000000000000000000000000281526004018082815260200191505060006040518083038186803b1580156142bf57600080fd5b505af41580156142d3573d6000803e3d6000fd5b505050506040513d6000823e3d601f19601f8201168201806040525060208110156142fd57600080fd5b81019080805164010000000081111561431557600080fd5b8281019050602081018481111561432b57600080fd5b815185602082028301116401000000008211171561434857600080fd5b5050929190505050935050505092915050565b60006060600060606000806143708888614135565b925061437c8888612549565b91506143888888611b7e565b90508083839550955095505050509250925092565b60006001151560016000856000191660001916815260200190815260200160002060009054906101000a900460ff161515141561444e5760011515600260008086600019166000191681526020019081526020016000205481548110151561440157fe5b90600052602060002090600702016000016003016000846000191660001916815260200190815260200160002060009054906101000a900460ff161515141561444d5760009050614453565b5b600190505b92915050565b6000808660007f01000000000000000000000000000000000000000000000000000000000000000281600060208110151561449057fe5b1a7f0100000000000000000000000000000000000000000000000000000000000000027effffffffffffffffffffffffffffffffffffffffffffffffffffffffffffff19161415151561454b576040517f08c379a000000000000000000000000000000000000000000000000000000000815260040180806020018281038252600e8152602001807f416c69617320697320656d70747900000000000000000000000000000000000081525060200191505060405180910390fd5b8660007f01000000000000000000000000000000000000000000000000000000000000000281600060208110151561457f57fe5b1a7f0100000000000000000000000000000000000000000000000000000000000000027effffffffffffffffffffffffffffffffffffffffffffffffffffffffffffff19161415151561463a576040517f08c379a000000000000000000000000000000000000000000000000000000000815260040180806020018281038252600e8152602001807f416c69617320697320656d70747900000000000000000000000000000000000081525060200191505060405180910390fd5b88886000151561464983610b17565b1515148015614665575060001515614661838361439d565b1515145b15156146d9576040517f08c379a000000000000000000000000000000000000000000000000000000000815260040180806020018281038252601a8152602001807f416c696173206f722074616720646f65736e277420657869737400000000000081525060200191505060405180910390fd5b8a6001151560016000836000191660001916815260200190815260200160002060009054906101000a900460ff16151514151561477e576040517f08c379a00000000000000000000000000000000000000000000000000000000081526004018080602001828103825260138152602001807f416c69617320646f65736e27742065786973740000000000000000000000000081525060200191505060405180910390fd5b60026000808360001916600019168152602001908152602001600020548154811015156147a757fe5b906000526020600020906007020160060160009054906101000a900473ffffffffffffffffffffffffffffffffffffffff1673ffffffffffffffffffffffffffffffffffffffff163373ffffffffffffffffffffffffffffffffffffffff161415156148a1576040517f08c379a00000000000000000000000000000000000000000000000000000000081526004018080602001828103825260278152602001807f4f6e6c7920616c696173206f776e65722063616e2063616c6c2074686973206681526020017f756e6374696f6e0000000000000000000000000000000000000000000000000081525060400191505060405180910390fd5b60007f0100000000000000000000000000000000000000000000000000000000000000028960006020811015156148d457fe5b1a7f0100000000000000000000000000000000000000000000000000000000000000027effffffffffffffffffffffffffffffffffffffffffffffffffffffffffffff19161415151561498f576040517f08c379a00000000000000000000000000000000000000000000000000000000081526004018080602001828103825260108152602001807f4e65772074616720697320656d7074790000000000000000000000000000000081525060200191505060405180910390fd5b6149998c8a61439d565b1515614a0d576040517f08c379a00000000000000000000000000000000000000000000000000000000081526004018080602001828103825260128152602001807f54616720616c726561647920657869737473000000000000000000000000000081525060200191505060405180910390fd5b60026000808e6000191660001916815260200190815260200160002054815481101515614a3657fe5b906000526020600020906007020160000196508660030160008c6000191660001916815260200190815260200160002060006101000a81549060ff021916905560018760030160008b6000191660001916815260200190815260200160002060006101000a81548160ff0219169083151502179055508660000160008c60001916600019168152602001908152602001600020549550878760010187815481101515614ade57fe5b90600052602060002090600402016003018160001916905550888760020187815481101515614b0957fe5b906000526020600020018160001916905550858760000160008b60001916600019168152602001908152602001600020819055508660000160008c60001916600019168152602001908152602001600020600090553373ffffffffffffffffffffffffffffffffffffffff167f3f7c5904943ad21b9256174ea1f6c00b1785c4a181ffe526f8bba2ac0ad2a06d60405160405180910390a2505050505050505050505050565b614bb7615f20565b8560007f010000000000000000000000000000000000000000000000000000000000000002816000602081101515614beb57fe5b1a7f0100000000000000000000000000000000000000000000000000000000000000027effffffffffffffffffffffffffffffffffffffffffffffffffffffffffffff191614151515614ca6576040517f08c379a000000000000000000000000000000000000000000000000000000000815260040180806020018281038252600e8152602001807f416c69617320697320656d70747900000000000000000000000000000000000081525060200191505060405180910390fd5b8460007f010000000000000000000000000000000000000000000000000000000000000002816000602081101515614cda57fe5b1a7f0100000000000000000000000000000000000000000000000000000000000000027effffffffffffffffffffffffffffffffffffffffffffffffffffffffffffff191614151515614d95576040517f08c379a000000000000000000000000000000000000000000000000000000000815260040180806020018281038252600e8152602001807f416c69617320697320656d70747900000000000000000000000000000000000081525060200191505060405180910390fd5b60008451111515614e0e576040517f08c379a00000000000000000000000000000000000000000000000000000000081526004018080602001828103825260178152602001807f67656e416464726573734c69737420697320656d70747900000000000000000081525060200191505060405180910390fd5b60018360000151602001901515908115158152505083836000015160000181905250614e3988610b17565b15614e5057614e4b8888888887615924565b614fdc565b3373ffffffffffffffffffffffffffffffffffffffff1660026000808b6000191660001916815260200190815260200160002054815481101515614e9057fe5b906000526020600020906007020160060160009054906101000a900473ffffffffffffffffffffffffffffffffffffffff1673ffffffffffffffffffffffffffffffffffffffff161415614f6d57614ee8888761439d565b1515614f5c576040517f08c379a00000000000000000000000000000000000000000000000000000000081526004018080602001828103825260128152602001807f54616720616c726561647920657869737473000000000000000000000000000081525060200191505060405180910390fd5b614f6888878786615c87565b614fdb565b6040517f08c379a00000000000000000000000000000000000000000000000000000000081526004018080602001828103825260168152602001807f416c69617320697320616c72656164792074616b656e0000000000000000000081525060200191505060405180910390fd5b5b3373ffffffffffffffffffffffffffffffffffffffff167fd713555621920b224de101490062f8e270b78138596c90ce629163a35198cfcc8960405180826000191660001916815260200191505060405180910390a25050505050505050565b60008084846000151561504e83610b17565b151514801561506a575060001515615066838361439d565b1515145b15156150de576040517f08c379a000000000000000000000000000000000000000000000000000000000815260040180806020018281038252601a8152602001807f416c696173206f722074616720646f65736e277420657869737400000000000081525060200191505060405180910390fd5b600260008089600019166000191681526020019081526020016000205481548110151561510757fe5b906000526020600020906007020160000192508260010183600001600088600019166000191681526020019081526020016000205481548110151561514857fe5b906000526020600020906004020160000173__TNSTag________________________________638077b7ca9091876040518363ffffffff167c0100000000000000000000000000000000000000000000000000000000028152600401808381526020018281526020019250505060206040518083038186803b1580156151cd57600080fd5b505af41580156151e1573d6000803e3d6000fd5b505050506040513d60208110156151f757600080fd5b810190808051906020019092919050505093505050509392505050565b60008460007f01000000000000000000000000000000000000000000000000000000000000000281600060208110151561524a57fe5b1a7f0100000000000000000000000000000000000000000000000000000000000000027effffffffffffffffffffffffffffffffffffffffffffffffffffffffffffff191614151515615305576040517f08c379a000000000000000000000000000000000000000000000000000000000815260040180806020018281038252600e8152602001807f416c69617320697320656d70747900000000000000000000000000000000000081525060200191505060405180910390fd5b856001151560016000836000191660001916815260200190815260200160002060009054906101000a900460ff1615151415156153aa576040517f08c379a00000000000000000000000000000000000000000000000000000000081526004018080602001828103825260138152602001807f416c69617320646f65736e27742065786973740000000000000000000000000081525060200191505060405180910390fd5b60026000808360001916600019168152602001908152602001600020548154811015156153d357fe5b906000526020600020906007020160060160009054906101000a900473ffffffffffffffffffffffffffffffffffffffff1673ffffffffffffffffffffffffffffffffffffffff163373ffffffffffffffffffffffffffffffffffffffff161415156154cd576040517f08c379a00000000000000000000000000000000000000000000000000000000081526004018080602001828103825260278152602001807f4f6e6c7920616c696173206f776e65722063616e2063616c6c2074686973206681526020017f756e6374696f6e0000000000000000000000000000000000000000000000000081525060400191505060405180910390fd5b60007f01000000000000000000000000000000000000000000000000000000000000000285600060208110151561550057fe5b1a7f0100000000000000000000000000000000000000000000000000000000000000027effffffffffffffffffffffffffffffffffffffffffffffffffffffffffffff1916141515156155bb576040517f08c379a00000000000000000000000000000000000000000000000000000000081526004018080602001828103825260128152602001807f4e657720416c69617320697320656d707479000000000000000000000000000081525060200191505060405180910390fd5b6155c485610b17565b1515615638576040517f08c379a00000000000000000000000000000000000000000000000000000000081526004018080602001828103825260168152602001807f416c69617320697320616c72656164792074616b656e0000000000000000000081525060200191505060405180910390fd5b60016000886000191660001916815260200190815260200160002060006101000a81549060ff02191690556001806000876000191660001916815260200190815260200160002060006101000a81548160ff0219169083151502179055506000808860001916600019168152602001908152602001600020549250826000808760001916600019168152602001908152602001600020819055506000808860001916600019168152602001908152602001600020600090558360028481548110151561570057fe5b90600052602060002090600702016004018160001916905550600360009054906101000a900473ffffffffffffffffffffffffffffffffffffffff1673ffffffffffffffffffffffffffffffffffffffff166303c680e93389886040518463ffffffff167c0100000000000000000000000000000000000000000000000000000000028152600401808473ffffffffffffffffffffffffffffffffffffffff1673ffffffffffffffffffffffffffffffffffffffff168152602001836000191660001916815260200182600019166000191681526020019350505050600060405180830381600087803b1580156157f657600080fd5b505af115801561580a573d6000803e3d6000fd5b505050503373ffffffffffffffffffffffffffffffffffffffff167f3f7c5904943ad21b9256174ea1f6c00b1785c4a181ffe526f8bba2ac0ad2a06d60405160405180910390a250505050505050565b6000816000151561586a82610b17565b15151415156158e1576040517f08c379a00000000000000000000000000000000000000000000000000000000081526004018080602001828103825260148152602001807f416c69617320646f65736e27742065786973742100000000000000000000000081525060200191505060405180910390fd5b600260008085600019166000191681526020019081526020016000205481548110151561590a57fe5b906000526020600020906007020160040154915050919050565b600080600080600060018060008c6000191660001916815260200190815260200160002060006101000a81548160ff0219169083151502179055506002805490509450846000808c60001916600019168152602001908152602001600020819055506002805480919060010161599a9190615f47565b506002858154811015156159aa57fe5b9060005260206000209060070201935088846004018160001916905550848460050181905550338460060160006101000a81548173ffffffffffffffffffffffffffffffffffffffff021916908373ffffffffffffffffffffffffffffffffffffffff16021790555083600001925060018360030160008a6000191660001916815260200190815260200160002060006101000a81548160ff02191690831515021790555082600101805490509150826001018054809190600101615a6f9190615eee565b508260010182815481101515615a8157fe5b9060005260206000209060040201905085816000016000820151816000016000820151816000019080519060200190615abb929190615f79565b5060208201518160010160006101000a81548160ff021916908315150217905550505060208201518160020160008201518160000160006101000a81548173ffffffffffffffffffffffffffffffffffffffff021916908373ffffffffffffffffffffffffffffffffffffffff160217905550505090505086816003018160001916905550818360000160008a600019166000191681526020019081526020016000208190555082600201889080600181540180825580915050906001820390600052602060002001600090919290919091509060001916905550600360009054906101000a900473ffffffffffffffffffffffffffffffffffffffff1673ffffffffffffffffffffffffffffffffffffffff1663233a04d3338c6040518363ffffffff167c0100000000000000000000000000000000000000000000000000000000028152600401808373ffffffffffffffffffffffffffffffffffffffff1673ffffffffffffffffffffffffffffffffffffffff168152602001826000191660001916815260200192505050600060405180830381600087803b158015615c6357600080fd5b505af1158015615c77573d6000803e3d6000fd5b5050505050505050505050505050565b600080615c92616003565b6000808860001916600019168152602001908152602001600020549250600283815481101515615cbe57fe5b906000526020600020906007020160000191506001826003016000886000191660001916815260200190815260200160002060006101000a81548160ff02191690831515021790555060408051908101604052808581526020018660001916815250905081600101805490508260000160008860001916600019168152602001908152602001600020819055508160010181908060018154018082558091505090600182039060005260206000209060040201600090919290919091506000820151816000016000820151816000016000820151816000019080519060200190615da9929190615f79565b5060208201518160010160006101000a81548160ff021916908315150217905550505060208201518160020160008201518160000160006101000a81548173ffffffffffffffffffffffffffffffffffffffff021916908373ffffffffffffffffffffffffffffffffffffffff16021790555050505050602082015181600301906000191690555050508160020186908060018154018082558091505090600182039060005260206000200160009091929091909150906000191690555050505050505050565b815481835581811115615e9757818360005260206000209182019101615e969190616027565b5b505050565b828054828255906000526020600020908101928215615edd5760005260206000209182015b82811115615edc578254825591600101919060010190615ec1565b5b509050615eea919061604c565b5090565b815481835581811115615f1b57600402816004028360005260206000209182019101615f1a919061608f565b5b505050565b606060405190810160405280615f34616116565b8152602001615f41616132565b81525090565b815481835581811115615f7457600702816007028360005260206000209182019101615f73919061615c565b5b505050565b828054828255906000526020600020908101928215615ff2579160200282015b82811115615ff15782518260006101000a81548173ffffffffffffffffffffffffffffffffffffffff021916908373ffffffffffffffffffffffffffffffffffffffff16021790555091602001919060010190615f99565b5b509050615fff919061604c565b5090565b6080604051908101604052806160176161da565b8152602001600080191681525090565b61604991905b8082111561604557600081600090555060010161602d565b5090565b90565b61608c91905b8082111561608857600081816101000a81549073ffffffffffffffffffffffffffffffffffffffff021916905550600101616052565b5090565b90565b61611391905b8082111561610f5760008082016000808201600080820160006160b89190616201565b6001820160006101000a81549060ff0219169055505060028201600080820160006101000a81549073ffffffffffffffffffffffffffffffffffffffff021916905550505050600382016000905550600401616095565b5090565b90565b6040805190810160405280606081526020016000151581525090565b602060405190810160405280600073ffffffffffffffffffffffffffffffffffffffff1681525090565b6161d791905b808211156161d357600080820160006001820160006161819190616222565b6002820160006161919190616246565b5050600482016000905560058201600090556006820160006101000a81549073ffffffffffffffffffffffffffffffffffffffff021916905550600701616162565b5090565b90565b6060604051908101604052806161ee616116565b81526020016161fb616132565b81525090565b508054600082559060005260206000209081019061621f9190616267565b50565b5080546000825560040290600052602060002090810190616243919061608f565b50565b50805460008255906000526020600020908101906162649190616027565b50565b61628991905b8082111561628557600081600090555060010161626d565b5090565b905600496e206f7264657220746f20756e736574207075626c696320616464726573732c206175746f2d67656e65726174656420616464726573736573206f7074696f6e206d757374206265206f6e20616e64206861766520726f746174696e67206164647265737365732e204f6e6c79206f6e65206f7074696f6e2063616e206265206f6e20617420616e7920676976656e2074696d652ea165627a7a72305820607083ed73d3e10adef315e365027e6d6097b5b18056a3fa9f0e911e97da57400029608060405234801561001057600080fd5b50610406806100206000396000f300608060405260043610610057576000357c0100000000000000000000000000000000000000000000000000000000900463ffffffff16806303c680e91461005c578063233a04d3146100bb5780635aac68221461010c575b600080fd5b34801561006857600080fd5b506100b9600480360381019080803573ffffffffffffffffffffffffffffffffffffffff169060200190929190803560001916906020019092919080356000191690602001909291905050506101a4565b005b3480156100c757600080fd5b5061010a600480360381019080803573ffffffffffffffffffffffffffffffffffffffff16906020019092919080356000191690602001909291905050506102ce565b005b34801561011857600080fd5b5061014d600480360381019080803573ffffffffffffffffffffffffffffffffffffffff169060200190929190505050610340565b6040518080602001828103825283818151815260200191508051906020019060200280838360005b83811015610190578082015181840152602081019050610175565b505050509050019250505060405180910390f35b60008090505b6000808573ffffffffffffffffffffffffffffffffffffffff1673ffffffffffffffffffffffffffffffffffffffff168152602001908152602001600020805490508110156102c85782600019166000808673ffffffffffffffffffffffffffffffffffffffff1673ffffffffffffffffffffffffffffffffffffffff1681526020019081526020016000208281548110151561024357fe5b90600052602060002001546000191614156102bb57816000808673ffffffffffffffffffffffffffffffffffffffff1673ffffffffffffffffffffffffffffffffffffffff168152602001908152602001600020828154811015156102a457fe5b9060005260206000200181600019169055506102c8565b80806001019150506101aa565b50505050565b6000808373ffffffffffffffffffffffffffffffffffffffff1673ffffffffffffffffffffffffffffffffffffffff1681526020019081526020016000208190806001815401808255809150509060018203906000526020600020016000909192909190915090600019169055505050565b60606000808373ffffffffffffffffffffffffffffffffffffffff1673ffffffffffffffffffffffffffffffffffffffff1681526020019081526020016000208054806020026020016040519081016040528092919081815260200182805480156103ce57602002820191906000526020600020905b815460001916815260200190600101908083116103b6575b505050505090509190505600a165627a7a723058209c74aefde948058e2215ad568bb0f1f4c662f226f9818ce321a8a3b13c9d44d00029",
  "source": "pragma solidity ^0.4.23;\n\nimport {TNSTag} from \"./TNSTag.sol\";\nimport {TNSOwnerReverse} from \"./TNSOwnerReverse.sol\";\n\ncontract TNS{\n    using TNSTag for TNSTag.TNSTagData;\n    struct TagWrapStruct{\n        TNSTag.TNSTagData tnsTagData;\n        bytes32 encryptedTag;\n    }\n    /* We make sure the index tagIdxMap resolves to is the same for both\n    tagList and keccakTagsList */\n    struct TagData{\n        mapping (bytes32 => uint) tagIdxMap;\n        TagWrapStruct[] tagList;\n        bytes32[] keccakTagsList;\n        mapping (bytes32 => bool) tagExistMap;\n    }\n    struct AliasWrapStruct{\n        TagData tagData;\n        bytes32 encryptedAlias;\n        uint aliasIdx;\n        address aliasOwner;\n    }\n    mapping (bytes32 => uint) aliasIdxMap;\n    mapping (bytes32 => bool) aliasExistMap;\n    AliasWrapStruct[] aliasList;\n\n    TNSOwnerReverse tnsOwnerReverse;\n\n    bytes32 defaultAddress = 0xcfee7c08a98f4b565d124c7e4e28acc52e1bc780e3887db0a02a7d2d5bc66728;\n    \n    //modifiers\n    modifier isOwner(bytes32 aliasName){\n        require(aliasExistMap[aliasName] == true, \"Alias doesn't exist\");\n        require(msg.sender == aliasList[aliasIdxMap[aliasName]].aliasOwner, \"Only alias owner can call this function\");\n        _;\n    }\n    modifier aliasTagExist(bytes32 aliasName, bytes32 tagName){\n        require(isAliasAvailable(aliasName) == false && isTagAvailable(aliasName,tagName) == false,\n            \"Alias or tag doesn't exist\");\n        _;\n    }\n    modifier aliasExist(bytes32 aliasName){\n        require(isAliasAvailable(aliasName) == false, \"Alias doesn't exist!\");\n        _;\n    }\n    modifier tagExist(bytes32 aliasName, bytes32 tagName){\n        require(isTagAvailable(aliasName, tagName) == false, \"Tag doesn't exist for alias!\");\n        _;\n    }\n    modifier aliasEmpty(bytes32 alias){\n        require(alias[0] != 0, \"Alias is empty\");\n        _;\n    }\n    modifier tagEmpty(bytes32 alias){\n        require(alias[0] != 0, \"Alias is empty\");\n        _;\n    }\n    event StateUpdated(address indexed _from);\n    event StateAliasUpdated(address indexed _from, bytes32 _alias); //fetch update for specific alias\n\n    constructor() public{\n        tnsOwnerReverse = new TNSOwnerReverse();\n    }\n\n    function addNewAlias(bytes32 aliasName, bytes32 encryptedAlias, bytes32 tagName,\n        bytes32 encryptedTag, TNSTag.TNSTagData tns_tag) private{\n\n        aliasExistMap[aliasName] = true;\n        uint alias_idx = aliasList.length;\n        aliasIdxMap[aliasName] = alias_idx;\n        aliasList.length++;\n        AliasWrapStruct storage alias_wrap_data = aliasList[alias_idx];\n        alias_wrap_data.encryptedAlias = encryptedAlias;\n        alias_wrap_data.aliasIdx = alias_idx;\n        alias_wrap_data.aliasOwner = msg.sender;\n        \n\n        TagData storage storage_tag_data = alias_wrap_data.tagData;\n        storage_tag_data.tagExistMap[tagName] = true;\n        uint tag_idx = storage_tag_data.tagList.length;\n        storage_tag_data.tagList.length++;\n\n        TagWrapStruct storage tag_wrapper = storage_tag_data.tagList[tag_idx];\n        tag_wrapper.tnsTagData = tns_tag;\n        tag_wrapper.encryptedTag = encryptedTag;\n        storage_tag_data.tagIdxMap[tagName] = tag_idx;\n        storage_tag_data.keccakTagsList.push(tagName);\n\n        //reverse mapping\n        tnsOwnerReverse.addOwnerAddress(msg.sender, aliasName);\n    }\n\n    function addNewTag(bytes32 aliasName, bytes32 tagName, bytes32 encryptedTag,\n        TNSTag.TNSTagData tns_tag) private{\n\n        uint alias_idx = aliasIdxMap[aliasName];\n        TagData storage storage_tag_data = aliasList[alias_idx].tagData;\n        storage_tag_data.tagExistMap[tagName] = true;\n        TagWrapStruct memory tag_wrapper = TagWrapStruct({\n            tnsTagData: tns_tag,\n            encryptedTag: encryptedTag\n        });\n        storage_tag_data.tagIdxMap[tagName] = storage_tag_data.tagList.length;\n        storage_tag_data.tagList.push(tag_wrapper);\n        storage_tag_data.keccakTagsList.push(tagName);\n    }\n\n    //tagName would be address of \"default\" or actual tag name\n    function setAliasStatic(bytes32 aliasName, bytes32 encryptedAlias, bytes32 tagName,\n        bytes32 encryptedTag, address pubAddress) public aliasEmpty(aliasName) tagEmpty(tagName){\n\n        require(pubAddress != 0x0, \"pubAddress is empty\");\n        \n        TNSTag.TNSTagData memory tns_tag;\n        tns_tag.tagMetaDataStruct.pubAddress = pubAddress;\n\n\n        if (isAliasAvailable(aliasName)){\n            addNewAlias(aliasName, encryptedAlias, tagName, encryptedTag, tns_tag);\n        }else if (aliasList[aliasIdxMap[aliasName]].aliasOwner == msg.sender){\n            //alias exists but we are trying to add a tag\n            require(isTagAvailable(aliasName, tagName), \"Tag already exists\");\n            addNewTag(aliasName, tagName, encryptedTag, tns_tag);\n        }else{\n            revert(\"Alias is already taken\");\n        }\n        emit StateAliasUpdated(msg.sender, aliasName);\n    }\n\n    /*If generating new address you wont have default public address for a tag*/\n    function setAliasGenerated(bytes32 aliasName, bytes32 encryptedAlias, bytes32 tagName,\n        bytes32 encryptedTag, address[] genAddressList) public aliasEmpty(aliasName) tagEmpty(tagName){\n\n        require(genAddressList.length > 0, \"genAddressList is empty\");\n\n        TNSTag.TNSTagData memory tns_tag;\n        tns_tag.genAddressStruct.generateAddress = true;\n        tns_tag.genAddressStruct.genAddressList = genAddressList; \n\n        if (isAliasAvailable(aliasName)){\n            addNewAlias(aliasName, encryptedAlias, tagName, encryptedTag, tns_tag);\n        }else if (aliasList[aliasIdxMap[aliasName]].aliasOwner == msg.sender){\n            require(isTagAvailable(aliasName, tagName), \"Tag already exists\");\n            addNewTag(aliasName, tagName, encryptedTag, tns_tag);\n        }else{\n            revert(\"Alias is already taken\");\n        }\n       emit StateAliasUpdated(msg.sender, aliasName);\n    }\n\n    //Entire alias & its corresponding tags cannot be deleted but can only be updated\n    function deleteAliasTag(bytes32 aliasName, bytes32 tagName) public aliasEmpty(aliasName) tagEmpty(tagName)\n        aliasTagExist(aliasName, tagName) isOwner(aliasName){\n\n        TagData storage storage_tag_data = aliasList[aliasIdxMap[aliasName]].tagData;\n\n        delete storage_tag_data.tagExistMap[tagName];\n\n        uint curr_tag_idx = storage_tag_data.tagIdxMap[tagName];\n        uint tag_last_idx = storage_tag_data.tagList.length - 1;\n\n        storage_tag_data.keccakTagsList[curr_tag_idx] = storage_tag_data.keccakTagsList[tag_last_idx];\n        storage_tag_data.tagIdxMap[storage_tag_data.keccakTagsList[tag_last_idx]] = curr_tag_idx;\n        storage_tag_data.keccakTagsList.length--;\n       \n        storage_tag_data.tagList[curr_tag_idx] = storage_tag_data.tagList[tag_last_idx];\n        storage_tag_data.tagList.length--;\n\n        delete storage_tag_data.tagIdxMap[tagName];\n\n        emit StateAliasUpdated(msg.sender, aliasName);\n    }\n\n    function updateAlias(bytes32 aliasName, bytes32 oldEncryptedAlias, bytes32 newAliasName,\n        bytes32 newEncryptedAlias) public aliasEmpty(aliasName) isOwner(aliasName){\n\n        require(newAliasName[0] != 0, \"New Alias is empty\");\n        require(isAliasAvailable(newAliasName), \"Alias is already taken\");\n\n        delete aliasExistMap[aliasName];\n        aliasExistMap[newAliasName] = true;\n        uint alias_idx = aliasIdxMap[aliasName];\n        aliasIdxMap[newAliasName] = alias_idx;\n        delete aliasIdxMap[aliasName];\n\n        aliasList[alias_idx].encryptedAlias = newEncryptedAlias;\n\n        tnsOwnerReverse.updateAlias(msg.sender, aliasName, newAliasName);\n\n        emit StateUpdated(msg.sender);\n    }\n\n    function updateTag(bytes32 aliasName, bytes32 tagName, bytes32 oldEncryptedTag,\n        bytes32 newTagName, bytes32 newEncryptedTag) public aliasEmpty(aliasName) tagEmpty(tagName) \n            aliasTagExist(aliasName, tagName) isOwner(aliasName){\n\n        require(newTagName[0] != 0, \"New tag is empty\");\n        require(isTagAvailable(aliasName, newTagName), \"Tag already exists\");\n\n        TagData storage storage_tag_data = aliasList[aliasIdxMap[aliasName]].tagData;\n        delete storage_tag_data.tagExistMap[tagName];\n        storage_tag_data.tagExistMap[newTagName] = true;\n\n        uint tag_idx = storage_tag_data.tagIdxMap[tagName];\n        storage_tag_data.tagList[tag_idx].encryptedTag = newEncryptedTag;\n\n        storage_tag_data.keccakTagsList[tag_idx] = newTagName;\n        storage_tag_data.tagIdxMap[newTagName] = tag_idx;\n        delete storage_tag_data.tagIdxMap[tagName];\n\n        emit StateUpdated(msg.sender);\n    }\n\n    function updatePubAddressForTag(bytes32 aliasName, bytes32 tagName,\n        address newPubAddress) public aliasEmpty(aliasName) tagEmpty(tagName)\n        aliasTagExist(aliasName, tagName) isOwner(aliasName){\n\n        TagData storage storage_tag_data = aliasList[aliasIdxMap[aliasName]].tagData;\n        uint tag_struct_idx = storage_tag_data.tagIdxMap[tagName];\n\n        if (newPubAddress == 0x0){\n            if (storage_tag_data.tagList[tag_struct_idx].tnsTagData.getGenAddressFlag() == false){\n                revert(\"In order to unset public address, auto-generated addresses option must be on and have rotating addresses. Only one option can be on at any given time.\");\n            }\n        }\n        storage_tag_data.tagList[tag_struct_idx].tnsTagData.setPubAddress(newPubAddress);\n        emit StateAliasUpdated(msg.sender, aliasName);\n    }\n\n    function updateGenAddressFlag(bytes32 aliasName, bytes32 tagName, bool genFlag) public aliasEmpty(aliasName) tagEmpty(tagName)\n        aliasTagExist(aliasName, tagName) isOwner(aliasName){\n        \n        TagData storage storage_tag_data = aliasList[aliasIdxMap[aliasName]].tagData;\n        uint tag_struct_idx = storage_tag_data.tagIdxMap[tagName];\n        storage_tag_data.tagList[tag_struct_idx].tnsTagData.setGenAddressFlag(genFlag);\n        emit StateAliasUpdated(msg.sender, aliasName);\n    }\n\n    function updateGenAddressListReplace(bytes32 aliasName, bytes32 tagName,\n        address[] addressList) public aliasEmpty(aliasName) tagEmpty(tagName) aliasTagExist(aliasName, tagName) isOwner(aliasName){\n\n        TagData storage storage_tag_data = aliasList[aliasIdxMap[aliasName]].tagData;\n        uint tag_struct_idx = storage_tag_data.tagIdxMap[tagName];\n        storage_tag_data.tagList[tag_struct_idx].tnsTagData.setGenAddressList(addressList);\n        emit StateAliasUpdated(msg.sender, aliasName);\n    }\n\n    function updateGenAddressListAppend(bytes32 aliasName, bytes32 tagName,\n        address newAddress) public aliasEmpty(aliasName) tagEmpty(tagName) aliasTagExist(aliasName, tagName) isOwner(aliasName){\n\n        TagData storage storage_tag_data = aliasList[aliasIdxMap[aliasName]].tagData;\n        uint tag_struct_idx = storage_tag_data.tagIdxMap[tagName];\n\n        uint num_elems =  storage_tag_data.tagList[tag_struct_idx].tnsTagData.getGenAddressListLen();\n        require(num_elems < 20, \"You can only store up to 20 addresses in order to obey gas limit.\");\n        storage_tag_data.tagList[tag_struct_idx].tnsTagData.appendGenAddressList(newAddress);\n        emit StateAliasUpdated(msg.sender, aliasName);\n    }\n\n    function updateGenAddressListDelete(bytes32 aliasName, bytes32 tagName, uint idxToRemove) public\n        aliasEmpty(aliasName) tagEmpty(tagName) aliasTagExist(aliasName, tagName) isOwner(aliasName){\n\n        TagData storage storage_tag_data = aliasList[aliasIdxMap[aliasName]].tagData;\n        uint tag_struct_idx = storage_tag_data.tagIdxMap[tagName];\n\n        storage_tag_data.tagList[tag_struct_idx].tnsTagData.deleteFromGenAddressList(idxToRemove);\n        emit StateAliasUpdated(msg.sender, aliasName);\n    }\n\n\n    //GETTERS\n\n    function getGenAddressList(bytes32 aliasName, bytes32 tagName) aliasTagExist(aliasName,tagName)\n        public view returns(address[]){\n        TagData storage storage_tag_data = aliasList[aliasIdxMap[aliasName]].tagData;\n        return storage_tag_data.tagList[storage_tag_data.tagIdxMap[tagName]].tnsTagData.getGenAddressList();\n    }\n\n    function getGenAddressListLen(bytes32 aliasName, bytes32 tagName) aliasTagExist(aliasName,tagName)\n        public view returns(uint){\n        TagData storage storage_tag_data = aliasList[aliasIdxMap[aliasName]].tagData;\n        return storage_tag_data.tagList[storage_tag_data.tagIdxMap[tagName]].tnsTagData.getGenAddressListLen();\n    }\n\n    function getPubAddressForTag(bytes32 aliasName, bytes32 tagName) aliasTagExist(aliasName,tagName)\n        public view returns(address){\n        TagData storage storage_tag_data = aliasList[aliasIdxMap[aliasName]].tagData;\n        return storage_tag_data.tagList[storage_tag_data.tagIdxMap[tagName]].tnsTagData.getPubAddress();\n    }\n\n    function getGenAddressForTag(bytes32 aliasName, bytes32 tagName, uint idx) aliasTagExist(aliasName,tagName)\n        public view returns(address){\n        TagData storage storage_tag_data = aliasList[aliasIdxMap[aliasName]].tagData;\n        return storage_tag_data.tagList[storage_tag_data.tagIdxMap[tagName]].tnsTagData.useNextGenAddress(idx);\n    }\n\n    function getGenAddressFlag(bytes32 aliasName, bytes32 tagName) aliasTagExist(aliasName,tagName)\n        public view returns(bool){\n        TagData storage storage_tag_data = aliasList[aliasIdxMap[aliasName]].tagData;\n        return storage_tag_data.tagList[storage_tag_data.tagIdxMap[tagName]].tnsTagData.getGenAddressFlag();\n    }\n\n    function isAliasAvailable(bytes32 aliasName) public view returns(bool){\n        if (aliasExistMap[aliasName] == false){\n            return true;\n        }\n        return false;\n    }\n    function isTagAvailable(bytes32 aliasName, bytes32 tagName) public view returns(bool){\n        if (aliasExistMap[aliasName] == true){\n            if (aliasList[aliasIdxMap[aliasName]].tagData.tagExistMap[tagName] == true){\n                return false;\n            }\n        }\n        return true;\n    }\n    function getAllTagsForAlias(bytes32 aliasName) aliasExist(aliasName) public view returns(bytes32[]){\n        return aliasList[aliasIdxMap[aliasName]].tagData.keccakTagsList;\n    }\n    function getAliasesForOwner(address ownerAddress) public view returns(bytes32[]){\n        return tnsOwnerReverse.getAllAliasesForOwner(ownerAddress);\n    }\n    function getEncryptedAliasForKeccak(bytes32 aliasName) aliasExist(aliasName) public view returns(bytes32){\n        return aliasList[aliasIdxMap[aliasName]].encryptedAlias;\n    }\n    function getEncryptedTagForKeccak(bytes32 aliasName, bytes32 tagName) aliasTagExist(aliasName, tagName)\n        public view returns(bytes32){\n        TagData storage storage_tag_data = aliasList[aliasIdxMap[aliasName]].tagData;\n        return storage_tag_data.tagList[storage_tag_data.tagIdxMap[tagName]].encryptedTag;\n    }\n\n    function getAliasOwner(bytes32 aliasName) aliasExist(aliasName) public view returns(address){\n        return aliasList[aliasIdxMap[aliasName]].aliasOwner;\n    }\n\n    function getTagDataForTag(bytes32 aliasName, bytes32 tagName) public view returns(bool,address[],address){\n        address[] memory gen_list = getGenAddressList(aliasName, tagName);\n        address pub_address = getPubAddressForTag(aliasName, tagName);\n        bool gen_flag = getGenAddressFlag(aliasName, tagName);\n        return (gen_flag, gen_list, pub_address);\n    }\n}\n",
  "sourcePath": "/Users/gurkisingh/TronProjects/TronNameService/contracts/TNS.sol",
  "compiler": {
    "name": "solc",
    "version": "0.4.24-develop.2018.8.28+commit.3ba0cdec.mod.Emscripten.clang"
  },
  "schemaVersion": "2.0.1",
  "updatedAt": "2019-01-01T06:25:06.134Z"
}