{
  "contractName": "TNS",
  "abi": [
    {
      "inputs": [],
      "payable": false,
      "stateMutability": "nonpayable",
      "type": "constructor"
    },
    {
      "anonymous": false,
      "inputs": [
        {
          "indexed": true,
          "name": "_from",
          "type": "address"
        }
      ],
      "name": "StateUpdated",
      "type": "event"
    },
    {
      "anonymous": false,
      "inputs": [
        {
          "indexed": true,
          "name": "_from",
          "type": "address"
        },
        {
          "indexed": false,
          "name": "_alias",
          "type": "bytes32"
        }
      ],
      "name": "StateAliasUpdated",
      "type": "event"
    },
    {
      "constant": false,
      "inputs": [
        {
          "name": "aliasName",
          "type": "bytes32"
        },
        {
          "name": "encryptedAlias",
          "type": "bytes32"
        },
        {
          "name": "tagName",
          "type": "bytes32"
        },
        {
          "name": "encryptedTag",
          "type": "bytes32"
        },
        {
          "name": "pubAddress",
          "type": "address"
        }
      ],
      "name": "setAliasStatic",
      "outputs": [],
      "payable": false,
      "stateMutability": "nonpayable",
      "type": "function"
    },
    {
      "constant": false,
      "inputs": [
        {
          "name": "aliasName",
          "type": "bytes32"
        },
        {
          "name": "encryptedAlias",
          "type": "bytes32"
        },
        {
          "name": "tagName",
          "type": "bytes32"
        },
        {
          "name": "encryptedTag",
          "type": "bytes32"
        },
        {
          "name": "genAddressList",
          "type": "address[]"
        }
      ],
      "name": "setAliasGenerated",
      "outputs": [],
      "payable": false,
      "stateMutability": "nonpayable",
      "type": "function"
    },
    {
      "constant": false,
      "inputs": [
        {
          "name": "aliasName",
          "type": "bytes32"
        },
        {
          "name": "tagName",
          "type": "bytes32"
        }
      ],
      "name": "deleteAliasTag",
      "outputs": [],
      "payable": false,
      "stateMutability": "nonpayable",
      "type": "function"
    },
    {
      "constant": false,
      "inputs": [
        {
          "name": "aliasName",
          "type": "bytes32"
        },
        {
          "name": "oldEncryptedAlias",
          "type": "bytes32"
        },
        {
          "name": "newAliasName",
          "type": "bytes32"
        },
        {
          "name": "newEncryptedAlias",
          "type": "bytes32"
        }
      ],
      "name": "updateAlias",
      "outputs": [],
      "payable": false,
      "stateMutability": "nonpayable",
      "type": "function"
    },
    {
      "constant": false,
      "inputs": [
        {
          "name": "aliasName",
          "type": "bytes32"
        },
        {
          "name": "tagName",
          "type": "bytes32"
        },
        {
          "name": "oldEncryptedTag",
          "type": "bytes32"
        },
        {
          "name": "newTagName",
          "type": "bytes32"
        },
        {
          "name": "newEncryptedTag",
          "type": "bytes32"
        }
      ],
      "name": "updateTag",
      "outputs": [],
      "payable": false,
      "stateMutability": "nonpayable",
      "type": "function"
    },
    {
      "constant": false,
      "inputs": [
        {
          "name": "aliasName",
          "type": "bytes32"
        },
        {
          "name": "tagName",
          "type": "bytes32"
        },
        {
          "name": "newPubAddress",
          "type": "address"
        }
      ],
      "name": "updatePubAddressForTag",
      "outputs": [],
      "payable": false,
      "stateMutability": "nonpayable",
      "type": "function"
    },
    {
      "constant": false,
      "inputs": [
        {
          "name": "aliasName",
          "type": "bytes32"
        },
        {
          "name": "tagName",
          "type": "bytes32"
        },
        {
          "name": "genFlag",
          "type": "bool"
        }
      ],
      "name": "updateGenAddressFlag",
      "outputs": [],
      "payable": false,
      "stateMutability": "nonpayable",
      "type": "function"
    },
    {
      "constant": false,
      "inputs": [
        {
          "name": "aliasName",
          "type": "bytes32"
        },
        {
          "name": "tagName",
          "type": "bytes32"
        },
        {
          "name": "addressList",
          "type": "address[]"
        }
      ],
      "name": "updateGenAddressListReplace",
      "outputs": [],
      "payable": false,
      "stateMutability": "nonpayable",
      "type": "function"
    },
    {
      "constant": false,
      "inputs": [
        {
          "name": "aliasName",
          "type": "bytes32"
        },
        {
          "name": "tagName",
          "type": "bytes32"
        },
        {
          "name": "newAddress",
          "type": "address"
        }
      ],
      "name": "updateGenAddressListAppend",
      "outputs": [],
      "payable": false,
      "stateMutability": "nonpayable",
      "type": "function"
    },
    {
      "constant": false,
      "inputs": [
        {
          "name": "aliasName",
          "type": "bytes32"
        },
        {
          "name": "tagName",
          "type": "bytes32"
        },
        {
          "name": "idxToRemove",
          "type": "uint256"
        }
      ],
      "name": "updateGenAddressListDelete",
      "outputs": [],
      "payable": false,
      "stateMutability": "nonpayable",
      "type": "function"
    },
    {
      "constant": true,
      "inputs": [
        {
          "name": "aliasName",
          "type": "bytes32"
        },
        {
          "name": "tagName",
          "type": "bytes32"
        }
      ],
      "name": "getGenAddressList",
      "outputs": [
        {
          "name": "",
          "type": "address[]"
        }
      ],
      "payable": false,
      "stateMutability": "view",
      "type": "function"
    },
    {
      "constant": true,
      "inputs": [
        {
          "name": "aliasName",
          "type": "bytes32"
        },
        {
          "name": "tagName",
          "type": "bytes32"
        }
      ],
      "name": "getGenAddressListLen",
      "outputs": [
        {
          "name": "",
          "type": "uint256"
        }
      ],
      "payable": false,
      "stateMutability": "view",
      "type": "function"
    },
    {
      "constant": true,
      "inputs": [
        {
          "name": "aliasName",
          "type": "bytes32"
        },
        {
          "name": "tagName",
          "type": "bytes32"
        }
      ],
      "name": "getPubAddressForTag",
      "outputs": [
        {
          "name": "",
          "type": "address"
        }
      ],
      "payable": false,
      "stateMutability": "view",
      "type": "function"
    },
    {
      "constant": true,
      "inputs": [
        {
          "name": "aliasName",
          "type": "bytes32"
        },
        {
          "name": "tagName",
          "type": "bytes32"
        },
        {
          "name": "idx",
          "type": "uint256"
        }
      ],
      "name": "getGenAddressForTag",
      "outputs": [
        {
          "name": "",
          "type": "address"
        }
      ],
      "payable": false,
      "stateMutability": "view",
      "type": "function"
    },
    {
      "constant": true,
      "inputs": [
        {
          "name": "aliasName",
          "type": "bytes32"
        },
        {
          "name": "tagName",
          "type": "bytes32"
        }
      ],
      "name": "getGenAddressFlag",
      "outputs": [
        {
          "name": "",
          "type": "bool"
        }
      ],
      "payable": false,
      "stateMutability": "view",
      "type": "function"
    },
    {
      "constant": true,
      "inputs": [
        {
          "name": "aliasName",
          "type": "bytes32"
        }
      ],
      "name": "isAliasAvailable",
      "outputs": [
        {
          "name": "",
          "type": "bool"
        }
      ],
      "payable": false,
      "stateMutability": "view",
      "type": "function"
    },
    {
      "constant": true,
      "inputs": [
        {
          "name": "aliasName",
          "type": "bytes32"
        },
        {
          "name": "tagName",
          "type": "bytes32"
        }
      ],
      "name": "isTagAvailable",
      "outputs": [
        {
          "name": "",
          "type": "bool"
        }
      ],
      "payable": false,
      "stateMutability": "view",
      "type": "function"
    },
    {
      "constant": true,
      "inputs": [
        {
          "name": "aliasName",
          "type": "bytes32"
        }
      ],
      "name": "getAllTagsForAlias",
      "outputs": [
        {
          "name": "",
          "type": "bytes32[]"
        }
      ],
      "payable": false,
      "stateMutability": "view",
      "type": "function"
    },
    {
      "constant": true,
      "inputs": [
        {
          "name": "ownerAddress",
          "type": "address"
        }
      ],
      "name": "getAliasesForOwner",
      "outputs": [
        {
          "name": "",
          "type": "bytes32[]"
        }
      ],
      "payable": false,
      "stateMutability": "view",
      "type": "function"
    },
    {
      "constant": true,
      "inputs": [
        {
          "name": "aliasName",
          "type": "bytes32"
        }
      ],
      "name": "getEncryptedAliasForKeccak",
      "outputs": [
        {
          "name": "",
          "type": "bytes32"
        }
      ],
      "payable": false,
      "stateMutability": "view",
      "type": "function"
    },
    {
      "constant": true,
      "inputs": [
        {
          "name": "aliasName",
          "type": "bytes32"
        },
        {
          "name": "tagName",
          "type": "bytes32"
        }
      ],
      "name": "getEncryptedTagForKeccak",
      "outputs": [
        {
          "name": "",
          "type": "bytes32"
        }
      ],
      "payable": false,
      "stateMutability": "view",
      "type": "function"
    },
    {
      "constant": true,
      "inputs": [
        {
          "name": "aliasName",
          "type": "bytes32"
        }
      ],
      "name": "getAliasOwner",
      "outputs": [
        {
          "name": "",
          "type": "address"
        }
      ],
      "payable": false,
      "stateMutability": "view",
      "type": "function"
    },
    {
      "constant": true,
      "inputs": [
        {
          "name": "aliasName",
          "type": "bytes32"
        },
        {
          "name": "tagName",
          "type": "bytes32"
        }
      ],
      "name": "getTagDataForTag",
      "outputs": [
        {
          "name": "",
          "type": "bool"
        },
        {
          "name": "",
          "type": "address[]"
        },
        {
          "name": "",
          "type": "address"
        }
      ],
      "payable": false,
      "stateMutability": "view",
      "type": "function"
    }
  ],
  "bytecode": "0x60806040527fcfee7c08a98f4b565d124c7e4e28acc52e1bc780e3887db0a02a7d2d5bc667286001026003906000191690553480156200003e57600080fd5b5062000049620000ad565b604051809103906000f08015801562000066573d6000803e3d6000fd5b50600260006101000a81548173ffffffffffffffffffffffffffffffffffffffff021916908373ffffffffffffffffffffffffffffffffffffffff160217905550620000be565b60405161042680620054bc83390190565b6153ee80620000ce6000396000f300608060405260043610610133576000357c0100000000000000000000000000000000000000000000000000000000900463ffffffff1680630848eeba146101385780630d8d03ff14610181578063261e0ab7146101e0578063336c41701461023357806336ae18b614610272578063521a5a75146102c957806353026c1d1461034f578063673b26b5146103aa57806372fac34e146103f357806376b90cda14610472578063860d5229146104ed57806390a983c01461054c578063a2775f2b146105bd578063aa29276e1461063f578063b6f3076c146106d7578063b832ca8914610722578063bd3cc967146107b6578063bdcf8efa14610888578063c0c2674e146108df578063c2bbc47a14610948578063e11543bd146109e6578063e14477c114610a6f578063fb24656214610aca575b600080fd5b34801561014457600080fd5b506101676004803603810190808035600019169060200190929190505050610b17565b604051808215151515815260200191505060405180910390f35b34801561018d57600080fd5b506101de60048036038101908080356000191690602001909291908035600019169060200190929190803573ffffffffffffffffffffffffffffffffffffffff169060200190929190505050610b62565b005b3480156101ec57600080fd5b5061021d60048036038101908080356000191690602001909291908035600019169060200190929190505050611182565b6040518082815260200191505060405180910390f35b34801561023f57600080fd5b506102706004803603810190808035600019169060200190929190803560001916906020019092919050505061126c565b005b34801561027e57600080fd5b506102af6004803603810190808035600019169060200190929190803560001916906020019092919050505061185a565b604051808215151515815260200191505060405180910390f35b3480156102d557600080fd5b506102f86004803603810190808035600019169060200190929190505050611944565b6040518080602001828103825283818151815260200191508051906020019060200280838360005b8381101561033b578082015181840152602081019050610320565b505050509050019250505060405180910390f35b34801561035b57600080fd5b5061038c600480360381019080803560001916906020019092919080356000191690602001909291905050506119bd565b60405180826000191660001916815260200191505060405180910390f35b3480156103b657600080fd5b506103f160048036038101908080356000191690602001909291908035600019169060200190929190803590602001909291905050506119fe565b005b3480156103ff57600080fd5b5061043060048036038101908080356000191690602001909291908035600019169060200190929190505050611e06565b604051808273ffffffffffffffffffffffffffffffffffffffff1673ffffffffffffffffffffffffffffffffffffffff16815260200191505060405180910390f35b34801561047e57600080fd5b506104eb6004803603810190808035600019169060200190929190803560001916906020019092919080356000191690602001909291908035600019169060200190929190803573ffffffffffffffffffffffffffffffffffffffff169060200190929190505050611ef0565b005b3480156104f957600080fd5b5061054a60048036038101908080356000191690602001909291908035600019169060200190929190803573ffffffffffffffffffffffffffffffffffffffff1690602001909291905050506123a1565b005b34801561055857600080fd5b5061057b6004803603810190808035600019169060200190929190505050612958565b604051808273ffffffffffffffffffffffffffffffffffffffff1673ffffffffffffffffffffffffffffffffffffffff16815260200191505060405180910390f35b3480156105c957600080fd5b5061063d600480360381019080803560001916906020019092919080356000191690602001909291908035906020019082018035906020019080806020026020016040519081016040528093929190818152602001838360200280828437820191505050505050919291929050505061299f565b005b34801561064b57600080fd5b50610680600480360381019080803573ffffffffffffffffffffffffffffffffffffffff169060200190929190505050612de8565b6040518080602001828103825283818151815260200191508051906020019060200280838360005b838110156106c35780820151818401526020810190506106a8565b505050509050019250505060405180910390f35b3480156106e357600080fd5b5061072060048036038101908080356000191690602001909291908035600019169060200190929190803515159060200190929190505050612f3f565b005b34801561072e57600080fd5b5061075f6004803603810190808035600019169060200190929190803560001916906020019092919050505061334b565b6040518080602001828103825283818151815260200191508051906020019060200280838360005b838110156107a2578082015181840152602081019050610787565b505050509050019250505060405180910390f35b3480156107c257600080fd5b506107f360048036038101908080356000191690602001909291908035600019169060200190929190505050613593565b6040518084151515158152602001806020018373ffffffffffffffffffffffffffffffffffffffff1673ffffffffffffffffffffffffffffffffffffffff168152602001828103825284818151815260200191508051906020019060200280838360005b83811015610872578082015181840152602081019050610857565b5050505090500194505050505060405180910390f35b34801561089457600080fd5b506108c5600480360381019080803560001916906020019092919080356000191690602001909291905050506135d5565b604051808215151515815260200191505060405180910390f35b3480156108eb57600080fd5b50610946600480360381019080803560001916906020019092919080356000191690602001909291908035600019169060200190929190803560001916906020019092919080356000191690602001909291905050506136d0565b005b34801561095457600080fd5b506109e4600480360381019080803560001916906020019092919080356000191690602001909291908035600019169060200190929190803560001916906020019092919080359060200190820180359060200190808060200260200160405190810160405280939291908181526020018383602002808284378201915050505050509192919290505050613e99565b005b3480156109f257600080fd5b50610a2d6004803603810190808035600019169060200190929190803560001916906020019092919080359060200190929190505050614329565b604051808273ffffffffffffffffffffffffffffffffffffffff1673ffffffffffffffffffffffffffffffffffffffff16815260200191505060405180910390f35b348015610a7b57600080fd5b50610ac8600480360381019080803560001916906020019092919080356000191690602001909291908035600019169060200190929190803560001916906020019092919050505061441c565b005b348015610ad657600080fd5b50610af960048036038101908080356000191690602001909291905050506149e2565b60405180826000191660001916815260200191505060405180910390f35b6000801515600080846000191660001916815260200190815260200160002060030160149054906101000a900460ff1615151415610b585760019050610b5d565b600090505b919050565b82600080826000191660001916815260200190815260200160002060030160009054906101000a900473ffffffffffffffffffffffffffffffffffffffff1673ffffffffffffffffffffffffffffffffffffffff163373ffffffffffffffffffffffffffffffffffffffff16141515610c69576040517f08c379a00000000000000000000000000000000000000000000000000000000081526004018080602001828103825260278152602001807f4f6e6c7920616c696173206f776e65722063616e2063616c6c2074686973206681526020017f756e6374696f6e0000000000000000000000000000000000000000000000000081525060400191505060405180910390fd5b8360007f010000000000000000000000000000000000000000000000000000000000000002816000602081101515610c9d57fe5b1a7f0100000000000000000000000000000000000000000000000000000000000000027effffffffffffffffffffffffffffffffffffffffffffffffffffffffffffff191614151515610d58576040517f08c379a000000000000000000000000000000000000000000000000000000000815260040180806020018281038252600e8152602001807f416c69617320697320656d70747900000000000000000000000000000000000081525060200191505060405180910390fd5b8360007f010000000000000000000000000000000000000000000000000000000000000002816000602081101515610d8c57fe5b1a7f0100000000000000000000000000000000000000000000000000000000000000027effffffffffffffffffffffffffffffffffffffffffffffffffffffffffffff191614151515610e47576040517f08c379a000000000000000000000000000000000000000000000000000000000815260040180806020018281038252600e8152602001807f416c69617320697320656d70747900000000000000000000000000000000000081525060200191505060405180910390fd5b60008473ffffffffffffffffffffffffffffffffffffffff1614151515610ed6576040517f08c379a00000000000000000000000000000000000000000000000000000000081526004018080602001828103825260188152602001807f6e657750756241646472657373206973206e6f7420736574000000000000000081525060200191505060405180910390fd5b60008473ffffffffffffffffffffffffffffffffffffffff161415611033576000151560008088600019166000191681526020019081526020016000206000016000876000191660001916815260200190815260200160002060010173__TNSTag________________________________63fc971ba590916040518263ffffffff167c01000000000000000000000000000000000000000000000000000000000281526004018082815260200191505060206040518083038186803b158015610f9e57600080fd5b505af4158015610fb2573d6000803e3d6000fd5b505050506040513d6020811015610fc857600080fd5b810190808051906020019092919050505015151415611032576040517f08c379a000000000000000000000000000000000000000000000000000000000815260040180806020018281038252608f815260200180615334608f913960a00191505060405180910390fd5b5b60008087600019166000191681526020019081526020016000206000016000866000191660001916815260200190815260200160002060010173__TNSTag________________________________63586de9319091866040518363ffffffff167c0100000000000000000000000000000000000000000000000000000000028152600401808381526020018273ffffffffffffffffffffffffffffffffffffffff1673ffffffffffffffffffffffffffffffffffffffff1681526020019250505060006040518083038186803b15801561110c57600080fd5b505af4158015611120573d6000803e3d6000fd5b505050503373ffffffffffffffffffffffffffffffffffffffff167fd713555621920b224de101490062f8e270b78138596c90ce629163a35198cfcc8760405180826000191660001916815260200191505060405180910390a2505050505050565b600080600084600019166000191681526020019081526020016000206000016000836000191660001916815260200190815260200160002060010173__TNSTag________________________________6392272f5290916040518263ffffffff167c01000000000000000000000000000000000000000000000000000000000281526004018082815260200191505060206040518083038186803b15801561122957600080fd5b505af415801561123d573d6000803e3d6000fd5b505050506040513d602081101561125357600080fd5b8101908080519060200190929190505050905092915050565b60008083600080826000191660001916815260200190815260200160002060030160009054906101000a900473ffffffffffffffffffffffffffffffffffffffff1673ffffffffffffffffffffffffffffffffffffffff163373ffffffffffffffffffffffffffffffffffffffff16141515611376576040517f08c379a00000000000000000000000000000000000000000000000000000000081526004018080602001828103825260278152602001807f4f6e6c7920616c696173206f776e65722063616e2063616c6c2074686973206681526020017f756e6374696f6e0000000000000000000000000000000000000000000000000081525060400191505060405180910390fd5b8460007f0100000000000000000000000000000000000000000000000000000000000000028160006020811015156113aa57fe5b1a7f0100000000000000000000000000000000000000000000000000000000000000027effffffffffffffffffffffffffffffffffffffffffffffffffffffffffffff191614151515611465576040517f08c379a000000000000000000000000000000000000000000000000000000000815260040180806020018281038252600e8152602001807f416c69617320697320656d70747900000000000000000000000000000000000081525060200191505060405180910390fd5b8460007f01000000000000000000000000000000000000000000000000000000000000000281600060208110151561149957fe5b1a7f0100000000000000000000000000000000000000000000000000000000000000027effffffffffffffffffffffffffffffffffffffffffffffffffffffffffffff191614151515611554576040517f08c379a000000000000000000000000000000000000000000000000000000000815260040180806020018281038252600e8152602001807f416c69617320697320656d70747900000000000000000000000000000000000081525060200191505060405180910390fd5b600354600019168660001916141580611574575061157287876135d5565b155b15156115e8576040517f08c379a00000000000000000000000000000000000000000000000000000000081526004018080602001828103825260178152602001807f43616e6e6f742064656c65746520756e7365742074616700000000000000000081525060200191505060405180910390fd5b600080886000191660001916815260200190815260200160002060000160008760001916600019168152602001908152602001600020600080820160009055600182016000808201600080820160006116419190614fcf565b60018201600090556002820160006101000a81549060ff0219169055505060038201600080820160006101000a81549073ffffffffffffffffffffffffffffffffffffffff021916905550506004820160006101000a81549060ff02191690555050505060008088600019166000191681526020019081526020016000206001016000876000191660001916815260200190815260200160002060009055600080886000191660001916815260200190815260200160002060000160008760001916600019168152602001908152602001600020600001549450600080886000191660001916815260200190815260200160002060020193508384805460019003908161174e9190614ff0565b81548110151561175a57fe5b9060005260206000200154848681548110151561177357fe5b90600052602060002001816000191690555083848054905081548110151561179757fe5b9060005260206000200160009055846000808960001916600019168152602001908152602001600020600001600086888154811015156117d357fe5b906000526020600020015460001916600019168152602001908152602001600020600001819055503373ffffffffffffffffffffffffffffffffffffffff167fd713555621920b224de101490062f8e270b78138596c90ce629163a35198cfcc8860405180826000191660001916815260200191505060405180910390a250505050505050565b600080600084600019166000191681526020019081526020016000206000016000836000191660001916815260200190815260200160002060010173__TNSTag________________________________63fc971ba590916040518263ffffffff167c01000000000000000000000000000000000000000000000000000000000281526004018082815260200191505060206040518083038186803b15801561190157600080fd5b505af4158015611915573d6000803e3d6000fd5b505050506040513d602081101561192b57600080fd5b8101908080519060200190929190505050905092915050565b606060008083600019166000191681526020019081526020016000206002018054806020026020016040519081016040528092919081815260200182805480156119b157602002820191906000526020600020905b81546000191681526020019060010190808311611999575b50505050509050919050565b600080600084600019166000191681526020019081526020016000206001016000836000191660001916815260200190815260200160002054905092915050565b82600080826000191660001916815260200190815260200160002060030160009054906101000a900473ffffffffffffffffffffffffffffffffffffffff1673ffffffffffffffffffffffffffffffffffffffff163373ffffffffffffffffffffffffffffffffffffffff16141515611b05576040517f08c379a00000000000000000000000000000000000000000000000000000000081526004018080602001828103825260278152602001807f4f6e6c7920616c696173206f776e65722063616e2063616c6c2074686973206681526020017f756e6374696f6e0000000000000000000000000000000000000000000000000081525060400191505060405180910390fd5b8360007f010000000000000000000000000000000000000000000000000000000000000002816000602081101515611b3957fe5b1a7f0100000000000000000000000000000000000000000000000000000000000000027effffffffffffffffffffffffffffffffffffffffffffffffffffffffffffff191614151515611bf4576040517f08c379a000000000000000000000000000000000000000000000000000000000815260040180806020018281038252600e8152602001807f416c69617320697320656d70747900000000000000000000000000000000000081525060200191505060405180910390fd5b8360007f010000000000000000000000000000000000000000000000000000000000000002816000602081101515611c2857fe5b1a7f0100000000000000000000000000000000000000000000000000000000000000027effffffffffffffffffffffffffffffffffffffffffffffffffffffffffffff191614151515611ce3576040517f08c379a000000000000000000000000000000000000000000000000000000000815260040180806020018281038252600e8152602001807f416c69617320697320656d70747900000000000000000000000000000000000081525060200191505060405180910390fd5b60008087600019166000191681526020019081526020016000206000016000866000191660001916815260200190815260200160002060010173__TNSTag________________________________63a7551a3e9091866040518363ffffffff167c0100000000000000000000000000000000000000000000000000000000028152600401808381526020018281526020019250505060006040518083038186803b158015611d9057600080fd5b505af4158015611da4573d6000803e3d6000fd5b505050503373ffffffffffffffffffffffffffffffffffffffff167fd713555621920b224de101490062f8e270b78138596c90ce629163a35198cfcc8760405180826000191660001916815260200191505060405180910390a2505050505050565b600080600084600019166000191681526020019081526020016000206000016000836000191660001916815260200190815260200160002060010173__TNSTag________________________________63fb34ccff90916040518263ffffffff167c01000000000000000000000000000000000000000000000000000000000281526004018082815260200191505060206040518083038186803b158015611ead57600080fd5b505af4158015611ec1573d6000803e3d6000fd5b505050506040513d6020811015611ed757600080fd5b8101908080519060200190929190505050905092915050565b611ef861501c565b8560007f010000000000000000000000000000000000000000000000000000000000000002816000602081101515611f2c57fe5b1a7f0100000000000000000000000000000000000000000000000000000000000000027effffffffffffffffffffffffffffffffffffffffffffffffffffffffffffff191614151515611fe7576040517f08c379a000000000000000000000000000000000000000000000000000000000815260040180806020018281038252600e8152602001807f416c69617320697320656d70747900000000000000000000000000000000000081525060200191505060405180910390fd5b8460007f01000000000000000000000000000000000000000000000000000000000000000281600060208110151561201b57fe5b1a7f0100000000000000000000000000000000000000000000000000000000000000027effffffffffffffffffffffffffffffffffffffffffffffffffffffffffffff1916141515156120d6576040517f08c379a000000000000000000000000000000000000000000000000000000000815260040180806020018281038252600e8152602001807f416c69617320697320656d70747900000000000000000000000000000000000081525060200191505060405180910390fd5b60008473ffffffffffffffffffffffffffffffffffffffff1614151515612165576040517f08c379a00000000000000000000000000000000000000000000000000000000081526004018080602001828103825260138152602001807f7075624164647265737320697320656d7074790000000000000000000000000081525060200191505060405180910390fd5b60018360400190151590811515815250508383602001516000019073ffffffffffffffffffffffffffffffffffffffff16908173ffffffffffffffffffffffffffffffffffffffff16815250506121bb88610b17565b156121d2576121cd8888888887614a07565b612341565b3373ffffffffffffffffffffffffffffffffffffffff166000808a6000191660001916815260200190815260200160002060030160009054906101000a900473ffffffffffffffffffffffffffffffffffffffff1673ffffffffffffffffffffffffffffffffffffffff1614156122d25761224d88876135d5565b15156122c1576040517f08c379a00000000000000000000000000000000000000000000000000000000081526004018080602001828103825260128152602001807f54616720616c726561647920657869737473000000000000000000000000000081525060200191505060405180910390fd5b6122cd88878786614dea565b612340565b6040517f08c379a00000000000000000000000000000000000000000000000000000000081526004018080602001828103825260168152602001807f416c69617320697320616c72656164792074616b656e0000000000000000000081525060200191505060405180910390fd5b5b3373ffffffffffffffffffffffffffffffffffffffff167fd713555621920b224de101490062f8e270b78138596c90ce629163a35198cfcc8960405180826000191660001916815260200191505060405180910390a25050505050505050565b600083600080826000191660001916815260200190815260200160002060030160009054906101000a900473ffffffffffffffffffffffffffffffffffffffff1673ffffffffffffffffffffffffffffffffffffffff163373ffffffffffffffffffffffffffffffffffffffff161415156124aa576040517f08c379a00000000000000000000000000000000000000000000000000000000081526004018080602001828103825260278152602001807f4f6e6c7920616c696173206f776e65722063616e2063616c6c2074686973206681526020017f756e6374696f6e0000000000000000000000000000000000000000000000000081525060400191505060405180910390fd5b8460007f0100000000000000000000000000000000000000000000000000000000000000028160006020811015156124de57fe5b1a7f0100000000000000000000000000000000000000000000000000000000000000027effffffffffffffffffffffffffffffffffffffffffffffffffffffffffffff191614151515612599576040517f08c379a000000000000000000000000000000000000000000000000000000000815260040180806020018281038252600e8152602001807f416c69617320697320656d70747900000000000000000000000000000000000081525060200191505060405180910390fd5b8460007f0100000000000000000000000000000000000000000000000000000000000000028160006020811015156125cd57fe5b1a7f0100000000000000000000000000000000000000000000000000000000000000027effffffffffffffffffffffffffffffffffffffffffffffffffffffffffffff191614151515612688576040517f08c379a000000000000000000000000000000000000000000000000000000000815260040180806020018281038252600e8152602001807f416c69617320697320656d70747900000000000000000000000000000000000081525060200191505060405180910390fd5b60008088600019166000191681526020019081526020016000206000016000876000191660001916815260200190815260200160002060010173__TNSTag________________________________6392272f5290916040518263ffffffff167c01000000000000000000000000000000000000000000000000000000000281526004018082815260200191505060206040518083038186803b15801561272d57600080fd5b505af4158015612741573d6000803e3d6000fd5b505050506040513d602081101561275757600080fd5b81019080805190602001909291905050509350601484101515612808576040517f08c379a00000000000000000000000000000000000000000000000000000000081526004018080602001828103825260408152602001807f596f752063616e206f6e6c792073746f726520757020746f203230206164647281526020017f657373657320696e206f7264657220746f206f62657920676173206c696d697481525060400191505060405180910390fd5b60008088600019166000191681526020019081526020016000206000016000876000191660001916815260200190815260200160002060010173__TNSTag________________________________639f2795bd9091876040518363ffffffff167c0100000000000000000000000000000000000000000000000000000000028152600401808381526020018273ffffffffffffffffffffffffffffffffffffffff1673ffffffffffffffffffffffffffffffffffffffff1681526020019250505060006040518083038186803b1580156128e157600080fd5b505af41580156128f5573d6000803e3d6000fd5b505050503373ffffffffffffffffffffffffffffffffffffffff167fd713555621920b224de101490062f8e270b78138596c90ce629163a35198cfcc8860405180826000191660001916815260200191505060405180910390a250505050505050565b6000806000836000191660001916815260200190815260200160002060030160009054906101000a900473ffffffffffffffffffffffffffffffffffffffff169050919050565b82600080826000191660001916815260200190815260200160002060030160009054906101000a900473ffffffffffffffffffffffffffffffffffffffff1673ffffffffffffffffffffffffffffffffffffffff163373ffffffffffffffffffffffffffffffffffffffff16141515612aa6576040517f08c379a00000000000000000000000000000000000000000000000000000000081526004018080602001828103825260278152602001807f4f6e6c7920616c696173206f776e65722063616e2063616c6c2074686973206681526020017f756e6374696f6e0000000000000000000000000000000000000000000000000081525060400191505060405180910390fd5b8360007f010000000000000000000000000000000000000000000000000000000000000002816000602081101515612ada57fe5b1a7f0100000000000000000000000000000000000000000000000000000000000000027effffffffffffffffffffffffffffffffffffffffffffffffffffffffffffff191614151515612b95576040517f08c379a000000000000000000000000000000000000000000000000000000000815260040180806020018281038252600e8152602001807f416c69617320697320656d70747900000000000000000000000000000000000081525060200191505060405180910390fd5b8360007f010000000000000000000000000000000000000000000000000000000000000002816000602081101515612bc957fe5b1a7f0100000000000000000000000000000000000000000000000000000000000000027effffffffffffffffffffffffffffffffffffffffffffffffffffffffffffff191614151515612c84576040517f08c379a000000000000000000000000000000000000000000000000000000000815260040180806020018281038252600e8152602001807f416c69617320697320656d70747900000000000000000000000000000000000081525060200191505060405180910390fd5b60008087600019166000191681526020019081526020016000206000016000866000191660001916815260200190815260200160002060010173__TNSTag________________________________6338cc09539091866040518363ffffffff167c01000000000000000000000000000000000000000000000000000000000281526004018083815260200180602001828103825283818151815260200191508051906020019060200280838360005b83811015612d4e578082015181840152602081019050612d33565b50505050905001935050505060006040518083038186803b158015612d7257600080fd5b505af4158015612d86573d6000803e3d6000fd5b505050503373ffffffffffffffffffffffffffffffffffffffff167fd713555621920b224de101490062f8e270b78138596c90ce629163a35198cfcc8760405180826000191660001916815260200191505060405180910390a2505050505050565b6060600260009054906101000a900473ffffffffffffffffffffffffffffffffffffffff1673ffffffffffffffffffffffffffffffffffffffff16635aac6822836040518263ffffffff167c0100000000000000000000000000000000000000000000000000000000028152600401808273ffffffffffffffffffffffffffffffffffffffff1673ffffffffffffffffffffffffffffffffffffffff168152602001915050600060405180830381600087803b158015612ea757600080fd5b505af1158015612ebb573d6000803e3d6000fd5b505050506040513d6000823e3d601f19601f820116820180604052506020811015612ee557600080fd5b810190808051640100000000811115612efd57600080fd5b82810190506020810184811115612f1357600080fd5b8151856020820283011164010000000082111715612f3057600080fd5b50509291905050509050919050565b82600080826000191660001916815260200190815260200160002060030160009054906101000a900473ffffffffffffffffffffffffffffffffffffffff1673ffffffffffffffffffffffffffffffffffffffff163373ffffffffffffffffffffffffffffffffffffffff16141515613046576040517f08c379a00000000000000000000000000000000000000000000000000000000081526004018080602001828103825260278152602001807f4f6e6c7920616c696173206f776e65722063616e2063616c6c2074686973206681526020017f756e6374696f6e0000000000000000000000000000000000000000000000000081525060400191505060405180910390fd5b8360007f01000000000000000000000000000000000000000000000000000000000000000281600060208110151561307a57fe5b1a7f0100000000000000000000000000000000000000000000000000000000000000027effffffffffffffffffffffffffffffffffffffffffffffffffffffffffffff191614151515613135576040517f08c379a000000000000000000000000000000000000000000000000000000000815260040180806020018281038252600e8152602001807f416c69617320697320656d70747900000000000000000000000000000000000081525060200191505060405180910390fd5b8360007f01000000000000000000000000000000000000000000000000000000000000000281600060208110151561316957fe5b1a7f0100000000000000000000000000000000000000000000000000000000000000027effffffffffffffffffffffffffffffffffffffffffffffffffffffffffffff191614151515613224576040517f08c379a000000000000000000000000000000000000000000000000000000000815260040180806020018281038252600e8152602001807f416c69617320697320656d70747900000000000000000000000000000000000081525060200191505060405180910390fd5b60008087600019166000191681526020019081526020016000206000016000866000191660001916815260200190815260200160002060010173__TNSTag________________________________63239cf8089091866040518363ffffffff167c010000000000000000000000000000000000000000000000000000000002815260040180838152602001821515151581526020019250505060006040518083038186803b1580156132d557600080fd5b505af41580156132e9573d6000803e3d6000fd5b505050503373ffffffffffffffffffffffffffffffffffffffff167fd713555621920b224de101490062f8e270b78138596c90ce629163a35198cfcc8760405180826000191660001916815260200191505060405180910390a2505050505050565b606082600080826000191660001916815260200190815260200160002060030160009054906101000a900473ffffffffffffffffffffffffffffffffffffffff1673ffffffffffffffffffffffffffffffffffffffff163373ffffffffffffffffffffffffffffffffffffffff16141515613454576040517f08c379a00000000000000000000000000000000000000000000000000000000081526004018080602001828103825260278152602001807f4f6e6c7920616c696173206f776e65722063616e2063616c6c2074686973206681526020017f756e6374696f6e0000000000000000000000000000000000000000000000000081525060400191505060405180910390fd5b60008085600019166000191681526020019081526020016000206000016000846000191660001916815260200190815260200160002060010173__TNSTag________________________________636696da9290916040518263ffffffff167c01000000000000000000000000000000000000000000000000000000000281526004018082815260200191505060006040518083038186803b1580156134f957600080fd5b505af415801561350d573d6000803e3d6000fd5b505050506040513d6000823e3d601f19601f82011682018060405250602081101561353757600080fd5b81019080805164010000000081111561354f57600080fd5b8281019050602081018481111561356557600080fd5b815185602082028301116401000000008211171561358257600080fd5b505092919050505091505092915050565b60006060600060606000806135a8888861334b565b92506135b48888611e06565b91506135c0888861185a565b90508083839550955095505050509250925092565b600080600084600019166000191681526020019081526020016000206000016000836000191660001916815260200190815260200160002060010173__TNSTag________________________________6343f248e490916040518263ffffffff167c01000000000000000000000000000000000000000000000000000000000281526004018082815260200191505060206040518083038186803b15801561367c57600080fd5b505af4158015613690573d6000803e3d6000fd5b505050506040513d60208110156136a657600080fd5b8101908080519060200190929190505050156136c557600090506136ca565b600190505b92915050565b600085600080826000191660001916815260200190815260200160002060030160009054906101000a900473ffffffffffffffffffffffffffffffffffffffff1673ffffffffffffffffffffffffffffffffffffffff163373ffffffffffffffffffffffffffffffffffffffff161415156137d9576040517f08c379a00000000000000000000000000000000000000000000000000000000081526004018080602001828103825260278152602001807f4f6e6c7920616c696173206f776e65722063616e2063616c6c2074686973206681526020017f756e6374696f6e0000000000000000000000000000000000000000000000000081525060400191505060405180910390fd5b8660007f01000000000000000000000000000000000000000000000000000000000000000281600060208110151561380d57fe5b1a7f0100000000000000000000000000000000000000000000000000000000000000027effffffffffffffffffffffffffffffffffffffffffffffffffffffffffffff1916141515156138c8576040517f08c379a000000000000000000000000000000000000000000000000000000000815260040180806020018281038252600e8152602001807f416c69617320697320656d70747900000000000000000000000000000000000081525060200191505060405180910390fd5b8660007f0100000000000000000000000000000000000000000000000000000000000000028160006020811015156138fc57fe5b1a7f0100000000000000000000000000000000000000000000000000000000000000027effffffffffffffffffffffffffffffffffffffffffffffffffffffffffffff1916141515156139b7576040517f08c379a000000000000000000000000000000000000000000000000000000000815260040180806020018281038252600e8152602001807f416c69617320697320656d70747900000000000000000000000000000000000081525060200191505060405180910390fd5b60007f0100000000000000000000000000000000000000000000000000000000000000028660006020811015156139ea57fe5b1a7f0100000000000000000000000000000000000000000000000000000000000000027effffffffffffffffffffffffffffffffffffffffffffffffffffffffffffff191614151515613aa5576040517f08c379a00000000000000000000000000000000000000000000000000000000081526004018080602001828103825260108152602001807f4e65772074616720697320656d7074790000000000000000000000000000000081525060200191505060405180910390fd5b613aaf89876135d5565b1515613b23576040517f08c379a00000000000000000000000000000000000000000000000000000000081526004018080602001828103825260128152602001807f54616720616c726561647920657869737473000000000000000000000000000081525060200191505060405180910390fd5b6000808a60001916600019168152602001908152602001600020600001600089600019166000191681526020019081526020016000206000808b600019166000191681526020019081526020016000206000016000886000191660001916815260200190815260200160002060008201548160000155600182018160010160008201816000016000820181600001908054613bbf92919061504c565b50600182015481600101556002820160009054906101000a900460ff168160020160006101000a81548160ff021916908315150217905550505060038201816003016000820160009054906101000a900473ffffffffffffffffffffffffffffffffffffffff168160000160006101000a81548173ffffffffffffffffffffffffffffffffffffffff021916908373ffffffffffffffffffffffffffffffffffffffff16021790555050506004820160009054906101000a900460ff168160040160006101000a81548160ff02191690831515021790555050509050506000808a6000191660001916815260200190815260200160002060000160008960001916600019168152602001908152602001600020600001549350856000808b6000191660001916815260200190815260200160002060020185815481101515613d0357fe5b906000526020600020018160001916905550846000808b600019166000191681526020019081526020016000206001016000886000191660001916815260200190815260200160002081600019169055506000808a6000191660001916815260200190815260200160002060010160008960001916600019168152602001908152602001600020600090556000808a600019166000191681526020019081526020016000206000016000896000191660001916815260200190815260200160002060008082016000905560018201600080820160008082016000613de79190614fcf565b60018201600090556002820160006101000a81549060ff0219169055505060038201600080820160006101000a81549073ffffffffffffffffffffffffffffffffffffffff021916905550506004820160006101000a81549060ff0219169055505050503373ffffffffffffffffffffffffffffffffffffffff167f3f7c5904943ad21b9256174ea1f6c00b1785c4a181ffe526f8bba2ac0ad2a06d60405160405180910390a2505050505050505050565b613ea161501c565b8560007f010000000000000000000000000000000000000000000000000000000000000002816000602081101515613ed557fe5b1a7f0100000000000000000000000000000000000000000000000000000000000000027effffffffffffffffffffffffffffffffffffffffffffffffffffffffffffff191614151515613f90576040517f08c379a000000000000000000000000000000000000000000000000000000000815260040180806020018281038252600e8152602001807f416c69617320697320656d70747900000000000000000000000000000000000081525060200191505060405180910390fd5b8460007f010000000000000000000000000000000000000000000000000000000000000002816000602081101515613fc457fe5b1a7f0100000000000000000000000000000000000000000000000000000000000000027effffffffffffffffffffffffffffffffffffffffffffffffffffffffffffff19161415151561407f576040517f08c379a000000000000000000000000000000000000000000000000000000000815260040180806020018281038252600e8152602001807f416c69617320697320656d70747900000000000000000000000000000000000081525060200191505060405180910390fd5b600084511115156140f8576040517f08c379a00000000000000000000000000000000000000000000000000000000081526004018080602001828103825260178152602001807f67656e416464726573734c69737420697320656d70747900000000000000000081525060200191505060405180910390fd5b60018360400190151590811515815250506001836000015160400190151590811515815250508383600001516000018190525083518360000151602001818152505061414388610b17565b1561415a576141558888888887614a07565b6142c9565b3373ffffffffffffffffffffffffffffffffffffffff166000808a6000191660001916815260200190815260200160002060030160009054906101000a900473ffffffffffffffffffffffffffffffffffffffff1673ffffffffffffffffffffffffffffffffffffffff16141561425a576141d588876135d5565b1515614249576040517f08c379a00000000000000000000000000000000000000000000000000000000081526004018080602001828103825260128152602001807f54616720616c726561647920657869737473000000000000000000000000000081525060200191505060405180910390fd5b61425588878786614dea565b6142c8565b6040517f08c379a00000000000000000000000000000000000000000000000000000000081526004018080602001828103825260168152602001807f416c69617320697320616c72656164792074616b656e0000000000000000000081525060200191505060405180910390fd5b5b3373ffffffffffffffffffffffffffffffffffffffff167fd713555621920b224de101490062f8e270b78138596c90ce629163a35198cfcc8960405180826000191660001916815260200191505060405180910390a25050505050505050565b600080600085600019166000191681526020019081526020016000206000016000846000191660001916815260200190815260200160002060010173__TNSTag________________________________638077b7ca9091846040518363ffffffff167c0100000000000000000000000000000000000000000000000000000000028152600401808381526020018281526020019250505060206040518083038186803b1580156143d857600080fd5b505af41580156143ec573d6000803e3d6000fd5b505050506040513d602081101561440257600080fd5b810190808051906020019092919050505090509392505050565b83600080826000191660001916815260200190815260200160002060030160009054906101000a900473ffffffffffffffffffffffffffffffffffffffff1673ffffffffffffffffffffffffffffffffffffffff163373ffffffffffffffffffffffffffffffffffffffff16141515614523576040517f08c379a00000000000000000000000000000000000000000000000000000000081526004018080602001828103825260278152602001807f4f6e6c7920616c696173206f776e65722063616e2063616c6c2074686973206681526020017f756e6374696f6e0000000000000000000000000000000000000000000000000081525060400191505060405180910390fd5b8460007f01000000000000000000000000000000000000000000000000000000000000000281600060208110151561455757fe5b1a7f0100000000000000000000000000000000000000000000000000000000000000027effffffffffffffffffffffffffffffffffffffffffffffffffffffffffffff191614151515614612576040517f08c379a000000000000000000000000000000000000000000000000000000000815260040180806020018281038252600e8152602001807f416c69617320697320656d70747900000000000000000000000000000000000081525060200191505060405180910390fd5b60007f01000000000000000000000000000000000000000000000000000000000000000284600060208110151561464557fe5b1a7f0100000000000000000000000000000000000000000000000000000000000000027effffffffffffffffffffffffffffffffffffffffffffffffffffffffffffff191614151515614700576040517f08c379a00000000000000000000000000000000000000000000000000000000081526004018080602001828103825260128152602001807f4e657720416c69617320697320656d707479000000000000000000000000000081525060200191505060405180910390fd5b61470984610b17565b151561477d576040517f08c379a00000000000000000000000000000000000000000000000000000000081526004018080602001828103825260168152602001807f416c69617320697320616c72656164792074616b656e0000000000000000000081525060200191505060405180910390fd5b6000808760001916600019168152602001908152602001600020600080866000191660001916815260200190815260200160002060028201816002019080546147c792919061509e565b506003820160009054906101000a900473ffffffffffffffffffffffffffffffffffffffff168160030160006101000a81548173ffffffffffffffffffffffffffffffffffffffff021916908373ffffffffffffffffffffffffffffffffffffffff1602179055506003820160149054906101000a900460ff168160030160146101000a81548160ff02191690831515021790555090505060016000876000191660001916815260200190815260200160002060009055826001600086600019166000191681526020019081526020016000208160001916905550600260009054906101000a900473ffffffffffffffffffffffffffffffffffffffff1673ffffffffffffffffffffffffffffffffffffffff166303c680e93388876040518463ffffffff167c0100000000000000000000000000000000000000000000000000000000028152600401808473ffffffffffffffffffffffffffffffffffffffff1673ffffffffffffffffffffffffffffffffffffffff168152602001836000191660001916815260200182600019166000191681526020019350505050600060405180830381600087803b15801561497f57600080fd5b505af1158015614993573d6000803e3d6000fd5b505050503373ffffffffffffffffffffffffffffffffffffffff167f3f7c5904943ad21b9256174ea1f6c00b1785c4a181ffe526f8bba2ac0ad2a06d60405160405180910390a2505050505050565b6000600160008360001916600019168152602001908152602001600020549050919050565b614a0f6150f0565b614a1761512a565b33826020019073ffffffffffffffffffffffffffffffffffffffff16908173ffffffffffffffffffffffffffffffffffffffff168152505060018260400190151590811515815250508160008089600019166000191681526020019081526020016000206000820151816002019080519060200190614a9792919061514b565b5060208201518160030160006101000a81548173ffffffffffffffffffffffffffffffffffffffff021916908373ffffffffffffffffffffffffffffffffffffffff16021790555060408201518160030160146101000a81548160ff02191690831515021790555090505083600080896000191660001916815260200190815260200160002060010160008760001916600019168152602001908152602001600020816000191690555060408051908101604052806000808a6000191660001916815260200190815260200160002060020180549050815260200184815250905080600080896000191660001916815260200190815260200160002060000160008760001916600019168152602001908152602001600020600082015181600001556020820151816001016000820151816000016000820151816000019080519060200190614be792919061519e565b506020820151816001015560408201518160020160006101000a81548160ff021916908315150217905550505060208201518160030160008201518160000160006101000a81548173ffffffffffffffffffffffffffffffffffffffff021916908373ffffffffffffffffffffffffffffffffffffffff160217905550505060408201518160040160006101000a81548160ff02191690831515021790555050509050506000808860001916600019168152602001908152602001600020600201859080600181540180825580915050906001820390600052602060002001600090919290919091509060001916905550600260009054906101000a900473ffffffffffffffffffffffffffffffffffffffff1673ffffffffffffffffffffffffffffffffffffffff1663233a04d333896040518363ffffffff167c0100000000000000000000000000000000000000000000000000000000028152600401808373ffffffffffffffffffffffffffffffffffffffff1673ffffffffffffffffffffffffffffffffffffffff168152602001826000191660001916815260200192505050600060405180830381600087803b158015614da557600080fd5b505af1158015614db9573d6000803e3d6000fd5b5050505085600160008960001916600019168152602001908152602001600020816000191690555050505050505050565b614df261512a565b6040805190810160405280600080886000191660001916815260200190815260200160002060020180549050815260200183815250905080600080876000191660001916815260200190815260200160002060000160008660001916600019168152602001908152602001600020600082015181600001556020820151816001016000820151816000016000820151816000019080519060200190614e9892919061519e565b506020820151816001015560408201518160020160006101000a81548160ff021916908315150217905550505060208201518160030160008201518160000160006101000a81548173ffffffffffffffffffffffffffffffffffffffff021916908373ffffffffffffffffffffffffffffffffffffffff160217905550505060408201518160040160006101000a81548160ff021916908315150217905550505090505082600080876000191660001916815260200190815260200160002060010160008660001916600019168152602001908152602001600020816000191690555060008086600019166000191681526020019081526020016000206002018490806001815401808255809150509060018203906000526020600020016000909192909190915090600019169055505050505050565b5080546000825590600052602060002090810190614fed9190615228565b50565b81548183558181111561501757818360005260206000209182019101615016919061524d565b5b505050565b60a060405190810160405280615030615272565b815260200161503d615296565b81526020016000151581525090565b82805482825590600052602060002090810192821561508d5760005260206000209182015b8281111561508c578254825591600101919060010190615071565b5b50905061509a91906152c0565b5090565b8280548282559060005260206000209081019282156150df5760005260206000209182015b828111156150de5782548255916001019190600101906150c3565b5b5090506150ec919061524d565b5090565b60606040519081016040528060608152602001600073ffffffffffffffffffffffffffffffffffffffff1681526020016000151581525090565b60c06040519081016040528060008152602001615145615303565b81525090565b82805482825590600052602060002090810192821561518d579160200282015b8281111561518c57825182906000191690559160200191906001019061516b565b5b50905061519a919061524d565b5090565b828054828255906000526020600020908101928215615217579160200282015b828111156152165782518260006101000a81548173ffffffffffffffffffffffffffffffffffffffff021916908373ffffffffffffffffffffffffffffffffffffffff160217905550916020019190600101906151be565b5b50905061522491906152c0565b5090565b61524a91905b8082111561524657600081600090555060010161522e565b5090565b90565b61526f91905b8082111561526b576000816000905550600101615253565b5090565b90565b60606040519081016040528060608152602001600081526020016000151581525090565b602060405190810160405280600073ffffffffffffffffffffffffffffffffffffffff1681525090565b61530091905b808211156152fc57600081816101000a81549073ffffffffffffffffffffffffffffffffffffffff0219169055506001016152c6565b5090565b90565b60a060405190810160405280615317615272565b8152602001615324615296565b815260200160001515815250905600496e206f7264657220746f20756e736574207075626c696320616464726573732c206175746f2d67656e65726174656420616464726573736573206d757374206265206f6e20616e64206861766520726f746174696e67206164647265737365732e204f6e6c79206f6e65206f7074696f6e2063616e206265206f6e20617420616e7920676976656e2074696d652ea165627a7a723058206ca8792db17a2d2d92d74dac8e2623ff348445998c27d89c40dc59f113b299600029608060405234801561001057600080fd5b50610406806100206000396000f300608060405260043610610057576000357c0100000000000000000000000000000000000000000000000000000000900463ffffffff16806303c680e91461005c578063233a04d3146100bb5780635aac68221461010c575b600080fd5b34801561006857600080fd5b506100b9600480360381019080803573ffffffffffffffffffffffffffffffffffffffff169060200190929190803560001916906020019092919080356000191690602001909291905050506101a4565b005b3480156100c757600080fd5b5061010a600480360381019080803573ffffffffffffffffffffffffffffffffffffffff16906020019092919080356000191690602001909291905050506102ce565b005b34801561011857600080fd5b5061014d600480360381019080803573ffffffffffffffffffffffffffffffffffffffff169060200190929190505050610340565b6040518080602001828103825283818151815260200191508051906020019060200280838360005b83811015610190578082015181840152602081019050610175565b505050509050019250505060405180910390f35b60008090505b6000808573ffffffffffffffffffffffffffffffffffffffff1673ffffffffffffffffffffffffffffffffffffffff168152602001908152602001600020805490508110156102c85782600019166000808673ffffffffffffffffffffffffffffffffffffffff1673ffffffffffffffffffffffffffffffffffffffff1681526020019081526020016000208281548110151561024357fe5b90600052602060002001546000191614156102bb57816000808673ffffffffffffffffffffffffffffffffffffffff1673ffffffffffffffffffffffffffffffffffffffff168152602001908152602001600020828154811015156102a457fe5b9060005260206000200181600019169055506102c8565b80806001019150506101aa565b50505050565b6000808373ffffffffffffffffffffffffffffffffffffffff1673ffffffffffffffffffffffffffffffffffffffff1681526020019081526020016000208190806001815401808255809150509060018203906000526020600020016000909192909190915090600019169055505050565b60606000808373ffffffffffffffffffffffffffffffffffffffff1673ffffffffffffffffffffffffffffffffffffffff1681526020019081526020016000208054806020026020016040519081016040528092919081815260200182805480156103ce57602002820191906000526020600020905b815460001916815260200190600101908083116103b6575b505050505090509190505600a165627a7a723058209c74aefde948058e2215ad568bb0f1f4c662f226f9818ce321a8a3b13c9d44d00029",
  "source": "pragma solidity ^0.4.23;\n\nimport {TNSTag} from \"./TNSTag.sol\";\nimport {TNSOwnerReverse} from \"./TNSOwnerReverse.sol\";\n\ncontract TNS{\n    using TNSTag for TNSTag.TNSTagData;\n    struct TagWrapStruct{\n        uint keccakTagIdx;\n        TNSTag.TNSTagData tagData;\n    }\n    struct TagData{\n        mapping (bytes32 => TagWrapStruct) tagMapping;\n        mapping (bytes32 => bytes32) tagKeccackToEncryptedMap;\n        bytes32[] keccakTagsList;\n        address aliasOwner;\n        bool isExist;\n    }\n    mapping (bytes32 => TagData) aliasMapping;\n    mapping (bytes32 => bytes32) aliasKeccackToEncryptedMap;\n    TNSOwnerReverse tnsOwnerReverse;\n\n    bytes32 defaultAddress = 0xcfee7c08a98f4b565d124c7e4e28acc52e1bc780e3887db0a02a7d2d5bc66728;\n    \n    //modifiers\n    modifier isOwner(bytes32 aliasName){\n        require(msg.sender == aliasMapping[aliasName].aliasOwner, \"Only alias owner can call this function\");\n        _;\n    }\n    modifier aliasEmpty(bytes32 alias){\n        require(alias[0] != 0, \"Alias is empty\");\n        _;\n    }\n    modifier tagEmpty(bytes32 alias){\n        require(alias[0] != 0, \"Alias is empty\");\n        _;\n    }\n    event StateUpdated(address indexed _from);\n    event StateAliasUpdated(address indexed _from, bytes32 _alias); //fetch update for specific alias\n\n    constructor() public{\n        tnsOwnerReverse = new TNSOwnerReverse();\n    }\n\n    function addNewAlias(bytes32 aliasName, bytes32 encryptedAlias, bytes32 tagName,\n        bytes32 encryptedTag, TNSTag.TNSTagData tns_tag) private{\n        TagData memory tag_data_struct;\n        tag_data_struct.aliasOwner = msg.sender;\n        tag_data_struct.isExist = true;\n        \n        aliasMapping[aliasName] = tag_data_struct;\n        aliasMapping[aliasName].tagKeccackToEncryptedMap[tagName] = encryptedTag;\n\n        TagWrapStruct memory tag_wrapper = TagWrapStruct({\n            keccakTagIdx: aliasMapping[aliasName].keccakTagsList.length,\n            tagData: tns_tag\n        });\n        aliasMapping[aliasName].tagMapping[tagName] = tag_wrapper;\n        aliasMapping[aliasName].keccakTagsList.push(tagName);\n\n        //reverse mapping\n        tnsOwnerReverse.addOwnerAddress(msg.sender, aliasName);\n        aliasKeccackToEncryptedMap[aliasName] = encryptedAlias;\n    }\n\n    function addNewTag(bytes32 aliasName, bytes32 tagName, bytes32 encryptedTag,\n        TNSTag.TNSTagData tns_tag) private{\n        TagWrapStruct memory tag_wrapper = TagWrapStruct({\n            keccakTagIdx: aliasMapping[aliasName].keccakTagsList.length,\n            tagData: tns_tag\n        });\n        aliasMapping[aliasName].tagMapping[tagName] = tag_wrapper;\n        aliasMapping[aliasName].tagKeccackToEncryptedMap[tagName] = encryptedTag;\n        aliasMapping[aliasName].keccakTagsList.push(tagName);\n    }\n\n    //tagName would be address of \"default\" or actual tag name\n    function setAliasStatic(bytes32 aliasName, bytes32 encryptedAlias, bytes32 tagName,\n        bytes32 encryptedTag, address pubAddress) public aliasEmpty(aliasName) tagEmpty(tagName){\n\n        require(pubAddress != 0x0, \"pubAddress is empty\");\n        \n        TNSTag.TNSTagData memory tns_tag;\n        tns_tag.isExist = true;\n        tns_tag.tagMetaDataStruct.pubAddress = pubAddress;\n\n\n        if (isAliasAvailable(aliasName)){\n            addNewAlias(aliasName, encryptedAlias, tagName, encryptedTag, tns_tag);\n        }else if (aliasMapping[aliasName].aliasOwner == msg.sender){\n            //alias exists but we are trying to add a tag\n            require(isTagAvailable(aliasName, tagName), \"Tag already exists\");\n            addNewTag(aliasName, tagName, encryptedTag, tns_tag);\n        }else{\n            revert(\"Alias is already taken\");\n        }\n        emit StateAliasUpdated(msg.sender, aliasName);\n    }\n\n    /*If generating new address you wont have default public address for a tag*/\n    function setAliasGenerated(bytes32 aliasName, bytes32 encryptedAlias, bytes32 tagName,\n        bytes32 encryptedTag, address[] genAddressList) public aliasEmpty(aliasName) tagEmpty(tagName){\n\n        require(genAddressList.length > 0, \"genAddressList is empty\");\n\n        TNSTag.TNSTagData memory tns_tag;\n        tns_tag.isExist = true;\n        tns_tag.genAddressStruct.generateAddress = true;\n        tns_tag.genAddressStruct.genAddressList = genAddressList; \n        tns_tag.genAddressStruct.numElements = genAddressList.length;\n\n        if (isAliasAvailable(aliasName)){\n            addNewAlias(aliasName, encryptedAlias, tagName, encryptedTag, tns_tag);\n        }else if (aliasMapping[aliasName].aliasOwner == msg.sender){\n            require(isTagAvailable(aliasName, tagName), \"Tag already exists\");\n            addNewTag(aliasName, tagName, encryptedTag, tns_tag);\n        }else{\n            revert(\"Alias is already taken\");\n        }\n       emit StateAliasUpdated(msg.sender, aliasName);\n    }\n\n    //Entire alias & its corresponding tags cannot be deleted but can only be updated\n    function deleteAliasTag(bytes32 aliasName, bytes32 tagName) public isOwner(aliasName)\n        aliasEmpty(aliasName) tagEmpty(tagName){\n        require((tagName != defaultAddress || !isTagAvailable(aliasName, tagName)), \"Cannot delete unset tag\");\n        delete aliasMapping[aliasName].tagMapping[tagName]; \n        delete aliasMapping[aliasName].tagKeccackToEncryptedMap[tagName];\n\n        uint idx_to_remove = aliasMapping[aliasName].tagMapping[tagName].keccakTagIdx;\n        bytes32[] storage keccak_tags_list = aliasMapping[aliasName].keccakTagsList;\n        keccak_tags_list[idx_to_remove] = keccak_tags_list[--keccak_tags_list.length];\n        delete keccak_tags_list[keccak_tags_list.length];\n\n        aliasMapping[aliasName].tagMapping[keccak_tags_list[idx_to_remove]].keccakTagIdx = idx_to_remove;\n        emit StateAliasUpdated(msg.sender, aliasName);\n    }\n\n    function updateAlias(bytes32 aliasName, bytes32 oldEncryptedAlias, bytes32 newAliasName,\n        bytes32 newEncryptedAlias) public isOwner(aliasName) aliasEmpty(aliasName){\n\n        require(newAliasName[0] != 0, \"New Alias is empty\");\n        require(isAliasAvailable(newAliasName), \"Alias is already taken\");\n        aliasMapping[newAliasName] = aliasMapping[aliasName];\n        delete aliasKeccackToEncryptedMap[aliasName];\n        aliasKeccackToEncryptedMap[newAliasName] = newEncryptedAlias;\n        //delete aliasMapping[aliasName];\n        tnsOwnerReverse.updateAlias(msg.sender, aliasName, newAliasName);\n\n        emit StateUpdated(msg.sender);\n    }\n\n    function updateTag(bytes32 aliasName, bytes32 tagName, bytes32 oldEncryptedTag,\n        bytes32 newTagName, bytes32 newEncryptedTag) public isOwner(aliasName) aliasEmpty(aliasName) tagEmpty(tagName){\n\n        require(newTagName[0] != 0, \"New tag is empty\");\n        require(isTagAvailable(aliasName, newTagName), \"Tag already exists\");\n        aliasMapping[aliasName].tagMapping[newTagName] = aliasMapping[aliasName].tagMapping[tagName];\n\n        uint keccak_idx = aliasMapping[aliasName].tagMapping[tagName].keccakTagIdx;\n        aliasMapping[aliasName].keccakTagsList[keccak_idx] = newTagName;\n\n        aliasMapping[aliasName].tagKeccackToEncryptedMap[newTagName] = newEncryptedTag;\n        delete aliasMapping[aliasName].tagKeccackToEncryptedMap[tagName];\n        delete aliasMapping[aliasName].tagMapping[tagName];\n\n        emit StateUpdated(msg.sender);\n    }\n\n    function updatePubAddressForTag(bytes32 aliasName, bytes32 tagName,\n        address newPubAddress) public isOwner(aliasName) aliasEmpty(aliasName) tagEmpty(tagName){\n        require(newPubAddress != 0x0, \"newPubAddress is not set\");\n        if (newPubAddress == 0x0){\n            if (aliasMapping[aliasName].tagMapping[tagName].tagData.getGenAddressFlag() == false){\n                revert(\"In order to unset public address, auto-generated addresses must be on and have rotating addresses. Only one option can be on at any given time.\");\n            }\n        }\n        aliasMapping[aliasName].tagMapping[tagName].tagData.setPubAddress(newPubAddress);\n        emit StateAliasUpdated(msg.sender, aliasName);\n    }\n\n    function updateGenAddressFlag(bytes32 aliasName, bytes32 tagName, bool genFlag) public isOwner(aliasName)\n        aliasEmpty(aliasName) tagEmpty(tagName){\n        aliasMapping[aliasName].tagMapping[tagName].tagData.setGenAddressFlag(genFlag);\n        emit StateAliasUpdated(msg.sender, aliasName);\n    }\n\n    function updateGenAddressListReplace(bytes32 aliasName, bytes32 tagName,\n        address[] addressList) public isOwner(aliasName) aliasEmpty(aliasName) tagEmpty(tagName){\n        aliasMapping[aliasName].tagMapping[tagName].tagData.setGenAddressList(addressList);\n        emit StateAliasUpdated(msg.sender, aliasName);\n    }\n\n    function updateGenAddressListAppend(bytes32 aliasName, bytes32 tagName,\n        address newAddress) public isOwner(aliasName) aliasEmpty(aliasName) tagEmpty(tagName){\n\n        uint num_elems = aliasMapping[aliasName].tagMapping[tagName].tagData.getGenAddressListLen();\n        require(num_elems < 20, \"You can only store up to 20 addresses in order to obey gas limit\");\n        aliasMapping[aliasName].tagMapping[tagName].tagData.appendGenAddressList(newAddress);\n        emit StateAliasUpdated(msg.sender, aliasName);\n    }\n\n    function updateGenAddressListDelete(bytes32 aliasName, bytes32 tagName, uint idxToRemove) public\n        isOwner(aliasName) aliasEmpty(aliasName) tagEmpty(tagName){\n        aliasMapping[aliasName].tagMapping[tagName].tagData.deleteFromGenAddressList(idxToRemove);\n        emit StateAliasUpdated(msg.sender, aliasName);\n    }\n\n\n    //GETTERS\n\n    //Only the owner can get the address list\n    function getGenAddressList(bytes32 aliasName, bytes32 tagName) public view isOwner(aliasName) returns(address[]){\n        return aliasMapping[aliasName].tagMapping[tagName].tagData.getGenAddressList();\n    }\n\n    function getGenAddressListLen(bytes32 aliasName, bytes32 tagName) public view returns(uint){\n        return aliasMapping[aliasName].tagMapping[tagName].tagData.getGenAddressListLen();\n    }\n\n    function getPubAddressForTag(bytes32 aliasName, bytes32 tagName) public view returns(address){\n        return aliasMapping[aliasName].tagMapping[tagName].tagData.getPubAddress();\n    }\n\n    function getGenAddressForTag(bytes32 aliasName, bytes32 tagName, uint idx) public view returns(address){\n        return aliasMapping[aliasName].tagMapping[tagName].tagData.useNextGenAddress(idx);\n    }\n\n    function getGenAddressFlag(bytes32 aliasName, bytes32 tagName) public view returns(bool){\n        return aliasMapping[aliasName].tagMapping[tagName].tagData.getGenAddressFlag();\n    }\n\n    function isAliasAvailable(bytes32 aliasName) public view returns(bool){\n        if (aliasMapping[aliasName].isExist == false){\n            return true;\n        }\n        return false;\n    }\n    function isTagAvailable(bytes32 aliasName, bytes32 tagName) public view returns(bool){\n        if (aliasMapping[aliasName].tagMapping[tagName].tagData.getExist()){\n            return false;\n        }\n        return true;\n    }\n    function getAllTagsForAlias(bytes32 aliasName) public view returns(bytes32[]){\n        return aliasMapping[aliasName].keccakTagsList;\n    }\n    function getAliasesForOwner(address ownerAddress) public view returns(bytes32[]){\n        return tnsOwnerReverse.getAllAliasesForOwner(ownerAddress);\n    }\n    function getEncryptedAliasForKeccak(bytes32 aliasName) public view returns(bytes32){\n        return aliasKeccackToEncryptedMap[aliasName];\n    }\n    function getEncryptedTagForKeccak(bytes32 aliasName, bytes32 tagName) public view returns(bytes32){\n        return aliasMapping[aliasName].tagKeccackToEncryptedMap[tagName];\n    }\n\n    function getAliasOwner(bytes32 aliasName) public view returns(address){\n        return aliasMapping[aliasName].aliasOwner;\n    }\n\n    function getTagDataForTag(bytes32 aliasName, bytes32 tagName) public view returns(bool,address[],address){\n        address[] memory gen_list = getGenAddressList(aliasName, tagName);\n        address pub_address = getPubAddressForTag(aliasName, tagName);\n        bool gen_flag = getGenAddressFlag(aliasName, tagName);\n        return (gen_flag, gen_list, pub_address);\n    }\n}\n",
  "sourcePath": "/Users/gurkisingh/TronProjects/TronNameService/contracts/TNS.sol",
  "compiler": {
    "name": "solc",
    "version": "0.4.24-develop.2018.8.28+commit.3ba0cdec.mod.Emscripten.clang"
  },
  "schemaVersion": "2.0.1",
  "updatedAt": "2018-12-29T14:18:34.316Z"
}