{
  "contractName": "TNS",
  "abi": [
    {
      "inputs": [],
      "payable": false,
      "stateMutability": "nonpayable",
      "type": "constructor"
    },
    {
      "anonymous": false,
      "inputs": [
        {
          "indexed": true,
          "name": "_from",
          "type": "address"
        }
      ],
      "name": "StateUpdated",
      "type": "event"
    },
    {
      "anonymous": false,
      "inputs": [
        {
          "indexed": true,
          "name": "_from",
          "type": "address"
        },
        {
          "indexed": false,
          "name": "_alias",
          "type": "bytes32"
        }
      ],
      "name": "StateAliasUpdated",
      "type": "event"
    },
    {
      "constant": false,
      "inputs": [
        {
          "name": "aliasName",
          "type": "bytes32"
        },
        {
          "name": "encryptedAlias",
          "type": "bytes32"
        },
        {
          "name": "tagName",
          "type": "bytes32"
        },
        {
          "name": "encryptedTag",
          "type": "bytes32"
        },
        {
          "name": "pubAddress",
          "type": "address"
        }
      ],
      "name": "setAliasStatic",
      "outputs": [],
      "payable": false,
      "stateMutability": "nonpayable",
      "type": "function"
    },
    {
      "constant": false,
      "inputs": [
        {
          "name": "aliasName",
          "type": "bytes32"
        },
        {
          "name": "encryptedAlias",
          "type": "bytes32"
        },
        {
          "name": "tagName",
          "type": "bytes32"
        },
        {
          "name": "encryptedTag",
          "type": "bytes32"
        },
        {
          "name": "genAddressList",
          "type": "address[]"
        }
      ],
      "name": "setAliasGenerated",
      "outputs": [],
      "payable": false,
      "stateMutability": "nonpayable",
      "type": "function"
    },
    {
      "constant": false,
      "inputs": [
        {
          "name": "aliasName",
          "type": "bytes32"
        },
        {
          "name": "tagName",
          "type": "bytes32"
        }
      ],
      "name": "deleteAliasTag",
      "outputs": [],
      "payable": false,
      "stateMutability": "nonpayable",
      "type": "function"
    },
    {
      "constant": false,
      "inputs": [
        {
          "name": "aliasName",
          "type": "bytes32"
        },
        {
          "name": "oldEncryptedAlias",
          "type": "bytes32"
        },
        {
          "name": "newAliasName",
          "type": "bytes32"
        },
        {
          "name": "newEncryptedAlias",
          "type": "bytes32"
        }
      ],
      "name": "updateAlias",
      "outputs": [],
      "payable": false,
      "stateMutability": "nonpayable",
      "type": "function"
    },
    {
      "constant": false,
      "inputs": [
        {
          "name": "aliasName",
          "type": "bytes32"
        },
        {
          "name": "tagName",
          "type": "bytes32"
        },
        {
          "name": "oldEncryptedTag",
          "type": "bytes32"
        },
        {
          "name": "newTagName",
          "type": "bytes32"
        },
        {
          "name": "newEncryptedTag",
          "type": "bytes32"
        }
      ],
      "name": "updateTag",
      "outputs": [],
      "payable": false,
      "stateMutability": "nonpayable",
      "type": "function"
    },
    {
      "constant": false,
      "inputs": [
        {
          "name": "aliasName",
          "type": "bytes32"
        },
        {
          "name": "tagName",
          "type": "bytes32"
        },
        {
          "name": "newPubAddress",
          "type": "address"
        }
      ],
      "name": "updatePubAddressForTag",
      "outputs": [],
      "payable": false,
      "stateMutability": "nonpayable",
      "type": "function"
    },
    {
      "constant": false,
      "inputs": [
        {
          "name": "aliasName",
          "type": "bytes32"
        },
        {
          "name": "tagName",
          "type": "bytes32"
        },
        {
          "name": "genFlag",
          "type": "bool"
        }
      ],
      "name": "updateGenAddressFlag",
      "outputs": [],
      "payable": false,
      "stateMutability": "nonpayable",
      "type": "function"
    },
    {
      "constant": false,
      "inputs": [
        {
          "name": "aliasName",
          "type": "bytes32"
        },
        {
          "name": "tagName",
          "type": "bytes32"
        },
        {
          "name": "addressList",
          "type": "address[]"
        }
      ],
      "name": "updateGenAddressListReplace",
      "outputs": [],
      "payable": false,
      "stateMutability": "nonpayable",
      "type": "function"
    },
    {
      "constant": false,
      "inputs": [
        {
          "name": "aliasName",
          "type": "bytes32"
        },
        {
          "name": "tagName",
          "type": "bytes32"
        },
        {
          "name": "newAddress",
          "type": "address"
        }
      ],
      "name": "updateGenAddressListAppend",
      "outputs": [],
      "payable": false,
      "stateMutability": "nonpayable",
      "type": "function"
    },
    {
      "constant": false,
      "inputs": [
        {
          "name": "aliasName",
          "type": "bytes32"
        },
        {
          "name": "tagName",
          "type": "bytes32"
        },
        {
          "name": "idxToRemove",
          "type": "uint256"
        }
      ],
      "name": "updateGenAddressListDelete",
      "outputs": [],
      "payable": false,
      "stateMutability": "nonpayable",
      "type": "function"
    },
    {
      "constant": false,
      "inputs": [
        {
          "name": "aliasName",
          "type": "bytes32"
        },
        {
          "name": "tagName",
          "type": "bytes32"
        },
        {
          "name": "isSecret",
          "type": "bool"
        }
      ],
      "name": "updateTagIsSecret",
      "outputs": [],
      "payable": false,
      "stateMutability": "nonpayable",
      "type": "function"
    },
    {
      "constant": false,
      "inputs": [
        {
          "name": "aliasName",
          "type": "bytes32"
        },
        {
          "name": "tagName",
          "type": "bytes32"
        },
        {
          "name": "keccakUsers",
          "type": "bytes32[]"
        },
        {
          "name": "encUsers",
          "type": "bytes32[]"
        }
      ],
      "name": "updateTagSecretUserList",
      "outputs": [],
      "payable": false,
      "stateMutability": "nonpayable",
      "type": "function"
    },
    {
      "constant": false,
      "inputs": [
        {
          "name": "aliasName",
          "type": "bytes32"
        },
        {
          "name": "tagName",
          "type": "bytes32"
        },
        {
          "name": "keccakUser",
          "type": "bytes32"
        },
        {
          "name": "encUser",
          "type": "bytes32[]"
        }
      ],
      "name": "updateTagSecretUserListAppend",
      "outputs": [],
      "payable": false,
      "stateMutability": "nonpayable",
      "type": "function"
    },
    {
      "constant": false,
      "inputs": [
        {
          "name": "aliasName",
          "type": "bytes32"
        },
        {
          "name": "tagName",
          "type": "bytes32"
        },
        {
          "name": "keccakUser",
          "type": "bytes32"
        },
        {
          "name": "idxToRemove",
          "type": "uint256"
        }
      ],
      "name": "updateTagSecretUserDelete",
      "outputs": [],
      "payable": false,
      "stateMutability": "nonpayable",
      "type": "function"
    },
    {
      "constant": true,
      "inputs": [
        {
          "name": "aliasName",
          "type": "bytes32"
        },
        {
          "name": "tagName",
          "type": "bytes32"
        }
      ],
      "name": "getGenAddressList",
      "outputs": [
        {
          "name": "",
          "type": "address[]"
        }
      ],
      "payable": false,
      "stateMutability": "view",
      "type": "function"
    },
    {
      "constant": true,
      "inputs": [
        {
          "name": "aliasName",
          "type": "bytes32"
        },
        {
          "name": "tagName",
          "type": "bytes32"
        }
      ],
      "name": "getGenAddressListLen",
      "outputs": [
        {
          "name": "",
          "type": "uint256"
        }
      ],
      "payable": false,
      "stateMutability": "view",
      "type": "function"
    },
    {
      "constant": true,
      "inputs": [
        {
          "name": "aliasName",
          "type": "bytes32"
        },
        {
          "name": "tagName",
          "type": "bytes32"
        }
      ],
      "name": "getPubAddressForTag",
      "outputs": [
        {
          "name": "",
          "type": "address"
        }
      ],
      "payable": false,
      "stateMutability": "view",
      "type": "function"
    },
    {
      "constant": true,
      "inputs": [
        {
          "name": "aliasName",
          "type": "bytes32"
        },
        {
          "name": "tagName",
          "type": "bytes32"
        },
        {
          "name": "idx",
          "type": "uint256"
        }
      ],
      "name": "getGenAddressForTag",
      "outputs": [
        {
          "name": "",
          "type": "address"
        }
      ],
      "payable": false,
      "stateMutability": "view",
      "type": "function"
    },
    {
      "constant": true,
      "inputs": [
        {
          "name": "aliasName",
          "type": "bytes32"
        },
        {
          "name": "tagName",
          "type": "bytes32"
        }
      ],
      "name": "getGenAddressFlag",
      "outputs": [
        {
          "name": "",
          "type": "bool"
        }
      ],
      "payable": false,
      "stateMutability": "view",
      "type": "function"
    },
    {
      "constant": true,
      "inputs": [
        {
          "name": "aliasName",
          "type": "bytes32"
        }
      ],
      "name": "isAliasAvailable",
      "outputs": [
        {
          "name": "",
          "type": "bool"
        }
      ],
      "payable": false,
      "stateMutability": "view",
      "type": "function"
    },
    {
      "constant": true,
      "inputs": [
        {
          "name": "aliasName",
          "type": "bytes32"
        },
        {
          "name": "tagName",
          "type": "bytes32"
        }
      ],
      "name": "isTagAvailable",
      "outputs": [
        {
          "name": "",
          "type": "bool"
        }
      ],
      "payable": false,
      "stateMutability": "view",
      "type": "function"
    },
    {
      "constant": true,
      "inputs": [
        {
          "name": "aliasName",
          "type": "bytes32"
        }
      ],
      "name": "getAllTagsForAlias",
      "outputs": [
        {
          "name": "",
          "type": "bytes32[]"
        }
      ],
      "payable": false,
      "stateMutability": "view",
      "type": "function"
    },
    {
      "constant": true,
      "inputs": [
        {
          "name": "ownerAddress",
          "type": "address"
        }
      ],
      "name": "getAliasesForOwner",
      "outputs": [
        {
          "name": "",
          "type": "bytes32[]"
        }
      ],
      "payable": false,
      "stateMutability": "view",
      "type": "function"
    },
    {
      "constant": true,
      "inputs": [
        {
          "name": "aliasName",
          "type": "bytes32"
        }
      ],
      "name": "getEncryptedAliasForKeccak",
      "outputs": [
        {
          "name": "",
          "type": "bytes32"
        }
      ],
      "payable": false,
      "stateMutability": "view",
      "type": "function"
    },
    {
      "constant": true,
      "inputs": [
        {
          "name": "aliasName",
          "type": "bytes32"
        },
        {
          "name": "tagName",
          "type": "bytes32"
        }
      ],
      "name": "getEncryptedTagForKeccak",
      "outputs": [
        {
          "name": "",
          "type": "bytes32"
        }
      ],
      "payable": false,
      "stateMutability": "view",
      "type": "function"
    },
    {
      "constant": true,
      "inputs": [
        {
          "name": "aliasName",
          "type": "bytes32"
        }
      ],
      "name": "getAliasOwner",
      "outputs": [
        {
          "name": "",
          "type": "address"
        }
      ],
      "payable": false,
      "stateMutability": "view",
      "type": "function"
    },
    {
      "constant": true,
      "inputs": [
        {
          "name": "aliasName",
          "type": "bytes32"
        },
        {
          "name": "tagName",
          "type": "bytes32"
        }
      ],
      "name": "getTagDataForTag",
      "outputs": [
        {
          "name": "",
          "type": "bool"
        },
        {
          "name": "",
          "type": "bool"
        },
        {
          "name": "",
          "type": "address[]"
        },
        {
          "name": "",
          "type": "bytes32[]"
        },
        {
          "name": "",
          "type": "address"
        }
      ],
      "payable": false,
      "stateMutability": "view",
      "type": "function"
    },
    {
      "constant": true,
      "inputs": [
        {
          "name": "aliasName",
          "type": "bytes32"
        },
        {
          "name": "tagName",
          "type": "bytes32"
        },
        {
          "name": "keccakUser",
          "type": "bytes32"
        }
      ],
      "name": "isSecretUser",
      "outputs": [
        {
          "name": "",
          "type": "bool"
        }
      ],
      "payable": false,
      "stateMutability": "view",
      "type": "function"
    },
    {
      "constant": true,
      "inputs": [
        {
          "name": "aliasName",
          "type": "bytes32"
        },
        {
          "name": "tagName",
          "type": "bytes32"
        }
      ],
      "name": "getSecretUserList",
      "outputs": [
        {
          "name": "",
          "type": "bytes32[]"
        }
      ],
      "payable": false,
      "stateMutability": "view",
      "type": "function"
    },
    {
      "constant": true,
      "inputs": [
        {
          "name": "aliasName",
          "type": "bytes32"
        },
        {
          "name": "tagName",
          "type": "bytes32"
        }
      ],
      "name": "getIsTagSecret",
      "outputs": [
        {
          "name": "",
          "type": "bool"
        }
      ],
      "payable": false,
      "stateMutability": "view",
      "type": "function"
    }
  ],
  "bytecode": "0x60806040527fcfee7c08a98f4b565d124c7e4e28acc52e1bc780e3887db0a02a7d2d5bc667286001026004906000191690553480156200003e57600080fd5b5062000049620000ad565b604051809103906000f08015801562000066573d6000803e3d6000fd5b50600360006101000a81548173ffffffffffffffffffffffffffffffffffffffff021916908373ffffffffffffffffffffffffffffffffffffffff160217905550620000be565b604051610426806200813183390190565b61806380620000ce6000396000f300608060405260043610610180576000357c0100000000000000000000000000000000000000000000000000000000900463ffffffff1680630848eeba146101855780630d8d03ff146101ce5780631d7a0fb31461022d578063261e0ab7146102bd578063336c41701461031057806336ae18b61461034f57806346422a0b146103a65780634f235168146103fd578063521a5a751461045457806353026c1d146104da578063673b26b51461053557806372fac34e1461057e57806376b90cda146105fd578063860d52291461067857806388f58573146106d757806390a983c01461073c57806392e39fa6146107ad578063a2775f2b14610841578063aa29276e146108c3578063af39d2d81461095b578063b6f3076c14610a20578063b832ca8914610a6b578063bd3cc96714610aff578063bdcf8efa14610c24578063c0c2674e14610c7b578063c2bbc47a14610ce4578063e11543bd14610d82578063e14477c114610e0b578063e4428fe814610e66578063fb24656214610eb1575b600080fd5b34801561019157600080fd5b506101b46004803603810190808035600019169060200190929190505050610efe565b604051808215151515815260200191505060405180910390f35b3480156101da57600080fd5b5061022b60048036038101908080356000191690602001909291908035600019169060200190929190803573ffffffffffffffffffffffffffffffffffffffff169060200190929190505050610f47565b005b34801561023957600080fd5b506102bb6004803603810190808035600019169060200190929190803560001916906020019092919080356000191690602001909291908035906020019082018035906020019080806020026020016040519081016040528093929190818152602001838360200280828437820191505050505050919291929050505061166d565b005b3480156102c957600080fd5b506102fa60048036038101908080356000191690602001909291908035600019169060200190929190505050611c18565b6040518082815260200191505060405180910390f35b34801561031c57600080fd5b5061034d60048036038101908080356000191690602001909291908035600019169060200190929190505050611d5f565b005b34801561035b57600080fd5b5061038c600480360381019080803560001916906020019092919080356000191690602001909291905050506124e3565b604051808215151515815260200191505060405180910390f35b3480156103b257600080fd5b506103e36004803603810190808035600019169060200190929190803560001916906020019092919050505061262a565b604051808215151515815260200191505060405180910390f35b34801561040957600080fd5b5061045260048036038101908080356000191690602001909291908035600019169060200190929190803560001916906020019092919080359060200190929190505050612771565b005b34801561046057600080fd5b506104836004803603810190808035600019169060200190929190505050612cdb565b6040518080602001828103825283818151815260200191508051906020019060200280838360005b838110156104c65780820151818401526020810190506104ab565b505050509050019250505060405180910390f35b3480156104e657600080fd5b5061051760048036038101908080356000191690602001909291908035600019169060200190929190505050612dc0565b60405180826000191660001916815260200191505060405180910390f35b34801561054157600080fd5b5061057c6004803603810190808035600019169060200190929190803560001916906020019092919080359060200190929190505050612e64565b005b34801561058a57600080fd5b506105bb60048036038101908080356000191690602001909291908035600019169060200190929190505050613418565b604051808273ffffffffffffffffffffffffffffffffffffffff1673ffffffffffffffffffffffffffffffffffffffff16815260200191505060405180910390f35b34801561060957600080fd5b506106766004803603810190808035600019169060200190929190803560001916906020019092919080356000191690602001909291908035600019169060200190929190803573ffffffffffffffffffffffffffffffffffffffff16906020019092919050505061355f565b005b34801561068457600080fd5b506106d560048036038101908080356000191690602001909291908035600019169060200190929190803573ffffffffffffffffffffffffffffffffffffffff169060200190929190505050613a1c565b005b3480156106e357600080fd5b5061072260048036038101908080356000191690602001909291908035600019169060200190929190803560001916906020019092919050505061418e565b604051808215151515815260200191505060405180910390f35b34801561074857600080fd5b5061076b60048036038101908080356000191690602001909291905050506142e6565b604051808273ffffffffffffffffffffffffffffffffffffffff1673ffffffffffffffffffffffffffffffffffffffff16815260200191505060405180910390f35b3480156107b957600080fd5b506107ea60048036038101908080356000191690602001909291908035600019169060200190929190505050614362565b6040518080602001828103825283818151815260200191508051906020019060200280838360005b8381101561082d578082015181840152602081019050610812565b505050509050019250505060405180910390f35b34801561084d57600080fd5b506108c16004803603810190808035600019169060200190929190803560001916906020019092919080359060200190820180359060200190808060200260200160405190810160405280939291908181526020018383602002808284378201915050505050509192919290505050614535565b005b3480156108cf57600080fd5b50610904600480360381019080803573ffffffffffffffffffffffffffffffffffffffff169060200190929190505050614b2a565b6040518080602001828103825283818151815260200191508051906020019060200280838360005b8381101561094757808201518184015260208101905061092c565b505050509050019250505060405180910390f35b34801561096757600080fd5b50610a1e600480360381019080803560001916906020019092919080356000191690602001909291908035906020019082018035906020019080806020026020016040519081016040528093929190818152602001838360200280828437820191505050505050919291929080359060200190820180359060200190808060200260200160405190810160405280939291908181526020018383602002808284378201915050505050509192919290505050614c81565b005b348015610a2c57600080fd5b50610a6960048036038101908080356000191690602001909291908035600019169060200190929190803515159060200190929190505050615265565b005b348015610a7757600080fd5b50610aa86004803603810190808035600019169060200190929190803560001916906020019092919050505061581d565b6040518080602001828103825283818151815260200191508051906020019060200280838360005b83811015610aeb578082015181840152602081019050610ad0565b505050509050019250505060405180910390f35b348015610b0b57600080fd5b50610b3c600480360381019080803560001916906020019092919080356000191690602001909291905050506159f0565b60405180861515151581526020018515151515815260200180602001806020018473ffffffffffffffffffffffffffffffffffffffff1673ffffffffffffffffffffffffffffffffffffffff168152602001838103835286818151815260200191508051906020019060200280838360005b83811015610bc9578082015181840152602081019050610bae565b50505050905001838103825285818151815260200191508051906020019060200280838360005b83811015610c0b578082015181840152602081019050610bf0565b5050505090500197505050505050505060405180910390f35b348015610c3057600080fd5b50610c6160048036038101908080356000191690602001909291908035600019169060200190929190505050615a5a565b604051808215151515815260200191505060405180910390f35b348015610c8757600080fd5b50610ce260048036038101908080356000191690602001909291908035600019169060200190929190803560001916906020019092919080356000191690602001909291908035600019169060200190929190505050615b16565b005b348015610cf057600080fd5b50610d8060048036038101908080356000191690602001909291908035600019169060200190929190803560001916906020019092919080356000191690602001909291908035906020019082018035906020019080806020026020016040519081016040528093929190818152602001838360200280828437820191505050505050919291929050505061626c565b005b348015610d8e57600080fd5b50610dc960048036038101908080356000191690602001909291908035600019169060200190929190803590602001909291905050506166f9565b604051808273ffffffffffffffffffffffffffffffffffffffff1673ffffffffffffffffffffffffffffffffffffffff16815260200191505060405180910390f35b348015610e1757600080fd5b50610e646004803603810190808035600019169060200190929190803560001916906020019092919080356000191690602001909291908035600019169060200190929190505050616849565b005b348015610e7257600080fd5b50610eaf60048036038101908080356000191690602001909291908035600019169060200190929190803515159060200190929190505050616e8f565b005b348015610ebd57600080fd5b50610ee060048036038101908080356000191690602001909291905050506173ec565b60405180826000191660001916815260200191505060405180910390f35b600080151560016000846000191660001916815260200190815260200160002060009054906101000a900460ff1615151415610f3d5760019050610f42565b600090505b919050565b6000808460007f010000000000000000000000000000000000000000000000000000000000000002816000602081101515610f7e57fe5b1a7f0100000000000000000000000000000000000000000000000000000000000000027effffffffffffffffffffffffffffffffffffffffffffffffffffffffffffff191614151515611039576040517f08c379a000000000000000000000000000000000000000000000000000000000815260040180806020018281038252600e8152602001807f416c69617320697320656d70747900000000000000000000000000000000000081525060200191505060405180910390fd5b8460007f01000000000000000000000000000000000000000000000000000000000000000281600060208110151561106d57fe5b1a7f0100000000000000000000000000000000000000000000000000000000000000027effffffffffffffffffffffffffffffffffffffffffffffffffffffffffffff191614151515611128576040517f08c379a000000000000000000000000000000000000000000000000000000000815260040180806020018281038252600e8152602001807f416c69617320697320656d70747900000000000000000000000000000000000081525060200191505060405180910390fd5b86866000151561113783610efe565b151514801561115357506000151561114f8383615a5a565b1515145b15156111c7576040517f08c379a000000000000000000000000000000000000000000000000000000000815260040180806020018281038252601a8152602001807f416c696173206f722074616720646f65736e277420657869737400000000000081525060200191505060405180910390fd5b886001151560016000836000191660001916815260200190815260200160002060009054906101000a900460ff16151514151561126c576040517f08c379a00000000000000000000000000000000000000000000000000000000081526004018080602001828103825260138152602001807f416c69617320646f65736e27742065786973740000000000000000000000000081525060200191505060405180910390fd5b600260008083600019166000191681526020019081526020016000205481548110151561129557fe5b906000526020600020906007020160060160009054906101000a900473ffffffffffffffffffffffffffffffffffffffff1673ffffffffffffffffffffffffffffffffffffffff163373ffffffffffffffffffffffffffffffffffffffff1614151561138f576040517f08c379a00000000000000000000000000000000000000000000000000000000081526004018080602001828103825260278152602001807f4f6e6c7920616c696173206f776e65722063616e2063616c6c2074686973206681526020017f756e6374696f6e0000000000000000000000000000000000000000000000000081525060400191505060405180910390fd5b60026000808c60001916600019168152602001908152602001600020548154811015156113b857fe5b906000526020600020906007020160000196508660000160008a6000191660001916815260200190815260200160002054955060008873ffffffffffffffffffffffffffffffffffffffff1614156115315760001515876001018781548110151561141f57fe5b906000526020600020906007020160000173__TNSTag________________________________63fc971ba590916040518263ffffffff167c01000000000000000000000000000000000000000000000000000000000281526004018082815260200191505060206040518083038186803b15801561149c57600080fd5b505af41580156114b0573d6000803e3d6000fd5b505050506040513d60208110156114c657600080fd5b810190808051906020019092919050505015151415611530576040517f08c379a0000000000000000000000000000000000000000000000000000000008152600401808060200182810382526096815260200180617fa26096913960a00191505060405180910390fd5b5b866001018681548110151561154257fe5b906000526020600020906007020160000173__TNSTag________________________________63586de93190918a6040518363ffffffff167c0100000000000000000000000000000000000000000000000000000000028152600401808381526020018273ffffffffffffffffffffffffffffffffffffffff1673ffffffffffffffffffffffffffffffffffffffff1681526020019250505060006040518083038186803b1580156115f357600080fd5b505af4158015611607573d6000803e3d6000fd5b505050503373ffffffffffffffffffffffffffffffffffffffff167fd713555621920b224de101490062f8e270b78138596c90ce629163a35198cfcc8b60405180826000191660001916815260200191505060405180910390a250505050505050505050565b60008460007f0100000000000000000000000000000000000000000000000000000000000000028160006020811015156116a357fe5b1a7f0100000000000000000000000000000000000000000000000000000000000000027effffffffffffffffffffffffffffffffffffffffffffffffffffffffffffff19161415151561175e576040517f08c379a000000000000000000000000000000000000000000000000000000000815260040180806020018281038252600e8152602001807f416c69617320697320656d70747900000000000000000000000000000000000081525060200191505060405180910390fd5b8460007f01000000000000000000000000000000000000000000000000000000000000000281600060208110151561179257fe5b1a7f0100000000000000000000000000000000000000000000000000000000000000027effffffffffffffffffffffffffffffffffffffffffffffffffffffffffffff19161415151561184d576040517f08c379a000000000000000000000000000000000000000000000000000000000815260040180806020018281038252600e8152602001807f416c69617320697320656d70747900000000000000000000000000000000000081525060200191505060405180910390fd5b86866000151561185c83610efe565b15151480156118785750600015156118748383615a5a565b1515145b15156118ec576040517f08c379a000000000000000000000000000000000000000000000000000000000815260040180806020018281038252601a8152602001807f416c696173206f722074616720646f65736e277420657869737400000000000081525060200191505060405180910390fd5b886001151560016000836000191660001916815260200190815260200160002060009054906101000a900460ff161515141515611991576040517f08c379a00000000000000000000000000000000000000000000000000000000081526004018080602001828103825260138152602001807f416c69617320646f65736e27742065786973740000000000000000000000000081525060200191505060405180910390fd5b60026000808360001916600019168152602001908152602001600020548154811015156119ba57fe5b906000526020600020906007020160060160009054906101000a900473ffffffffffffffffffffffffffffffffffffffff1673ffffffffffffffffffffffffffffffffffffffff163373ffffffffffffffffffffffffffffffffffffffff16141515611ab4576040517f08c379a00000000000000000000000000000000000000000000000000000000081526004018080602001828103825260278152602001807f4f6e6c7920616c696173206f776e65722063616e2063616c6c2074686973206681526020017f756e6374696f6e0000000000000000000000000000000000000000000000000081525060400191505060405180910390fd5b60026000808c6000191660001916815260200190815260200160002054815481101515611add57fe5b90600052602060002090600702016000019550856001018660000160008b6000191660001916815260200190815260200160002054815481101515611b1e57fe5b906000526020600020906007020160000173__TNSTag________________________________633b9dafaf90918a8a6040518463ffffffff167c010000000000000000000000000000000000000000000000000000000002815260040180848152602001836000191660001916815260200180602001828103825283818151815260200191508051906020019060200280838360005b83811015611bcf578082015181840152602081019050611bb4565b5050505090500194505050505060006040518083038186803b158015611bf457600080fd5b505af4158015611c08573d6000803e3d6000fd5b5050505050505050505050505050565b600080611c25848461744b565b15611d53576002600080866000191660001916815260200190815260200160002054815481101515611c5357fe5b9060005260206000209060070201600001905080600101816000016000856000191660001916815260200190815260200160002054815481101515611c9457fe5b906000526020600020906007020160000173__TNSTag________________________________6392272f5290916040518263ffffffff167c01000000000000000000000000000000000000000000000000000000000281526004018082815260200191505060206040518083038186803b158015611d1157600080fd5b505af4158015611d25573d6000803e3d6000fd5b505050506040513d6020811015611d3b57600080fd5b81019080805190602001909291905050509150611d58565b600091505b5092915050565b60008060008460007f010000000000000000000000000000000000000000000000000000000000000002816000602081101515611d9857fe5b1a7f0100000000000000000000000000000000000000000000000000000000000000027effffffffffffffffffffffffffffffffffffffffffffffffffffffffffffff191614151515611e53576040517f08c379a000000000000000000000000000000000000000000000000000000000815260040180806020018281038252600e8152602001807f416c69617320697320656d70747900000000000000000000000000000000000081525060200191505060405180910390fd5b8460007f010000000000000000000000000000000000000000000000000000000000000002816000602081101515611e8757fe5b1a7f0100000000000000000000000000000000000000000000000000000000000000027effffffffffffffffffffffffffffffffffffffffffffffffffffffffffffff191614151515611f42576040517f08c379a000000000000000000000000000000000000000000000000000000000815260040180806020018281038252600e8152602001807f416c69617320697320656d70747900000000000000000000000000000000000081525060200191505060405180910390fd5b868660001515611f5183610efe565b1515148015611f6d575060001515611f698383615a5a565b1515145b1515611fe1576040517f08c379a000000000000000000000000000000000000000000000000000000000815260040180806020018281038252601a8152602001807f416c696173206f722074616720646f65736e277420657869737400000000000081525060200191505060405180910390fd5b886001151560016000836000191660001916815260200190815260200160002060009054906101000a900460ff161515141515612086576040517f08c379a00000000000000000000000000000000000000000000000000000000081526004018080602001828103825260138152602001807f416c69617320646f65736e27742065786973740000000000000000000000000081525060200191505060405180910390fd5b60026000808360001916600019168152602001908152602001600020548154811015156120af57fe5b906000526020600020906007020160060160009054906101000a900473ffffffffffffffffffffffffffffffffffffffff1673ffffffffffffffffffffffffffffffffffffffff163373ffffffffffffffffffffffffffffffffffffffff161415156121a9576040517f08c379a00000000000000000000000000000000000000000000000000000000081526004018080602001828103825260278152602001807f4f6e6c7920616c696173206f776e65722063616e2063616c6c2074686973206681526020017f756e6374696f6e0000000000000000000000000000000000000000000000000081525060400191505060405180910390fd5b60026000808c60001916600019168152602001908152602001600020548154811015156121d257fe5b906000526020600020906007020160000197508760030160008a6000191660001916815260200190815260200160002060006101000a81549060ff02191690558760000160008a6000191660001916815260200190815260200160002054965060018860010180549050039550876002018681548110151561225057fe5b9060005260206000200154886002018881548110151561226c57fe5b906000526020600020018160001916905550868860000160008a6002018981548110151561229657fe5b90600052602060002001546000191660001916815260200190815260200160002081905550876002018054809190600190036122d29190617a95565b5087600101868154811015156122e457fe5b9060005260206000209060070201886001018881548110151561230357fe5b9060005260206000209060070201600082018160000160008201816000016000820181600001908054612337929190617ac1565b506001820160009054906101000a900460ff168160010160006101000a81548160ff021916908315150217905550505060028201816002016000820160009054906101000a900473ffffffffffffffffffffffffffffffffffffffff168160000160006101000a81548173ffffffffffffffffffffffffffffffffffffffff021916908373ffffffffffffffffffffffffffffffffffffffff1602179055506000820160149054906101000a900460ff168160000160146101000a81548160ff0219169083151502179055506002820181600201908054612419929190617b13565b506003820181600301908054612430929190617b13565b5050505050600682015481600601906000191690559050508760010180548091906001900361245f9190617b65565b508760000160008a60001916600019168152602001908152602001600020600090553373ffffffffffffffffffffffffffffffffffffffff167fd713555621920b224de101490062f8e270b78138596c90ce629163a35198cfcc8b60405180826000191660001916815260200191505060405180910390a250505050505050505050565b6000806124f0848461744b565b1561261e57600260008086600019166000191681526020019081526020016000205481548110151561251e57fe5b906000526020600020906007020160000190508060010181600001600085600019166000191681526020019081526020016000205481548110151561255f57fe5b906000526020600020906007020160000173__TNSTag________________________________63fc971ba590916040518263ffffffff167c01000000000000000000000000000000000000000000000000000000000281526004018082815260200191505060206040518083038186803b1580156125dc57600080fd5b505af41580156125f0573d6000803e3d6000fd5b505050506040513d602081101561260657600080fd5b81019080805190602001909291905050509150612623565b600091505b5092915050565b600080612637848461744b565b1561276557600260008086600019166000191681526020019081526020016000205481548110151561266557fe5b90600052602060002090600702016000019050806001018160000160008560001916600019168152602001908152602001600020548154811015156126a657fe5b906000526020600020906007020160000173__TNSTag________________________________630add875090916040518263ffffffff167c01000000000000000000000000000000000000000000000000000000000281526004018082815260200191505060206040518083038186803b15801561272357600080fd5b505af4158015612737573d6000803e3d6000fd5b505050506040513d602081101561274d57600080fd5b8101908080519060200190929190505050915061276a565b600091505b5092915050565b60008460007f0100000000000000000000000000000000000000000000000000000000000000028160006020811015156127a757fe5b1a7f0100000000000000000000000000000000000000000000000000000000000000027effffffffffffffffffffffffffffffffffffffffffffffffffffffffffffff191614151515612862576040517f08c379a000000000000000000000000000000000000000000000000000000000815260040180806020018281038252600e8152602001807f416c69617320697320656d70747900000000000000000000000000000000000081525060200191505060405180910390fd5b8460007f01000000000000000000000000000000000000000000000000000000000000000281600060208110151561289657fe5b1a7f0100000000000000000000000000000000000000000000000000000000000000027effffffffffffffffffffffffffffffffffffffffffffffffffffffffffffff191614151515612951576040517f08c379a000000000000000000000000000000000000000000000000000000000815260040180806020018281038252600e8152602001807f416c69617320697320656d70747900000000000000000000000000000000000081525060200191505060405180910390fd5b86866000151561296083610efe565b151514801561297c5750600015156129788383615a5a565b1515145b15156129f0576040517f08c379a000000000000000000000000000000000000000000000000000000000815260040180806020018281038252601a8152602001807f416c696173206f722074616720646f65736e277420657869737400000000000081525060200191505060405180910390fd5b886001151560016000836000191660001916815260200190815260200160002060009054906101000a900460ff161515141515612a95576040517f08c379a00000000000000000000000000000000000000000000000000000000081526004018080602001828103825260138152602001807f416c69617320646f65736e27742065786973740000000000000000000000000081525060200191505060405180910390fd5b6002600080836000191660001916815260200190815260200160002054815481101515612abe57fe5b906000526020600020906007020160060160009054906101000a900473ffffffffffffffffffffffffffffffffffffffff1673ffffffffffffffffffffffffffffffffffffffff163373ffffffffffffffffffffffffffffffffffffffff16141515612bb8576040517f08c379a00000000000000000000000000000000000000000000000000000000081526004018080602001828103825260278152602001807f4f6e6c7920616c696173206f776e65722063616e2063616c6c2074686973206681526020017f756e6374696f6e0000000000000000000000000000000000000000000000000081525060400191505060405180910390fd5b60026000808c6000191660001916815260200190815260200160002054815481101515612be157fe5b90600052602060002090600702016000019550856001018660000160008b6000191660001916815260200190815260200160002054815481101515612c2257fe5b906000526020600020906007020160000173__TNSTag________________________________63321491c790918a8a6040518463ffffffff167c0100000000000000000000000000000000000000000000000000000000028152600401808481526020018360001916600019168152602001828152602001935050505060006040518083038186803b158015612cb757600080fd5b505af4158015612ccb573d6000803e3d6000fd5b5050505050505050505050505050565b606080612ce78361747d565b15612d83576002600080856000191660001916815260200190815260200160002054815481101515612d1557fe5b9060005260206000209060070201600001600201805480602002602001604051908101604052809291908181526020018280548015612d7757602002820191906000526020600020905b81546000191681526020019060010190808311612d5f575b50505050509150612dba565b6000604051908082528060200260200182016040528015612db35781602001602082028038833980820191505090505b5090508091505b50919050565b600080612dcd848461744b565b15612e55576002600080866000191660001916815260200190815260200160002054815481101515612dfb57fe5b9060005260206000209060070201600001905080600101816000016000856000191660001916815260200190815260200160002054815481101515612e3c57fe5b9060005260206000209060070201600601549150612e5d565b600060010291505b5092915050565b6000808460007f010000000000000000000000000000000000000000000000000000000000000002816000602081101515612e9b57fe5b1a7f0100000000000000000000000000000000000000000000000000000000000000027effffffffffffffffffffffffffffffffffffffffffffffffffffffffffffff191614151515612f56576040517f08c379a000000000000000000000000000000000000000000000000000000000815260040180806020018281038252600e8152602001807f416c69617320697320656d70747900000000000000000000000000000000000081525060200191505060405180910390fd5b8460007f010000000000000000000000000000000000000000000000000000000000000002816000602081101515612f8a57fe5b1a7f0100000000000000000000000000000000000000000000000000000000000000027effffffffffffffffffffffffffffffffffffffffffffffffffffffffffffff191614151515613045576040517f08c379a000000000000000000000000000000000000000000000000000000000815260040180806020018281038252600e8152602001807f416c69617320697320656d70747900000000000000000000000000000000000081525060200191505060405180910390fd5b86866000151561305483610efe565b151514801561307057506000151561306c8383615a5a565b1515145b15156130e4576040517f08c379a000000000000000000000000000000000000000000000000000000000815260040180806020018281038252601a8152602001807f416c696173206f722074616720646f65736e277420657869737400000000000081525060200191505060405180910390fd5b886001151560016000836000191660001916815260200190815260200160002060009054906101000a900460ff161515141515613189576040517f08c379a00000000000000000000000000000000000000000000000000000000081526004018080602001828103825260138152602001807f416c69617320646f65736e27742065786973740000000000000000000000000081525060200191505060405180910390fd5b60026000808360001916600019168152602001908152602001600020548154811015156131b257fe5b906000526020600020906007020160060160009054906101000a900473ffffffffffffffffffffffffffffffffffffffff1673ffffffffffffffffffffffffffffffffffffffff163373ffffffffffffffffffffffffffffffffffffffff161415156132ac576040517f08c379a00000000000000000000000000000000000000000000000000000000081526004018080602001828103825260278152602001807f4f6e6c7920616c696173206f776e65722063616e2063616c6c2074686973206681526020017f756e6374696f6e0000000000000000000000000000000000000000000000000081525060400191505060405180910390fd5b60026000808c60001916600019168152602001908152602001600020548154811015156132d557fe5b906000526020600020906007020160000196508660000160008a60001916600019168152602001908152602001600020549550866001018681548110151561331957fe5b906000526020600020906007020160000173__TNSTag________________________________63a7551a3e90918a6040518363ffffffff167c0100000000000000000000000000000000000000000000000000000000028152600401808381526020018281526020019250505060006040518083038186803b15801561339e57600080fd5b505af41580156133b2573d6000803e3d6000fd5b505050503373ffffffffffffffffffffffffffffffffffffffff167fd713555621920b224de101490062f8e270b78138596c90ce629163a35198cfcc8b60405180826000191660001916815260200191505060405180910390a250505050505050505050565b600080613425848461744b565b1561355357600260008086600019166000191681526020019081526020016000205481548110151561345357fe5b906000526020600020906007020160000190508060010181600001600085600019166000191681526020019081526020016000205481548110151561349457fe5b906000526020600020906007020160000173__TNSTag________________________________63fb34ccff90916040518263ffffffff167c01000000000000000000000000000000000000000000000000000000000281526004018082815260200191505060206040518083038186803b15801561351157600080fd5b505af4158015613525573d6000803e3d6000fd5b505050506040513d602081101561353b57600080fd5b81019080805190602001909291905050509150613558565b600091505b5092915050565b613567617b97565b8560007f01000000000000000000000000000000000000000000000000000000000000000281600060208110151561359b57fe5b1a7f0100000000000000000000000000000000000000000000000000000000000000027effffffffffffffffffffffffffffffffffffffffffffffffffffffffffffff191614151515613656576040517f08c379a000000000000000000000000000000000000000000000000000000000815260040180806020018281038252600e8152602001807f416c69617320697320656d70747900000000000000000000000000000000000081525060200191505060405180910390fd5b8460007f01000000000000000000000000000000000000000000000000000000000000000281600060208110151561368a57fe5b1a7f0100000000000000000000000000000000000000000000000000000000000000027effffffffffffffffffffffffffffffffffffffffffffffffffffffffffffff191614151515613745576040517f08c379a000000000000000000000000000000000000000000000000000000000815260040180806020018281038252600e8152602001807f416c69617320697320656d70747900000000000000000000000000000000000081525060200191505060405180910390fd5b60008473ffffffffffffffffffffffffffffffffffffffff16141515156137d4576040517f08c379a00000000000000000000000000000000000000000000000000000000081526004018080602001828103825260138152602001807f7075624164647265737320697320656d7074790000000000000000000000000081525060200191505060405180910390fd5b8383602001516000019073ffffffffffffffffffffffffffffffffffffffff16908173ffffffffffffffffffffffffffffffffffffffff168152505061381988610efe565b156138305761382b8888888887617495565b6139bc565b3373ffffffffffffffffffffffffffffffffffffffff1660026000808b600019166000191681526020019081526020016000205481548110151561387057fe5b906000526020600020906007020160060160009054906101000a900473ffffffffffffffffffffffffffffffffffffffff1673ffffffffffffffffffffffffffffffffffffffff16141561394d576138c88887615a5a565b151561393c576040517f08c379a00000000000000000000000000000000000000000000000000000000081526004018080602001828103825260128152602001807f54616720616c726561647920657869737473000000000000000000000000000081525060200191505060405180910390fd5b61394888878786617852565b6139bb565b6040517f08c379a00000000000000000000000000000000000000000000000000000000081526004018080602001828103825260168152602001807f416c69617320697320616c72656164792074616b656e0000000000000000000081525060200191505060405180910390fd5b5b3373ffffffffffffffffffffffffffffffffffffffff167fd713555621920b224de101490062f8e270b78138596c90ce629163a35198cfcc8960405180826000191660001916815260200191505060405180910390a25050505050505050565b60008060008560007f010000000000000000000000000000000000000000000000000000000000000002816000602081101515613a5557fe5b1a7f0100000000000000000000000000000000000000000000000000000000000000027effffffffffffffffffffffffffffffffffffffffffffffffffffffffffffff191614151515613b10576040517f08c379a000000000000000000000000000000000000000000000000000000000815260040180806020018281038252600e8152602001807f416c69617320697320656d70747900000000000000000000000000000000000081525060200191505060405180910390fd5b8560007f010000000000000000000000000000000000000000000000000000000000000002816000602081101515613b4457fe5b1a7f0100000000000000000000000000000000000000000000000000000000000000027effffffffffffffffffffffffffffffffffffffffffffffffffffffffffffff191614151515613bff576040517f08c379a000000000000000000000000000000000000000000000000000000000815260040180806020018281038252600e8152602001807f416c69617320697320656d70747900000000000000000000000000000000000081525060200191505060405180910390fd5b878760001515613c0e83610efe565b1515148015613c2a575060001515613c268383615a5a565b1515145b1515613c9e576040517f08c379a000000000000000000000000000000000000000000000000000000000815260040180806020018281038252601a8152602001807f416c696173206f722074616720646f65736e277420657869737400000000000081525060200191505060405180910390fd5b896001151560016000836000191660001916815260200190815260200160002060009054906101000a900460ff161515141515613d43576040517f08c379a00000000000000000000000000000000000000000000000000000000081526004018080602001828103825260138152602001807f416c69617320646f65736e27742065786973740000000000000000000000000081525060200191505060405180910390fd5b6002600080836000191660001916815260200190815260200160002054815481101515613d6c57fe5b906000526020600020906007020160060160009054906101000a900473ffffffffffffffffffffffffffffffffffffffff1673ffffffffffffffffffffffffffffffffffffffff163373ffffffffffffffffffffffffffffffffffffffff16141515613e66576040517f08c379a00000000000000000000000000000000000000000000000000000000081526004018080602001828103825260278152602001807f4f6e6c7920616c696173206f776e65722063616e2063616c6c2074686973206681526020017f756e6374696f6e0000000000000000000000000000000000000000000000000081525060400191505060405180910390fd5b60026000808d6000191660001916815260200190815260200160002054815481101515613e8f57fe5b906000526020600020906007020160000197508760000160008b600019166000191681526020019081526020016000205496508760010187815481101515613ed357fe5b906000526020600020906007020160000173__TNSTag________________________________6392272f5290916040518263ffffffff167c01000000000000000000000000000000000000000000000000000000000281526004018082815260200191505060206040518083038186803b158015613f5057600080fd5b505af4158015613f64573d6000803e3d6000fd5b505050506040513d6020811015613f7a57600080fd5b81019080805190602001909291905050509550601486101515614051576040517f08c379a00000000000000000000000000000000000000000000000000000000081526004018080602001828103825260418152602001807f596f752063616e206f6e6c792073746f726520757020746f203230206164647281526020017f657373657320696e206f7264657220746f206f62657920676173206c696d697481526020017f2e0000000000000000000000000000000000000000000000000000000000000081525060600191505060405180910390fd5b876001018781548110151561406257fe5b906000526020600020906007020160000173__TNSTag________________________________639f2795bd90918b6040518363ffffffff167c0100000000000000000000000000000000000000000000000000000000028152600401808381526020018273ffffffffffffffffffffffffffffffffffffffff1673ffffffffffffffffffffffffffffffffffffffff1681526020019250505060006040518083038186803b15801561411357600080fd5b505af4158015614127573d6000803e3d6000fd5b505050503373ffffffffffffffffffffffffffffffffffffffff167fd713555621920b224de101490062f8e270b78138596c90ce629163a35198cfcc8c60405180826000191660001916815260200191505060405180910390a25050505050505050505050565b60008061419b858561744b565b156142d95760026000808760001916600019168152602001908152602001600020548154811015156141c957fe5b906000526020600020906007020160000190508060010181600001600086600019166000191681526020019081526020016000205481548110151561420a57fe5b906000526020600020906007020160000173__TNSTag________________________________637e159a349091856040518363ffffffff167c01000000000000000000000000000000000000000000000000000000000281526004018083815260200182600019166000191681526020019250505060206040518083038186803b15801561429757600080fd5b505af41580156142ab573d6000803e3d6000fd5b505050506040513d60208110156142c157600080fd5b810190808051906020019092919050505091506142de565b600091505b509392505050565b60006142f18261747d565b1561435857600260008084600019166000191681526020019081526020016000205481548110151561431f57fe5b906000526020600020906007020160060160009054906101000a900473ffffffffffffffffffffffffffffffffffffffff16905061435d565b600090505b919050565b606060006060614372858561744b565b156144f65760026000808760001916600019168152602001908152602001600020548154811015156143a057fe5b90600052602060002090600702016000019150816001018260000160008660001916600019168152602001908152602001600020548154811015156143e157fe5b906000526020600020906007020160000173__TNSTag________________________________63f6e0d76790916040518263ffffffff167c01000000000000000000000000000000000000000000000000000000000281526004018082815260200191505060006040518083038186803b15801561445e57600080fd5b505af4158015614472573d6000803e3d6000fd5b505050506040513d6000823e3d601f19601f82011682018060405250602081101561449c57600080fd5b8101908080516401000000008111156144b457600080fd5b828101905060208101848111156144ca57600080fd5b81518560208202830111640100000000821117156144e757600080fd5b5050929190505050925061452d565b60006040519080825280602002602001820160405280156145265781602001602082028038833980820191505090505b5090508092505b505092915050565b6000808460007f01000000000000000000000000000000000000000000000000000000000000000281600060208110151561456c57fe5b1a7f0100000000000000000000000000000000000000000000000000000000000000027effffffffffffffffffffffffffffffffffffffffffffffffffffffffffffff191614151515614627576040517f08c379a000000000000000000000000000000000000000000000000000000000815260040180806020018281038252600e8152602001807f416c69617320697320656d70747900000000000000000000000000000000000081525060200191505060405180910390fd5b8460007f01000000000000000000000000000000000000000000000000000000000000000281600060208110151561465b57fe5b1a7f0100000000000000000000000000000000000000000000000000000000000000027effffffffffffffffffffffffffffffffffffffffffffffffffffffffffffff191614151515614716576040517f08c379a000000000000000000000000000000000000000000000000000000000815260040180806020018281038252600e8152602001807f416c69617320697320656d70747900000000000000000000000000000000000081525060200191505060405180910390fd5b86866000151561472583610efe565b151514801561474157506000151561473d8383615a5a565b1515145b15156147b5576040517f08c379a000000000000000000000000000000000000000000000000000000000815260040180806020018281038252601a8152602001807f416c696173206f722074616720646f65736e277420657869737400000000000081525060200191505060405180910390fd5b886001151560016000836000191660001916815260200190815260200160002060009054906101000a900460ff16151514151561485a576040517f08c379a00000000000000000000000000000000000000000000000000000000081526004018080602001828103825260138152602001807f416c69617320646f65736e27742065786973740000000000000000000000000081525060200191505060405180910390fd5b600260008083600019166000191681526020019081526020016000205481548110151561488357fe5b906000526020600020906007020160060160009054906101000a900473ffffffffffffffffffffffffffffffffffffffff1673ffffffffffffffffffffffffffffffffffffffff163373ffffffffffffffffffffffffffffffffffffffff1614151561497d576040517f08c379a00000000000000000000000000000000000000000000000000000000081526004018080602001828103825260278152602001807f4f6e6c7920616c696173206f776e65722063616e2063616c6c2074686973206681526020017f756e6374696f6e0000000000000000000000000000000000000000000000000081525060400191505060405180910390fd5b60026000808c60001916600019168152602001908152602001600020548154811015156149a657fe5b906000526020600020906007020160000196508660000160008a6000191660001916815260200190815260200160002054955086600101868154811015156149ea57fe5b906000526020600020906007020160000173__TNSTag________________________________6338cc095390918a6040518363ffffffff167c01000000000000000000000000000000000000000000000000000000000281526004018083815260200180602001828103825283818151815260200191508051906020019060200280838360005b83811015614a8c578082015181840152602081019050614a71565b50505050905001935050505060006040518083038186803b158015614ab057600080fd5b505af4158015614ac4573d6000803e3d6000fd5b505050503373ffffffffffffffffffffffffffffffffffffffff167fd713555621920b224de101490062f8e270b78138596c90ce629163a35198cfcc8b60405180826000191660001916815260200191505060405180910390a250505050505050505050565b6060600360009054906101000a900473ffffffffffffffffffffffffffffffffffffffff1673ffffffffffffffffffffffffffffffffffffffff16635aac6822836040518263ffffffff167c0100000000000000000000000000000000000000000000000000000000028152600401808273ffffffffffffffffffffffffffffffffffffffff1673ffffffffffffffffffffffffffffffffffffffff168152602001915050600060405180830381600087803b158015614be957600080fd5b505af1158015614bfd573d6000803e3d6000fd5b505050506040513d6000823e3d601f19601f820116820180604052506020811015614c2757600080fd5b810190808051640100000000811115614c3f57600080fd5b82810190506020810184811115614c5557600080fd5b8151856020820283011164010000000082111715614c7257600080fd5b50509291905050509050919050565b60008460007f010000000000000000000000000000000000000000000000000000000000000002816000602081101515614cb757fe5b1a7f0100000000000000000000000000000000000000000000000000000000000000027effffffffffffffffffffffffffffffffffffffffffffffffffffffffffffff191614151515614d72576040517f08c379a000000000000000000000000000000000000000000000000000000000815260040180806020018281038252600e8152602001807f416c69617320697320656d70747900000000000000000000000000000000000081525060200191505060405180910390fd5b8460007f010000000000000000000000000000000000000000000000000000000000000002816000602081101515614da657fe5b1a7f0100000000000000000000000000000000000000000000000000000000000000027effffffffffffffffffffffffffffffffffffffffffffffffffffffffffffff191614151515614e61576040517f08c379a000000000000000000000000000000000000000000000000000000000815260040180806020018281038252600e8152602001807f416c69617320697320656d70747900000000000000000000000000000000000081525060200191505060405180910390fd5b868660001515614e7083610efe565b1515148015614e8c575060001515614e888383615a5a565b1515145b1515614f00576040517f08c379a000000000000000000000000000000000000000000000000000000000815260040180806020018281038252601a8152602001807f416c696173206f722074616720646f65736e277420657869737400000000000081525060200191505060405180910390fd5b886001151560016000836000191660001916815260200190815260200160002060009054906101000a900460ff161515141515614fa5576040517f08c379a00000000000000000000000000000000000000000000000000000000081526004018080602001828103825260138152602001807f416c69617320646f65736e27742065786973740000000000000000000000000081525060200191505060405180910390fd5b6002600080836000191660001916815260200190815260200160002054815481101515614fce57fe5b906000526020600020906007020160060160009054906101000a900473ffffffffffffffffffffffffffffffffffffffff1673ffffffffffffffffffffffffffffffffffffffff163373ffffffffffffffffffffffffffffffffffffffff161415156150c8576040517f08c379a00000000000000000000000000000000000000000000000000000000081526004018080602001828103825260278152602001807f4f6e6c7920616c696173206f776e65722063616e2063616c6c2074686973206681526020017f756e6374696f6e0000000000000000000000000000000000000000000000000081525060400191505060405180910390fd5b60026000808c60001916600019168152602001908152602001600020548154811015156150f157fe5b90600052602060002090600702016000019550856001018660000160008b600019166000191681526020019081526020016000205481548110151561513257fe5b906000526020600020906007020160000173__TNSTag________________________________63727a3b3c90918a8a6040518463ffffffff167c0100000000000000000000000000000000000000000000000000000000028152600401808481526020018060200180602001838103835285818151815260200191508051906020019060200280838360005b838110156151d95780820151818401526020810190506151be565b50505050905001838103825284818151815260200191508051906020019060200280838360005b8381101561521b578082015181840152602081019050615200565b505050509050019550505050505060006040518083038186803b15801561524157600080fd5b505af4158015615255573d6000803e3d6000fd5b5050505050505050505050505050565b6000808460007f01000000000000000000000000000000000000000000000000000000000000000281600060208110151561529c57fe5b1a7f0100000000000000000000000000000000000000000000000000000000000000027effffffffffffffffffffffffffffffffffffffffffffffffffffffffffffff191614151515615357576040517f08c379a000000000000000000000000000000000000000000000000000000000815260040180806020018281038252600e8152602001807f416c69617320697320656d70747900000000000000000000000000000000000081525060200191505060405180910390fd5b8460007f01000000000000000000000000000000000000000000000000000000000000000281600060208110151561538b57fe5b1a7f0100000000000000000000000000000000000000000000000000000000000000027effffffffffffffffffffffffffffffffffffffffffffffffffffffffffffff191614151515615446576040517f08c379a000000000000000000000000000000000000000000000000000000000815260040180806020018281038252600e8152602001807f416c69617320697320656d70747900000000000000000000000000000000000081525060200191505060405180910390fd5b86866000151561545583610efe565b151514801561547157506000151561546d8383615a5a565b1515145b15156154e5576040517f08c379a000000000000000000000000000000000000000000000000000000000815260040180806020018281038252601a8152602001807f416c696173206f722074616720646f65736e277420657869737400000000000081525060200191505060405180910390fd5b886001151560016000836000191660001916815260200190815260200160002060009054906101000a900460ff16151514151561558a576040517f08c379a00000000000000000000000000000000000000000000000000000000081526004018080602001828103825260138152602001807f416c69617320646f65736e27742065786973740000000000000000000000000081525060200191505060405180910390fd5b60026000808360001916600019168152602001908152602001600020548154811015156155b357fe5b906000526020600020906007020160060160009054906101000a900473ffffffffffffffffffffffffffffffffffffffff1673ffffffffffffffffffffffffffffffffffffffff163373ffffffffffffffffffffffffffffffffffffffff161415156156ad576040517f08c379a00000000000000000000000000000000000000000000000000000000081526004018080602001828103825260278152602001807f4f6e6c7920616c696173206f776e65722063616e2063616c6c2074686973206681526020017f756e6374696f6e0000000000000000000000000000000000000000000000000081525060400191505060405180910390fd5b60026000808c60001916600019168152602001908152602001600020548154811015156156d657fe5b906000526020600020906007020160000196508660000160008a60001916600019168152602001908152602001600020549550866001018681548110151561571a57fe5b906000526020600020906007020160000173__TNSTag________________________________63239cf80890918a6040518363ffffffff167c010000000000000000000000000000000000000000000000000000000002815260040180838152602001821515151581526020019250505060006040518083038186803b1580156157a357600080fd5b505af41580156157b7573d6000803e3d6000fd5b505050503373ffffffffffffffffffffffffffffffffffffffff167fd713555621920b224de101490062f8e270b78138596c90ce629163a35198cfcc8b60405180826000191660001916815260200191505060405180910390a250505050505050505050565b60606000606061582d858561744b565b156159b157600260008087600019166000191681526020019081526020016000205481548110151561585b57fe5b906000526020600020906007020160000191508160010182600001600086600019166000191681526020019081526020016000205481548110151561589c57fe5b906000526020600020906007020160000173__TNSTag________________________________636696da9290916040518263ffffffff167c01000000000000000000000000000000000000000000000000000000000281526004018082815260200191505060006040518083038186803b15801561591957600080fd5b505af415801561592d573d6000803e3d6000fd5b505050506040513d6000823e3d601f19601f82011682018060405250602081101561595757600080fd5b81019080805164010000000081111561596f57600080fd5b8281019050602081018481111561598557600080fd5b81518560208202830111640100000000821117156159a257600080fd5b505092919050505092506159e8565b60006040519080825280602002602001820160405280156159e15781602001602082028038833980820191505090505b5090508092505b505092915050565b60008060608060006060806000806000615a0a8c8c61581d565b9450615a168c8c614362565b9350615a228c8c613418565b9250615a2e8c8c6124e3565b9150615a3a8c8c61262a565b905081818686869950995099509950995050505050509295509295909350565b60006001151560016000856000191660001916815260200190815260200160002060009054906101000a900460ff1615151415615b0b57600115156002600080866000191660001916815260200190815260200160002054815481101515615abe57fe5b90600052602060002090600702016000016003016000846000191660001916815260200190815260200160002060009054906101000a900460ff1615151415615b0a5760009050615b10565b5b600190505b92915050565b6000808660007f010000000000000000000000000000000000000000000000000000000000000002816000602081101515615b4d57fe5b1a7f0100000000000000000000000000000000000000000000000000000000000000027effffffffffffffffffffffffffffffffffffffffffffffffffffffffffffff191614151515615c08576040517f08c379a000000000000000000000000000000000000000000000000000000000815260040180806020018281038252600e8152602001807f416c69617320697320656d70747900000000000000000000000000000000000081525060200191505060405180910390fd5b8660007f010000000000000000000000000000000000000000000000000000000000000002816000602081101515615c3c57fe5b1a7f0100000000000000000000000000000000000000000000000000000000000000027effffffffffffffffffffffffffffffffffffffffffffffffffffffffffffff191614151515615cf7576040517f08c379a000000000000000000000000000000000000000000000000000000000815260040180806020018281038252600e8152602001807f416c69617320697320656d70747900000000000000000000000000000000000081525060200191505060405180910390fd5b888860001515615d0683610efe565b1515148015615d22575060001515615d1e8383615a5a565b1515145b1515615d96576040517f08c379a000000000000000000000000000000000000000000000000000000000815260040180806020018281038252601a8152602001807f416c696173206f722074616720646f65736e277420657869737400000000000081525060200191505060405180910390fd5b8a6001151560016000836000191660001916815260200190815260200160002060009054906101000a900460ff161515141515615e3b576040517f08c379a00000000000000000000000000000000000000000000000000000000081526004018080602001828103825260138152602001807f416c69617320646f65736e27742065786973740000000000000000000000000081525060200191505060405180910390fd5b6002600080836000191660001916815260200190815260200160002054815481101515615e6457fe5b906000526020600020906007020160060160009054906101000a900473ffffffffffffffffffffffffffffffffffffffff1673ffffffffffffffffffffffffffffffffffffffff163373ffffffffffffffffffffffffffffffffffffffff16141515615f5e576040517f08c379a00000000000000000000000000000000000000000000000000000000081526004018080602001828103825260278152602001807f4f6e6c7920616c696173206f776e65722063616e2063616c6c2074686973206681526020017f756e6374696f6e0000000000000000000000000000000000000000000000000081525060400191505060405180910390fd5b60007f010000000000000000000000000000000000000000000000000000000000000002896000602081101515615f9157fe5b1a7f0100000000000000000000000000000000000000000000000000000000000000027effffffffffffffffffffffffffffffffffffffffffffffffffffffffffffff19161415151561604c576040517f08c379a00000000000000000000000000000000000000000000000000000000081526004018080602001828103825260108152602001807f4e65772074616720697320656d7074790000000000000000000000000000000081525060200191505060405180910390fd5b6160568c8a615a5a565b15156160ca576040517f08c379a00000000000000000000000000000000000000000000000000000000081526004018080602001828103825260128152602001807f54616720616c726561647920657869737473000000000000000000000000000081525060200191505060405180910390fd5b60026000808e60001916600019168152602001908152602001600020548154811015156160f357fe5b906000526020600020906007020160000196508660030160008c6000191660001916815260200190815260200160002060006101000a81549060ff021916905560018760030160008b6000191660001916815260200190815260200160002060006101000a81548160ff0219169083151502179055508660000160008c6000191660001916815260200190815260200160002054955087876001018781548110151561619b57fe5b906000526020600020906007020160060181600019169055508887600201878154811015156161c657fe5b906000526020600020018160001916905550858760000160008b60001916600019168152602001908152602001600020819055508660000160008c60001916600019168152602001908152602001600020600090553373ffffffffffffffffffffffffffffffffffffffff167f3f7c5904943ad21b9256174ea1f6c00b1785c4a181ffe526f8bba2ac0ad2a06d60405160405180910390a2505050505050505050505050565b616274617b97565b8560007f0100000000000000000000000000000000000000000000000000000000000000028160006020811015156162a857fe5b1a7f0100000000000000000000000000000000000000000000000000000000000000027effffffffffffffffffffffffffffffffffffffffffffffffffffffffffffff191614151515616363576040517f08c379a000000000000000000000000000000000000000000000000000000000815260040180806020018281038252600e8152602001807f416c69617320697320656d70747900000000000000000000000000000000000081525060200191505060405180910390fd5b8460007f01000000000000000000000000000000000000000000000000000000000000000281600060208110151561639757fe5b1a7f0100000000000000000000000000000000000000000000000000000000000000027effffffffffffffffffffffffffffffffffffffffffffffffffffffffffffff191614151515616452576040517f08c379a000000000000000000000000000000000000000000000000000000000815260040180806020018281038252600e8152602001807f416c69617320697320656d70747900000000000000000000000000000000000081525060200191505060405180910390fd5b600084511115156164cb576040517f08c379a00000000000000000000000000000000000000000000000000000000081526004018080602001828103825260178152602001807f67656e416464726573734c69737420697320656d70747900000000000000000081525060200191505060405180910390fd5b600183600001516020019015159081151581525050838360000151600001819052506164f688610efe565b1561650d576165088888888887617495565b616699565b3373ffffffffffffffffffffffffffffffffffffffff1660026000808b600019166000191681526020019081526020016000205481548110151561654d57fe5b906000526020600020906007020160060160009054906101000a900473ffffffffffffffffffffffffffffffffffffffff1673ffffffffffffffffffffffffffffffffffffffff16141561662a576165a58887615a5a565b1515616619576040517f08c379a00000000000000000000000000000000000000000000000000000000081526004018080602001828103825260128152602001807f54616720616c726561647920657869737473000000000000000000000000000081525060200191505060405180910390fd5b61662588878786617852565b616698565b6040517f08c379a00000000000000000000000000000000000000000000000000000000081526004018080602001828103825260168152602001807f416c69617320697320616c72656164792074616b656e0000000000000000000081525060200191505060405180910390fd5b5b3373ffffffffffffffffffffffffffffffffffffffff167fd713555621920b224de101490062f8e270b78138596c90ce629163a35198cfcc8960405180826000191660001916815260200191505060405180910390a25050505050505050565b600080616706858561744b565b1561683c57600260008087600019166000191681526020019081526020016000205481548110151561673457fe5b906000526020600020906007020160000190508060010181600001600086600019166000191681526020019081526020016000205481548110151561677557fe5b906000526020600020906007020160000173__TNSTag________________________________638077b7ca9091856040518363ffffffff167c0100000000000000000000000000000000000000000000000000000000028152600401808381526020018281526020019250505060206040518083038186803b1580156167fa57600080fd5b505af415801561680e573d6000803e3d6000fd5b505050506040513d602081101561682457600080fd5b81019080805190602001909291905050509150616841565b600091505b509392505050565b60008460007f01000000000000000000000000000000000000000000000000000000000000000281600060208110151561687f57fe5b1a7f0100000000000000000000000000000000000000000000000000000000000000027effffffffffffffffffffffffffffffffffffffffffffffffffffffffffffff19161415151561693a576040517f08c379a000000000000000000000000000000000000000000000000000000000815260040180806020018281038252600e8152602001807f416c69617320697320656d70747900000000000000000000000000000000000081525060200191505060405180910390fd5b856001151560016000836000191660001916815260200190815260200160002060009054906101000a900460ff1615151415156169df576040517f08c379a00000000000000000000000000000000000000000000000000000000081526004018080602001828103825260138152602001807f416c69617320646f65736e27742065786973740000000000000000000000000081525060200191505060405180910390fd5b6002600080836000191660001916815260200190815260200160002054815481101515616a0857fe5b906000526020600020906007020160060160009054906101000a900473ffffffffffffffffffffffffffffffffffffffff1673ffffffffffffffffffffffffffffffffffffffff163373ffffffffffffffffffffffffffffffffffffffff16141515616b02576040517f08c379a00000000000000000000000000000000000000000000000000000000081526004018080602001828103825260278152602001807f4f6e6c7920616c696173206f776e65722063616e2063616c6c2074686973206681526020017f756e6374696f6e0000000000000000000000000000000000000000000000000081525060400191505060405180910390fd5b60007f010000000000000000000000000000000000000000000000000000000000000002856000602081101515616b3557fe5b1a7f0100000000000000000000000000000000000000000000000000000000000000027effffffffffffffffffffffffffffffffffffffffffffffffffffffffffffff191614151515616bf0576040517f08c379a00000000000000000000000000000000000000000000000000000000081526004018080602001828103825260128152602001807f4e657720416c69617320697320656d707479000000000000000000000000000081525060200191505060405180910390fd5b616bf985610efe565b1515616c6d576040517f08c379a00000000000000000000000000000000000000000000000000000000081526004018080602001828103825260168152602001807f416c69617320697320616c72656164792074616b656e0000000000000000000081525060200191505060405180910390fd5b60016000886000191660001916815260200190815260200160002060006101000a81549060ff02191690556001806000876000191660001916815260200190815260200160002060006101000a81548160ff02191690831515021790555060008088600019166000191681526020019081526020016000205492508260008087600019166000191681526020019081526020016000208190555060008088600019166000191681526020019081526020016000206000905583600284815481101515616d3557fe5b90600052602060002090600702016004018160001916905550600360009054906101000a900473ffffffffffffffffffffffffffffffffffffffff1673ffffffffffffffffffffffffffffffffffffffff166303c680e93389886040518463ffffffff167c0100000000000000000000000000000000000000000000000000000000028152600401808473ffffffffffffffffffffffffffffffffffffffff1673ffffffffffffffffffffffffffffffffffffffff168152602001836000191660001916815260200182600019166000191681526020019350505050600060405180830381600087803b158015616e2b57600080fd5b505af1158015616e3f573d6000803e3d6000fd5b505050503373ffffffffffffffffffffffffffffffffffffffff167f3f7c5904943ad21b9256174ea1f6c00b1785c4a181ffe526f8bba2ac0ad2a06d60405160405180910390a250505050505050565b60008360007f010000000000000000000000000000000000000000000000000000000000000002816000602081101515616ec557fe5b1a7f0100000000000000000000000000000000000000000000000000000000000000027effffffffffffffffffffffffffffffffffffffffffffffffffffffffffffff191614151515616f80576040517f08c379a000000000000000000000000000000000000000000000000000000000815260040180806020018281038252600e8152602001807f416c69617320697320656d70747900000000000000000000000000000000000081525060200191505060405180910390fd5b8360007f010000000000000000000000000000000000000000000000000000000000000002816000602081101515616fb457fe5b1a7f0100000000000000000000000000000000000000000000000000000000000000027effffffffffffffffffffffffffffffffffffffffffffffffffffffffffffff19161415151561706f576040517f08c379a000000000000000000000000000000000000000000000000000000000815260040180806020018281038252600e8152602001807f416c69617320697320656d70747900000000000000000000000000000000000081525060200191505060405180910390fd5b85856000151561707e83610efe565b151514801561709a5750600015156170968383615a5a565b1515145b151561710e576040517f08c379a000000000000000000000000000000000000000000000000000000000815260040180806020018281038252601a8152602001807f416c696173206f722074616720646f65736e277420657869737400000000000081525060200191505060405180910390fd5b876001151560016000836000191660001916815260200190815260200160002060009054906101000a900460ff1615151415156171b3576040517f08c379a00000000000000000000000000000000000000000000000000000000081526004018080602001828103825260138152602001807f416c69617320646f65736e27742065786973740000000000000000000000000081525060200191505060405180910390fd5b60026000808360001916600019168152602001908152602001600020548154811015156171dc57fe5b906000526020600020906007020160060160009054906101000a900473ffffffffffffffffffffffffffffffffffffffff1673ffffffffffffffffffffffffffffffffffffffff163373ffffffffffffffffffffffffffffffffffffffff161415156172d6576040517f08c379a00000000000000000000000000000000000000000000000000000000081526004018080602001828103825260278152602001807f4f6e6c7920616c696173206f776e65722063616e2063616c6c2074686973206681526020017f756e6374696f6e0000000000000000000000000000000000000000000000000081525060400191505060405180910390fd5b60026000808b60001916600019168152602001908152602001600020548154811015156172ff57fe5b90600052602060002090600702016000019550856001018660000160008a600019166000191681526020019081526020016000205481548110151561734057fe5b906000526020600020906007020160000173__TNSTag________________________________63ba4d35d79091896040518363ffffffff167c010000000000000000000000000000000000000000000000000000000002815260040180838152602001821515151581526020019250505060006040518083038186803b1580156173c957600080fd5b505af41580156173dd573d6000803e3d6000fd5b50505050505050505050505050565b60006173f78261747d565b1561743e57600260008084600019166000191681526020019081526020016000205481548110151561742557fe5b9060005260206000209060070201600401549050617446565b600060010290505b919050565b600080151561745984610efe565b15151480156174755750600015156174718484615a5a565b1515145b905092915050565b600080151561748b83610efe565b1515149050919050565b600080600080600060018060008c6000191660001916815260200190815260200160002060006101000a81548160ff0219169083151502179055506002805490509450846000808c60001916600019168152602001908152602001600020819055506002805480919060010161750b9190617bbe565b5060028581548110151561751b57fe5b9060005260206000209060070201935088846004018160001916905550848460050181905550338460060160006101000a81548173ffffffffffffffffffffffffffffffffffffffff021916908373ffffffffffffffffffffffffffffffffffffffff16021790555083600001925060018360030160008a6000191660001916815260200190815260200160002060006101000a81548160ff021916908315150217905550826001018054905091508260010180548091906001016175e09190617b65565b5082600101828154811015156175f257fe5b906000526020600020906007020190508581600001600082015181600001600082015181600001908051906020019061762c929190617bf0565b5060208201518160010160006101000a81548160ff021916908315150217905550505060208201518160020160008201518160000160006101000a81548173ffffffffffffffffffffffffffffffffffffffff021916908373ffffffffffffffffffffffffffffffffffffffff16021790555060208201518160000160146101000a81548160ff02191690831515021790555060408201518160020190805190602001906176db929190617c7a565b5060608201518160030190805190602001906176f8929190617c7a565b50505090505086816006018160001916905550818360000160008a600019166000191681526020019081526020016000208190555082600201889080600181540180825580915050906001820390600052602060002001600090919290919091509060001916905550600360009054906101000a900473ffffffffffffffffffffffffffffffffffffffff1673ffffffffffffffffffffffffffffffffffffffff1663233a04d3338c6040518363ffffffff167c0100000000000000000000000000000000000000000000000000000000028152600401808373ffffffffffffffffffffffffffffffffffffffff1673ffffffffffffffffffffffffffffffffffffffff168152602001826000191660001916815260200192505050600060405180830381600087803b15801561782e57600080fd5b505af1158015617842573d6000803e3d6000fd5b5050505050505050505050505050565b60008061785d617ccd565b600080886000191660001916815260200190815260200160002054925060028381548110151561788957fe5b906000526020600020906007020160000191506001826003016000886000191660001916815260200190815260200160002060006101000a81548160ff02191690831515021790555060408051908101604052808581526020018660001916815250905081600101805490508260000160008860001916600019168152602001908152602001600020819055508160010181908060018154018082558091505090600182039060005260206000209060070201600090919290919091506000820151816000016000820151816000016000820151816000019080519060200190617974929190617bf0565b5060208201518160010160006101000a81548160ff021916908315150217905550505060208201518160020160008201518160000160006101000a81548173ffffffffffffffffffffffffffffffffffffffff021916908373ffffffffffffffffffffffffffffffffffffffff16021790555060208201518160000160146101000a81548160ff0219169083151502179055506040820151816002019080519060200190617a23929190617c7a565b506060820151816003019080519060200190617a40929190617c7a565b5050505050602082015181600601906000191690555050508160020186908060018154018082558091505090600182039060005260206000200160009091929091909150906000191690555050505050505050565b815481835581811115617abc57818360005260206000209182019101617abb9190617cf1565b5b505050565b828054828255906000526020600020908101928215617b025760005260206000209182015b82811115617b01578254825591600101919060010190617ae6565b5b509050617b0f9190617d16565b5090565b828054828255906000526020600020908101928215617b545760005260206000209182015b82811115617b53578254825591600101919060010190617b38565b5b509050617b619190617cf1565b5090565b815481835581811115617b9257600702816007028360005260206000209182019101617b919190617d59565b5b505050565b60c060405190810160405280617bab617e14565b8152602001617bb8617e30565b81525090565b815481835581811115617beb57600702816007028360005260206000209182019101617bea9190617e71565b5b505050565b828054828255906000526020600020908101928215617c69579160200282015b82811115617c685782518260006101000a81548173ffffffffffffffffffffffffffffffffffffffff021916908373ffffffffffffffffffffffffffffffffffffffff16021790555091602001919060010190617c10565b5b509050617c769190617d16565b5090565b828054828255906000526020600020908101928215617cbc579160200282015b82811115617cbb578251829060001916905591602001919060010190617c9a565b5b509050617cc99190617cf1565b5090565b60e060405190810160405280617ce1617eef565b8152602001600080191681525090565b617d1391905b80821115617d0f576000816000905550600101617cf7565b5090565b90565b617d5691905b80821115617d5257600081816101000a81549073ffffffffffffffffffffffffffffffffffffffff021916905550600101617d1c565b5090565b90565b617e1191905b80821115617e0d576000808201600080820160008082016000617d829190617f16565b6001820160006101000a81549060ff0219169055505060028201600080820160006101000a81549073ffffffffffffffffffffffffffffffffffffffff02191690556000820160146101000a81549060ff0219169055600282016000617de89190617f37565b600382016000617df89190617f37565b50505050600682016000905550600701617d5f565b5090565b90565b6040805190810160405280606081526020016000151581525090565b608060405190810160405280600073ffffffffffffffffffffffffffffffffffffffff16815260200160001515815260200160608152602001606081525090565b617eec91905b80821115617ee85760008082016000600182016000617e969190617f58565b600282016000617ea69190617f37565b5050600482016000905560058201600090556006820160006101000a81549073ffffffffffffffffffffffffffffffffffffffff021916905550600701617e77565b5090565b90565b60c060405190810160405280617f03617e14565b8152602001617f10617e30565b81525090565b5080546000825590600052602060002090810190617f349190617f7c565b50565b5080546000825590600052602060002090810190617f559190617cf1565b50565b5080546000825560070290600052602060002090810190617f799190617d59565b50565b617f9e91905b80821115617f9a576000816000905550600101617f82565b5090565b905600496e206f7264657220746f20756e736574207075626c696320616464726573732c206175746f2d67656e65726174656420616464726573736573206f7074696f6e206d757374206265206f6e20616e64206861766520726f746174696e67206164647265737365732e204f6e6c79206f6e65206f7074696f6e2063616e206265206f6e20617420616e7920676976656e2074696d652ea165627a7a723058207000eb2e5d2845403e3f83b1969f5feccdbe55503ba03eb44e3695ef50130d480029608060405234801561001057600080fd5b50610406806100206000396000f300608060405260043610610057576000357c0100000000000000000000000000000000000000000000000000000000900463ffffffff16806303c680e91461005c578063233a04d3146100bb5780635aac68221461010c575b600080fd5b34801561006857600080fd5b506100b9600480360381019080803573ffffffffffffffffffffffffffffffffffffffff169060200190929190803560001916906020019092919080356000191690602001909291905050506101a4565b005b3480156100c757600080fd5b5061010a600480360381019080803573ffffffffffffffffffffffffffffffffffffffff16906020019092919080356000191690602001909291905050506102ce565b005b34801561011857600080fd5b5061014d600480360381019080803573ffffffffffffffffffffffffffffffffffffffff169060200190929190505050610340565b6040518080602001828103825283818151815260200191508051906020019060200280838360005b83811015610190578082015181840152602081019050610175565b505050509050019250505060405180910390f35b60008090505b6000808573ffffffffffffffffffffffffffffffffffffffff1673ffffffffffffffffffffffffffffffffffffffff168152602001908152602001600020805490508110156102c85782600019166000808673ffffffffffffffffffffffffffffffffffffffff1673ffffffffffffffffffffffffffffffffffffffff1681526020019081526020016000208281548110151561024357fe5b90600052602060002001546000191614156102bb57816000808673ffffffffffffffffffffffffffffffffffffffff1673ffffffffffffffffffffffffffffffffffffffff168152602001908152602001600020828154811015156102a457fe5b9060005260206000200181600019169055506102c8565b80806001019150506101aa565b50505050565b6000808373ffffffffffffffffffffffffffffffffffffffff1673ffffffffffffffffffffffffffffffffffffffff1681526020019081526020016000208190806001815401808255809150509060018203906000526020600020016000909192909190915090600019169055505050565b60606000808373ffffffffffffffffffffffffffffffffffffffff1673ffffffffffffffffffffffffffffffffffffffff1681526020019081526020016000208054806020026020016040519081016040528092919081815260200182805480156103ce57602002820191906000526020600020905b815460001916815260200190600101908083116103b6575b505050505090509190505600a165627a7a723058209c74aefde948058e2215ad568bb0f1f4c662f226f9818ce321a8a3b13c9d44d00029",
  "source": "pragma solidity ^0.4.23;\n\nimport {TNSTag} from \"./TNSTag.sol\";\nimport {TNSOwnerReverse} from \"./TNSOwnerReverse.sol\";\n\ncontract TNS{\n    using TNSTag for TNSTag.TNSTagData;\n    struct TagWrapStruct{\n        TNSTag.TNSTagData tnsTagData;\n        bytes32 encryptedTag;\n    }\n    /* We make sure the index tagIdxMap resolves to is the same for both\n    tagList and keccakTagsList */\n    struct TagData{\n        mapping (bytes32 => uint) tagIdxMap;\n        TagWrapStruct[] tagList;\n        bytes32[] keccakTagsList;\n        mapping (bytes32 => bool) tagExistMap;\n    }\n    struct AliasWrapStruct{\n        TagData tagData;\n        bytes32 encryptedAlias;\n        uint aliasIdx;\n        address aliasOwner;\n    }\n    mapping (bytes32 => uint) aliasIdxMap;\n    mapping (bytes32 => bool) aliasExistMap;\n    AliasWrapStruct[] aliasList;\n\n    TNSOwnerReverse tnsOwnerReverse;\n\n    bytes32 defaultAddress = 0xcfee7c08a98f4b565d124c7e4e28acc52e1bc780e3887db0a02a7d2d5bc66728;\n    \n    //modifiers\n    modifier isOwner(bytes32 aliasName){\n        require(aliasExistMap[aliasName] == true, \"Alias doesn't exist\");\n        require(msg.sender == aliasList[aliasIdxMap[aliasName]].aliasOwner, \"Only alias owner can call this function\");\n        _;\n    }\n    modifier aliasTagExist(bytes32 aliasName, bytes32 tagName){\n        require(isAliasAvailable(aliasName) == false && isTagAvailable(aliasName,tagName) == false,\n            \"Alias or tag doesn't exist\");\n        _;\n    }\n    modifier aliasExist(bytes32 aliasName){\n        require(isAliasAvailable(aliasName) == false, \"Alias doesn't exist!\");\n        _;\n    }\n    modifier tagExist(bytes32 aliasName, bytes32 tagName){\n        require(isTagAvailable(aliasName, tagName) == false, \"Tag doesn't exist for alias!\");\n        _;\n    }\n    modifier aliasEmpty(bytes32 alias){\n        require(alias[0] != 0, \"Alias is empty\");\n        _;\n    }\n    modifier tagEmpty(bytes32 alias){\n        require(alias[0] != 0, \"Alias is empty\");\n        _;\n    }\n    event StateUpdated(address indexed _from);\n    event StateAliasUpdated(address indexed _from, bytes32 _alias); //fetch update for specific alias\n\n    constructor() public{\n        tnsOwnerReverse = new TNSOwnerReverse();\n    }\n\n    function addNewAlias(bytes32 aliasName, bytes32 encryptedAlias, bytes32 tagName,\n        bytes32 encryptedTag, TNSTag.TNSTagData tns_tag) private{\n\n        aliasExistMap[aliasName] = true;\n        uint alias_idx = aliasList.length;\n        aliasIdxMap[aliasName] = alias_idx;\n        aliasList.length++;\n        AliasWrapStruct storage alias_wrap_data = aliasList[alias_idx];\n        alias_wrap_data.encryptedAlias = encryptedAlias;\n        alias_wrap_data.aliasIdx = alias_idx;\n        alias_wrap_data.aliasOwner = msg.sender;\n        \n\n        TagData storage storage_tag_data = alias_wrap_data.tagData;\n        storage_tag_data.tagExistMap[tagName] = true;\n        uint tag_idx = storage_tag_data.tagList.length;\n        storage_tag_data.tagList.length++;\n\n        TagWrapStruct storage tag_wrapper = storage_tag_data.tagList[tag_idx];\n        tag_wrapper.tnsTagData = tns_tag;\n        tag_wrapper.encryptedTag = encryptedTag;\n        storage_tag_data.tagIdxMap[tagName] = tag_idx;\n        storage_tag_data.keccakTagsList.push(tagName);\n\n        //reverse mapping\n        tnsOwnerReverse.addOwnerAddress(msg.sender, aliasName);\n    }\n\n    function addNewTag(bytes32 aliasName, bytes32 tagName, bytes32 encryptedTag,\n        TNSTag.TNSTagData tns_tag) private{\n\n        uint alias_idx = aliasIdxMap[aliasName];\n        TagData storage storage_tag_data = aliasList[alias_idx].tagData;\n        storage_tag_data.tagExistMap[tagName] = true;\n        TagWrapStruct memory tag_wrapper = TagWrapStruct({\n            tnsTagData: tns_tag,\n            encryptedTag: encryptedTag\n        });\n        storage_tag_data.tagIdxMap[tagName] = storage_tag_data.tagList.length;\n        storage_tag_data.tagList.push(tag_wrapper);\n        storage_tag_data.keccakTagsList.push(tagName);\n    }\n\n    //tagName would be address of \"default\" or actual tag name\n    function setAliasStatic(bytes32 aliasName, bytes32 encryptedAlias, bytes32 tagName,\n        bytes32 encryptedTag, address pubAddress) public aliasEmpty(aliasName) tagEmpty(tagName){\n\n        require(pubAddress != 0x0, \"pubAddress is empty\");\n        \n        TNSTag.TNSTagData memory tns_tag;\n        tns_tag.tagMetaDataStruct.pubAddress = pubAddress;\n\n\n        if (isAliasAvailable(aliasName)){\n            addNewAlias(aliasName, encryptedAlias, tagName, encryptedTag, tns_tag);\n        }else if (aliasList[aliasIdxMap[aliasName]].aliasOwner == msg.sender){\n            //alias exists but we are trying to add a tag\n            require(isTagAvailable(aliasName, tagName), \"Tag already exists\");\n            addNewTag(aliasName, tagName, encryptedTag, tns_tag);\n        }else{\n            revert(\"Alias is already taken\");\n        }\n        emit StateAliasUpdated(msg.sender, aliasName);\n    }\n\n    /*If generating new address you wont have default public address for a tag*/\n    function setAliasGenerated(bytes32 aliasName, bytes32 encryptedAlias, bytes32 tagName,\n        bytes32 encryptedTag, address[] genAddressList) public aliasEmpty(aliasName) tagEmpty(tagName){\n\n        require(genAddressList.length > 0, \"genAddressList is empty\");\n\n        TNSTag.TNSTagData memory tns_tag;\n        tns_tag.genAddressStruct.generateAddress = true;\n        tns_tag.genAddressStruct.genAddressList = genAddressList; \n\n        if (isAliasAvailable(aliasName)){\n            addNewAlias(aliasName, encryptedAlias, tagName, encryptedTag, tns_tag);\n        }else if (aliasList[aliasIdxMap[aliasName]].aliasOwner == msg.sender){\n            require(isTagAvailable(aliasName, tagName), \"Tag already exists\");\n            addNewTag(aliasName, tagName, encryptedTag, tns_tag);\n        }else{\n            revert(\"Alias is already taken\");\n        }\n       emit StateAliasUpdated(msg.sender, aliasName);\n    }\n\n    //Entire alias & its corresponding tags cannot be deleted but can only be updated\n    function deleteAliasTag(bytes32 aliasName, bytes32 tagName) public aliasEmpty(aliasName) tagEmpty(tagName)\n        aliasTagExist(aliasName, tagName) isOwner(aliasName){\n\n        TagData storage storage_tag_data = aliasList[aliasIdxMap[aliasName]].tagData;\n\n        delete storage_tag_data.tagExistMap[tagName];\n\n        uint curr_tag_idx = storage_tag_data.tagIdxMap[tagName];\n        uint tag_last_idx = storage_tag_data.tagList.length - 1;\n\n        storage_tag_data.keccakTagsList[curr_tag_idx] = storage_tag_data.keccakTagsList[tag_last_idx];\n        storage_tag_data.tagIdxMap[storage_tag_data.keccakTagsList[tag_last_idx]] = curr_tag_idx;\n        storage_tag_data.keccakTagsList.length--;\n       \n        storage_tag_data.tagList[curr_tag_idx] = storage_tag_data.tagList[tag_last_idx];\n        storage_tag_data.tagList.length--;\n\n        delete storage_tag_data.tagIdxMap[tagName];\n\n        emit StateAliasUpdated(msg.sender, aliasName);\n    }\n\n    function updateAlias(bytes32 aliasName, bytes32 oldEncryptedAlias, bytes32 newAliasName,\n        bytes32 newEncryptedAlias) public aliasEmpty(aliasName) isOwner(aliasName){\n\n        require(newAliasName[0] != 0, \"New Alias is empty\");\n        require(isAliasAvailable(newAliasName), \"Alias is already taken\");\n\n        delete aliasExistMap[aliasName];\n        aliasExistMap[newAliasName] = true;\n        uint alias_idx = aliasIdxMap[aliasName];\n        aliasIdxMap[newAliasName] = alias_idx;\n        delete aliasIdxMap[aliasName];\n\n        aliasList[alias_idx].encryptedAlias = newEncryptedAlias;\n\n        tnsOwnerReverse.updateAlias(msg.sender, aliasName, newAliasName);\n\n        emit StateUpdated(msg.sender);\n    }\n\n    function updateTag(bytes32 aliasName, bytes32 tagName, bytes32 oldEncryptedTag,\n        bytes32 newTagName, bytes32 newEncryptedTag) public aliasEmpty(aliasName) tagEmpty(tagName) \n            aliasTagExist(aliasName, tagName) isOwner(aliasName){\n\n        require(newTagName[0] != 0, \"New tag is empty\");\n        require(isTagAvailable(aliasName, newTagName), \"Tag already exists\");\n\n        TagData storage storage_tag_data = aliasList[aliasIdxMap[aliasName]].tagData;\n        delete storage_tag_data.tagExistMap[tagName];\n        storage_tag_data.tagExistMap[newTagName] = true;\n\n        uint tag_idx = storage_tag_data.tagIdxMap[tagName];\n        storage_tag_data.tagList[tag_idx].encryptedTag = newEncryptedTag;\n\n        storage_tag_data.keccakTagsList[tag_idx] = newTagName;\n        storage_tag_data.tagIdxMap[newTagName] = tag_idx;\n        delete storage_tag_data.tagIdxMap[tagName];\n\n        emit StateUpdated(msg.sender);\n    }\n\n    function updatePubAddressForTag(bytes32 aliasName, bytes32 tagName,\n        address newPubAddress) public aliasEmpty(aliasName) tagEmpty(tagName)\n        aliasTagExist(aliasName, tagName) isOwner(aliasName){\n\n        TagData storage storage_tag_data = aliasList[aliasIdxMap[aliasName]].tagData;\n        uint tag_struct_idx = storage_tag_data.tagIdxMap[tagName];\n\n        if (newPubAddress == 0x0){\n            if (storage_tag_data.tagList[tag_struct_idx].tnsTagData.getGenAddressFlag() == false){\n                revert(\"In order to unset public address, auto-generated addresses option must be on and have rotating addresses. Only one option can be on at any given time.\");\n            }\n        }\n        storage_tag_data.tagList[tag_struct_idx].tnsTagData.setPubAddress(newPubAddress);\n        emit StateAliasUpdated(msg.sender, aliasName);\n    }\n\n    function updateGenAddressFlag(bytes32 aliasName, bytes32 tagName, bool genFlag) public aliasEmpty(aliasName) tagEmpty(tagName)\n        aliasTagExist(aliasName, tagName) isOwner(aliasName){\n        \n        TagData storage storage_tag_data = aliasList[aliasIdxMap[aliasName]].tagData;\n        uint tag_struct_idx = storage_tag_data.tagIdxMap[tagName];\n        storage_tag_data.tagList[tag_struct_idx].tnsTagData.setGenAddressFlag(genFlag);\n        emit StateAliasUpdated(msg.sender, aliasName);\n    }\n\n    function updateGenAddressListReplace(bytes32 aliasName, bytes32 tagName,\n        address[] addressList) public aliasEmpty(aliasName) tagEmpty(tagName) aliasTagExist(aliasName, tagName) isOwner(aliasName){\n\n        TagData storage storage_tag_data = aliasList[aliasIdxMap[aliasName]].tagData;\n        uint tag_struct_idx = storage_tag_data.tagIdxMap[tagName];\n        storage_tag_data.tagList[tag_struct_idx].tnsTagData.setGenAddressList(addressList);\n        emit StateAliasUpdated(msg.sender, aliasName);\n    }\n\n    function updateGenAddressListAppend(bytes32 aliasName, bytes32 tagName,\n        address newAddress) public aliasEmpty(aliasName) tagEmpty(tagName) aliasTagExist(aliasName, tagName) isOwner(aliasName){\n\n        TagData storage storage_tag_data = aliasList[aliasIdxMap[aliasName]].tagData;\n        uint tag_struct_idx = storage_tag_data.tagIdxMap[tagName];\n\n        uint num_elems =  storage_tag_data.tagList[tag_struct_idx].tnsTagData.getGenAddressListLen();\n        require(num_elems < 20, \"You can only store up to 20 addresses in order to obey gas limit.\");\n        storage_tag_data.tagList[tag_struct_idx].tnsTagData.appendGenAddressList(newAddress);\n        emit StateAliasUpdated(msg.sender, aliasName);\n    }\n\n    function updateGenAddressListDelete(bytes32 aliasName, bytes32 tagName, uint idxToRemove) public\n        aliasEmpty(aliasName) tagEmpty(tagName) aliasTagExist(aliasName, tagName) isOwner(aliasName){\n\n        TagData storage storage_tag_data = aliasList[aliasIdxMap[aliasName]].tagData;\n        uint tag_struct_idx = storage_tag_data.tagIdxMap[tagName];\n\n        storage_tag_data.tagList[tag_struct_idx].tnsTagData.deleteFromGenAddressList(idxToRemove);\n        emit StateAliasUpdated(msg.sender, aliasName);\n    }\n\n    function updateTagIsSecret(bytes32 aliasName, bytes32 tagName, bool isSecret)  aliasEmpty(aliasName) tagEmpty(tagName)\n        aliasTagExist(aliasName, tagName) isOwner(aliasName) public{\n        TagData storage storage_tag_data = aliasList[aliasIdxMap[aliasName]].tagData;\n        storage_tag_data.tagList[storage_tag_data.tagIdxMap[tagName]].tnsTagData.setIsSecret(isSecret);\n    }\n\n    function updateTagSecretUserList(bytes32 aliasName, bytes32 tagName, bytes32[] keccakUsers,\n        bytes32[] encUsers)  aliasEmpty(aliasName) tagEmpty(tagName) aliasTagExist(aliasName, tagName) isOwner(aliasName) public{\n\n        TagData storage storage_tag_data = aliasList[aliasIdxMap[aliasName]].tagData;\n        storage_tag_data.tagList[storage_tag_data.tagIdxMap[tagName]].tnsTagData.setSecretUserList(keccakUsers,encUsers);\n    }\n\n    function updateTagSecretUserListAppend(bytes32 aliasName, bytes32 tagName, bytes32 keccakUser,\n        bytes32[] encUser)  aliasEmpty(aliasName) tagEmpty(tagName) aliasTagExist(aliasName, tagName) isOwner(aliasName) public{\n\n        TagData storage storage_tag_data = aliasList[aliasIdxMap[aliasName]].tagData;\n        storage_tag_data.tagList[storage_tag_data.tagIdxMap[tagName]].tnsTagData.appendSecretUser(keccakUser,encUser);\n    }\n\n    function updateTagSecretUserDelete(bytes32 aliasName, bytes32 tagName, bytes32 keccakUser,\n        uint idxToRemove)  aliasEmpty(aliasName) tagEmpty(tagName) aliasTagExist(aliasName, tagName) isOwner(aliasName) public{\n\n        TagData storage storage_tag_data = aliasList[aliasIdxMap[aliasName]].tagData;\n        storage_tag_data.tagList[storage_tag_data.tagIdxMap[tagName]].tnsTagData.deleteSecretUser(keccakUser,idxToRemove);\n    }\n\n    //work around instead of using modifiers since there's a bug in tronWeb that disallows require calls in view functions\n    function doesAliasTagExist(bytes32 aliasName, bytes32 tagName) private view returns(bool){\n        return isAliasAvailable(aliasName) == false && isTagAvailable(aliasName,tagName) == false;\n    }\n\n    function doesAliasExist(bytes32 aliasName) private view returns(bool){\n        return isAliasAvailable(aliasName) == false;\n    }\n\n    //GETTERS\n\n    function getGenAddressList(bytes32 aliasName, bytes32 tagName) //aliasTagExist(aliasName,tagName)\n        public view returns(address[]){\n\n        if (doesAliasTagExist(aliasName,tagName)){\n             TagData storage storage_tag_data = aliasList[aliasIdxMap[aliasName]].tagData;\n            return storage_tag_data.tagList[storage_tag_data.tagIdxMap[tagName]].tnsTagData.getGenAddressList();\n        }else{\n            address[] memory empty_array = new address[](0);\n            return empty_array;\n        }\n    }\n\n    function getGenAddressListLen(bytes32 aliasName, bytes32 tagName) //aliasTagExist(aliasName,tagName)\n        public view returns(uint){\n        if (doesAliasTagExist(aliasName,tagName)){\n            TagData storage storage_tag_data = aliasList[aliasIdxMap[aliasName]].tagData;\n            return storage_tag_data.tagList[storage_tag_data.tagIdxMap[tagName]].tnsTagData.getGenAddressListLen();\n        }else{\n            return 0;\n        }\n    }\n\n    function getPubAddressForTag(bytes32 aliasName, bytes32 tagName) //aliasTagExist(aliasName,tagName)\n        public view returns(address){\n        if (doesAliasTagExist(aliasName,tagName)){\n            TagData storage storage_tag_data = aliasList[aliasIdxMap[aliasName]].tagData;\n            return storage_tag_data.tagList[storage_tag_data.tagIdxMap[tagName]].tnsTagData.getPubAddress();\n        }else{\n            return address(0);\n        }\n    }\n\n    function getGenAddressForTag(bytes32 aliasName, bytes32 tagName, uint idx) //aliasTagExist(aliasName,tagName)\n        public view returns(address){\n        if (doesAliasTagExist(aliasName,tagName)){\n            TagData storage storage_tag_data = aliasList[aliasIdxMap[aliasName]].tagData;\n            return storage_tag_data.tagList[storage_tag_data.tagIdxMap[tagName]].tnsTagData.useNextGenAddress(idx);\n        }else{\n            return address(0);\n        }\n    }\n\n    function getGenAddressFlag(bytes32 aliasName, bytes32 tagName) //aliasTagExist(aliasName,tagName)\n        public view returns(bool){\n        if (doesAliasTagExist(aliasName,tagName)){\n            TagData storage storage_tag_data = aliasList[aliasIdxMap[aliasName]].tagData;\n            return storage_tag_data.tagList[storage_tag_data.tagIdxMap[tagName]].tnsTagData.getGenAddressFlag();\n        }else {\n            return false;\n        }\n    }\n\n    function isAliasAvailable(bytes32 aliasName) public view returns(bool){\n        if (aliasExistMap[aliasName] == false){\n            return true;\n        }\n        return false;\n    }\n    function isTagAvailable(bytes32 aliasName, bytes32 tagName) public view returns(bool){\n        if (aliasExistMap[aliasName] == true){\n            if (aliasList[aliasIdxMap[aliasName]].tagData.tagExistMap[tagName] == true){\n                return false;\n            }\n        }\n        return true;\n    }\n    function getAllTagsForAlias(bytes32 aliasName) /*aliasExist(aliasName)*/ public view returns(bytes32[]){\n        if (doesAliasExist(aliasName)){\n            return aliasList[aliasIdxMap[aliasName]].tagData.keccakTagsList;\n        }else{\n            bytes32[] memory empty_array = new bytes32[](0);\n            return empty_array;\n        }\n    }\n    function getAliasesForOwner(address ownerAddress) public view returns(bytes32[]){\n        return tnsOwnerReverse.getAllAliasesForOwner(ownerAddress);\n    }\n    function getEncryptedAliasForKeccak(bytes32 aliasName) /*aliasExist(aliasName)*/ public view returns(bytes32){\n        if (doesAliasExist(aliasName)){\n            return aliasList[aliasIdxMap[aliasName]].encryptedAlias;\n        }else{\n            return 0x0;\n        }\n    }\n    function getEncryptedTagForKeccak(bytes32 aliasName, bytes32 tagName) /*aliasTagExist(aliasName, tagName)*/\n        public view returns(bytes32){\n        if (doesAliasTagExist(aliasName,tagName)){\n            TagData storage storage_tag_data = aliasList[aliasIdxMap[aliasName]].tagData;\n            return storage_tag_data.tagList[storage_tag_data.tagIdxMap[tagName]].encryptedTag;\n        }else{\n            return 0x0;\n        }\n    }\n\n    function getAliasOwner(bytes32 aliasName) /*aliasExist(aliasName)*/ public view returns(address){\n        if (doesAliasExist(aliasName)){\n            return aliasList[aliasIdxMap[aliasName]].aliasOwner;\n        }else{\n            return address(0);\n        }\n    }\n\n    function getTagDataForTag(bytes32 aliasName, bytes32 tagName) public view\n        returns(bool,bool,address[],bytes32[],address){\n\n        address[] memory gen_list = getGenAddressList(aliasName, tagName);\n        bytes32[] memory enc_secret_users = getSecretUserList(aliasName, tagName);\n        address pub_address = getPubAddressForTag(aliasName, tagName);\n        bool gen_flag = getGenAddressFlag(aliasName, tagName);\n        bool is_tag_secret = getIsTagSecret(aliasName, tagName);\n        return (gen_flag, is_tag_secret, gen_list, enc_secret_users, pub_address);\n    }\n\n    function isSecretUser(bytes32 aliasName, bytes32 tagName, bytes32 keccakUser) /*aliasTagExist(aliasName,tagName)*/ public view returns(bool){\n        if (doesAliasTagExist(aliasName,tagName)){\n            TagData storage storage_tag_data = aliasList[aliasIdxMap[aliasName]].tagData;\n            return storage_tag_data.tagList[storage_tag_data.tagIdxMap[tagName]].tnsTagData.secretUserExists(keccakUser);\n        }else{\n            return false;\n        }\n    }\n\n    function getSecretUserList(bytes32 aliasName, bytes32 tagName) //aliasTagExist(aliasName,tagName)\n        public view returns(bytes32[]){ \n        if (doesAliasTagExist(aliasName,tagName)){\n            TagData storage storage_tag_data = aliasList[aliasIdxMap[aliasName]].tagData;\n            return storage_tag_data.tagList[storage_tag_data.tagIdxMap[tagName]].tnsTagData.getSecretUserList();\n        }else{\n            bytes32[] memory empty_array = new bytes32[](0);\n            return empty_array;\n        }\n    }\n\n    function getIsTagSecret(bytes32 aliasName, bytes32 tagName) //aliasTagExist(aliasName,tagName)\n        public view returns(bool){\n        if (doesAliasTagExist(aliasName,tagName)){\n            TagData storage storage_tag_data = aliasList[aliasIdxMap[aliasName]].tagData;\n            return storage_tag_data.tagList[storage_tag_data.tagIdxMap[tagName]].tnsTagData.getIsSecret();\n        }else{\n            return false;\n        }\n    }\n\n}\n",
  "sourcePath": "/Users/gurkisingh/TronProjects/TronNameService/contracts/TNS.sol",
  "compiler": {
    "name": "solc",
    "version": "0.4.24-develop.2018.8.28+commit.3ba0cdec.mod.Emscripten.clang"
  },
  "schemaVersion": "2.0.1",
  "updatedAt": "2019-01-03T06:50:54.322Z"
}