{
  "contractName": "TNS",
  "abi": [
    {
      "inputs": [],
      "payable": false,
      "stateMutability": "nonpayable",
      "type": "constructor"
    },
    {
      "anonymous": false,
      "inputs": [
        {
          "indexed": true,
          "name": "_from",
          "type": "address"
        }
      ],
      "name": "StateUpdated",
      "type": "event"
    },
    {
      "anonymous": false,
      "inputs": [
        {
          "indexed": true,
          "name": "_from",
          "type": "address"
        },
        {
          "indexed": false,
          "name": "_alias",
          "type": "bytes32"
        }
      ],
      "name": "StateAliasUpdated",
      "type": "event"
    },
    {
      "constant": false,
      "inputs": [
        {
          "name": "aliasName",
          "type": "bytes32"
        },
        {
          "name": "encryptedAlias",
          "type": "bytes32"
        },
        {
          "name": "tagName",
          "type": "bytes32"
        },
        {
          "name": "encryptedTag",
          "type": "bytes32"
        },
        {
          "name": "pubAddress",
          "type": "address"
        }
      ],
      "name": "setAliasStatic",
      "outputs": [],
      "payable": false,
      "stateMutability": "nonpayable",
      "type": "function"
    },
    {
      "constant": false,
      "inputs": [
        {
          "name": "aliasName",
          "type": "bytes32"
        },
        {
          "name": "encryptedAlias",
          "type": "bytes32"
        },
        {
          "name": "tagName",
          "type": "bytes32"
        },
        {
          "name": "encryptedTag",
          "type": "bytes32"
        },
        {
          "name": "genAddressList",
          "type": "address[]"
        }
      ],
      "name": "setAliasGenerated",
      "outputs": [],
      "payable": false,
      "stateMutability": "nonpayable",
      "type": "function"
    },
    {
      "constant": false,
      "inputs": [
        {
          "name": "aliasName",
          "type": "bytes32"
        },
        {
          "name": "tagName",
          "type": "bytes32"
        }
      ],
      "name": "deleteAliasTag",
      "outputs": [],
      "payable": false,
      "stateMutability": "nonpayable",
      "type": "function"
    },
    {
      "constant": false,
      "inputs": [
        {
          "name": "aliasName",
          "type": "bytes32"
        },
        {
          "name": "oldEncryptedAlias",
          "type": "bytes32"
        },
        {
          "name": "newAliasName",
          "type": "bytes32"
        },
        {
          "name": "newEncryptedAlias",
          "type": "bytes32"
        }
      ],
      "name": "updateAlias",
      "outputs": [],
      "payable": false,
      "stateMutability": "nonpayable",
      "type": "function"
    },
    {
      "constant": false,
      "inputs": [
        {
          "name": "aliasName",
          "type": "bytes32"
        },
        {
          "name": "tagName",
          "type": "bytes32"
        },
        {
          "name": "oldEncryptedTag",
          "type": "bytes32"
        },
        {
          "name": "newTagName",
          "type": "bytes32"
        },
        {
          "name": "newEncryptedTag",
          "type": "bytes32"
        }
      ],
      "name": "updateTag",
      "outputs": [],
      "payable": false,
      "stateMutability": "nonpayable",
      "type": "function"
    },
    {
      "constant": false,
      "inputs": [
        {
          "name": "aliasName",
          "type": "bytes32"
        },
        {
          "name": "tagName",
          "type": "bytes32"
        },
        {
          "name": "newPubAddress",
          "type": "address"
        }
      ],
      "name": "updatePubAddressForTag",
      "outputs": [],
      "payable": false,
      "stateMutability": "nonpayable",
      "type": "function"
    },
    {
      "constant": false,
      "inputs": [
        {
          "name": "aliasName",
          "type": "bytes32"
        },
        {
          "name": "tagName",
          "type": "bytes32"
        },
        {
          "name": "genFlag",
          "type": "bool"
        }
      ],
      "name": "updateGenAddressFlag",
      "outputs": [],
      "payable": false,
      "stateMutability": "nonpayable",
      "type": "function"
    },
    {
      "constant": false,
      "inputs": [
        {
          "name": "aliasName",
          "type": "bytes32"
        },
        {
          "name": "tagName",
          "type": "bytes32"
        },
        {
          "name": "addressList",
          "type": "address[]"
        }
      ],
      "name": "updateGenAddressListReplace",
      "outputs": [],
      "payable": false,
      "stateMutability": "nonpayable",
      "type": "function"
    },
    {
      "constant": false,
      "inputs": [
        {
          "name": "aliasName",
          "type": "bytes32"
        },
        {
          "name": "tagName",
          "type": "bytes32"
        },
        {
          "name": "newAddress",
          "type": "address"
        }
      ],
      "name": "updateGenAddressListAppend",
      "outputs": [],
      "payable": false,
      "stateMutability": "nonpayable",
      "type": "function"
    },
    {
      "constant": false,
      "inputs": [
        {
          "name": "aliasName",
          "type": "bytes32"
        },
        {
          "name": "tagName",
          "type": "bytes32"
        },
        {
          "name": "idxToRemove",
          "type": "uint256"
        }
      ],
      "name": "updateGenAddressListDelete",
      "outputs": [],
      "payable": false,
      "stateMutability": "nonpayable",
      "type": "function"
    },
    {
      "constant": false,
      "inputs": [
        {
          "name": "aliasName",
          "type": "bytes32"
        },
        {
          "name": "tagName",
          "type": "bytes32"
        },
        {
          "name": "isSecret",
          "type": "bool"
        }
      ],
      "name": "updateTagIsSecret",
      "outputs": [],
      "payable": false,
      "stateMutability": "nonpayable",
      "type": "function"
    },
    {
      "constant": false,
      "inputs": [
        {
          "name": "aliasName",
          "type": "bytes32"
        },
        {
          "name": "tagName",
          "type": "bytes32"
        },
        {
          "name": "keccakUsers",
          "type": "bytes32[]"
        },
        {
          "name": "encUsers",
          "type": "bytes32[]"
        }
      ],
      "name": "updateTagSecretUserList",
      "outputs": [],
      "payable": false,
      "stateMutability": "nonpayable",
      "type": "function"
    },
    {
      "constant": false,
      "inputs": [
        {
          "name": "aliasName",
          "type": "bytes32"
        },
        {
          "name": "tagName",
          "type": "bytes32"
        },
        {
          "name": "keccakUser",
          "type": "bytes32"
        },
        {
          "name": "encUser",
          "type": "bytes32[]"
        }
      ],
      "name": "updateTagSecretUserListAppend",
      "outputs": [],
      "payable": false,
      "stateMutability": "nonpayable",
      "type": "function"
    },
    {
      "constant": false,
      "inputs": [
        {
          "name": "aliasName",
          "type": "bytes32"
        },
        {
          "name": "tagName",
          "type": "bytes32"
        },
        {
          "name": "keccakUser",
          "type": "bytes32"
        },
        {
          "name": "idxToRemove",
          "type": "uint256"
        }
      ],
      "name": "updateTagSecretUserDelete",
      "outputs": [],
      "payable": false,
      "stateMutability": "nonpayable",
      "type": "function"
    },
    {
      "constant": true,
      "inputs": [
        {
          "name": "aliasName",
          "type": "bytes32"
        },
        {
          "name": "tagName",
          "type": "bytes32"
        }
      ],
      "name": "getGenAddressList",
      "outputs": [
        {
          "name": "",
          "type": "address[]"
        }
      ],
      "payable": false,
      "stateMutability": "view",
      "type": "function"
    },
    {
      "constant": true,
      "inputs": [
        {
          "name": "aliasName",
          "type": "bytes32"
        },
        {
          "name": "tagName",
          "type": "bytes32"
        }
      ],
      "name": "getGenAddressListLen",
      "outputs": [
        {
          "name": "",
          "type": "uint256"
        }
      ],
      "payable": false,
      "stateMutability": "view",
      "type": "function"
    },
    {
      "constant": true,
      "inputs": [
        {
          "name": "aliasName",
          "type": "bytes32"
        },
        {
          "name": "tagName",
          "type": "bytes32"
        }
      ],
      "name": "getPubAddressForTag",
      "outputs": [
        {
          "name": "",
          "type": "address"
        }
      ],
      "payable": false,
      "stateMutability": "view",
      "type": "function"
    },
    {
      "constant": true,
      "inputs": [
        {
          "name": "aliasName",
          "type": "bytes32"
        },
        {
          "name": "tagName",
          "type": "bytes32"
        },
        {
          "name": "idx",
          "type": "uint256"
        }
      ],
      "name": "getGenAddressForTag",
      "outputs": [
        {
          "name": "",
          "type": "address"
        }
      ],
      "payable": false,
      "stateMutability": "view",
      "type": "function"
    },
    {
      "constant": true,
      "inputs": [
        {
          "name": "aliasName",
          "type": "bytes32"
        },
        {
          "name": "tagName",
          "type": "bytes32"
        }
      ],
      "name": "getGenAddressFlag",
      "outputs": [
        {
          "name": "",
          "type": "bool"
        }
      ],
      "payable": false,
      "stateMutability": "view",
      "type": "function"
    },
    {
      "constant": true,
      "inputs": [
        {
          "name": "aliasName",
          "type": "bytes32"
        }
      ],
      "name": "isAliasAvailable",
      "outputs": [
        {
          "name": "",
          "type": "bool"
        }
      ],
      "payable": false,
      "stateMutability": "view",
      "type": "function"
    },
    {
      "constant": true,
      "inputs": [
        {
          "name": "aliasName",
          "type": "bytes32"
        },
        {
          "name": "tagName",
          "type": "bytes32"
        }
      ],
      "name": "isTagAvailable",
      "outputs": [
        {
          "name": "",
          "type": "bool"
        }
      ],
      "payable": false,
      "stateMutability": "view",
      "type": "function"
    },
    {
      "constant": true,
      "inputs": [
        {
          "name": "aliasName",
          "type": "bytes32"
        }
      ],
      "name": "getAllTagsForAlias",
      "outputs": [
        {
          "name": "",
          "type": "bytes32[]"
        }
      ],
      "payable": false,
      "stateMutability": "view",
      "type": "function"
    },
    {
      "constant": true,
      "inputs": [
        {
          "name": "ownerAddress",
          "type": "address"
        }
      ],
      "name": "getAliasesForOwner",
      "outputs": [
        {
          "name": "",
          "type": "bytes32[]"
        }
      ],
      "payable": false,
      "stateMutability": "view",
      "type": "function"
    },
    {
      "constant": true,
      "inputs": [
        {
          "name": "aliasName",
          "type": "bytes32"
        }
      ],
      "name": "getEncryptedAliasForKeccak",
      "outputs": [
        {
          "name": "",
          "type": "bytes32"
        }
      ],
      "payable": false,
      "stateMutability": "view",
      "type": "function"
    },
    {
      "constant": true,
      "inputs": [
        {
          "name": "aliasName",
          "type": "bytes32"
        },
        {
          "name": "tagName",
          "type": "bytes32"
        }
      ],
      "name": "getEncryptedTagForKeccak",
      "outputs": [
        {
          "name": "",
          "type": "bytes32"
        }
      ],
      "payable": false,
      "stateMutability": "view",
      "type": "function"
    },
    {
      "constant": true,
      "inputs": [
        {
          "name": "aliasName",
          "type": "bytes32"
        }
      ],
      "name": "getAliasOwner",
      "outputs": [
        {
          "name": "",
          "type": "address"
        }
      ],
      "payable": false,
      "stateMutability": "view",
      "type": "function"
    },
    {
      "constant": true,
      "inputs": [
        {
          "name": "aliasName",
          "type": "bytes32"
        },
        {
          "name": "tagName",
          "type": "bytes32"
        }
      ],
      "name": "getTagDataForTag",
      "outputs": [
        {
          "name": "",
          "type": "bool"
        },
        {
          "name": "",
          "type": "bool"
        },
        {
          "name": "",
          "type": "address[]"
        },
        {
          "name": "",
          "type": "bytes32[]"
        },
        {
          "name": "",
          "type": "address"
        }
      ],
      "payable": false,
      "stateMutability": "view",
      "type": "function"
    },
    {
      "constant": true,
      "inputs": [
        {
          "name": "aliasName",
          "type": "bytes32"
        },
        {
          "name": "tagName",
          "type": "bytes32"
        },
        {
          "name": "keccakUser",
          "type": "bytes32"
        }
      ],
      "name": "isSecretUser",
      "outputs": [
        {
          "name": "",
          "type": "bool"
        }
      ],
      "payable": false,
      "stateMutability": "view",
      "type": "function"
    },
    {
      "constant": true,
      "inputs": [
        {
          "name": "aliasName",
          "type": "bytes32"
        },
        {
          "name": "tagName",
          "type": "bytes32"
        }
      ],
      "name": "getSecretUserList",
      "outputs": [
        {
          "name": "",
          "type": "bytes32[]"
        }
      ],
      "payable": false,
      "stateMutability": "view",
      "type": "function"
    },
    {
      "constant": true,
      "inputs": [
        {
          "name": "aliasName",
          "type": "bytes32"
        },
        {
          "name": "tagName",
          "type": "bytes32"
        }
      ],
      "name": "getIsTagSecret",
      "outputs": [
        {
          "name": "",
          "type": "bool"
        }
      ],
      "payable": false,
      "stateMutability": "view",
      "type": "function"
    }
  ],
  "bytecode": "0x60806040527fcfee7c08a98f4b565d124c7e4e28acc52e1bc780e3887db0a02a7d2d5bc667286001026004906000191690553480156200003e57600080fd5b5062000049620000ad565b604051809103906000f08015801562000066573d6000803e3d6000fd5b50600360006101000a81548173ffffffffffffffffffffffffffffffffffffffff021916908373ffffffffffffffffffffffffffffffffffffffff160217905550620000be565b604051610426806200752f83390190565b61746180620000ce6000396000f300608060405260043610610180576000357c0100000000000000000000000000000000000000000000000000000000900463ffffffff1680630848eeba146101855780630d8d03ff146101ce5780631d7a0fb31461022d578063261e0ab7146102bd578063336c41701461031057806336ae18b61461034f57806346422a0b146103a65780634f235168146103fd578063521a5a751461045457806353026c1d146104da578063673b26b51461053557806372fac34e1461057e57806376b90cda146105fd578063860d52291461067857806388f58573146106d757806390a983c01461073c57806392e39fa6146107ad578063a2775f2b14610841578063aa29276e146108c3578063af39d2d81461095b578063b6f3076c14610a20578063b832ca8914610a6b578063bd3cc96714610aff578063bdcf8efa14610c24578063c0c2674e14610c7b578063c2bbc47a14610ce4578063e11543bd14610d82578063e14477c114610e0b578063e4428fe814610e66578063fb24656214610eb1575b600080fd5b34801561019157600080fd5b506101b46004803603810190808035600019169060200190929190505050610efe565b604051808215151515815260200191505060405180910390f35b3480156101da57600080fd5b5061022b60048036038101908080356000191690602001909291908035600019169060200190929190803573ffffffffffffffffffffffffffffffffffffffff169060200190929190505050610f47565b005b34801561023957600080fd5b506102bb60048036038101908080356000191690602001909291908035600019169060200190929190803560001916906020019092919080359060200190820180359060200190808060200260200160405190810160405280939291908181526020018383602002808284378201915050505050509192919290505050611599565b005b3480156102c957600080fd5b506102fa60048036038101908080356000191690602001909291908035600019169060200190929190505050611a70565b6040518082815260200191505060405180910390f35b34801561031c57600080fd5b5061034d60048036038101908080356000191690602001909291908035600019169060200190929190505050611bb7565b005b34801561035b57600080fd5b5061038c60048036038101908080356000191690602001909291908035600019169060200190929190505050612267565b604051808215151515815260200191505060405180910390f35b3480156103b257600080fd5b506103e3600480360381019080803560001916906020019092919080356000191690602001909291905050506123ae565b604051808215151515815260200191505060405180910390f35b34801561040957600080fd5b50610452600480360381019080803560001916906020019092919080356000191690602001909291908035600019169060200190929190803590602001909291905050506124f5565b005b34801561046057600080fd5b50610483600480360381019080803560001916906020019092919050505061298b565b6040518080602001828103825283818151815260200191508051906020019060200280838360005b838110156104c65780820151818401526020810190506104ab565b505050509050019250505060405180910390f35b3480156104e657600080fd5b5061051760048036038101908080356000191690602001909291908035600019169060200190929190505050612a70565b60405180826000191660001916815260200191505060405180910390f35b34801561054157600080fd5b5061057c6004803603810190808035600019169060200190929190803560001916906020019092919080359060200190929190505050612b14565b005b34801561058a57600080fd5b506105bb60048036038101908080356000191690602001909291908035600019169060200190929190505050612ff4565b604051808273ffffffffffffffffffffffffffffffffffffffff1673ffffffffffffffffffffffffffffffffffffffff16815260200191505060405180910390f35b34801561060957600080fd5b506106766004803603810190808035600019169060200190929190803560001916906020019092919080356000191690602001909291908035600019169060200190929190803573ffffffffffffffffffffffffffffffffffffffff16906020019092919050505061313b565b005b34801561068457600080fd5b506106d560048036038101908080356000191690602001909291908035600019169060200190929190803573ffffffffffffffffffffffffffffffffffffffff169060200190929190505050613524565b005b3480156106e357600080fd5b50610722600480360381019080803560001916906020019092919080356000191690602001909291908035600019169060200190929190505050613bc2565b604051808215151515815260200191505060405180910390f35b34801561074857600080fd5b5061076b6004803603810190808035600019169060200190929190505050613d1a565b604051808273ffffffffffffffffffffffffffffffffffffffff1673ffffffffffffffffffffffffffffffffffffffff16815260200191505060405180910390f35b3480156107b957600080fd5b506107ea60048036038101908080356000191690602001909291908035600019169060200190929190505050613d96565b6040518080602001828103825283818151815260200191508051906020019060200280838360005b8381101561082d578082015181840152602081019050610812565b505050509050019250505060405180910390f35b34801561084d57600080fd5b506108c16004803603810190808035600019169060200190929190803560001916906020019092919080359060200190820180359060200190808060200260200160405190810160405280939291908181526020018383602002808284378201915050505050509192919290505050613f69565b005b3480156108cf57600080fd5b50610904600480360381019080803573ffffffffffffffffffffffffffffffffffffffff16906020019092919050505061448a565b6040518080602001828103825283818151815260200191508051906020019060200280838360005b8381101561094757808201518184015260208101905061092c565b505050509050019250505060405180910390f35b34801561096757600080fd5b50610a1e6004803603810190808035600019169060200190929190803560001916906020019092919080359060200190820180359060200190808060200260200160405190810160405280939291908181526020018383602002808284378201915050505050509192919290803590602001908201803590602001908080602002602001604051908101604052809392919081815260200183836020028082843782019150505050505091929192905050506145e1565b005b348015610a2c57600080fd5b50610a6960048036038101908080356000191690602001909291908035600019169060200190929190803515159060200190929190505050614af1565b005b348015610a7757600080fd5b50610aa860048036038101908080356000191690602001909291908035600019169060200190929190505050614fd5565b6040518080602001828103825283818151815260200191508051906020019060200280838360005b83811015610aeb578082015181840152602081019050610ad0565b505050509050019250505060405180910390f35b348015610b0b57600080fd5b50610b3c600480360381019080803560001916906020019092919080356000191690602001909291905050506151a8565b60405180861515151581526020018515151515815260200180602001806020018473ffffffffffffffffffffffffffffffffffffffff1673ffffffffffffffffffffffffffffffffffffffff168152602001838103835286818151815260200191508051906020019060200280838360005b83811015610bc9578082015181840152602081019050610bae565b50505050905001838103825285818151815260200191508051906020019060200280838360005b83811015610c0b578082015181840152602081019050610bf0565b5050505090500197505050505050505060405180910390f35b348015610c3057600080fd5b50610c6160048036038101908080356000191690602001909291908035600019169060200190929190505050615212565b604051808215151515815260200191505060405180910390f35b348015610c8757600080fd5b50610ce2600480360381019080803560001916906020019092919080356000191690602001909291908035600019169060200190929190803560001916906020019092919080356000191690602001909291905050506152ce565b005b348015610cf057600080fd5b50610d806004803603810190808035600019169060200190929190803560001916906020019092919080356000191690602001909291908035600019169060200190929190803590602001908201803590602001908080602002602001604051908101604052809392919081815260200183836020028082843782019150505050505091929192905050506158e6565b005b348015610d8e57600080fd5b50610dc96004803603810190808035600019169060200190929190803560001916906020019092919080359060200190929190505050615c9f565b604051808273ffffffffffffffffffffffffffffffffffffffff1673ffffffffffffffffffffffffffffffffffffffff16815260200191505060405180910390f35b348015610e1757600080fd5b50610e646004803603810190808035600019169060200190929190803560001916906020019092919080356000191690602001909291908035600019169060200190929190505050615def565b005b348015610e7257600080fd5b50610eaf60048036038101908080356000191690602001909291908035600019169060200190929190803515159060200190929190505050616361565b005b348015610ebd57600080fd5b50610ee060048036038101908080356000191690602001909291905050506167ea565b60405180826000191660001916815260200191505060405180910390f35b600080151560016000846000191660001916815260200190815260200160002060009054906101000a900460ff1615151415610f3d5760019050610f42565b600090505b919050565b60008084600060010260001916816000191614151515610fcf576040517f08c379a000000000000000000000000000000000000000000000000000000000815260040180806020018281038252600e8152602001807f416c69617320697320656d70747900000000000000000000000000000000000081525060200191505060405180910390fd5b84600060010260001916816000191614151515611054576040517f08c379a000000000000000000000000000000000000000000000000000000000815260040180806020018281038252600c8152602001807f54616720697320656d707479000000000000000000000000000000000000000081525060200191505060405180910390fd5b86866000151561106383610efe565b151514801561107f57506000151561107b8383615212565b1515145b15156110f3576040517f08c379a000000000000000000000000000000000000000000000000000000000815260040180806020018281038252601a8152602001807f416c696173206f722074616720646f65736e277420657869737400000000000081525060200191505060405180910390fd5b886001151560016000836000191660001916815260200190815260200160002060009054906101000a900460ff161515141515611198576040517f08c379a00000000000000000000000000000000000000000000000000000000081526004018080602001828103825260138152602001807f416c69617320646f65736e27742065786973740000000000000000000000000081525060200191505060405180910390fd5b60026000808360001916600019168152602001908152602001600020548154811015156111c157fe5b906000526020600020906007020160060160009054906101000a900473ffffffffffffffffffffffffffffffffffffffff1673ffffffffffffffffffffffffffffffffffffffff163373ffffffffffffffffffffffffffffffffffffffff161415156112bb576040517f08c379a00000000000000000000000000000000000000000000000000000000081526004018080602001828103825260278152602001807f4f6e6c7920616c696173206f776e65722063616e2063616c6c2074686973206681526020017f756e6374696f6e0000000000000000000000000000000000000000000000000081525060400191505060405180910390fd5b60026000808c60001916600019168152602001908152602001600020548154811015156112e457fe5b906000526020600020906007020160000196508660000160008a6000191660001916815260200190815260200160002054955060008873ffffffffffffffffffffffffffffffffffffffff16141561145d5760001515876001018781548110151561134b57fe5b906000526020600020906007020160000173__TNSTag________________________________63fc971ba590916040518263ffffffff167c01000000000000000000000000000000000000000000000000000000000281526004018082815260200191505060206040518083038186803b1580156113c857600080fd5b505af41580156113dc573d6000803e3d6000fd5b505050506040513d60208110156113f257600080fd5b81019080805190602001909291905050501515141561145c576040517f08c379a00000000000000000000000000000000000000000000000000000000081526004018080602001828103825260968152602001806173a06096913960a00191505060405180910390fd5b5b866001018681548110151561146e57fe5b906000526020600020906007020160000173__TNSTag________________________________63586de93190918a6040518363ffffffff167c0100000000000000000000000000000000000000000000000000000000028152600401808381526020018273ffffffffffffffffffffffffffffffffffffffff1673ffffffffffffffffffffffffffffffffffffffff1681526020019250505060006040518083038186803b15801561151f57600080fd5b505af4158015611533573d6000803e3d6000fd5b505050503373ffffffffffffffffffffffffffffffffffffffff167fd713555621920b224de101490062f8e270b78138596c90ce629163a35198cfcc8b60405180826000191660001916815260200191505060405180910390a250505050505050505050565b600084600060010260001916816000191614151515611620576040517f08c379a000000000000000000000000000000000000000000000000000000000815260040180806020018281038252600e8152602001807f416c69617320697320656d70747900000000000000000000000000000000000081525060200191505060405180910390fd5b846000600102600019168160001916141515156116a5576040517f08c379a000000000000000000000000000000000000000000000000000000000815260040180806020018281038252600c8152602001807f54616720697320656d707479000000000000000000000000000000000000000081525060200191505060405180910390fd5b8686600015156116b483610efe565b15151480156116d05750600015156116cc8383615212565b1515145b1515611744576040517f08c379a000000000000000000000000000000000000000000000000000000000815260040180806020018281038252601a8152602001807f416c696173206f722074616720646f65736e277420657869737400000000000081525060200191505060405180910390fd5b886001151560016000836000191660001916815260200190815260200160002060009054906101000a900460ff1615151415156117e9576040517f08c379a00000000000000000000000000000000000000000000000000000000081526004018080602001828103825260138152602001807f416c69617320646f65736e27742065786973740000000000000000000000000081525060200191505060405180910390fd5b600260008083600019166000191681526020019081526020016000205481548110151561181257fe5b906000526020600020906007020160060160009054906101000a900473ffffffffffffffffffffffffffffffffffffffff1673ffffffffffffffffffffffffffffffffffffffff163373ffffffffffffffffffffffffffffffffffffffff1614151561190c576040517f08c379a00000000000000000000000000000000000000000000000000000000081526004018080602001828103825260278152602001807f4f6e6c7920616c696173206f776e65722063616e2063616c6c2074686973206681526020017f756e6374696f6e0000000000000000000000000000000000000000000000000081525060400191505060405180910390fd5b60026000808c600019166000191681526020019081526020016000205481548110151561193557fe5b90600052602060002090600702016000019550856001018660000160008b600019166000191681526020019081526020016000205481548110151561197657fe5b906000526020600020906007020160000173__TNSTag________________________________633b9dafaf90918a8a6040518463ffffffff167c010000000000000000000000000000000000000000000000000000000002815260040180848152602001836000191660001916815260200180602001828103825283818151815260200191508051906020019060200280838360005b83811015611a27578082015181840152602081019050611a0c565b5050505090500194505050505060006040518083038186803b158015611a4c57600080fd5b505af4158015611a60573d6000803e3d6000fd5b5050505050505050505050505050565b600080611a7d8484616849565b15611bab576002600080866000191660001916815260200190815260200160002054815481101515611aab57fe5b9060005260206000209060070201600001905080600101816000016000856000191660001916815260200190815260200160002054815481101515611aec57fe5b906000526020600020906007020160000173__TNSTag________________________________6392272f5290916040518263ffffffff167c01000000000000000000000000000000000000000000000000000000000281526004018082815260200191505060206040518083038186803b158015611b6957600080fd5b505af4158015611b7d573d6000803e3d6000fd5b505050506040513d6020811015611b9357600080fd5b81019080805190602001909291905050509150611bb0565b600091505b5092915050565b600080600084600060010260001916816000191614151515611c41576040517f08c379a000000000000000000000000000000000000000000000000000000000815260040180806020018281038252600e8152602001807f416c69617320697320656d70747900000000000000000000000000000000000081525060200191505060405180910390fd5b84600060010260001916816000191614151515611cc6576040517f08c379a000000000000000000000000000000000000000000000000000000000815260040180806020018281038252600c8152602001807f54616720697320656d707479000000000000000000000000000000000000000081525060200191505060405180910390fd5b868660001515611cd583610efe565b1515148015611cf1575060001515611ced8383615212565b1515145b1515611d65576040517f08c379a000000000000000000000000000000000000000000000000000000000815260040180806020018281038252601a8152602001807f416c696173206f722074616720646f65736e277420657869737400000000000081525060200191505060405180910390fd5b886001151560016000836000191660001916815260200190815260200160002060009054906101000a900460ff161515141515611e0a576040517f08c379a00000000000000000000000000000000000000000000000000000000081526004018080602001828103825260138152602001807f416c69617320646f65736e27742065786973740000000000000000000000000081525060200191505060405180910390fd5b6002600080836000191660001916815260200190815260200160002054815481101515611e3357fe5b906000526020600020906007020160060160009054906101000a900473ffffffffffffffffffffffffffffffffffffffff1673ffffffffffffffffffffffffffffffffffffffff163373ffffffffffffffffffffffffffffffffffffffff16141515611f2d576040517f08c379a00000000000000000000000000000000000000000000000000000000081526004018080602001828103825260278152602001807f4f6e6c7920616c696173206f776e65722063616e2063616c6c2074686973206681526020017f756e6374696f6e0000000000000000000000000000000000000000000000000081525060400191505060405180910390fd5b60026000808c6000191660001916815260200190815260200160002054815481101515611f5657fe5b906000526020600020906007020160000197508760030160008a6000191660001916815260200190815260200160002060006101000a81549060ff02191690558760000160008a60001916600019168152602001908152602001600020549650600188600101805490500395508760020186815481101515611fd457fe5b90600052602060002001548860020188815481101515611ff057fe5b906000526020600020018160001916905550868860000160008a6002018981548110151561201a57fe5b90600052602060002001546000191660001916815260200190815260200160002081905550876002018054809190600190036120569190616e93565b50876001018681548110151561206857fe5b9060005260206000209060070201886001018881548110151561208757fe5b90600052602060002090600702016000820181600001600082018160000160008201816000019080546120bb929190616ebf565b506001820160009054906101000a900460ff168160010160006101000a81548160ff021916908315150217905550505060028201816002016000820160009054906101000a900473ffffffffffffffffffffffffffffffffffffffff168160000160006101000a81548173ffffffffffffffffffffffffffffffffffffffff021916908373ffffffffffffffffffffffffffffffffffffffff1602179055506000820160149054906101000a900460ff168160000160146101000a81548160ff021916908315150217905550600282018160020190805461219d929190616f11565b5060038201816003019080546121b4929190616f11565b505050505060068201548160060190600019169055905050876001018054809190600190036121e39190616f63565b508760000160008a60001916600019168152602001908152602001600020600090553373ffffffffffffffffffffffffffffffffffffffff167fd713555621920b224de101490062f8e270b78138596c90ce629163a35198cfcc8b60405180826000191660001916815260200191505060405180910390a250505050505050505050565b6000806122748484616849565b156123a25760026000808660001916600019168152602001908152602001600020548154811015156122a257fe5b90600052602060002090600702016000019050806001018160000160008560001916600019168152602001908152602001600020548154811015156122e357fe5b906000526020600020906007020160000173__TNSTag________________________________63fc971ba590916040518263ffffffff167c01000000000000000000000000000000000000000000000000000000000281526004018082815260200191505060206040518083038186803b15801561236057600080fd5b505af4158015612374573d6000803e3d6000fd5b505050506040513d602081101561238a57600080fd5b810190808051906020019092919050505091506123a7565b600091505b5092915050565b6000806123bb8484616849565b156124e95760026000808660001916600019168152602001908152602001600020548154811015156123e957fe5b906000526020600020906007020160000190508060010181600001600085600019166000191681526020019081526020016000205481548110151561242a57fe5b906000526020600020906007020160000173__TNSTag________________________________630add875090916040518263ffffffff167c01000000000000000000000000000000000000000000000000000000000281526004018082815260200191505060206040518083038186803b1580156124a757600080fd5b505af41580156124bb573d6000803e3d6000fd5b505050506040513d60208110156124d157600080fd5b810190808051906020019092919050505091506124ee565b600091505b5092915050565b60008460006001026000191681600019161415151561257c576040517f08c379a000000000000000000000000000000000000000000000000000000000815260040180806020018281038252600e8152602001807f416c69617320697320656d70747900000000000000000000000000000000000081525060200191505060405180910390fd5b84600060010260001916816000191614151515612601576040517f08c379a000000000000000000000000000000000000000000000000000000000815260040180806020018281038252600c8152602001807f54616720697320656d707479000000000000000000000000000000000000000081525060200191505060405180910390fd5b86866000151561261083610efe565b151514801561262c5750600015156126288383615212565b1515145b15156126a0576040517f08c379a000000000000000000000000000000000000000000000000000000000815260040180806020018281038252601a8152602001807f416c696173206f722074616720646f65736e277420657869737400000000000081525060200191505060405180910390fd5b886001151560016000836000191660001916815260200190815260200160002060009054906101000a900460ff161515141515612745576040517f08c379a00000000000000000000000000000000000000000000000000000000081526004018080602001828103825260138152602001807f416c69617320646f65736e27742065786973740000000000000000000000000081525060200191505060405180910390fd5b600260008083600019166000191681526020019081526020016000205481548110151561276e57fe5b906000526020600020906007020160060160009054906101000a900473ffffffffffffffffffffffffffffffffffffffff1673ffffffffffffffffffffffffffffffffffffffff163373ffffffffffffffffffffffffffffffffffffffff16141515612868576040517f08c379a00000000000000000000000000000000000000000000000000000000081526004018080602001828103825260278152602001807f4f6e6c7920616c696173206f776e65722063616e2063616c6c2074686973206681526020017f756e6374696f6e0000000000000000000000000000000000000000000000000081525060400191505060405180910390fd5b60026000808c600019166000191681526020019081526020016000205481548110151561289157fe5b90600052602060002090600702016000019550856001018660000160008b60001916600019168152602001908152602001600020548154811015156128d257fe5b906000526020600020906007020160000173__TNSTag________________________________63321491c790918a8a6040518463ffffffff167c0100000000000000000000000000000000000000000000000000000000028152600401808481526020018360001916600019168152602001828152602001935050505060006040518083038186803b15801561296757600080fd5b505af415801561297b573d6000803e3d6000fd5b5050505050505050505050505050565b6060806129978361687b565b15612a335760026000808560001916600019168152602001908152602001600020548154811015156129c557fe5b9060005260206000209060070201600001600201805480602002602001604051908101604052809291908181526020018280548015612a2757602002820191906000526020600020905b81546000191681526020019060010190808311612a0f575b50505050509150612a6a565b6000604051908082528060200260200182016040528015612a635781602001602082028038833980820191505090505b5090508091505b50919050565b600080612a7d8484616849565b15612b05576002600080866000191660001916815260200190815260200160002054815481101515612aab57fe5b9060005260206000209060070201600001905080600101816000016000856000191660001916815260200190815260200160002054815481101515612aec57fe5b9060005260206000209060070201600601549150612b0d565b600060010291505b5092915050565b60008084600060010260001916816000191614151515612b9c576040517f08c379a000000000000000000000000000000000000000000000000000000000815260040180806020018281038252600e8152602001807f416c69617320697320656d70747900000000000000000000000000000000000081525060200191505060405180910390fd5b84600060010260001916816000191614151515612c21576040517f08c379a000000000000000000000000000000000000000000000000000000000815260040180806020018281038252600c8152602001807f54616720697320656d707479000000000000000000000000000000000000000081525060200191505060405180910390fd5b868660001515612c3083610efe565b1515148015612c4c575060001515612c488383615212565b1515145b1515612cc0576040517f08c379a000000000000000000000000000000000000000000000000000000000815260040180806020018281038252601a8152602001807f416c696173206f722074616720646f65736e277420657869737400000000000081525060200191505060405180910390fd5b886001151560016000836000191660001916815260200190815260200160002060009054906101000a900460ff161515141515612d65576040517f08c379a00000000000000000000000000000000000000000000000000000000081526004018080602001828103825260138152602001807f416c69617320646f65736e27742065786973740000000000000000000000000081525060200191505060405180910390fd5b6002600080836000191660001916815260200190815260200160002054815481101515612d8e57fe5b906000526020600020906007020160060160009054906101000a900473ffffffffffffffffffffffffffffffffffffffff1673ffffffffffffffffffffffffffffffffffffffff163373ffffffffffffffffffffffffffffffffffffffff16141515612e88576040517f08c379a00000000000000000000000000000000000000000000000000000000081526004018080602001828103825260278152602001807f4f6e6c7920616c696173206f776e65722063616e2063616c6c2074686973206681526020017f756e6374696f6e0000000000000000000000000000000000000000000000000081525060400191505060405180910390fd5b60026000808c6000191660001916815260200190815260200160002054815481101515612eb157fe5b906000526020600020906007020160000196508660000160008a600019166000191681526020019081526020016000205495508660010186815481101515612ef557fe5b906000526020600020906007020160000173__TNSTag________________________________63a7551a3e90918a6040518363ffffffff167c0100000000000000000000000000000000000000000000000000000000028152600401808381526020018281526020019250505060006040518083038186803b158015612f7a57600080fd5b505af4158015612f8e573d6000803e3d6000fd5b505050503373ffffffffffffffffffffffffffffffffffffffff167fd713555621920b224de101490062f8e270b78138596c90ce629163a35198cfcc8b60405180826000191660001916815260200191505060405180910390a250505050505050505050565b6000806130018484616849565b1561312f57600260008086600019166000191681526020019081526020016000205481548110151561302f57fe5b906000526020600020906007020160000190508060010181600001600085600019166000191681526020019081526020016000205481548110151561307057fe5b906000526020600020906007020160000173__TNSTag________________________________63fb34ccff90916040518263ffffffff167c01000000000000000000000000000000000000000000000000000000000281526004018082815260200191505060206040518083038186803b1580156130ed57600080fd5b505af4158015613101573d6000803e3d6000fd5b505050506040513d602081101561311757600080fd5b81019080805190602001909291905050509150613134565b600091505b5092915050565b613143616f95565b856000600102600019168160001916141515156131c8576040517f08c379a000000000000000000000000000000000000000000000000000000000815260040180806020018281038252600e8152602001807f416c69617320697320656d70747900000000000000000000000000000000000081525060200191505060405180910390fd5b8460006001026000191681600019161415151561324d576040517f08c379a000000000000000000000000000000000000000000000000000000000815260040180806020018281038252600c8152602001807f54616720697320656d707479000000000000000000000000000000000000000081525060200191505060405180910390fd5b60008473ffffffffffffffffffffffffffffffffffffffff16141515156132dc576040517f08c379a00000000000000000000000000000000000000000000000000000000081526004018080602001828103825260138152602001807f7075624164647265737320697320656d7074790000000000000000000000000081525060200191505060405180910390fd5b8383602001516000019073ffffffffffffffffffffffffffffffffffffffff16908173ffffffffffffffffffffffffffffffffffffffff168152505061332188610efe565b15613338576133338888888887616893565b6134c4565b3373ffffffffffffffffffffffffffffffffffffffff1660026000808b600019166000191681526020019081526020016000205481548110151561337857fe5b906000526020600020906007020160060160009054906101000a900473ffffffffffffffffffffffffffffffffffffffff1673ffffffffffffffffffffffffffffffffffffffff161415613455576133d08887615212565b1515613444576040517f08c379a00000000000000000000000000000000000000000000000000000000081526004018080602001828103825260128152602001807f54616720616c726561647920657869737473000000000000000000000000000081525060200191505060405180910390fd5b61345088878786616c50565b6134c3565b6040517f08c379a00000000000000000000000000000000000000000000000000000000081526004018080602001828103825260168152602001807f416c69617320697320616c72656164792074616b656e0000000000000000000081525060200191505060405180910390fd5b5b3373ffffffffffffffffffffffffffffffffffffffff167fd713555621920b224de101490062f8e270b78138596c90ce629163a35198cfcc8960405180826000191660001916815260200191505060405180910390a25050505050505050565b6000806000856000600102600019168160001916141515156135ae576040517f08c379a000000000000000000000000000000000000000000000000000000000815260040180806020018281038252600e8152602001807f416c69617320697320656d70747900000000000000000000000000000000000081525060200191505060405180910390fd5b85600060010260001916816000191614151515613633576040517f08c379a000000000000000000000000000000000000000000000000000000000815260040180806020018281038252600c8152602001807f54616720697320656d707479000000000000000000000000000000000000000081525060200191505060405180910390fd5b87876000151561364283610efe565b151514801561365e57506000151561365a8383615212565b1515145b15156136d2576040517f08c379a000000000000000000000000000000000000000000000000000000000815260040180806020018281038252601a8152602001807f416c696173206f722074616720646f65736e277420657869737400000000000081525060200191505060405180910390fd5b896001151560016000836000191660001916815260200190815260200160002060009054906101000a900460ff161515141515613777576040517f08c379a00000000000000000000000000000000000000000000000000000000081526004018080602001828103825260138152602001807f416c69617320646f65736e27742065786973740000000000000000000000000081525060200191505060405180910390fd5b60026000808360001916600019168152602001908152602001600020548154811015156137a057fe5b906000526020600020906007020160060160009054906101000a900473ffffffffffffffffffffffffffffffffffffffff1673ffffffffffffffffffffffffffffffffffffffff163373ffffffffffffffffffffffffffffffffffffffff1614151561389a576040517f08c379a00000000000000000000000000000000000000000000000000000000081526004018080602001828103825260278152602001807f4f6e6c7920616c696173206f776e65722063616e2063616c6c2074686973206681526020017f756e6374696f6e0000000000000000000000000000000000000000000000000081525060400191505060405180910390fd5b60026000808d60001916600019168152602001908152602001600020548154811015156138c357fe5b906000526020600020906007020160000197508760000160008b60001916600019168152602001908152602001600020549650876001018781548110151561390757fe5b906000526020600020906007020160000173__TNSTag________________________________6392272f5290916040518263ffffffff167c01000000000000000000000000000000000000000000000000000000000281526004018082815260200191505060206040518083038186803b15801561398457600080fd5b505af4158015613998573d6000803e3d6000fd5b505050506040513d60208110156139ae57600080fd5b81019080805190602001909291905050509550601486101515613a85576040517f08c379a00000000000000000000000000000000000000000000000000000000081526004018080602001828103825260418152602001807f596f752063616e206f6e6c792073746f726520757020746f203230206164647281526020017f657373657320696e206f7264657220746f206f62657920676173206c696d697481526020017f2e0000000000000000000000000000000000000000000000000000000000000081525060600191505060405180910390fd5b8760010187815481101515613a9657fe5b906000526020600020906007020160000173__TNSTag________________________________639f2795bd90918b6040518363ffffffff167c0100000000000000000000000000000000000000000000000000000000028152600401808381526020018273ffffffffffffffffffffffffffffffffffffffff1673ffffffffffffffffffffffffffffffffffffffff1681526020019250505060006040518083038186803b158015613b4757600080fd5b505af4158015613b5b573d6000803e3d6000fd5b505050503373ffffffffffffffffffffffffffffffffffffffff167fd713555621920b224de101490062f8e270b78138596c90ce629163a35198cfcc8c60405180826000191660001916815260200191505060405180910390a25050505050505050505050565b600080613bcf8585616849565b15613d0d576002600080876000191660001916815260200190815260200160002054815481101515613bfd57fe5b9060005260206000209060070201600001905080600101816000016000866000191660001916815260200190815260200160002054815481101515613c3e57fe5b906000526020600020906007020160000173__TNSTag________________________________637e159a349091856040518363ffffffff167c01000000000000000000000000000000000000000000000000000000000281526004018083815260200182600019166000191681526020019250505060206040518083038186803b158015613ccb57600080fd5b505af4158015613cdf573d6000803e3d6000fd5b505050506040513d6020811015613cf557600080fd5b81019080805190602001909291905050509150613d12565b600091505b509392505050565b6000613d258261687b565b15613d8c576002600080846000191660001916815260200190815260200160002054815481101515613d5357fe5b906000526020600020906007020160060160009054906101000a900473ffffffffffffffffffffffffffffffffffffffff169050613d91565b600090505b919050565b606060006060613da68585616849565b15613f2a576002600080876000191660001916815260200190815260200160002054815481101515613dd457fe5b9060005260206000209060070201600001915081600101826000016000866000191660001916815260200190815260200160002054815481101515613e1557fe5b906000526020600020906007020160000173__TNSTag________________________________63f6e0d76790916040518263ffffffff167c01000000000000000000000000000000000000000000000000000000000281526004018082815260200191505060006040518083038186803b158015613e9257600080fd5b505af4158015613ea6573d6000803e3d6000fd5b505050506040513d6000823e3d601f19601f820116820180604052506020811015613ed057600080fd5b810190808051640100000000811115613ee857600080fd5b82810190506020810184811115613efe57600080fd5b8151856020820283011164010000000082111715613f1b57600080fd5b50509291905050509250613f61565b6000604051908082528060200260200182016040528015613f5a5781602001602082028038833980820191505090505b5090508092505b505092915050565b60008084600060010260001916816000191614151515613ff1576040517f08c379a000000000000000000000000000000000000000000000000000000000815260040180806020018281038252600e8152602001807f416c69617320697320656d70747900000000000000000000000000000000000081525060200191505060405180910390fd5b84600060010260001916816000191614151515614076576040517f08c379a000000000000000000000000000000000000000000000000000000000815260040180806020018281038252600c8152602001807f54616720697320656d707479000000000000000000000000000000000000000081525060200191505060405180910390fd5b86866000151561408583610efe565b15151480156140a157506000151561409d8383615212565b1515145b1515614115576040517f08c379a000000000000000000000000000000000000000000000000000000000815260040180806020018281038252601a8152602001807f416c696173206f722074616720646f65736e277420657869737400000000000081525060200191505060405180910390fd5b886001151560016000836000191660001916815260200190815260200160002060009054906101000a900460ff1615151415156141ba576040517f08c379a00000000000000000000000000000000000000000000000000000000081526004018080602001828103825260138152602001807f416c69617320646f65736e27742065786973740000000000000000000000000081525060200191505060405180910390fd5b60026000808360001916600019168152602001908152602001600020548154811015156141e357fe5b906000526020600020906007020160060160009054906101000a900473ffffffffffffffffffffffffffffffffffffffff1673ffffffffffffffffffffffffffffffffffffffff163373ffffffffffffffffffffffffffffffffffffffff161415156142dd576040517f08c379a00000000000000000000000000000000000000000000000000000000081526004018080602001828103825260278152602001807f4f6e6c7920616c696173206f776e65722063616e2063616c6c2074686973206681526020017f756e6374696f6e0000000000000000000000000000000000000000000000000081525060400191505060405180910390fd5b60026000808c600019166000191681526020019081526020016000205481548110151561430657fe5b906000526020600020906007020160000196508660000160008a60001916600019168152602001908152602001600020549550866001018681548110151561434a57fe5b906000526020600020906007020160000173__TNSTag________________________________6338cc095390918a6040518363ffffffff167c01000000000000000000000000000000000000000000000000000000000281526004018083815260200180602001828103825283818151815260200191508051906020019060200280838360005b838110156143ec5780820151818401526020810190506143d1565b50505050905001935050505060006040518083038186803b15801561441057600080fd5b505af4158015614424573d6000803e3d6000fd5b505050503373ffffffffffffffffffffffffffffffffffffffff167fd713555621920b224de101490062f8e270b78138596c90ce629163a35198cfcc8b60405180826000191660001916815260200191505060405180910390a250505050505050505050565b6060600360009054906101000a900473ffffffffffffffffffffffffffffffffffffffff1673ffffffffffffffffffffffffffffffffffffffff16635aac6822836040518263ffffffff167c0100000000000000000000000000000000000000000000000000000000028152600401808273ffffffffffffffffffffffffffffffffffffffff1673ffffffffffffffffffffffffffffffffffffffff168152602001915050600060405180830381600087803b15801561454957600080fd5b505af115801561455d573d6000803e3d6000fd5b505050506040513d6000823e3d601f19601f82011682018060405250602081101561458757600080fd5b81019080805164010000000081111561459f57600080fd5b828101905060208101848111156145b557600080fd5b81518560208202830111640100000000821117156145d257600080fd5b50509291905050509050919050565b600084600060010260001916816000191614151515614668576040517f08c379a000000000000000000000000000000000000000000000000000000000815260040180806020018281038252600e8152602001807f416c69617320697320656d70747900000000000000000000000000000000000081525060200191505060405180910390fd5b846000600102600019168160001916141515156146ed576040517f08c379a000000000000000000000000000000000000000000000000000000000815260040180806020018281038252600c8152602001807f54616720697320656d707479000000000000000000000000000000000000000081525060200191505060405180910390fd5b8686600015156146fc83610efe565b15151480156147185750600015156147148383615212565b1515145b151561478c576040517f08c379a000000000000000000000000000000000000000000000000000000000815260040180806020018281038252601a8152602001807f416c696173206f722074616720646f65736e277420657869737400000000000081525060200191505060405180910390fd5b886001151560016000836000191660001916815260200190815260200160002060009054906101000a900460ff161515141515614831576040517f08c379a00000000000000000000000000000000000000000000000000000000081526004018080602001828103825260138152602001807f416c69617320646f65736e27742065786973740000000000000000000000000081525060200191505060405180910390fd5b600260008083600019166000191681526020019081526020016000205481548110151561485a57fe5b906000526020600020906007020160060160009054906101000a900473ffffffffffffffffffffffffffffffffffffffff1673ffffffffffffffffffffffffffffffffffffffff163373ffffffffffffffffffffffffffffffffffffffff16141515614954576040517f08c379a00000000000000000000000000000000000000000000000000000000081526004018080602001828103825260278152602001807f4f6e6c7920616c696173206f776e65722063616e2063616c6c2074686973206681526020017f756e6374696f6e0000000000000000000000000000000000000000000000000081525060400191505060405180910390fd5b60026000808c600019166000191681526020019081526020016000205481548110151561497d57fe5b90600052602060002090600702016000019550856001018660000160008b60001916600019168152602001908152602001600020548154811015156149be57fe5b906000526020600020906007020160000173__TNSTag________________________________63727a3b3c90918a8a6040518463ffffffff167c0100000000000000000000000000000000000000000000000000000000028152600401808481526020018060200180602001838103835285818151815260200191508051906020019060200280838360005b83811015614a65578082015181840152602081019050614a4a565b50505050905001838103825284818151815260200191508051906020019060200280838360005b83811015614aa7578082015181840152602081019050614a8c565b505050509050019550505050505060006040518083038186803b158015614acd57600080fd5b505af4158015614ae1573d6000803e3d6000fd5b5050505050505050505050505050565b60008084600060010260001916816000191614151515614b79576040517f08c379a000000000000000000000000000000000000000000000000000000000815260040180806020018281038252600e8152602001807f416c69617320697320656d70747900000000000000000000000000000000000081525060200191505060405180910390fd5b84600060010260001916816000191614151515614bfe576040517f08c379a000000000000000000000000000000000000000000000000000000000815260040180806020018281038252600c8152602001807f54616720697320656d707479000000000000000000000000000000000000000081525060200191505060405180910390fd5b868660001515614c0d83610efe565b1515148015614c29575060001515614c258383615212565b1515145b1515614c9d576040517f08c379a000000000000000000000000000000000000000000000000000000000815260040180806020018281038252601a8152602001807f416c696173206f722074616720646f65736e277420657869737400000000000081525060200191505060405180910390fd5b886001151560016000836000191660001916815260200190815260200160002060009054906101000a900460ff161515141515614d42576040517f08c379a00000000000000000000000000000000000000000000000000000000081526004018080602001828103825260138152602001807f416c69617320646f65736e27742065786973740000000000000000000000000081525060200191505060405180910390fd5b6002600080836000191660001916815260200190815260200160002054815481101515614d6b57fe5b906000526020600020906007020160060160009054906101000a900473ffffffffffffffffffffffffffffffffffffffff1673ffffffffffffffffffffffffffffffffffffffff163373ffffffffffffffffffffffffffffffffffffffff16141515614e65576040517f08c379a00000000000000000000000000000000000000000000000000000000081526004018080602001828103825260278152602001807f4f6e6c7920616c696173206f776e65722063616e2063616c6c2074686973206681526020017f756e6374696f6e0000000000000000000000000000000000000000000000000081525060400191505060405180910390fd5b60026000808c6000191660001916815260200190815260200160002054815481101515614e8e57fe5b906000526020600020906007020160000196508660000160008a600019166000191681526020019081526020016000205495508660010186815481101515614ed257fe5b906000526020600020906007020160000173__TNSTag________________________________63239cf80890918a6040518363ffffffff167c010000000000000000000000000000000000000000000000000000000002815260040180838152602001821515151581526020019250505060006040518083038186803b158015614f5b57600080fd5b505af4158015614f6f573d6000803e3d6000fd5b505050503373ffffffffffffffffffffffffffffffffffffffff167fd713555621920b224de101490062f8e270b78138596c90ce629163a35198cfcc8b60405180826000191660001916815260200191505060405180910390a250505050505050505050565b606060006060614fe58585616849565b1561516957600260008087600019166000191681526020019081526020016000205481548110151561501357fe5b906000526020600020906007020160000191508160010182600001600086600019166000191681526020019081526020016000205481548110151561505457fe5b906000526020600020906007020160000173__TNSTag________________________________636696da9290916040518263ffffffff167c01000000000000000000000000000000000000000000000000000000000281526004018082815260200191505060006040518083038186803b1580156150d157600080fd5b505af41580156150e5573d6000803e3d6000fd5b505050506040513d6000823e3d601f19601f82011682018060405250602081101561510f57600080fd5b81019080805164010000000081111561512757600080fd5b8281019050602081018481111561513d57600080fd5b815185602082028301116401000000008211171561515a57600080fd5b505092919050505092506151a0565b60006040519080825280602002602001820160405280156151995781602001602082028038833980820191505090505b5090508092505b505092915050565b600080606080600060608060008060006151c28c8c614fd5565b94506151ce8c8c613d96565b93506151da8c8c612ff4565b92506151e68c8c612267565b91506151f28c8c6123ae565b905081818686869950995099509950995050505050509295509295909350565b60006001151560016000856000191660001916815260200190815260200160002060009054906101000a900460ff16151514156152c35760011515600260008086600019166000191681526020019081526020016000205481548110151561527657fe5b90600052602060002090600702016000016003016000846000191660001916815260200190815260200160002060009054906101000a900460ff16151514156152c257600090506152c8565b5b600190505b92915050565b60008086600060010260001916816000191614151515615356576040517f08c379a000000000000000000000000000000000000000000000000000000000815260040180806020018281038252600e8152602001807f416c69617320697320656d70747900000000000000000000000000000000000081525060200191505060405180910390fd5b866000600102600019168160001916141515156153db576040517f08c379a000000000000000000000000000000000000000000000000000000000815260040180806020018281038252600c8152602001807f54616720697320656d707479000000000000000000000000000000000000000081525060200191505060405180910390fd5b8888600015156153ea83610efe565b15151480156154065750600015156154028383615212565b1515145b151561547a576040517f08c379a000000000000000000000000000000000000000000000000000000000815260040180806020018281038252601a8152602001807f416c696173206f722074616720646f65736e277420657869737400000000000081525060200191505060405180910390fd5b8a6001151560016000836000191660001916815260200190815260200160002060009054906101000a900460ff16151514151561551f576040517f08c379a00000000000000000000000000000000000000000000000000000000081526004018080602001828103825260138152602001807f416c69617320646f65736e27742065786973740000000000000000000000000081525060200191505060405180910390fd5b600260008083600019166000191681526020019081526020016000205481548110151561554857fe5b906000526020600020906007020160060160009054906101000a900473ffffffffffffffffffffffffffffffffffffffff1673ffffffffffffffffffffffffffffffffffffffff163373ffffffffffffffffffffffffffffffffffffffff16141515615642576040517f08c379a00000000000000000000000000000000000000000000000000000000081526004018080602001828103825260278152602001807f4f6e6c7920616c696173206f776e65722063616e2063616c6c2074686973206681526020017f756e6374696f6e0000000000000000000000000000000000000000000000000081525060400191505060405180910390fd5b6000600102600019168960001916141515156156c6576040517f08c379a00000000000000000000000000000000000000000000000000000000081526004018080602001828103825260108152602001807f4e65772074616720697320656d7074790000000000000000000000000000000081525060200191505060405180910390fd5b6156d08c8a615212565b1515615744576040517f08c379a00000000000000000000000000000000000000000000000000000000081526004018080602001828103825260128152602001807f54616720616c726561647920657869737473000000000000000000000000000081525060200191505060405180910390fd5b60026000808e600019166000191681526020019081526020016000205481548110151561576d57fe5b906000526020600020906007020160000196508660030160008c6000191660001916815260200190815260200160002060006101000a81549060ff021916905560018760030160008b6000191660001916815260200190815260200160002060006101000a81548160ff0219169083151502179055508660000160008c6000191660001916815260200190815260200160002054955087876001018781548110151561581557fe5b9060005260206000209060070201600601816000191690555088876002018781548110151561584057fe5b906000526020600020018160001916905550858760000160008b60001916600019168152602001908152602001600020819055508660000160008c60001916600019168152602001908152602001600020600090553373ffffffffffffffffffffffffffffffffffffffff167f3f7c5904943ad21b9256174ea1f6c00b1785c4a181ffe526f8bba2ac0ad2a06d60405160405180910390a2505050505050505050505050565b6158ee616f95565b85600060010260001916816000191614151515615973576040517f08c379a000000000000000000000000000000000000000000000000000000000815260040180806020018281038252600e8152602001807f416c69617320697320656d70747900000000000000000000000000000000000081525060200191505060405180910390fd5b846000600102600019168160001916141515156159f8576040517f08c379a000000000000000000000000000000000000000000000000000000000815260040180806020018281038252600c8152602001807f54616720697320656d707479000000000000000000000000000000000000000081525060200191505060405180910390fd5b60008451111515615a71576040517f08c379a00000000000000000000000000000000000000000000000000000000081526004018080602001828103825260178152602001807f67656e416464726573734c69737420697320656d70747900000000000000000081525060200191505060405180910390fd5b60018360000151602001901515908115158152505083836000015160000181905250615a9c88610efe565b15615ab357615aae8888888887616893565b615c3f565b3373ffffffffffffffffffffffffffffffffffffffff1660026000808b6000191660001916815260200190815260200160002054815481101515615af357fe5b906000526020600020906007020160060160009054906101000a900473ffffffffffffffffffffffffffffffffffffffff1673ffffffffffffffffffffffffffffffffffffffff161415615bd057615b4b8887615212565b1515615bbf576040517f08c379a00000000000000000000000000000000000000000000000000000000081526004018080602001828103825260128152602001807f54616720616c726561647920657869737473000000000000000000000000000081525060200191505060405180910390fd5b615bcb88878786616c50565b615c3e565b6040517f08c379a00000000000000000000000000000000000000000000000000000000081526004018080602001828103825260168152602001807f416c69617320697320616c72656164792074616b656e0000000000000000000081525060200191505060405180910390fd5b5b3373ffffffffffffffffffffffffffffffffffffffff167fd713555621920b224de101490062f8e270b78138596c90ce629163a35198cfcc8960405180826000191660001916815260200191505060405180910390a25050505050505050565b600080615cac8585616849565b15615de2576002600080876000191660001916815260200190815260200160002054815481101515615cda57fe5b9060005260206000209060070201600001905080600101816000016000866000191660001916815260200190815260200160002054815481101515615d1b57fe5b906000526020600020906007020160000173__TNSTag________________________________638077b7ca9091856040518363ffffffff167c0100000000000000000000000000000000000000000000000000000000028152600401808381526020018281526020019250505060206040518083038186803b158015615da057600080fd5b505af4158015615db4573d6000803e3d6000fd5b505050506040513d6020811015615dca57600080fd5b81019080805190602001909291905050509150615de7565b600091505b509392505050565b600084600060010260001916816000191614151515615e76576040517f08c379a000000000000000000000000000000000000000000000000000000000815260040180806020018281038252600e8152602001807f416c69617320697320656d70747900000000000000000000000000000000000081525060200191505060405180910390fd5b856001151560016000836000191660001916815260200190815260200160002060009054906101000a900460ff161515141515615f1b576040517f08c379a00000000000000000000000000000000000000000000000000000000081526004018080602001828103825260138152602001807f416c69617320646f65736e27742065786973740000000000000000000000000081525060200191505060405180910390fd5b6002600080836000191660001916815260200190815260200160002054815481101515615f4457fe5b906000526020600020906007020160060160009054906101000a900473ffffffffffffffffffffffffffffffffffffffff1673ffffffffffffffffffffffffffffffffffffffff163373ffffffffffffffffffffffffffffffffffffffff1614151561603e576040517f08c379a00000000000000000000000000000000000000000000000000000000081526004018080602001828103825260278152602001807f4f6e6c7920616c696173206f776e65722063616e2063616c6c2074686973206681526020017f756e6374696f6e0000000000000000000000000000000000000000000000000081525060400191505060405180910390fd5b6000600102600019168560001916141515156160c2576040517f08c379a00000000000000000000000000000000000000000000000000000000081526004018080602001828103825260128152602001807f4e657720416c69617320697320656d707479000000000000000000000000000081525060200191505060405180910390fd5b6160cb85610efe565b151561613f576040517f08c379a00000000000000000000000000000000000000000000000000000000081526004018080602001828103825260168152602001807f416c69617320697320616c72656164792074616b656e0000000000000000000081525060200191505060405180910390fd5b60016000886000191660001916815260200190815260200160002060006101000a81549060ff02191690556001806000876000191660001916815260200190815260200160002060006101000a81548160ff0219169083151502179055506000808860001916600019168152602001908152602001600020549250826000808760001916600019168152602001908152602001600020819055506000808860001916600019168152602001908152602001600020600090558360028481548110151561620757fe5b90600052602060002090600702016004018160001916905550600360009054906101000a900473ffffffffffffffffffffffffffffffffffffffff1673ffffffffffffffffffffffffffffffffffffffff166303c680e93389886040518463ffffffff167c0100000000000000000000000000000000000000000000000000000000028152600401808473ffffffffffffffffffffffffffffffffffffffff1673ffffffffffffffffffffffffffffffffffffffff168152602001836000191660001916815260200182600019166000191681526020019350505050600060405180830381600087803b1580156162fd57600080fd5b505af1158015616311573d6000803e3d6000fd5b505050503373ffffffffffffffffffffffffffffffffffffffff167f3f7c5904943ad21b9256174ea1f6c00b1785c4a181ffe526f8bba2ac0ad2a06d60405160405180910390a250505050505050565b6000836000600102600019168160001916141515156163e8576040517f08c379a000000000000000000000000000000000000000000000000000000000815260040180806020018281038252600e8152602001807f416c69617320697320656d70747900000000000000000000000000000000000081525060200191505060405180910390fd5b8360006001026000191681600019161415151561646d576040517f08c379a000000000000000000000000000000000000000000000000000000000815260040180806020018281038252600c8152602001807f54616720697320656d707479000000000000000000000000000000000000000081525060200191505060405180910390fd5b85856000151561647c83610efe565b15151480156164985750600015156164948383615212565b1515145b151561650c576040517f08c379a000000000000000000000000000000000000000000000000000000000815260040180806020018281038252601a8152602001807f416c696173206f722074616720646f65736e277420657869737400000000000081525060200191505060405180910390fd5b876001151560016000836000191660001916815260200190815260200160002060009054906101000a900460ff1615151415156165b1576040517f08c379a00000000000000000000000000000000000000000000000000000000081526004018080602001828103825260138152602001807f416c69617320646f65736e27742065786973740000000000000000000000000081525060200191505060405180910390fd5b60026000808360001916600019168152602001908152602001600020548154811015156165da57fe5b906000526020600020906007020160060160009054906101000a900473ffffffffffffffffffffffffffffffffffffffff1673ffffffffffffffffffffffffffffffffffffffff163373ffffffffffffffffffffffffffffffffffffffff161415156166d4576040517f08c379a00000000000000000000000000000000000000000000000000000000081526004018080602001828103825260278152602001807f4f6e6c7920616c696173206f776e65722063616e2063616c6c2074686973206681526020017f756e6374696f6e0000000000000000000000000000000000000000000000000081525060400191505060405180910390fd5b60026000808b60001916600019168152602001908152602001600020548154811015156166fd57fe5b90600052602060002090600702016000019550856001018660000160008a600019166000191681526020019081526020016000205481548110151561673e57fe5b906000526020600020906007020160000173__TNSTag________________________________63ba4d35d79091896040518363ffffffff167c010000000000000000000000000000000000000000000000000000000002815260040180838152602001821515151581526020019250505060006040518083038186803b1580156167c757600080fd5b505af41580156167db573d6000803e3d6000fd5b50505050505050505050505050565b60006167f58261687b565b1561683c57600260008084600019166000191681526020019081526020016000205481548110151561682357fe5b9060005260206000209060070201600401549050616844565b600060010290505b919050565b600080151561685784610efe565b151514801561687357506000151561686f8484615212565b1515145b905092915050565b600080151561688983610efe565b1515149050919050565b600080600080600060018060008c6000191660001916815260200190815260200160002060006101000a81548160ff0219169083151502179055506002805490509450846000808c6000191660001916815260200190815260200160002081905550600280548091906001016169099190616fbc565b5060028581548110151561691957fe5b9060005260206000209060070201935088846004018160001916905550848460050181905550338460060160006101000a81548173ffffffffffffffffffffffffffffffffffffffff021916908373ffffffffffffffffffffffffffffffffffffffff16021790555083600001925060018360030160008a6000191660001916815260200190815260200160002060006101000a81548160ff021916908315150217905550826001018054905091508260010180548091906001016169de9190616f63565b5082600101828154811015156169f057fe5b9060005260206000209060070201905085816000016000820151816000016000820151816000019080519060200190616a2a929190616fee565b5060208201518160010160006101000a81548160ff021916908315150217905550505060208201518160020160008201518160000160006101000a81548173ffffffffffffffffffffffffffffffffffffffff021916908373ffffffffffffffffffffffffffffffffffffffff16021790555060208201518160000160146101000a81548160ff0219169083151502179055506040820151816002019080519060200190616ad9929190617078565b506060820151816003019080519060200190616af6929190617078565b50505090505086816006018160001916905550818360000160008a600019166000191681526020019081526020016000208190555082600201889080600181540180825580915050906001820390600052602060002001600090919290919091509060001916905550600360009054906101000a900473ffffffffffffffffffffffffffffffffffffffff1673ffffffffffffffffffffffffffffffffffffffff1663233a04d3338c6040518363ffffffff167c0100000000000000000000000000000000000000000000000000000000028152600401808373ffffffffffffffffffffffffffffffffffffffff1673ffffffffffffffffffffffffffffffffffffffff168152602001826000191660001916815260200192505050600060405180830381600087803b158015616c2c57600080fd5b505af1158015616c40573d6000803e3d6000fd5b5050505050505050505050505050565b600080616c5b6170cb565b6000808860001916600019168152602001908152602001600020549250600283815481101515616c8757fe5b906000526020600020906007020160000191506001826003016000886000191660001916815260200190815260200160002060006101000a81548160ff02191690831515021790555060408051908101604052808581526020018660001916815250905081600101805490508260000160008860001916600019168152602001908152602001600020819055508160010181908060018154018082558091505090600182039060005260206000209060070201600090919290919091506000820151816000016000820151816000016000820151816000019080519060200190616d72929190616fee565b5060208201518160010160006101000a81548160ff021916908315150217905550505060208201518160020160008201518160000160006101000a81548173ffffffffffffffffffffffffffffffffffffffff021916908373ffffffffffffffffffffffffffffffffffffffff16021790555060208201518160000160146101000a81548160ff0219169083151502179055506040820151816002019080519060200190616e21929190617078565b506060820151816003019080519060200190616e3e929190617078565b5050505050602082015181600601906000191690555050508160020186908060018154018082558091505090600182039060005260206000200160009091929091909150906000191690555050505050505050565b815481835581811115616eba57818360005260206000209182019101616eb991906170ef565b5b505050565b828054828255906000526020600020908101928215616f005760005260206000209182015b82811115616eff578254825591600101919060010190616ee4565b5b509050616f0d9190617114565b5090565b828054828255906000526020600020908101928215616f525760005260206000209182015b82811115616f51578254825591600101919060010190616f36565b5b509050616f5f91906170ef565b5090565b815481835581811115616f9057600702816007028360005260206000209182019101616f8f9190617157565b5b505050565b60c060405190810160405280616fa9617212565b8152602001616fb661722e565b81525090565b815481835581811115616fe957600702816007028360005260206000209182019101616fe8919061726f565b5b505050565b828054828255906000526020600020908101928215617067579160200282015b828111156170665782518260006101000a81548173ffffffffffffffffffffffffffffffffffffffff021916908373ffffffffffffffffffffffffffffffffffffffff1602179055509160200191906001019061700e565b5b5090506170749190617114565b5090565b8280548282559060005260206000209081019282156170ba579160200282015b828111156170b9578251829060001916905591602001919060010190617098565b5b5090506170c791906170ef565b5090565b60e0604051908101604052806170df6172ed565b8152602001600080191681525090565b61711191905b8082111561710d5760008160009055506001016170f5565b5090565b90565b61715491905b8082111561715057600081816101000a81549073ffffffffffffffffffffffffffffffffffffffff02191690555060010161711a565b5090565b90565b61720f91905b8082111561720b5760008082016000808201600080820160006171809190617314565b6001820160006101000a81549060ff0219169055505060028201600080820160006101000a81549073ffffffffffffffffffffffffffffffffffffffff02191690556000820160146101000a81549060ff02191690556002820160006171e69190617335565b6003820160006171f69190617335565b5050505060068201600090555060070161715d565b5090565b90565b6040805190810160405280606081526020016000151581525090565b608060405190810160405280600073ffffffffffffffffffffffffffffffffffffffff16815260200160001515815260200160608152602001606081525090565b6172ea91905b808211156172e657600080820160006001820160006172949190617356565b6002820160006172a49190617335565b5050600482016000905560058201600090556006820160006101000a81549073ffffffffffffffffffffffffffffffffffffffff021916905550600701617275565b5090565b90565b60c060405190810160405280617301617212565b815260200161730e61722e565b81525090565b5080546000825590600052602060002090810190617332919061737a565b50565b508054600082559060005260206000209081019061735391906170ef565b50565b50805460008255600702906000526020600020908101906173779190617157565b50565b61739c91905b80821115617398576000816000905550600101617380565b5090565b905600496e206f7264657220746f20756e736574207075626c696320616464726573732c206175746f2d67656e65726174656420616464726573736573206f7074696f6e206d757374206265206f6e20616e64206861766520726f746174696e67206164647265737365732e204f6e6c79206f6e65206f7074696f6e2063616e206265206f6e20617420616e7920676976656e2074696d652ea165627a7a72305820f52cd9f50ae34ea25040e376fe75e0e303ae30d15b67bd0381e4946165267cd20029608060405234801561001057600080fd5b50610406806100206000396000f300608060405260043610610057576000357c0100000000000000000000000000000000000000000000000000000000900463ffffffff16806303c680e91461005c578063233a04d3146100bb5780635aac68221461010c575b600080fd5b34801561006857600080fd5b506100b9600480360381019080803573ffffffffffffffffffffffffffffffffffffffff169060200190929190803560001916906020019092919080356000191690602001909291905050506101a4565b005b3480156100c757600080fd5b5061010a600480360381019080803573ffffffffffffffffffffffffffffffffffffffff16906020019092919080356000191690602001909291905050506102ce565b005b34801561011857600080fd5b5061014d600480360381019080803573ffffffffffffffffffffffffffffffffffffffff169060200190929190505050610340565b6040518080602001828103825283818151815260200191508051906020019060200280838360005b83811015610190578082015181840152602081019050610175565b505050509050019250505060405180910390f35b60008090505b6000808573ffffffffffffffffffffffffffffffffffffffff1673ffffffffffffffffffffffffffffffffffffffff168152602001908152602001600020805490508110156102c85782600019166000808673ffffffffffffffffffffffffffffffffffffffff1673ffffffffffffffffffffffffffffffffffffffff1681526020019081526020016000208281548110151561024357fe5b90600052602060002001546000191614156102bb57816000808673ffffffffffffffffffffffffffffffffffffffff1673ffffffffffffffffffffffffffffffffffffffff168152602001908152602001600020828154811015156102a457fe5b9060005260206000200181600019169055506102c8565b80806001019150506101aa565b50505050565b6000808373ffffffffffffffffffffffffffffffffffffffff1673ffffffffffffffffffffffffffffffffffffffff1681526020019081526020016000208190806001815401808255809150509060018203906000526020600020016000909192909190915090600019169055505050565b60606000808373ffffffffffffffffffffffffffffffffffffffff1673ffffffffffffffffffffffffffffffffffffffff1681526020019081526020016000208054806020026020016040519081016040528092919081815260200182805480156103ce57602002820191906000526020600020905b815460001916815260200190600101908083116103b6575b505050505090509190505600a165627a7a723058209c74aefde948058e2215ad568bb0f1f4c662f226f9818ce321a8a3b13c9d44d00029",
  "source": "pragma solidity ^0.4.23;\n\nimport {TNSTag} from \"./TNSTag.sol\";\nimport {TNSOwnerReverse} from \"./TNSOwnerReverse.sol\";\n\ncontract TNS{\n    using TNSTag for TNSTag.TNSTagData;\n    struct TagWrapStruct{\n        TNSTag.TNSTagData tnsTagData;\n        bytes32 encryptedTag;\n    }\n    /* We make sure the index tagIdxMap resolves to is the same for both\n    tagList and keccakTagsList */\n    struct TagData{\n        mapping (bytes32 => uint) tagIdxMap;\n        TagWrapStruct[] tagList;\n        bytes32[] keccakTagsList;\n        mapping (bytes32 => bool) tagExistMap;\n    }\n    struct AliasWrapStruct{\n        TagData tagData;\n        bytes32 encryptedAlias;\n        uint aliasIdx;\n        address aliasOwner;\n    }\n    mapping (bytes32 => uint) aliasIdxMap;\n    mapping (bytes32 => bool) aliasExistMap;\n    AliasWrapStruct[] aliasList;\n\n    TNSOwnerReverse tnsOwnerReverse;\n\n    bytes32 defaultAddress = 0xcfee7c08a98f4b565d124c7e4e28acc52e1bc780e3887db0a02a7d2d5bc66728;\n    \n    //modifiers\n    modifier isOwner(bytes32 aliasName){\n        require(aliasExistMap[aliasName] == true, \"Alias doesn't exist\");\n        require(msg.sender == aliasList[aliasIdxMap[aliasName]].aliasOwner, \"Only alias owner can call this function\");\n        _;\n    }\n    modifier aliasTagExist(bytes32 aliasName, bytes32 tagName){\n        require(isAliasAvailable(aliasName) == false && isTagAvailable(aliasName,tagName) == false,\n            \"Alias or tag doesn't exist\");\n        _;\n    }\n    modifier aliasExist(bytes32 aliasName){\n        require(isAliasAvailable(aliasName) == false, \"Alias doesn't exist!\");\n        _;\n    }\n    modifier tagExist(bytes32 aliasName, bytes32 tagName){\n        require(isTagAvailable(aliasName, tagName) == false, \"Tag doesn't exist for alias!\");\n        _;\n    }\n    modifier aliasEmpty(bytes32 alias){\n        require(alias != bytes32(0), \"Alias is empty\");\n        _;\n    }\n    modifier tagEmpty(bytes32 tag){\n        require(tag != bytes32(0), \"Tag is empty\");\n        _;\n    }\n    event StateUpdated(address indexed _from);\n    event StateAliasUpdated(address indexed _from, bytes32 _alias); //fetch update for specific alias\n\n    constructor() public{\n        tnsOwnerReverse = new TNSOwnerReverse();\n    }\n\n    function addNewAlias(bytes32 aliasName, bytes32 encryptedAlias, bytes32 tagName,\n        bytes32 encryptedTag, TNSTag.TNSTagData tns_tag) private{\n\n        aliasExistMap[aliasName] = true;\n        uint alias_idx = aliasList.length;\n        aliasIdxMap[aliasName] = alias_idx;\n        aliasList.length++;\n        AliasWrapStruct storage alias_wrap_data = aliasList[alias_idx];\n        alias_wrap_data.encryptedAlias = encryptedAlias;\n        alias_wrap_data.aliasIdx = alias_idx;\n        alias_wrap_data.aliasOwner = msg.sender;\n        \n\n        TagData storage storage_tag_data = alias_wrap_data.tagData;\n        storage_tag_data.tagExistMap[tagName] = true;\n        uint tag_idx = storage_tag_data.tagList.length;\n        storage_tag_data.tagList.length++;\n\n        TagWrapStruct storage tag_wrapper = storage_tag_data.tagList[tag_idx];\n        tag_wrapper.tnsTagData = tns_tag;\n        tag_wrapper.encryptedTag = encryptedTag;\n        storage_tag_data.tagIdxMap[tagName] = tag_idx;\n        storage_tag_data.keccakTagsList.push(tagName);\n\n        //reverse mapping\n        tnsOwnerReverse.addOwnerAddress(msg.sender, aliasName);\n    }\n\n    function addNewTag(bytes32 aliasName, bytes32 tagName, bytes32 encryptedTag,\n        TNSTag.TNSTagData tns_tag) private{\n\n        uint alias_idx = aliasIdxMap[aliasName];\n        TagData storage storage_tag_data = aliasList[alias_idx].tagData;\n        storage_tag_data.tagExistMap[tagName] = true;\n        TagWrapStruct memory tag_wrapper = TagWrapStruct({\n            tnsTagData: tns_tag,\n            encryptedTag: encryptedTag\n        });\n        storage_tag_data.tagIdxMap[tagName] = storage_tag_data.tagList.length;\n        storage_tag_data.tagList.push(tag_wrapper);\n        storage_tag_data.keccakTagsList.push(tagName);\n    }\n\n    //tagName would be address of \"default\" or actual tag name\n    function setAliasStatic(bytes32 aliasName, bytes32 encryptedAlias, bytes32 tagName,\n        bytes32 encryptedTag, address pubAddress) public aliasEmpty(aliasName) tagEmpty(tagName){\n\n        require(pubAddress != 0x0, \"pubAddress is empty\");\n        \n        TNSTag.TNSTagData memory tns_tag;\n        tns_tag.tagMetaDataStruct.pubAddress = pubAddress;\n\n\n        if (isAliasAvailable(aliasName)){\n            addNewAlias(aliasName, encryptedAlias, tagName, encryptedTag, tns_tag);\n        }else if (aliasList[aliasIdxMap[aliasName]].aliasOwner == msg.sender){\n            //alias exists but we are trying to add a tag\n            require(isTagAvailable(aliasName, tagName), \"Tag already exists\");\n            addNewTag(aliasName, tagName, encryptedTag, tns_tag);\n        }else{\n            revert(\"Alias is already taken\");\n        }\n        emit StateAliasUpdated(msg.sender, aliasName);\n    }\n\n    /*If generating new address you wont have default public address for a tag*/\n    function setAliasGenerated(bytes32 aliasName, bytes32 encryptedAlias, bytes32 tagName,\n        bytes32 encryptedTag, address[] genAddressList) public aliasEmpty(aliasName) tagEmpty(tagName){\n\n        require(genAddressList.length > 0, \"genAddressList is empty\");\n\n        TNSTag.TNSTagData memory tns_tag;\n        tns_tag.genAddressStruct.generateAddress = true;\n        tns_tag.genAddressStruct.genAddressList = genAddressList; \n\n        if (isAliasAvailable(aliasName)){\n            addNewAlias(aliasName, encryptedAlias, tagName, encryptedTag, tns_tag);\n        }else if (aliasList[aliasIdxMap[aliasName]].aliasOwner == msg.sender){\n            require(isTagAvailable(aliasName, tagName), \"Tag already exists\");\n            addNewTag(aliasName, tagName, encryptedTag, tns_tag);\n        }else{\n            revert(\"Alias is already taken\");\n        }\n       emit StateAliasUpdated(msg.sender, aliasName);\n    }\n\n    //Entire alias & its corresponding tags cannot be deleted but can only be updated\n    function deleteAliasTag(bytes32 aliasName, bytes32 tagName) public aliasEmpty(aliasName) tagEmpty(tagName)\n        aliasTagExist(aliasName, tagName) isOwner(aliasName){\n\n        TagData storage storage_tag_data = aliasList[aliasIdxMap[aliasName]].tagData;\n\n        delete storage_tag_data.tagExistMap[tagName];\n\n        uint curr_tag_idx = storage_tag_data.tagIdxMap[tagName];\n        uint tag_last_idx = storage_tag_data.tagList.length - 1;\n\n        storage_tag_data.keccakTagsList[curr_tag_idx] = storage_tag_data.keccakTagsList[tag_last_idx];\n        storage_tag_data.tagIdxMap[storage_tag_data.keccakTagsList[tag_last_idx]] = curr_tag_idx;\n        storage_tag_data.keccakTagsList.length--;\n       \n        storage_tag_data.tagList[curr_tag_idx] = storage_tag_data.tagList[tag_last_idx];\n        storage_tag_data.tagList.length--;\n\n        delete storage_tag_data.tagIdxMap[tagName];\n\n        emit StateAliasUpdated(msg.sender, aliasName);\n    }\n\n    function updateAlias(bytes32 aliasName, bytes32 oldEncryptedAlias, bytes32 newAliasName,\n        bytes32 newEncryptedAlias) public aliasEmpty(aliasName) isOwner(aliasName){\n\n        require(newAliasName != bytes32(0), \"New Alias is empty\");\n        require(isAliasAvailable(newAliasName), \"Alias is already taken\");\n\n        delete aliasExistMap[aliasName];\n        aliasExistMap[newAliasName] = true;\n        uint alias_idx = aliasIdxMap[aliasName];\n        aliasIdxMap[newAliasName] = alias_idx;\n        delete aliasIdxMap[aliasName];\n\n        aliasList[alias_idx].encryptedAlias = newEncryptedAlias;\n\n        tnsOwnerReverse.updateAlias(msg.sender, aliasName, newAliasName);\n\n        emit StateUpdated(msg.sender);\n    }\n\n    function updateTag(bytes32 aliasName, bytes32 tagName, bytes32 oldEncryptedTag,\n        bytes32 newTagName, bytes32 newEncryptedTag) public aliasEmpty(aliasName) tagEmpty(tagName) \n            aliasTagExist(aliasName, tagName) isOwner(aliasName){\n\n        require(newTagName != bytes32(0), \"New tag is empty\");\n        require(isTagAvailable(aliasName, newTagName), \"Tag already exists\");\n\n        TagData storage storage_tag_data = aliasList[aliasIdxMap[aliasName]].tagData;\n        delete storage_tag_data.tagExistMap[tagName];\n        storage_tag_data.tagExistMap[newTagName] = true;\n\n        uint tag_idx = storage_tag_data.tagIdxMap[tagName];\n        storage_tag_data.tagList[tag_idx].encryptedTag = newEncryptedTag;\n\n        storage_tag_data.keccakTagsList[tag_idx] = newTagName;\n        storage_tag_data.tagIdxMap[newTagName] = tag_idx;\n        delete storage_tag_data.tagIdxMap[tagName];\n\n        emit StateUpdated(msg.sender);\n    }\n\n    function updatePubAddressForTag(bytes32 aliasName, bytes32 tagName,\n        address newPubAddress) public aliasEmpty(aliasName) tagEmpty(tagName)\n        aliasTagExist(aliasName, tagName) isOwner(aliasName){\n\n        TagData storage storage_tag_data = aliasList[aliasIdxMap[aliasName]].tagData;\n        uint tag_struct_idx = storage_tag_data.tagIdxMap[tagName];\n\n        if (newPubAddress == 0x0){\n            if (storage_tag_data.tagList[tag_struct_idx].tnsTagData.getGenAddressFlag() == false){\n                revert(\"In order to unset public address, auto-generated addresses option must be on and have rotating addresses. Only one option can be on at any given time.\");\n            }\n        }\n        storage_tag_data.tagList[tag_struct_idx].tnsTagData.setPubAddress(newPubAddress);\n        emit StateAliasUpdated(msg.sender, aliasName);\n    }\n\n    function updateGenAddressFlag(bytes32 aliasName, bytes32 tagName, bool genFlag) public aliasEmpty(aliasName) tagEmpty(tagName)\n        aliasTagExist(aliasName, tagName) isOwner(aliasName){\n        \n        TagData storage storage_tag_data = aliasList[aliasIdxMap[aliasName]].tagData;\n        uint tag_struct_idx = storage_tag_data.tagIdxMap[tagName];\n        storage_tag_data.tagList[tag_struct_idx].tnsTagData.setGenAddressFlag(genFlag);\n        emit StateAliasUpdated(msg.sender, aliasName);\n    }\n\n    function updateGenAddressListReplace(bytes32 aliasName, bytes32 tagName,\n        address[] addressList) public aliasEmpty(aliasName) tagEmpty(tagName) aliasTagExist(aliasName, tagName) isOwner(aliasName){\n\n        TagData storage storage_tag_data = aliasList[aliasIdxMap[aliasName]].tagData;\n        uint tag_struct_idx = storage_tag_data.tagIdxMap[tagName];\n        storage_tag_data.tagList[tag_struct_idx].tnsTagData.setGenAddressList(addressList);\n        emit StateAliasUpdated(msg.sender, aliasName);\n    }\n\n    function updateGenAddressListAppend(bytes32 aliasName, bytes32 tagName,\n        address newAddress) public aliasEmpty(aliasName) tagEmpty(tagName) aliasTagExist(aliasName, tagName) isOwner(aliasName){\n\n        TagData storage storage_tag_data = aliasList[aliasIdxMap[aliasName]].tagData;\n        uint tag_struct_idx = storage_tag_data.tagIdxMap[tagName];\n\n        uint num_elems =  storage_tag_data.tagList[tag_struct_idx].tnsTagData.getGenAddressListLen();\n        require(num_elems < 20, \"You can only store up to 20 addresses in order to obey gas limit.\");\n        storage_tag_data.tagList[tag_struct_idx].tnsTagData.appendGenAddressList(newAddress);\n        emit StateAliasUpdated(msg.sender, aliasName);\n    }\n\n    function updateGenAddressListDelete(bytes32 aliasName, bytes32 tagName, uint idxToRemove) public\n        aliasEmpty(aliasName) tagEmpty(tagName) aliasTagExist(aliasName, tagName) isOwner(aliasName){\n\n        TagData storage storage_tag_data = aliasList[aliasIdxMap[aliasName]].tagData;\n        uint tag_struct_idx = storage_tag_data.tagIdxMap[tagName];\n\n        storage_tag_data.tagList[tag_struct_idx].tnsTagData.deleteFromGenAddressList(idxToRemove);\n        emit StateAliasUpdated(msg.sender, aliasName);\n    }\n\n    function updateTagIsSecret(bytes32 aliasName, bytes32 tagName, bool isSecret)  aliasEmpty(aliasName) tagEmpty(tagName)\n        aliasTagExist(aliasName, tagName) isOwner(aliasName) public{\n        TagData storage storage_tag_data = aliasList[aliasIdxMap[aliasName]].tagData;\n        storage_tag_data.tagList[storage_tag_data.tagIdxMap[tagName]].tnsTagData.setIsSecret(isSecret);\n    }\n\n    function updateTagSecretUserList(bytes32 aliasName, bytes32 tagName, bytes32[] keccakUsers,\n        bytes32[] encUsers)  aliasEmpty(aliasName) tagEmpty(tagName) aliasTagExist(aliasName, tagName) isOwner(aliasName) public{\n\n        TagData storage storage_tag_data = aliasList[aliasIdxMap[aliasName]].tagData;\n        storage_tag_data.tagList[storage_tag_data.tagIdxMap[tagName]].tnsTagData.setSecretUserList(keccakUsers,encUsers);\n    }\n\n    function updateTagSecretUserListAppend(bytes32 aliasName, bytes32 tagName, bytes32 keccakUser,\n        bytes32[] encUser)  aliasEmpty(aliasName) tagEmpty(tagName) aliasTagExist(aliasName, tagName) isOwner(aliasName) public{\n\n        TagData storage storage_tag_data = aliasList[aliasIdxMap[aliasName]].tagData;\n        storage_tag_data.tagList[storage_tag_data.tagIdxMap[tagName]].tnsTagData.appendSecretUser(keccakUser,encUser);\n    }\n\n    function updateTagSecretUserDelete(bytes32 aliasName, bytes32 tagName, bytes32 keccakUser,\n        uint idxToRemove)  aliasEmpty(aliasName) tagEmpty(tagName) aliasTagExist(aliasName, tagName) isOwner(aliasName) public{\n\n        TagData storage storage_tag_data = aliasList[aliasIdxMap[aliasName]].tagData;\n        storage_tag_data.tagList[storage_tag_data.tagIdxMap[tagName]].tnsTagData.deleteSecretUser(keccakUser,idxToRemove);\n    }\n\n    //work around instead of using modifiers since there's a bug in tronWeb that disallows require calls in view functions\n    function doesAliasTagExist(bytes32 aliasName, bytes32 tagName) private view returns(bool){\n        return isAliasAvailable(aliasName) == false && isTagAvailable(aliasName,tagName) == false;\n    }\n\n    function doesAliasExist(bytes32 aliasName) private view returns(bool){\n        return isAliasAvailable(aliasName) == false;\n    }\n\n    //GETTERS\n\n    function getGenAddressList(bytes32 aliasName, bytes32 tagName) //aliasTagExist(aliasName,tagName)\n        public view returns(address[]){\n\n        if (doesAliasTagExist(aliasName,tagName)){\n             TagData storage storage_tag_data = aliasList[aliasIdxMap[aliasName]].tagData;\n            return storage_tag_data.tagList[storage_tag_data.tagIdxMap[tagName]].tnsTagData.getGenAddressList();\n        }else{\n            address[] memory empty_array = new address[](0);\n            return empty_array;\n        }\n    }\n\n    function getGenAddressListLen(bytes32 aliasName, bytes32 tagName) //aliasTagExist(aliasName,tagName)\n        public view returns(uint){\n        if (doesAliasTagExist(aliasName,tagName)){\n            TagData storage storage_tag_data = aliasList[aliasIdxMap[aliasName]].tagData;\n            return storage_tag_data.tagList[storage_tag_data.tagIdxMap[tagName]].tnsTagData.getGenAddressListLen();\n        }else{\n            return 0;\n        }\n    }\n\n    function getPubAddressForTag(bytes32 aliasName, bytes32 tagName) //aliasTagExist(aliasName,tagName)\n        public view returns(address){\n        if (doesAliasTagExist(aliasName,tagName)){\n            TagData storage storage_tag_data = aliasList[aliasIdxMap[aliasName]].tagData;\n            return storage_tag_data.tagList[storage_tag_data.tagIdxMap[tagName]].tnsTagData.getPubAddress();\n        }else{\n            return address(0);\n        }\n    }\n\n    function getGenAddressForTag(bytes32 aliasName, bytes32 tagName, uint idx) //aliasTagExist(aliasName,tagName)\n        public view returns(address){\n        if (doesAliasTagExist(aliasName,tagName)){\n            TagData storage storage_tag_data = aliasList[aliasIdxMap[aliasName]].tagData;\n            return storage_tag_data.tagList[storage_tag_data.tagIdxMap[tagName]].tnsTagData.useNextGenAddress(idx);\n        }else{\n            return address(0);\n        }\n    }\n\n    function getGenAddressFlag(bytes32 aliasName, bytes32 tagName) //aliasTagExist(aliasName,tagName)\n        public view returns(bool){\n        if (doesAliasTagExist(aliasName,tagName)){\n            TagData storage storage_tag_data = aliasList[aliasIdxMap[aliasName]].tagData;\n            return storage_tag_data.tagList[storage_tag_data.tagIdxMap[tagName]].tnsTagData.getGenAddressFlag();\n        }else {\n            return false;\n        }\n    }\n\n    function isAliasAvailable(bytes32 aliasName) public view returns(bool){\n        if (aliasExistMap[aliasName] == false){\n            return true;\n        }\n        return false;\n    }\n    function isTagAvailable(bytes32 aliasName, bytes32 tagName) public view returns(bool){\n        if (aliasExistMap[aliasName] == true){\n            if (aliasList[aliasIdxMap[aliasName]].tagData.tagExistMap[tagName] == true){\n                return false;\n            }\n        }\n        return true;\n    }\n    function getAllTagsForAlias(bytes32 aliasName) /*aliasExist(aliasName)*/ public view returns(bytes32[]){\n        if (doesAliasExist(aliasName)){\n            return aliasList[aliasIdxMap[aliasName]].tagData.keccakTagsList;\n        }else{\n            bytes32[] memory empty_array = new bytes32[](0);\n            return empty_array;\n        }\n    }\n    function getAliasesForOwner(address ownerAddress) public view returns(bytes32[]){\n        return tnsOwnerReverse.getAllAliasesForOwner(ownerAddress);\n    }\n    function getEncryptedAliasForKeccak(bytes32 aliasName) /*aliasExist(aliasName)*/ public view returns(bytes32){\n        if (doesAliasExist(aliasName)){\n            return aliasList[aliasIdxMap[aliasName]].encryptedAlias;\n        }else{\n            return 0x0;\n        }\n    }\n    function getEncryptedTagForKeccak(bytes32 aliasName, bytes32 tagName) /*aliasTagExist(aliasName, tagName)*/\n        public view returns(bytes32){\n        if (doesAliasTagExist(aliasName,tagName)){\n            TagData storage storage_tag_data = aliasList[aliasIdxMap[aliasName]].tagData;\n            return storage_tag_data.tagList[storage_tag_data.tagIdxMap[tagName]].encryptedTag;\n        }else{\n            return 0x0;\n        }\n    }\n\n    function getAliasOwner(bytes32 aliasName) /*aliasExist(aliasName)*/ public view returns(address){\n        if (doesAliasExist(aliasName)){\n            return aliasList[aliasIdxMap[aliasName]].aliasOwner;\n        }else{\n            return address(0);\n        }\n    }\n\n    function getTagDataForTag(bytes32 aliasName, bytes32 tagName) public view\n        returns(bool,bool,address[],bytes32[],address){\n\n        address[] memory gen_list = getGenAddressList(aliasName, tagName);\n        bytes32[] memory enc_secret_users = getSecretUserList(aliasName, tagName);\n        address pub_address = getPubAddressForTag(aliasName, tagName);\n        bool gen_flag = getGenAddressFlag(aliasName, tagName);\n        bool is_tag_secret = getIsTagSecret(aliasName, tagName);\n        return (gen_flag, is_tag_secret, gen_list, enc_secret_users, pub_address);\n    }\n\n    function isSecretUser(bytes32 aliasName, bytes32 tagName, bytes32 keccakUser) /*aliasTagExist(aliasName,tagName)*/ public view returns(bool){\n        if (doesAliasTagExist(aliasName,tagName)){\n            TagData storage storage_tag_data = aliasList[aliasIdxMap[aliasName]].tagData;\n            return storage_tag_data.tagList[storage_tag_data.tagIdxMap[tagName]].tnsTagData.secretUserExists(keccakUser);\n        }else{\n            return false;\n        }\n    }\n\n    function getSecretUserList(bytes32 aliasName, bytes32 tagName) //aliasTagExist(aliasName,tagName)\n        public view returns(bytes32[]){ \n        if (doesAliasTagExist(aliasName,tagName)){\n            TagData storage storage_tag_data = aliasList[aliasIdxMap[aliasName]].tagData;\n            return storage_tag_data.tagList[storage_tag_data.tagIdxMap[tagName]].tnsTagData.getSecretUserList();\n        }else{\n            bytes32[] memory empty_array = new bytes32[](0);\n            return empty_array;\n        }\n    }\n\n    function getIsTagSecret(bytes32 aliasName, bytes32 tagName) //aliasTagExist(aliasName,tagName)\n        public view returns(bool){\n        if (doesAliasTagExist(aliasName,tagName)){\n            TagData storage storage_tag_data = aliasList[aliasIdxMap[aliasName]].tagData;\n            return storage_tag_data.tagList[storage_tag_data.tagIdxMap[tagName]].tnsTagData.getIsSecret();\n        }else{\n            return false;\n        }\n    }\n\n}\n",
  "sourcePath": "/Users/gurkisingh/TronProjects/TronNameService/contracts/TNS.sol",
  "compiler": {
    "name": "solc",
    "version": "0.4.24-develop.2018.8.28+commit.3ba0cdec.mod.Emscripten.clang"
  },
  "schemaVersion": "2.0.1",
  "updatedAt": "2019-01-05T02:28:59.594Z"
}