{
  "contractName": "TNSOwnerReverse",
  "abi": [
    {
      "constant": false,
      "inputs": [
        {
          "name": "aliasOwner",
          "type": "address"
        },
        {
          "name": "alias",
          "type": "bytes32"
        }
      ],
      "name": "addOwnerAddress",
      "outputs": [],
      "payable": false,
      "stateMutability": "nonpayable",
      "type": "function"
    },
    {
      "constant": true,
      "inputs": [
        {
          "name": "aliasOwner",
          "type": "address"
        }
      ],
      "name": "getAllAliasesForOwner",
      "outputs": [
        {
          "name": "",
          "type": "bytes32[]"
        }
      ],
      "payable": false,
      "stateMutability": "view",
      "type": "function"
    },
    {
      "constant": false,
      "inputs": [
        {
          "name": "aliasOwner",
          "type": "address"
        },
        {
          "name": "oldAlias",
          "type": "bytes32"
        },
        {
          "name": "newAlias",
          "type": "bytes32"
        }
      ],
      "name": "updateAlias",
      "outputs": [],
      "payable": false,
      "stateMutability": "nonpayable",
      "type": "function"
    }
  ],
  "bytecode": "0x608060405234801561001057600080fd5b50610406806100206000396000f300608060405260043610610057576000357c0100000000000000000000000000000000000000000000000000000000900463ffffffff16806303c680e91461005c578063233a04d3146100bb5780635aac68221461010c575b600080fd5b34801561006857600080fd5b506100b9600480360381019080803573ffffffffffffffffffffffffffffffffffffffff169060200190929190803560001916906020019092919080356000191690602001909291905050506101a4565b005b3480156100c757600080fd5b5061010a600480360381019080803573ffffffffffffffffffffffffffffffffffffffff16906020019092919080356000191690602001909291905050506102ce565b005b34801561011857600080fd5b5061014d600480360381019080803573ffffffffffffffffffffffffffffffffffffffff169060200190929190505050610340565b6040518080602001828103825283818151815260200191508051906020019060200280838360005b83811015610190578082015181840152602081019050610175565b505050509050019250505060405180910390f35b60008090505b6000808573ffffffffffffffffffffffffffffffffffffffff1673ffffffffffffffffffffffffffffffffffffffff168152602001908152602001600020805490508110156102c85782600019166000808673ffffffffffffffffffffffffffffffffffffffff1673ffffffffffffffffffffffffffffffffffffffff1681526020019081526020016000208281548110151561024357fe5b90600052602060002001546000191614156102bb57816000808673ffffffffffffffffffffffffffffffffffffffff1673ffffffffffffffffffffffffffffffffffffffff168152602001908152602001600020828154811015156102a457fe5b9060005260206000200181600019169055506102c8565b80806001019150506101aa565b50505050565b6000808373ffffffffffffffffffffffffffffffffffffffff1673ffffffffffffffffffffffffffffffffffffffff1681526020019081526020016000208190806001815401808255809150509060018203906000526020600020016000909192909190915090600019169055505050565b60606000808373ffffffffffffffffffffffffffffffffffffffff1673ffffffffffffffffffffffffffffffffffffffff1681526020019081526020016000208054806020026020016040519081016040528092919081815260200182805480156103ce57602002820191906000526020600020905b815460001916815260200190600101908083116103b6575b505050505090509190505600a165627a7a723058209c74aefde948058e2215ad568bb0f1f4c662f226f9818ce321a8a3b13c9d44d00029",
  "source": "pragma solidity ^0.4.23;\n\ncontract TNSOwnerReverse{\n    mapping (address=>bytes32[]) ownerAliasList;\n\n    function addOwnerAddress(address aliasOwner, bytes32 alias) public{\n        ownerAliasList[aliasOwner].push(alias);\n    }\n\n    function getAllAliasesForOwner(address aliasOwner) public view returns(bytes32[]){\n        return ownerAliasList[aliasOwner];\n    }\n\n    function updateAlias(address aliasOwner, bytes32 oldAlias, bytes32 newAlias) public{\n        for(uint i = 0; i < ownerAliasList[aliasOwner].length; i++){\n            if (ownerAliasList[aliasOwner][i] == oldAlias){\n                ownerAliasList[aliasOwner][i] = newAlias;\n                break;\n            }\n        }\n    }\n    \n}",
  "sourcePath": "/Users/gurkisingh/TronProjects/TronNameService/contracts/TNSOwnerReverse.sol",
  "compiler": {
    "name": "solc",
    "version": "0.4.24-develop.2018.8.28+commit.3ba0cdec.mod.Emscripten.clang"
  },
  "schemaVersion": "2.0.1",
  "updatedAt": "2018-12-07T11:16:24.588Z"
}