{
  "contractName": "TNSTag",
  "abi": [
    {
      "constant": false,
      "inputs": [
        {
          "name": "data",
          "type": "TNSTag.TNSTagData storage"
        },
        {
          "name": "isExist",
          "type": "bool"
        }
      ],
      "name": "setExist",
      "outputs": [],
      "payable": false,
      "stateMutability": "nonpayable",
      "type": "function"
    },
    {
      "constant": true,
      "inputs": [
        {
          "name": "data",
          "type": "TNSTag.TNSTagData storage"
        }
      ],
      "name": "getExist",
      "outputs": [
        {
          "name": "",
          "type": "bool"
        }
      ],
      "payable": false,
      "stateMutability": "view",
      "type": "function"
    },
    {
      "constant": false,
      "inputs": [
        {
          "name": "data",
          "type": "TNSTag.TNSTagData storage"
        },
        {
          "name": "pubAddress",
          "type": "bytes32"
        }
      ],
      "name": "setPubAddress",
      "outputs": [],
      "payable": false,
      "stateMutability": "nonpayable",
      "type": "function"
    },
    {
      "constant": true,
      "inputs": [
        {
          "name": "data",
          "type": "TNSTag.TNSTagData storage"
        }
      ],
      "name": "getPubAddress",
      "outputs": [
        {
          "name": "",
          "type": "bytes32"
        }
      ],
      "payable": false,
      "stateMutability": "view",
      "type": "function"
    },
    {
      "constant": false,
      "inputs": [
        {
          "name": "data",
          "type": "TNSTag.TNSTagData storage"
        },
        {
          "name": "genFlag",
          "type": "bool"
        }
      ],
      "name": "setGenAddressFlag",
      "outputs": [],
      "payable": false,
      "stateMutability": "nonpayable",
      "type": "function"
    },
    {
      "constant": true,
      "inputs": [
        {
          "name": "data",
          "type": "TNSTag.TNSTagData storage"
        }
      ],
      "name": "getGenAddressFlag",
      "outputs": [
        {
          "name": "",
          "type": "bool"
        }
      ],
      "payable": false,
      "stateMutability": "view",
      "type": "function"
    },
    {
      "constant": false,
      "inputs": [
        {
          "name": "data",
          "type": "TNSTag.TNSTagData storage"
        },
        {
          "name": "genAddress",
          "type": "bytes32"
        }
      ],
      "name": "appendGenAddressList",
      "outputs": [],
      "payable": false,
      "stateMutability": "nonpayable",
      "type": "function"
    },
    {
      "constant": false,
      "inputs": [
        {
          "name": "data",
          "type": "TNSTag.TNSTagData storage"
        },
        {
          "name": "genAddressList",
          "type": "bytes32[]"
        }
      ],
      "name": "setGenAddressList",
      "outputs": [],
      "payable": false,
      "stateMutability": "nonpayable",
      "type": "function"
    },
    {
      "constant": false,
      "inputs": [
        {
          "name": "data",
          "type": "TNSTag.TNSTagData storage"
        },
        {
          "name": "idxToRemove",
          "type": "uint256"
        }
      ],
      "name": "deleteFromGenAddressList",
      "outputs": [],
      "payable": false,
      "stateMutability": "nonpayable",
      "type": "function"
    },
    {
      "constant": true,
      "inputs": [
        {
          "name": "data",
          "type": "TNSTag.TNSTagData storage"
        }
      ],
      "name": "getGenAddressList",
      "outputs": [
        {
          "name": "",
          "type": "bytes32[]"
        }
      ],
      "payable": false,
      "stateMutability": "view",
      "type": "function"
    },
    {
      "constant": true,
      "inputs": [
        {
          "name": "data",
          "type": "TNSTag.TNSTagData storage"
        },
        {
          "name": "listIdx",
          "type": "uint256"
        }
      ],
      "name": "useNextGenAddress",
      "outputs": [
        {
          "name": "",
          "type": "bytes32"
        }
      ],
      "payable": false,
      "stateMutability": "view",
      "type": "function"
    }
  ],
  "bytecode": "0x61081f610030600b82828239805160001a6073146000811461002057610022565bfe5b5030600052607381538281f30073000000000000000000000000000000000000000030146080604052600436106100c6576000357c0100000000000000000000000000000000000000000000000000000000900463ffffffff168063239cf808146100cb57806343f248e4146101045780636696da921461013c578063686774fc146101b15780638077b7ca146101ea5780638181204114610230578063a7551a3e1461026b578063dd2f2b43146102a2578063f9b4b21f14610312578063fb34ccff1461034d578063fc971ba514610389575b600080fd5b8180156100d757600080fd5b50610102600480360381019080803590602001909291908035151590602001909291905050506103c1565b005b610122600480360381019080803590602001909291905050506103e4565b604051808215151515815260200191505060405180910390f35b61015a600480360381019080803590602001909291905050506103ff565b6040518080602001828103825283818151815260200191508051906020019060200280838360005b8381101561019d578082015181840152602081019050610182565b505050509050019250505060405180910390f35b8180156101bd57600080fd5b506101e860048036038101908080359060200190929190803515159060200190929190505050610462565b005b6102126004803603810190808035906020019092919080359060200190929190505050610482565b60405180826000191660001916815260200191505060405180910390f35b81801561023c57600080fd5b506102696004803603810190808035906020019092919080356000191690602001909291905050506104ab565b005b81801561027757600080fd5b506102a060048036038101908080359060200190929190803590602001909291905050506104bf565b005b8180156102ae57600080fd5b5061031060048036038101908080359060200190929190803590602001908201803590602001908080602002602001604051908101604052809392919081815260200183836020028082843782019150505050505091929192905050506106ad565b005b81801561031e57600080fd5b5061034b6004803603810190808035906020019092919080356000191690602001909291905050506106fa565b005b61036b6004803603810190808035906020019092919050505061074c565b60405180826000191660001916815260200191505060405180910390f35b6103a76004803603810190808035906020019092919050505061075d565b604051808215151515815260200191505060405180910390f35b808260000160020160006101000a81548160ff0219169083151502179055505050565b60008160040160009054906101000a900460ff169050919050565b60608160000160000180548060200260200160405190810160405280929190818152602001828054801561045657602002820191906000526020600020905b8154600019168152602001906001019080831161043e575b50505050509050919050565b808260040160006101000a81548160ff0219169083151502179055505050565b6000826000016000018281548110151561049857fe5b9060005260206000200154905092915050565b808260030160000181600019169055505050565b600081101580156104d65750816000016001015481105b151561054a576040517f08c379a00000000000000000000000000000000000000000000000000000000081526004018080602001828103825260168152602001807f496e646578206978206f7574206f6620626f756e64730000000000000000000081525060200191505060405180910390fd5b600082600001600101541115156105ef576040517f08c379a00000000000000000000000000000000000000000000000000000000081526004018080602001828103825260218152602001807f417272617920697320656d7074792c206e6f7468696e6720746f2064656c657481526020017f650000000000000000000000000000000000000000000000000000000000000081525060400191505060405180910390fd5b600182600001600101541115610686578160000160000182600001600101600081546001900391905081905581548110151561062757fe5b9060005260206000200154826000016000018281548110151561064657fe5b90600052602060002001816000191690555081600001600001826000016001015481548110151561067357fe5b90600052602060002001600090556106a9565b816000016000018181548110151561069a57fe5b90600052602060002001600090555b5050565b60018260000160020160006101000a81548160ff021916908315150217905550808260000160000190805190602001906106e892919061077b565b50805182600001600101819055505050565b8160000160010160008154809291906001019190505550816000016000018190806001815401808255809150509060018203906000526020600020016000909192909190915090600019169055505050565b600081600301600001549050919050565b60008160000160020160009054906101000a900460ff169050919050565b8280548282559060005260206000209081019282156107bd579160200282015b828111156107bc57825182906000191690559160200191906001019061079b565b5b5090506107ca91906107ce565b5090565b6107f091905b808211156107ec5760008160009055506001016107d4565b5090565b905600a165627a7a723058203fb8be2368294aafc5bc7782cb9f92ead1e885d7f186c84fc81b61d973c8a04d0029",
  "source": "pragma solidity ^0.4.23;\n\nlibrary TNSTag{\n    struct GenAddress{\n        bytes32[] genAddressList;\n        uint numElements;\n        bool generateAddress;\n    }\n    struct TagMetaData{\n        bytes32 pubAddress;\n        /* TODO:\n        bool isSecret, \n        bytes32[] secretApprovedMembers*/\n    }\n    \n    struct TNSTagData{\n        GenAddress genAddressStruct;\n        TagMetaData tagMetaDataStruct;\n        bool isExist;\n    }\n    \n\n    function setExist(TNSTagData storage data, bool isExist) public{\n        data.isExist = isExist;\n    }\n\n    function getExist(TNSTagData storage data) public view returns(bool){\n        return data.isExist;\n    }\n\n    function setPubAddress(TNSTagData storage data, bytes32 pubAddress) public{\n        data.tagMetaDataStruct.pubAddress = pubAddress;\n    } \n\n    function getPubAddress(TNSTagData storage data) public view returns(bytes32){\n        return data.tagMetaDataStruct.pubAddress;\n    }\n\n    function setGenAddressFlag(TNSTagData storage data, bool genFlag) public{\n        data.genAddressStruct.generateAddress = genFlag;\n    }\n\n    function getGenAddressFlag(TNSTagData storage data) public view returns(bool){\n        return data.genAddressStruct.generateAddress;\n    }\n\n\n    function appendGenAddressList(TNSTagData storage data, bytes32 genAddress) public{\n        data.genAddressStruct.numElements++;\n        data.genAddressStruct.genAddressList.push(genAddress);\n    }\n\n    //set list is always called before append\n    function setGenAddressList(TNSTagData storage data, bytes32[] genAddressList) public{\n        data.genAddressStruct.generateAddress = true;\n        data.genAddressStruct.genAddressList = genAddressList; \n        data.genAddressStruct.numElements = genAddressList.length;\n    }\n\n    /*genAddressFlag will still be set if addressList becomes empty. In that case, it won't default to \n    pubAddress if it's set*/\n    function deleteFromGenAddressList(TNSTagData storage data, uint idxToRemove) public{\n        require(idxToRemove >= 0 && idxToRemove < data.genAddressStruct.numElements,\"Index ix out of bounds\");\n        require(data.genAddressStruct.numElements > 0, \"Array is empty, nothing to delete\");\n\n        if (data.genAddressStruct.numElements > 1){\n            data.genAddressStruct.genAddressList[idxToRemove] = data.genAddressStruct.genAddressList[--data.genAddressStruct.numElements];\n            delete data.genAddressStruct.genAddressList[data.genAddressStruct.numElements];\n        }else{\n            delete data.genAddressStruct.genAddressList[idxToRemove];\n        }\n    }\n \n    function getGenAddressList(TNSTagData storage data) public view returns(bytes32[]){\n        return data.genAddressStruct.genAddressList;\n    }\n\n    //random number generation off-chain\n    function useNextGenAddress(TNSTagData storage data, uint listIdx) public view returns(bytes32){\n        return data.genAddressStruct.genAddressList[listIdx];\n    }\n}",
  "sourcePath": "/Users/gurkisingh/TronProjects/TronNameService/contracts/TNSTag.sol",
  "compiler": {
    "name": "solc",
    "version": "0.4.24-develop.2018.8.28+commit.3ba0cdec.mod.Emscripten.clang"
  },
  "schemaVersion": "2.0.1",
  "updatedAt": "2018-12-07T12:17:54.930Z"
}