{
  "contractName": "TNSTag",
  "abi": [
    {
      "constant": false,
      "inputs": [
        {
          "name": "data",
          "type": "TNSTag.TNSTagData storage"
        },
        {
          "name": "isExist",
          "type": "bool"
        }
      ],
      "name": "setExist",
      "outputs": [],
      "payable": false,
      "stateMutability": "nonpayable",
      "type": "function"
    },
    {
      "constant": true,
      "inputs": [
        {
          "name": "data",
          "type": "TNSTag.TNSTagData storage"
        }
      ],
      "name": "getExist",
      "outputs": [
        {
          "name": "",
          "type": "bool"
        }
      ],
      "payable": false,
      "stateMutability": "view",
      "type": "function"
    },
    {
      "constant": false,
      "inputs": [
        {
          "name": "data",
          "type": "TNSTag.TNSTagData storage"
        },
        {
          "name": "pubAddress",
          "type": "address"
        }
      ],
      "name": "setPubAddress",
      "outputs": [],
      "payable": false,
      "stateMutability": "nonpayable",
      "type": "function"
    },
    {
      "constant": true,
      "inputs": [
        {
          "name": "data",
          "type": "TNSTag.TNSTagData storage"
        }
      ],
      "name": "getPubAddress",
      "outputs": [
        {
          "name": "",
          "type": "address"
        }
      ],
      "payable": false,
      "stateMutability": "view",
      "type": "function"
    },
    {
      "constant": false,
      "inputs": [
        {
          "name": "data",
          "type": "TNSTag.TNSTagData storage"
        },
        {
          "name": "genFlag",
          "type": "bool"
        }
      ],
      "name": "setGenAddressFlag",
      "outputs": [],
      "payable": false,
      "stateMutability": "nonpayable",
      "type": "function"
    },
    {
      "constant": true,
      "inputs": [
        {
          "name": "data",
          "type": "TNSTag.TNSTagData storage"
        }
      ],
      "name": "getGenAddressFlag",
      "outputs": [
        {
          "name": "",
          "type": "bool"
        }
      ],
      "payable": false,
      "stateMutability": "view",
      "type": "function"
    },
    {
      "constant": false,
      "inputs": [
        {
          "name": "data",
          "type": "TNSTag.TNSTagData storage"
        },
        {
          "name": "genAddress",
          "type": "address"
        }
      ],
      "name": "appendGenAddressList",
      "outputs": [],
      "payable": false,
      "stateMutability": "nonpayable",
      "type": "function"
    },
    {
      "constant": false,
      "inputs": [
        {
          "name": "data",
          "type": "TNSTag.TNSTagData storage"
        },
        {
          "name": "genAddressList",
          "type": "address[]"
        }
      ],
      "name": "setGenAddressList",
      "outputs": [],
      "payable": false,
      "stateMutability": "nonpayable",
      "type": "function"
    },
    {
      "constant": false,
      "inputs": [
        {
          "name": "data",
          "type": "TNSTag.TNSTagData storage"
        },
        {
          "name": "idxToRemove",
          "type": "uint256"
        }
      ],
      "name": "deleteFromGenAddressList",
      "outputs": [],
      "payable": false,
      "stateMutability": "nonpayable",
      "type": "function"
    },
    {
      "constant": true,
      "inputs": [
        {
          "name": "data",
          "type": "TNSTag.TNSTagData storage"
        }
      ],
      "name": "getGenAddressList",
      "outputs": [
        {
          "name": "",
          "type": "address[]"
        }
      ],
      "payable": false,
      "stateMutability": "view",
      "type": "function"
    },
    {
      "constant": true,
      "inputs": [
        {
          "name": "data",
          "type": "TNSTag.TNSTagData storage"
        }
      ],
      "name": "getGenAddressListLen",
      "outputs": [
        {
          "name": "",
          "type": "uint256"
        }
      ],
      "payable": false,
      "stateMutability": "view",
      "type": "function"
    },
    {
      "constant": true,
      "inputs": [
        {
          "name": "data",
          "type": "TNSTag.TNSTagData storage"
        },
        {
          "name": "listIdx",
          "type": "uint256"
        }
      ],
      "name": "useNextGenAddress",
      "outputs": [
        {
          "name": "",
          "type": "address"
        }
      ],
      "payable": false,
      "stateMutability": "view",
      "type": "function"
    }
  ],
  "bytecode": "0x610ecd610030600b82828239805160001a6073146000811461002057610022565bfe5b5030600052607381538281f30073000000000000000000000000000000000000000030146080604052600436106100d1576000357c0100000000000000000000000000000000000000000000000000000000900463ffffffff168063239cf808146100d657806338cc09531461010f57806343f248e41461017f578063586de931146101b75780636696da9214610204578063686774fc146102795780638077b7ca146102b257806392272f521461031c5780639f2795bd14610350578063a7551a3e1461039d578063fb34ccff146103d4578063fc971ba514610434575b600080fd5b8180156100e257600080fd5b5061010d6004803603810190808035906020019092919080351515906020019092919050505061046c565b005b81801561011b57600080fd5b5061017d6004803603810190808035906020019092919080359060200190820180359060200190808060200260200160405190810160405280939291908181526020018383602002808284378201915050505050509192919290505050610622565b005b61019d6004803603810190808035906020019092919050505061069f565b604051808215151515815260200191505060405180910390f35b8180156101c357600080fd5b5061020260048036038101908080359060200190929190803573ffffffffffffffffffffffffffffffffffffffff1690602001909291905050506106ba565b005b61022260048036038101908080359060200190929190505050610704565b6040518080602001828103825283818151815260200191508051906020019060200280838360005b8381101561026557808201518184015260208101905061024a565b505050509050019250505060405180910390f35b81801561028557600080fd5b506102b060048036038101908080359060200190929190803515159060200190929190505050610799565b005b6102da60048036038101908080359060200190929190803590602001909291905050506107b9565b604051808273ffffffffffffffffffffffffffffffffffffffff1673ffffffffffffffffffffffffffffffffffffffff16815260200191505060405180910390f35b61033a60048036038101908080359060200190929190505050610802565b6040518082815260200191505060405180910390f35b81801561035c57600080fd5b5061039b60048036038101908080359060200190929190803573ffffffffffffffffffffffffffffffffffffffff169060200190929190505050610813565b005b8180156103a957600080fd5b506103d260048036038101908080359060200190929190803590602001909291905050506108db565b005b6103f260048036038101908080359060200190929190505050610c14565b604051808273ffffffffffffffffffffffffffffffffffffffff1673ffffffffffffffffffffffffffffffffffffffff16815260200191505060405180910390f35b61045260048036038101908080359060200190929190505050610c45565b604051808215151515815260200191505060405180910390f35b801561056757600082600001600101541415610562576040517f08c379a00000000000000000000000000000000000000000000000000000000081526004018080602001828103825260718152602001807f596f752063616e6e6f7420736574206175746f2d67656e65726174652061646481526020017f7265737365732073696e636520746865726520617265206e6f7420616464726581526020017f73657320746f20626520666f756e642e20506c656173652073657420736f6d6581526020017f206164647265737365732066697273742e00000000000000000000000000000081525060800191505060405180910390fd5b6105ff565b60008260030160000160009054906101000a900473ffffffffffffffffffffffffffffffffffffffff1673ffffffffffffffffffffffffffffffffffffffff1614156105fe576040517f08c379a00000000000000000000000000000000000000000000000000000000081526004018080602001828103825260ab815260200180610df760ab913960c00191505060405180910390fd5b5b808260000160020160006101000a81548160ff0219169083151502179055505050565b8082600001600001908051906020019061063d929190610c63565b508051826000016001018190555060008151141561067a5760008260000160020160006101000a81548160ff02191690831515021790555061069b565b60018260000160020160006101000a81548160ff0219169083151502179055505b5050565b60008160040160009054906101000a900460ff169050919050565b808260030160000160006101000a81548173ffffffffffffffffffffffffffffffffffffffff021916908373ffffffffffffffffffffffffffffffffffffffff1602179055505050565b60608160000160000180548060200260200160405190810160405280929190818152602001828054801561078d57602002820191906000526020600020905b8160009054906101000a900473ffffffffffffffffffffffffffffffffffffffff1673ffffffffffffffffffffffffffffffffffffffff1681526020019060010190808311610743575b50505050509050919050565b808260040160006101000a81548160ff0219169083151502179055505050565b600082600001600001828154811015156107cf57fe5b9060005260206000200160009054906101000a900473ffffffffffffffffffffffffffffffffffffffff16905092915050565b600081600001600101549050919050565b8160000160010160008154809291906001019190505550816000016000018190806001815401808255809150509060018203906000526020600020016000909192909190916101000a81548173ffffffffffffffffffffffffffffffffffffffff021916908373ffffffffffffffffffffffffffffffffffffffff16021790555050600015158260000160020160009054906101000a900460ff16151514156108d75760018260000160020160006101000a81548160ff0219169083151502179055505b5050565b600081101580156108f25750816000016001015481105b1515610966576040517f08c379a00000000000000000000000000000000000000000000000000000000081526004018080602001828103825260168152602001807f496e646578206978206f7574206f6620626f756e64730000000000000000000081525060200191505060405180910390fd5b60008260000160010154111515610a0b576040517f08c379a00000000000000000000000000000000000000000000000000000000081526004018080602001828103825260218152602001807f417272617920697320656d7074792c206e6f7468696e6720746f2064656c657481526020017f650000000000000000000000000000000000000000000000000000000000000081525060400191505060405180910390fd5b600182600001600101541115610b175781600001600001826000016001016000815460019003919050819055815481101515610a4357fe5b9060005260206000200160009054906101000a900473ffffffffffffffffffffffffffffffffffffffff168260000160000182815481101515610a8257fe5b9060005260206000200160006101000a81548173ffffffffffffffffffffffffffffffffffffffff021916908373ffffffffffffffffffffffffffffffffffffffff160217905550816000016000018260000160010154815481101515610ae557fe5b9060005260206000200160006101000a81549073ffffffffffffffffffffffffffffffffffffffff0219169055610c10565b60008260030160000160009054906101000a900473ffffffffffffffffffffffffffffffffffffffff1673ffffffffffffffffffffffffffffffffffffffff161415610bae576040517f08c379a00000000000000000000000000000000000000000000000000000000081526004018080602001828103825260c6815260200180610d3160c6913960e00191505060405180910390fd5b8160000160000181815481101515610bc257fe5b9060005260206000200160006101000a81549073ffffffffffffffffffffffffffffffffffffffff021916905560008260000160020160006101000a81548160ff0219169083151502179055505b5050565b60008160030160000160009054906101000a900473ffffffffffffffffffffffffffffffffffffffff169050919050565b60008160000160020160009054906101000a900460ff169050919050565b828054828255906000526020600020908101928215610cdc579160200282015b82811115610cdb5782518260006101000a81548173ffffffffffffffffffffffffffffffffffffffff021916908373ffffffffffffffffffffffffffffffffffffffff16021790555091602001919060010190610c83565b5b509050610ce99190610ced565b5090565b610d2d91905b80821115610d2957600081816101000a81549073ffffffffffffffffffffffffffffffffffffffff021916905550600101610cf3565b5090565b905600596f75206172652064656c6574696e6720746865206c617374206175746f2d67656e65726174656420616464726573732c20686f77657665722c207374617469632061646472657373206973206e6f74207365742e20506c6561736520736574207374617469632061646472657373206265666f72652064656c6574696e672074686973206c61737420616464726573732c20736f20796f757220616c6961732f7461672077696c6c206175746f6d61746963616c6c79207265736f6c766520746f206974215475726e696e67206f6666206175746f2d67656e657261746564206164647265737365732077696c6c206175746f6d61746963616c6c79206d616b652074686520616c6961732f746167207265736f6c766520746f207374617469632061646472657373732e20486f77657665722c207374617469632061646472657373206973206e6f74207365742e20506c6561736520736574206974206265666f726520636f6e74696e75696e672ea165627a7a7230582063ad3b5e1c6500d9954e515cef19e95b7a6a544dbc59833acb511186df18f90b0029",
  "source": "pragma solidity ^0.4.23;\n\nlibrary TNSTag{\n  struct GenAddress{\n\taddress[] genAddressList;\n\tuint numElements;\n\tbool generateAddress;\n  }\n  struct TagMetaData{\n\taddress pubAddress;\n\t/* TODO:\n\tbool isSecret,\n\tbytes32[] secretApprovedMembers*/\n  }\n  \n  struct TNSTagData{\n\tGenAddress genAddressStruct;\n\tTagMetaData tagMetaDataStruct;\n\tbool isExist;\n  }\n  \n  \n  function setExist(TNSTagData storage data, bool isExist) public{\n\t\tdata.isExist = isExist;\n  }\n  \n  function getExist(TNSTagData storage data) public view returns(bool){\n\t\treturn data.isExist;\n  }\n  \n  function setPubAddress(TNSTagData storage data, address pubAddress) public{\n\t\tdata.tagMetaDataStruct.pubAddress = pubAddress;\n  }\n  \n  function getPubAddress(TNSTagData storage data) public view returns(address){\n\t\treturn data.tagMetaDataStruct.pubAddress;\n  }\n  \n  function setGenAddressFlag(TNSTagData storage data, bool genFlag) public{\n\t  \tif(genFlag){\n\t\t\tif (data.genAddressStruct.numElements == 0){\n\t\t\t\trevert(\"You cannot set auto-generate addresses since there are not addreses to be found. Please set some addresses first.\");\n\t\t\t}\n\t\t}else{\n\t\t\tif (data.tagMetaDataStruct.pubAddress == 0x0){\n\t\t\t\trevert(\"Turning off auto-generated addresses will automatically make the alias/tag resolve to static addresss. However, static address is not set. Please set it before continuing.\");\n\t\t\t}\n\t\t}\n\t\tdata.genAddressStruct.generateAddress = genFlag;\n  }\n  \n  function getGenAddressFlag(TNSTagData storage data) public view returns(bool){\n\t\treturn data.genAddressStruct.generateAddress;\n  }\n  \n  \n  function appendGenAddressList(TNSTagData storage data, address genAddress) public{\n\t\tdata.genAddressStruct.numElements++;\n\t\tdata.genAddressStruct.genAddressList.push(genAddress);\n\t\tif (data.genAddressStruct.generateAddress == false){\n\t\t\tdata.genAddressStruct.generateAddress = true;\n\t\t}\n  }\n  \n  function setGenAddressList(TNSTagData storage data, address[] genAddressList) public{\n\t\tdata.genAddressStruct.genAddressList = genAddressList;\n\t\tdata.genAddressStruct.numElements = genAddressList.length;\n\t\tif (genAddressList.length == 0){\n\t\t\tdata.genAddressStruct.generateAddress = false;\n\t\t}else{\n\t\t\tdata.genAddressStruct.generateAddress = true;\n\t\t}\n  }\n  \n  /*genAddressFlag will still be set if addressList becomes empty. In that case, it won't default to\n  pubAddress if it's set*/\n  function deleteFromGenAddressList(TNSTagData storage data, uint idxToRemove) public{\n\t\trequire(idxToRemove >= 0 && idxToRemove < data.genAddressStruct.numElements,\"Index ix out of bounds\");\n\t\trequire(data.genAddressStruct.numElements > 0, \"Array is empty, nothing to delete\");\n\t\t\n\t\tif (data.genAddressStruct.numElements > 1){\n\t\t\tdata.genAddressStruct.genAddressList[idxToRemove] = data.genAddressStruct.genAddressList[--data.genAddressStruct.numElements];\n\t\t\tdelete data.genAddressStruct.genAddressList[data.genAddressStruct.numElements];\n\t\t}else{\n\t\t\tif (data.tagMetaDataStruct.pubAddress == 0x0){\n\t\t\t\trevert(\"You are deleting the last auto-generated address, however, static address is not set. Please set static address before deleting this last address, so your alias/tag will automatically resolve to it!\");\n\t\t\t}\n\t\t\tdelete data.genAddressStruct.genAddressList[idxToRemove];\n\t\t\tdata.genAddressStruct.generateAddress = false;\n\t\t}\n  }\n  \n  function getGenAddressList(TNSTagData storage data) public view returns(address[]){\n\t\treturn data.genAddressStruct.genAddressList;\n  }\n  \n  function getGenAddressListLen(TNSTagData storage data) public view returns(uint){\n\t\treturn data.genAddressStruct.numElements;\n  }\n\n  //random number generation off-chain\n  function useNextGenAddress(TNSTagData storage data, uint listIdx) public view returns(address){\n\t\treturn data.genAddressStruct.genAddressList[listIdx];\n  }\n}\n  ",
  "sourcePath": "/Users/gurkisingh/TronProjects/TronNameService/contracts/TNSTag.sol",
  "compiler": {
    "name": "solc",
    "version": "0.4.24-develop.2018.8.28+commit.3ba0cdec.mod.Emscripten.clang"
  },
  "schemaVersion": "2.0.1",
  "updatedAt": "2018-12-29T14:18:34.302Z"
}