{
  "contractName": "TNSTag",
  "abi": [
    {
      "constant": false,
      "inputs": [
        {
          "name": "data",
          "type": "TNSTag.TNSTagData storage"
        },
        {
          "name": "pubAddress",
          "type": "address"
        }
      ],
      "name": "setPubAddress",
      "outputs": [],
      "payable": false,
      "stateMutability": "nonpayable",
      "type": "function"
    },
    {
      "constant": true,
      "inputs": [
        {
          "name": "data",
          "type": "TNSTag.TNSTagData storage"
        }
      ],
      "name": "getPubAddress",
      "outputs": [
        {
          "name": "",
          "type": "address"
        }
      ],
      "payable": false,
      "stateMutability": "view",
      "type": "function"
    },
    {
      "constant": false,
      "inputs": [
        {
          "name": "data",
          "type": "TNSTag.TNSTagData storage"
        },
        {
          "name": "genFlag",
          "type": "bool"
        }
      ],
      "name": "setGenAddressFlag",
      "outputs": [],
      "payable": false,
      "stateMutability": "nonpayable",
      "type": "function"
    },
    {
      "constant": true,
      "inputs": [
        {
          "name": "data",
          "type": "TNSTag.TNSTagData storage"
        }
      ],
      "name": "getGenAddressFlag",
      "outputs": [
        {
          "name": "",
          "type": "bool"
        }
      ],
      "payable": false,
      "stateMutability": "view",
      "type": "function"
    },
    {
      "constant": false,
      "inputs": [
        {
          "name": "data",
          "type": "TNSTag.TNSTagData storage"
        },
        {
          "name": "genAddress",
          "type": "address"
        }
      ],
      "name": "appendGenAddressList",
      "outputs": [],
      "payable": false,
      "stateMutability": "nonpayable",
      "type": "function"
    },
    {
      "constant": false,
      "inputs": [
        {
          "name": "data",
          "type": "TNSTag.TNSTagData storage"
        },
        {
          "name": "genAddressList",
          "type": "address[]"
        }
      ],
      "name": "setGenAddressList",
      "outputs": [],
      "payable": false,
      "stateMutability": "nonpayable",
      "type": "function"
    },
    {
      "constant": false,
      "inputs": [
        {
          "name": "data",
          "type": "TNSTag.TNSTagData storage"
        },
        {
          "name": "idxToRemove",
          "type": "uint256"
        }
      ],
      "name": "deleteFromGenAddressList",
      "outputs": [],
      "payable": false,
      "stateMutability": "nonpayable",
      "type": "function"
    },
    {
      "constant": true,
      "inputs": [
        {
          "name": "data",
          "type": "TNSTag.TNSTagData storage"
        }
      ],
      "name": "getGenAddressList",
      "outputs": [
        {
          "name": "",
          "type": "address[]"
        }
      ],
      "payable": false,
      "stateMutability": "view",
      "type": "function"
    },
    {
      "constant": true,
      "inputs": [
        {
          "name": "data",
          "type": "TNSTag.TNSTagData storage"
        }
      ],
      "name": "getGenAddressListLen",
      "outputs": [
        {
          "name": "",
          "type": "uint256"
        }
      ],
      "payable": false,
      "stateMutability": "view",
      "type": "function"
    },
    {
      "constant": true,
      "inputs": [
        {
          "name": "data",
          "type": "TNSTag.TNSTagData storage"
        },
        {
          "name": "listIdx",
          "type": "uint256"
        }
      ],
      "name": "useNextGenAddress",
      "outputs": [
        {
          "name": "",
          "type": "address"
        }
      ],
      "payable": false,
      "stateMutability": "view",
      "type": "function"
    }
  ],
  "bytecode": "0x610e41610030600b82828239805160001a6073146000811461002057610022565bfe5b5030600052607381538281f30073000000000000000000000000000000000000000030146080604052600436106100bb576000357c0100000000000000000000000000000000000000000000000000000000900463ffffffff168063239cf808146100c057806338cc0953146100f9578063586de931146101695780636696da92146101b65780638077b7ca1461022b57806392272f52146102955780639f2795bd146102c9578063a7551a3e14610316578063fb34ccff1461034d578063fc971ba5146103ad575b600080fd5b8180156100cc57600080fd5b506100f7600480360381019080803590602001909291908035151590602001909291905050506103e5565b005b81801561010557600080fd5b50610167600480360381019080803590602001909291908035906020019082018035906020019080806020026020016040519081016040528093929190818152602001838360200280828437820191505050505050919291929050505061059e565b005b81801561017557600080fd5b506101b460048036038101908080359060200190929190803573ffffffffffffffffffffffffffffffffffffffff169060200190929190505050610623565b005b6101d46004803603810190808035906020019092919050505061066d565b6040518080602001828103825283818151815260200191508051906020019060200280838360005b838110156102175780820151818401526020810190506101fc565b505050509050019250505060405180910390f35b6102536004803603810190808035906020019092919080359060200190929190505050610702565b604051808273ffffffffffffffffffffffffffffffffffffffff1673ffffffffffffffffffffffffffffffffffffffff16815260200191505060405180910390f35b6102b36004803603810190808035906020019092919050505061074b565b6040518082815260200191505060405180910390f35b8180156102d557600080fd5b5061031460048036038101908080359060200190929190803573ffffffffffffffffffffffffffffffffffffffff16906020019092919050505061075f565b005b81801561032257600080fd5b5061034b6004803603810190808035906020019092919080359060200190929190505050610810565b005b61036b60048036038101908080359060200190929190505050610ae3565b604051808273ffffffffffffffffffffffffffffffffffffffff1673ffffffffffffffffffffffffffffffffffffffff16815260200191505060405180910390f35b6103cb60048036038101908080359060200190929190505050610b14565b604051808215151515815260200191505060405180910390f35b80156104e3576000826000016000018054905014156104de576040517f08c379a00000000000000000000000000000000000000000000000000000000081526004018080602001828103825260718152602001807f596f752063616e6e6f7420736574206175746f2d67656e65726174652061646481526020017f7265737365732073696e636520746865726520617265206e6f7420616464726581526020017f73657320746f20626520666f756e642e20506c656173652073657420736f6d6581526020017f206164647265737365732066697273742e00000000000000000000000000000081525060800191505060405180910390fd5b61057b565b60008260020160000160009054906101000a900473ffffffffffffffffffffffffffffffffffffffff1673ffffffffffffffffffffffffffffffffffffffff16141561057a576040517f08c379a00000000000000000000000000000000000000000000000000000000081526004018080602001828103825260ab815260200180610d6b60ab913960c00191505060405180910390fd5b5b808260000160010160006101000a81548160ff0219169083151502179055505050565b808260000160000190805190602001906105b9929190610b32565b50805182600001600001816105ce9190610bbc565b506000815114156105fe5760008260000160010160006101000a81548160ff02191690831515021790555061061f565b60018260000160010160006101000a81548160ff0219169083151502179055505b5050565b808260020160000160006101000a81548173ffffffffffffffffffffffffffffffffffffffff021916908373ffffffffffffffffffffffffffffffffffffffff1602179055505050565b6060816000016000018054806020026020016040519081016040528092919081815260200182805480156106f657602002820191906000526020600020905b8160009054906101000a900473ffffffffffffffffffffffffffffffffffffffff1673ffffffffffffffffffffffffffffffffffffffff16815260200190600101908083116106ac575b50505050509050919050565b6000826000016000018281548110151561071857fe5b9060005260206000200160009054906101000a900473ffffffffffffffffffffffffffffffffffffffff16905092915050565b600081600001600001805490509050919050565b816000016000018190806001815401808255809150509060018203906000526020600020016000909192909190916101000a81548173ffffffffffffffffffffffffffffffffffffffff021916908373ffffffffffffffffffffffffffffffffffffffff16021790555050600015158260000160010160009054906101000a900460ff161515141561080c5760018260000160010160006101000a81548160ff0219169083151502179055505b5050565b6000826000016000018054905090506000821015801561082f57508082105b15156108a3576040517f08c379a00000000000000000000000000000000000000000000000000000000081526004018080602001828103825260168152602001807f496e646578206978206f7574206f6620626f756e64730000000000000000000081525060200191505060405180910390fd5b600081111515610941576040517f08c379a00000000000000000000000000000000000000000000000000000000081526004018080602001828103825260218152602001807f417272617920697320656d7074792c206e6f7468696e6720746f2064656c657481526020017f650000000000000000000000000000000000000000000000000000000000000081525060400191505060405180910390fd5b6001811115610a0857826000016000016001820381548110151561096157fe5b9060005260206000200160009054906101000a900473ffffffffffffffffffffffffffffffffffffffff1683600001600001838154811015156109a057fe5b9060005260206000200160006101000a81548173ffffffffffffffffffffffffffffffffffffffff021916908373ffffffffffffffffffffffffffffffffffffffff16021790555082600001600001805480919060019003610a029190610bbc565b50610ade565b60008360020160000160009054906101000a900473ffffffffffffffffffffffffffffffffffffffff1673ffffffffffffffffffffffffffffffffffffffff161415610aa2576040517f08c379a00000000000000000000000000000000000000000000000000000000081526004018080602001828103825261011a815260200180610c5161011a91396101200191505060405180910390fd5b82600001600001805480919060019003610abc9190610bbc565b5060008360000160010160006101000a81548160ff0219169083151502179055505b505050565b60008160020160000160009054906101000a900473ffffffffffffffffffffffffffffffffffffffff169050919050565b60008160000160010160009054906101000a900460ff169050919050565b828054828255906000526020600020908101928215610bab579160200282015b82811115610baa5782518260006101000a81548173ffffffffffffffffffffffffffffffffffffffff021916908373ffffffffffffffffffffffffffffffffffffffff16021790555091602001919060010190610b52565b5b509050610bb89190610be8565b5090565b815481835581811115610be357818360005260206000209182019101610be29190610c2b565b5b505050565b610c2891905b80821115610c2457600081816101000a81549073ffffffffffffffffffffffffffffffffffffffff021916905550600101610bee565b5090565b90565b610c4d91905b80821115610c49576000816000905550600101610c31565b5090565b905600596f75206172652064656c6574696e6720746865206c617374206175746f2d67656e65726174656420616464726573732c20686f77657665722c207374617469632061646472657373206973206e6f74207365742e20506c6561736520736574207374617469632061646472657373206265666f72652064656c6574696e672074686973206c617374206175746f2d67656e20616464726573732c20736f20796f757220616c6961732f7461672077696c6c206175746f6d61746963616c6c79207265736f6c766520746f2069742e204f6e6c7920656974686572207374617469632061646472657373206f72206175746f2d67656e206f7074696f6e2063616e206265206f6e20617420616e7920676976656e2074696d652e5475726e696e67206f6666206175746f2d67656e657261746564206164647265737365732077696c6c206175746f6d61746963616c6c79206d616b652074686520616c6961732f746167207265736f6c766520746f207374617469632061646472657373732e20486f77657665722c207374617469632061646472657373206973206e6f74207365742e20506c6561736520736574206974206265666f726520636f6e74696e75696e672ea165627a7a72305820b08cf17a35921865099b17d86e2b88955cb7d6980302f1f11e02757f8be744500029",
  "source": "pragma solidity ^0.4.23;\n\nlibrary TNSTag{\n  struct GenAddress{\n\taddress[] genAddressList;\n\tbool generateAddress;\n  }\n  struct TagMetaData{\n\taddress pubAddress;\n\t/* TODO:\n\tbool isSecret,\n\tbytes32[] secretApprovedMembers*/\n  }\n  \n  struct TNSTagData{\n\tGenAddress genAddressStruct;\n\tTagMetaData tagMetaDataStruct;\n  }\n  \n  \n  function setPubAddress(TNSTagData storage data, address pubAddress) public{\n\t\tdata.tagMetaDataStruct.pubAddress = pubAddress;\n  }\n  \n  function getPubAddress(TNSTagData storage data) public view returns(address){\n\t\treturn data.tagMetaDataStruct.pubAddress;\n  }\n  \n  function setGenAddressFlag(TNSTagData storage data, bool genFlag) public{\n\t  \tif(genFlag){\n\t\t\tif (data.genAddressStruct.genAddressList.length == 0){\n\t\t\t\trevert(\"You cannot set auto-generate addresses since there are not addreses to be found. Please set some addresses first.\");\n\t\t\t}\n\t\t}else{\n\t\t\tif (data.tagMetaDataStruct.pubAddress == 0x0){\n\t\t\t\trevert(\"Turning off auto-generated addresses will automatically make the alias/tag resolve to static addresss. However, static address is not set. Please set it before continuing.\");\n\t\t\t}\n\t\t}\n\t\tdata.genAddressStruct.generateAddress = genFlag;\n  }\n  \n  function getGenAddressFlag(TNSTagData storage data) public view returns(bool){\n\t\treturn data.genAddressStruct.generateAddress;\n  }\n  \n  \n  function appendGenAddressList(TNSTagData storage data, address genAddress) public{\n\t\tdata.genAddressStruct.genAddressList.push(genAddress);\n\t\tif (data.genAddressStruct.generateAddress == false){\n\t\t\tdata.genAddressStruct.generateAddress = true;\n\t\t}\n  }\n  \n  function setGenAddressList(TNSTagData storage data, address[] genAddressList) public{\n\t\tdata.genAddressStruct.genAddressList = genAddressList;\n\t\tdata.genAddressStruct.genAddressList.length = genAddressList.length;\n\t\tif (genAddressList.length == 0){\n\t\t\tdata.genAddressStruct.generateAddress = false;\n\t\t}else{\n\t\t\tdata.genAddressStruct.generateAddress = true;\n\t\t}\n  }\n  \n  function deleteFromGenAddressList(TNSTagData storage data, uint idxToRemove) public{\n\t    uint curr_len = data.genAddressStruct.genAddressList.length;\n\n\t\trequire(idxToRemove >= 0 && idxToRemove < curr_len,\"Index ix out of bounds\");\n\t\trequire(curr_len > 0, \"Array is empty, nothing to delete\");\n\t\t\n\t\tif (curr_len > 1){\n\t\t\tdata.genAddressStruct.genAddressList[idxToRemove] = data.genAddressStruct.genAddressList[curr_len - 1];\n\t\t\tdata.genAddressStruct.genAddressList.length--;\n\t\t}else{\n\t\t\tif (data.tagMetaDataStruct.pubAddress == 0x0){\n\t\t\t\trevert(\"You are deleting the last auto-generated address, however, static address is not set. Please set static address before deleting this last auto-gen address, so your alias/tag will automatically resolve to it. Only either static address or auto-gen option can be on at any given time.\");\n\t\t\t}\n\t\t\tdata.genAddressStruct.genAddressList.length--;\n\t\t\tdata.genAddressStruct.generateAddress = false;\n\t\t}\n  }\n  \n  function getGenAddressList(TNSTagData storage data) public view returns(address[]){\n\t\treturn data.genAddressStruct.genAddressList;\n  }\n  \n  function getGenAddressListLen(TNSTagData storage data) public view returns(uint){\n\t\treturn data.genAddressStruct.genAddressList.length;\n  }\n\n  //random number generation off-chain\n  function useNextGenAddress(TNSTagData storage data, uint listIdx) public view returns(address){\n\t\treturn data.genAddressStruct.genAddressList[listIdx];\n  }\n}\n  ",
  "sourcePath": "/Users/gurkisingh/TronProjects/TronNameService/contracts/TNSTag.sol",
  "compiler": {
    "name": "solc",
    "version": "0.4.24-develop.2018.8.28+commit.3ba0cdec.mod.Emscripten.clang"
  },
  "schemaVersion": "2.0.1",
  "updatedAt": "2018-12-30T09:34:23.657Z"
}