{
  "contractName": "TNSTag",
  "abi": [
    {
      "constant": false,
      "inputs": [
        {
          "name": "data",
          "type": "TNSTag.TNSTagData storage"
        },
        {
          "name": "pubAddress",
          "type": "address"
        }
      ],
      "name": "setPubAddress",
      "outputs": [],
      "payable": false,
      "stateMutability": "nonpayable",
      "type": "function"
    },
    {
      "constant": true,
      "inputs": [
        {
          "name": "data",
          "type": "TNSTag.TNSTagData storage"
        }
      ],
      "name": "getPubAddress",
      "outputs": [
        {
          "name": "",
          "type": "address"
        }
      ],
      "payable": false,
      "stateMutability": "view",
      "type": "function"
    },
    {
      "constant": false,
      "inputs": [
        {
          "name": "data",
          "type": "TNSTag.TNSTagData storage"
        },
        {
          "name": "genFlag",
          "type": "bool"
        }
      ],
      "name": "setGenAddressFlag",
      "outputs": [],
      "payable": false,
      "stateMutability": "nonpayable",
      "type": "function"
    },
    {
      "constant": true,
      "inputs": [
        {
          "name": "data",
          "type": "TNSTag.TNSTagData storage"
        }
      ],
      "name": "getGenAddressFlag",
      "outputs": [
        {
          "name": "",
          "type": "bool"
        }
      ],
      "payable": false,
      "stateMutability": "view",
      "type": "function"
    },
    {
      "constant": false,
      "inputs": [
        {
          "name": "data",
          "type": "TNSTag.TNSTagData storage"
        },
        {
          "name": "genAddress",
          "type": "address"
        }
      ],
      "name": "appendGenAddressList",
      "outputs": [],
      "payable": false,
      "stateMutability": "nonpayable",
      "type": "function"
    },
    {
      "constant": false,
      "inputs": [
        {
          "name": "data",
          "type": "TNSTag.TNSTagData storage"
        },
        {
          "name": "genAddressList",
          "type": "address[]"
        }
      ],
      "name": "setGenAddressList",
      "outputs": [],
      "payable": false,
      "stateMutability": "nonpayable",
      "type": "function"
    },
    {
      "constant": false,
      "inputs": [
        {
          "name": "data",
          "type": "TNSTag.TNSTagData storage"
        },
        {
          "name": "idxToRemove",
          "type": "uint256"
        }
      ],
      "name": "deleteFromGenAddressList",
      "outputs": [],
      "payable": false,
      "stateMutability": "nonpayable",
      "type": "function"
    },
    {
      "constant": true,
      "inputs": [
        {
          "name": "data",
          "type": "TNSTag.TNSTagData storage"
        }
      ],
      "name": "getGenAddressList",
      "outputs": [
        {
          "name": "",
          "type": "address[]"
        }
      ],
      "payable": false,
      "stateMutability": "view",
      "type": "function"
    },
    {
      "constant": true,
      "inputs": [
        {
          "name": "data",
          "type": "TNSTag.TNSTagData storage"
        }
      ],
      "name": "getGenAddressListLen",
      "outputs": [
        {
          "name": "",
          "type": "uint256"
        }
      ],
      "payable": false,
      "stateMutability": "view",
      "type": "function"
    },
    {
      "constant": true,
      "inputs": [
        {
          "name": "data",
          "type": "TNSTag.TNSTagData storage"
        },
        {
          "name": "listIdx",
          "type": "uint256"
        }
      ],
      "name": "useNextGenAddress",
      "outputs": [
        {
          "name": "",
          "type": "address"
        }
      ],
      "payable": false,
      "stateMutability": "view",
      "type": "function"
    },
    {
      "constant": false,
      "inputs": [
        {
          "name": "data",
          "type": "TNSTag.TNSTagData storage"
        },
        {
          "name": "isSecret",
          "type": "bool"
        }
      ],
      "name": "setIsSecret",
      "outputs": [],
      "payable": false,
      "stateMutability": "nonpayable",
      "type": "function"
    },
    {
      "constant": true,
      "inputs": [
        {
          "name": "data",
          "type": "TNSTag.TNSTagData storage"
        }
      ],
      "name": "getIsSecret",
      "outputs": [
        {
          "name": "",
          "type": "bool"
        }
      ],
      "payable": false,
      "stateMutability": "view",
      "type": "function"
    },
    {
      "constant": false,
      "inputs": [
        {
          "name": "data",
          "type": "TNSTag.TNSTagData storage"
        },
        {
          "name": "keccakUsers",
          "type": "bytes32[]"
        },
        {
          "name": "encUsers",
          "type": "bytes32[]"
        }
      ],
      "name": "setSecretUserList",
      "outputs": [],
      "payable": false,
      "stateMutability": "nonpayable",
      "type": "function"
    },
    {
      "constant": true,
      "inputs": [
        {
          "name": "data",
          "type": "TNSTag.TNSTagData storage"
        }
      ],
      "name": "getSecretUserList",
      "outputs": [
        {
          "name": "",
          "type": "bytes32[]"
        }
      ],
      "payable": false,
      "stateMutability": "view",
      "type": "function"
    },
    {
      "constant": false,
      "inputs": [
        {
          "name": "data",
          "type": "TNSTag.TNSTagData storage"
        },
        {
          "name": "newKeccakUser",
          "type": "bytes32"
        },
        {
          "name": "newEncUser",
          "type": "bytes32[]"
        }
      ],
      "name": "appendSecretUser",
      "outputs": [],
      "payable": false,
      "stateMutability": "nonpayable",
      "type": "function"
    },
    {
      "constant": false,
      "inputs": [
        {
          "name": "data",
          "type": "TNSTag.TNSTagData storage"
        },
        {
          "name": "keccakUser",
          "type": "bytes32"
        },
        {
          "name": "idxToRemove",
          "type": "uint256"
        }
      ],
      "name": "deleteSecretUser",
      "outputs": [],
      "payable": false,
      "stateMutability": "nonpayable",
      "type": "function"
    },
    {
      "constant": true,
      "inputs": [
        {
          "name": "data",
          "type": "TNSTag.TNSTagData storage"
        },
        {
          "name": "keccakUser",
          "type": "bytes32"
        }
      ],
      "name": "secretUserExists",
      "outputs": [
        {
          "name": "",
          "type": "bool"
        }
      ],
      "payable": false,
      "stateMutability": "view",
      "type": "function"
    }
  ],
  "bytecode": "0x611ce7610030600b82828239805160001a6073146000811461002057610022565bfe5b5030600052607381538281f3007300000000000000000000000000000000000000003014608060405260043610610108576000357c0100000000000000000000000000000000000000000000000000000000900463ffffffff1680630add87501461010d578063239cf80814610145578063321491c71461017e57806338cc0953146101c35780633b9dafaf14610233578063586de931146102b15780636696da92146102fe578063727a3b3c146103735780637e159a34146104265780638077b7ca1461046c57806392272f52146104d65780639f2795bd1461050a578063a7551a3e14610557578063ba4d35d71461058e578063f6e0d767146105c7578063fb34ccff1461063c578063fc971ba51461069c575b600080fd5b61012b600480360381019080803590602001909291905050506106d4565b604051808215151515815260200191505060405180910390f35b81801561015157600080fd5b5061017c600480360381019080803590602001909291908035151590602001909291905050506106f2565b005b81801561018a57600080fd5b506101c1600480360381019080803590602001909291908035600019169060200190929190803590602001909291905050506108ab565b005b8180156101cf57600080fd5b506102316004803603810190808035906020019092919080359060200190820180359060200190808060200260200160405190810160405280939291908181526020018383602002808284378201915050505050509192919290505050610c59565b005b81801561023f57600080fd5b506102af60048036038101908080359060200190929190803560001916906020019092919080359060200190820180359060200190808060200260200160405190810160405280939291908181526020018383602002808284378201915050505050509192919290505050610d7e565b005b8180156102bd57600080fd5b506102fc60048036038101908080359060200190929190803573ffffffffffffffffffffffffffffffffffffffff169060200190929190505050610fd1565b005b61031c6004803603810190808035906020019092919050505061101b565b6040518080602001828103825283818151815260200191508051906020019060200280838360005b8381101561035f578082015181840152602081019050610344565b505050509050019250505060405180910390f35b81801561037f57600080fd5b506104246004803603810190808035906020019092919080359060200190820180359060200190808060200260200160405190810160405280939291908181526020018383602002808284378201915050505050509192919290803590602001908201803590602001908080602002602001604051908101604052809392919081815260200183836020028082843782019150505050505091929192905050506110b0565b005b6104526004803603810190808035906020019092919080356000191690602001909291905050506113dd565b604051808215151515815260200191505060405180910390f35b6104946004803603810190808035906020019092919080359060200190929190505050611418565b604051808273ffffffffffffffffffffffffffffffffffffffff1673ffffffffffffffffffffffffffffffffffffffff16815260200191505060405180910390f35b6104f460048036038101908080359060200190929190505050611461565b6040518082815260200191505060405180910390f35b81801561051657600080fd5b5061055560048036038101908080359060200190929190803573ffffffffffffffffffffffffffffffffffffffff169060200190929190505050611475565b005b81801561056357600080fd5b5061058c600480360381019080803590602001909291908035906020019092919050505061158c565b005b81801561059a57600080fd5b506105c56004803603810190808035906020019092919080351515906020019092919050505061185f565b005b6105e560048036038101908080359060200190929190505050611882565b6040518080602001828103825283818151815260200191508051906020019060200280838360005b8381101561062857808201518184015260208101905061060d565b505050509050019250505060405180910390f35b61065a600480360381019080803590602001909291905050506118e5565b604051808273ffffffffffffffffffffffffffffffffffffffff1673ffffffffffffffffffffffffffffffffffffffff16815260200191505060405180910390f35b6106ba60048036038101908080359060200190929190505050611916565b604051808215151515815260200191505060405180910390f35b60008160020160000160149054906101000a900460ff169050919050565b80156107f0576000826000016000018054905014156107eb576040517f08c379a00000000000000000000000000000000000000000000000000000000081526004018080602001828103825260718152602001807f596f752063616e6e6f7420736574206175746f2d67656e65726174652061646481526020017f7265737365732073696e636520746865726520617265206e6f7420616464726581526020017f73657320746f20626520666f756e642e20506c656173652073657420736f6d6581526020017f206164647265737365732066697273742e00000000000000000000000000000081525060800191505060405180910390fd5b610888565b60008260020160000160009054906101000a900473ffffffffffffffffffffffffffffffffffffffff1673ffffffffffffffffffffffffffffffffffffffff161415610887576040517f08c379a00000000000000000000000000000000000000000000000000000000081526004018080602001828103825260ab815260200180611c1160ab913960c00191505060405180910390fd5b5b808260000160010160006101000a81548160ff0219169083151502179055505050565b600080600085600201600301805490509250600284029150600084101580156108df57506002838115156108db57fe5b0484105b1515610953576040517f08c379a00000000000000000000000000000000000000000000000000000000081526004018080602001828103825260168152602001807f496e646578206978206f7574206f6620626f756e64730000000000000000000081525060200191505060405180910390fd5b600283101515156109f2576040517f08c379a00000000000000000000000000000000000000000000000000000000081526004018080602001828103825260218152602001807f417272617920697320656d7074792c206e6f7468696e6720746f2064656c657481526020017f650000000000000000000000000000000000000000000000000000000000000081525060400191505060405180910390fd5b600086600201600101600087600019166000191681526020019081526020016000205414151515610a8b576040517f08c379a00000000000000000000000000000000000000000000000000000000081526004018080602001828103825260198152602001807f536563726574205573657220646f65736e27742065786973740000000000000081525060200191505060405180910390fd5b8560020160030160018403815481101515610aa257fe5b90600052602060002001548660020160030160018401815481101515610ac457fe5b9060005260206000200181600019169055508560020160030160028403815481101515610aed57fe5b90600052602060002001548660020160030183815481101515610b0c57fe5b90600052602060002001816000191690555085600201600301805480919060019003610b389190611934565b5085600201600301805480919060019003610b539190611934565b506001866002016001016000876000191660001916815260200190815260200160002054039050856002016002016001876002016002018054905003815481101515610b9b57fe5b90600052602060002001548660020160020182815481101515610bba57fe5b906000526020600020018160001916905550600181018660020160010160008860020160020184815481101515610bed57fe5b9060005260206000200154600019166000191681526020019081526020016000208190555085600201600201805480919060019003610c2c9190611934565b50856002016001016000866000191660001916815260200190815260200160002060009055505050505050565b6014815111151515610cf9576040517f08c379a000000000000000000000000000000000000000000000000000000000815260040180806020018281038252602a8152602001807f43616e6e6f7420616464206d6f7265207468616e203230206175746f2d67656e81526020017f206164647265737365730000000000000000000000000000000000000000000081525060400191505060405180910390fd5b80826000016000019080519060200190610d14929190611960565b5080518260000160000181610d2991906119ea565b50600081511415610d595760008260000160010160006101000a81548160ff021916908315150217905550610d7a565b60018260000160010160006101000a81548160ff0219169083151502179055505b5050565b6000600a60028560020160030180549050811515610d9857fe5b04101515610e34576040517f08c379a00000000000000000000000000000000000000000000000000000000081526004018080602001828103825260248152602001807f43616e6e6f7420736574206d6f7265207468616e20313020736563726574207581526020017f736572730000000000000000000000000000000000000000000000000000000081525060400191505060405180910390fd5b60028251141515610ead576040517f08c379a000000000000000000000000000000000000000000000000000000000815260040180806020018281038252601d8152602001807f456e6355736572206172726179206c656e677468206973206e6f74203200000081525060200191505060405180910390fd5b83600201600301826000815181101515610ec357fe5b90602001906020020151908060018154018082558091505090600182039060005260206000200160009091929091909150906000191690555083600201600301826001815181101515610f1257fe5b906020019060200201519080600181540180825580915050906001820390600052602060002001600090919290919091509060001916905550600184600201600201805490500184600201600101600085600019166000191681526020019081526020016000208190555083600201600201805490509050836002016002018054809190600101610fa39190611934565b50828460020160020182815481101515610fb957fe5b90600052602060002001816000191690555050505050565b808260020160000160006101000a81548173ffffffffffffffffffffffffffffffffffffffff021916908373ffffffffffffffffffffffffffffffffffffffff1602179055505050565b6060816000016000018054806020026020016040519081016040528092919081815260200182805480156110a457602002820191906000526020600020905b8160009054906101000a900473ffffffffffffffffffffffffffffffffffffffff1673ffffffffffffffffffffffffffffffffffffffff168152602001906001019080831161105a575b50505050509050919050565b600080600080600080600a600288518115156110c857fe5b0411151515611165576040517f08c379a00000000000000000000000000000000000000000000000000000000081526004018080602001828103825260248152602001807f43616e6e6f7420736574206d6f7265207468616e20313020736563726574207581526020017f736572730000000000000000000000000000000000000000000000000000000081525060400191505060405180910390fd5b8860020160020180549050955087518611611181578751611183565b855b9450600093505b858514611197578561119a565b87515b84101561126d578860020160010160008a600201600201868154811015156111be57fe5b9060005260206000200154600019166000191681526020019081526020016000206000905587848151811015156111f157fe5b90602001906020020151896002016002018581548110151561120f57fe5b906000526020600020018160001916905550600184018960020160010160008a8781518110151561123c57fe5b906020019060200201516000191660001916815260200190815260200160002081905550838060010194505061118a565b858514156112f857875192505b848310156112f3578860020160010160008a6002016002018581548110151561129f57fe5b9060005260206000200154600019166000191681526020019081526020016000206000905588600201600201838154811015156112d857fe5b9060005260206000200160009055828060010193505061127a565b6113b6565b8591505b848210156113b557600183018960020160010160008a8581518110151561131f57fe5b906020019060200201516000191660001916815260200190815260200160002081905550886002016002018054905090508860020160020180548091906001016113699190611934565b50878281518110151561137857fe5b90602001906020020151896002016002018281548110151561139657fe5b90600052602060002001816000191690555081806001019250506112fc565b5b868960020160030190805190602001906113d1929190611a16565b50505050505050505050565b6000808360020160010160008460001916600019168152602001908152602001600020541461140d576001611410565b60005b905092915050565b6000826000016000018281548110151561142e57fe5b9060005260206000200160009054906101000a900473ffffffffffffffffffffffffffffffffffffffff16905092915050565b600081600001600001805490509050919050565b6014826000016000018054905010151561151d576040517f08c379a000000000000000000000000000000000000000000000000000000000815260040180806020018281038252602a8152602001807f43616e6e6f7420616464206d6f7265207468616e203230206175746f2d67656e81526020017f206164647265737365730000000000000000000000000000000000000000000081525060400191505060405180910390fd5b816000016000018190806001815401808255809150509060018203906000526020600020016000909192909190916101000a81548173ffffffffffffffffffffffffffffffffffffffff021916908373ffffffffffffffffffffffffffffffffffffffff160217905550505050565b600082600001600001805490509050600082101580156115ab57508082105b151561161f576040517f08c379a00000000000000000000000000000000000000000000000000000000081526004018080602001828103825260168152602001807f496e646578206978206f7574206f6620626f756e64730000000000000000000081525060200191505060405180910390fd5b6000811115156116bd576040517f08c379a00000000000000000000000000000000000000000000000000000000081526004018080602001828103825260218152602001807f417272617920697320656d7074792c206e6f7468696e6720746f2064656c657481526020017f650000000000000000000000000000000000000000000000000000000000000081525060400191505060405180910390fd5b60018111156117845782600001600001600182038154811015156116dd57fe5b9060005260206000200160009054906101000a900473ffffffffffffffffffffffffffffffffffffffff16836000016000018381548110151561171c57fe5b9060005260206000200160006101000a81548173ffffffffffffffffffffffffffffffffffffffff021916908373ffffffffffffffffffffffffffffffffffffffff1602179055508260000160000180548091906001900361177e91906119ea565b5061185a565b60008360020160000160009054906101000a900473ffffffffffffffffffffffffffffffffffffffff1673ffffffffffffffffffffffffffffffffffffffff16141561181e576040517f08c379a00000000000000000000000000000000000000000000000000000000081526004018080602001828103825261011a815260200180611af761011a91396101200191505060405180910390fd5b8260000160000180548091906001900361183891906119ea565b5060008360000160010160006101000a81548160ff0219169083151502179055505b505050565b808260020160000160146101000a81548160ff0219169083151502179055505050565b6060816002016003018054806020026020016040519081016040528092919081815260200182805480156118d957602002820191906000526020600020905b815460001916815260200190600101908083116118c1575b50505050509050919050565b60008160020160000160009054906101000a900473ffffffffffffffffffffffffffffffffffffffff169050919050565b60008160000160010160009054906101000a900460ff169050919050565b81548183558181111561195b5781836000526020600020918201910161195a9190611a69565b5b505050565b8280548282559060005260206000209081019282156119d9579160200282015b828111156119d85782518260006101000a81548173ffffffffffffffffffffffffffffffffffffffff021916908373ffffffffffffffffffffffffffffffffffffffff16021790555091602001919060010190611980565b5b5090506119e69190611a8e565b5090565b815481835581811115611a1157818360005260206000209182019101611a109190611ad1565b5b505050565b828054828255906000526020600020908101928215611a58579160200282015b82811115611a57578251829060001916905591602001919060010190611a36565b5b509050611a659190611a69565b5090565b611a8b91905b80821115611a87576000816000905550600101611a6f565b5090565b90565b611ace91905b80821115611aca57600081816101000a81549073ffffffffffffffffffffffffffffffffffffffff021916905550600101611a94565b5090565b90565b611af391905b80821115611aef576000816000905550600101611ad7565b5090565b905600596f75206172652064656c6574696e6720746865206c617374206175746f2d67656e65726174656420616464726573732c20686f77657665722c207374617469632061646472657373206973206e6f74207365742e20506c6561736520736574207374617469632061646472657373206265666f72652064656c6574696e672074686973206c617374206175746f2d67656e20616464726573732c20736f20796f757220616c6961732f7461672077696c6c206175746f6d61746963616c6c79207265736f6c766520746f2069742e204f6e6c7920656974686572207374617469632061646472657373206f72206175746f2d67656e206f7074696f6e2063616e206265206f6e20617420616e7920676976656e2074696d652e5475726e696e67206f6666206175746f2d67656e657261746564206164647265737365732077696c6c206175746f6d61746963616c6c79206d616b652074686520616c6961732f746167207265736f6c766520746f207374617469632061646472657373732e20486f77657665722c207374617469632061646472657373206973206e6f74207365742e20506c6561736520736574206974206265666f726520636f6e74696e75696e672ea165627a7a7230582047d3a9d1a40b67430f5f0cb322f60cbb41e31094b935a9dfab68a1dd8af7c43f0029",
  "source": "pragma solidity ^0.4.23;\n\nlibrary TNSTag{\n    struct GenAddress{\n        address[] genAddressList;\n        bool generateAddress;\n    }\n\n    struct TagMetaData{\n        address pubAddress;\n        bool isSecret;\n        mapping(bytes32=>uint) secretUsersIdxMap; //keccak => SecretUser[] idx + 1 <- will be 0 for non-exist key\n        bytes32[] secretUsers;\n        bytes32[] encUsers; //can only be decrypted by alias owner\n    }\n\n    struct TNSTagData{\n        GenAddress genAddressStruct;\n        TagMetaData tagMetaDataStruct;\n    }\n\n\n    function setPubAddress(TNSTagData storage data, address pubAddress) public{\n        data.tagMetaDataStruct.pubAddress = pubAddress;\n    }\n\n    function getPubAddress(TNSTagData storage data) public view returns(address){\n        return data.tagMetaDataStruct.pubAddress;\n    }\n\n    function setGenAddressFlag(TNSTagData storage data, bool genFlag) public{\n            if(genFlag){\n            if (data.genAddressStruct.genAddressList.length == 0){\n                revert(\"You cannot set auto-generate addresses since there are not addreses to be found. Please set some addresses first.\");\n            }\n        }else{\n            if (data.tagMetaDataStruct.pubAddress == 0x0){\n                revert(\"Turning off auto-generated addresses will automatically make the alias/tag resolve to static addresss. However, static address is not set. Please set it before continuing.\");\n            }\n        }\n        data.genAddressStruct.generateAddress = genFlag;\n    }\n\n    function getGenAddressFlag(TNSTagData storage data) public view returns(bool){\n        return data.genAddressStruct.generateAddress;\n    }\n\n\n    function appendGenAddressList(TNSTagData storage data, address genAddress) public{\n        require(data.genAddressStruct.genAddressList.length < 20, \"Cannot add more than 20 auto-gen addresses\");\n        data.genAddressStruct.genAddressList.push(genAddress);\n    }\n\n    function setGenAddressList(TNSTagData storage data, address[] genAddressList) public{\n        require(genAddressList.length <= 20, \"Cannot add more than 20 auto-gen addresses\");\n        data.genAddressStruct.genAddressList = genAddressList;\n        data.genAddressStruct.genAddressList.length = genAddressList.length;\n        if (genAddressList.length == 0){\n            data.genAddressStruct.generateAddress = false;\n        }else{\n            data.genAddressStruct.generateAddress = true;\n        }\n    }\n\n    function deleteFromGenAddressList(TNSTagData storage data, uint idxToRemove) public{\n        uint curr_len = data.genAddressStruct.genAddressList.length;\n\n        require(idxToRemove >= 0 && idxToRemove < curr_len,\"Index ix out of bounds\");\n        require(curr_len > 0, \"Array is empty, nothing to delete\");\n        \n        if (curr_len > 1){\n            data.genAddressStruct.genAddressList[idxToRemove] = data.genAddressStruct.genAddressList[curr_len - 1];\n            data.genAddressStruct.genAddressList.length--;\n        }else{\n            if (data.tagMetaDataStruct.pubAddress == 0x0){\n                revert(\"You are deleting the last auto-generated address, however, static address is not set. Please set static address before deleting this last auto-gen address, so your alias/tag will automatically resolve to it. Only either static address or auto-gen option can be on at any given time.\");\n            }\n            data.genAddressStruct.genAddressList.length--;\n            data.genAddressStruct.generateAddress = false;\n        }\n    }\n\n    function getGenAddressList(TNSTagData storage data) public view returns(address[]){\n        return data.genAddressStruct.genAddressList;\n    }\n\n    function getGenAddressListLen(TNSTagData storage data) public view returns(uint){\n        return data.genAddressStruct.genAddressList.length;\n    }\n\n    //random number generation off-chain\n    function useNextGenAddress(TNSTagData storage data, uint listIdx) public view returns(address){\n        return data.genAddressStruct.genAddressList[listIdx];\n    }\n\n\n    function setIsSecret(TNSTagData storage data, bool isSecret) public{\n        data.tagMetaDataStruct.isSecret = isSecret;\n    }\n    \n    function getIsSecret(TNSTagData storage data) public view returns(bool){\n        return data.tagMetaDataStruct.isSecret;\n    }\n\n    function setSecretUserList(TNSTagData storage data, bytes32[] keccakUsers, bytes32[] encUsers) public{\n        require((encUsers.length/2) <= 10, \"Cannot set more than 10 secret users\");\n        uint secret_users_len = data.tagMetaDataStruct.secretUsers.length;\n        uint max_len = secret_users_len > keccakUsers.length ? secret_users_len: keccakUsers.length;\n\n        //optimization\n        for(uint i = 0; i < (max_len == secret_users_len ? keccakUsers.length:secret_users_len); i++){\n            delete data.tagMetaDataStruct.secretUsersIdxMap[data.tagMetaDataStruct.secretUsers[i]];\n            data.tagMetaDataStruct.secretUsers[i] = keccakUsers[i];\n            data.tagMetaDataStruct.secretUsersIdxMap[keccakUsers[i]] = i + 1;\n        }\n\n        if (max_len == secret_users_len){\n            for(uint r = keccakUsers.length; r < max_len; r++){  //zero out\n                delete data.tagMetaDataStruct.secretUsersIdxMap[data.tagMetaDataStruct.secretUsers[r]];\n                delete data.tagMetaDataStruct.secretUsers[r];\n            }\n        }else{\n            for(uint new_idx = secret_users_len; new_idx < max_len; new_idx++){\n                data.tagMetaDataStruct.secretUsersIdxMap[keccakUsers[new_idx]] = r + 1;\n                uint last_idx = data.tagMetaDataStruct.secretUsers.length;\n                data.tagMetaDataStruct.secretUsers.length++;\n                data.tagMetaDataStruct.secretUsers[last_idx] = keccakUsers[new_idx];\n            }\n        }\n\t\tdata.tagMetaDataStruct.encUsers = encUsers;\n    }\n  \n    function getSecretUserList(TNSTagData storage data) public view returns(bytes32[]){\n\t\treturn data.tagMetaDataStruct.encUsers;\n    }\n\n    function appendSecretUser(TNSTagData storage data, bytes32 newKeccakUser, bytes32[] newEncUser) public{\n        require((data.tagMetaDataStruct.encUsers.length/2) < 10, \"Cannot set more than 10 secret users\");\n        require(newEncUser.length == 2, \"EncUser array length is not 2\");\n\t\tdata.tagMetaDataStruct.encUsers.push(newEncUser[0]);\n        data.tagMetaDataStruct.encUsers.push(newEncUser[1]);\n\n        data.tagMetaDataStruct.secretUsersIdxMap[newKeccakUser] = data.tagMetaDataStruct.secretUsers.length + 1;\n        uint last_idx = data.tagMetaDataStruct.secretUsers.length;\n        data.tagMetaDataStruct.secretUsers.length++;\n        data.tagMetaDataStruct.secretUsers[last_idx] = newKeccakUser;\n    }\n\n    function deleteSecretUser(TNSTagData storage data, bytes32 keccakUser, uint idxToRemove) public{\n        uint curr_len = data.tagMetaDataStruct.encUsers.length;\n        uint parsed_idx = idxToRemove * 2;\n        require(idxToRemove >= 0 && idxToRemove < (curr_len/2), \"Index ix out of bounds\");\n        require(curr_len >= 2, \"Array is empty, nothing to delete\");\n        require(data.tagMetaDataStruct.secretUsersIdxMap[keccakUser] != 0, \"Secret User doesn't exist\");\n\n        data.tagMetaDataStruct.encUsers[parsed_idx + 1] = data.tagMetaDataStruct.encUsers[curr_len - 1];\n        data.tagMetaDataStruct.encUsers[parsed_idx] = data.tagMetaDataStruct.encUsers[curr_len - 2];\n        data.tagMetaDataStruct.encUsers.length--;\n        data.tagMetaDataStruct.encUsers.length--;\n\n        uint secret_user_idx = data.tagMetaDataStruct.secretUsersIdxMap[keccakUser] - 1;\n        data.tagMetaDataStruct.secretUsers[secret_user_idx] = data.tagMetaDataStruct.secretUsers[data.tagMetaDataStruct.secretUsers.length - 1];\n        data.tagMetaDataStruct.secretUsersIdxMap[data.tagMetaDataStruct.secretUsers[secret_user_idx]] = secret_user_idx + 1;\n        data.tagMetaDataStruct.secretUsers.length--;\n        delete data.tagMetaDataStruct.secretUsersIdxMap[keccakUser];\n    }\n\n    function secretUserExists(TNSTagData storage data, bytes32 keccakUser) public view returns(bool){\n        return data.tagMetaDataStruct.secretUsersIdxMap[keccakUser] == 0 ? false:true;\n    }\n}\n",
  "sourcePath": "/Users/gurkisingh/TronProjects/TronNameService/contracts/TNSTag.sol",
  "compiler": {
    "name": "solc",
    "version": "0.4.24-develop.2018.8.28+commit.3ba0cdec.mod.Emscripten.clang"
  },
  "schemaVersion": "2.0.1",
  "updatedAt": "2019-01-05T02:28:59.573Z"
}